{
	"contracts/multisigWallet.sol": {
		"MultisigWallet": {
			"abi": [
				{
					"inputs": [
						{
							"internalType": "address[]",
							"name": "_owners",
							"type": "address[]"
						},
						{
							"internalType": "uint256",
							"name": "_threshold",
							"type": "uint256"
						}
					],
					"stateMutability": "nonpayable",
					"type": "constructor"
				},
				{
					"anonymous": false,
					"inputs": [
						{
							"indexed": false,
							"internalType": "bytes32",
							"name": "txHash",
							"type": "bytes32"
						}
					],
					"name": "ExecutionFailure",
					"type": "event"
				},
				{
					"anonymous": false,
					"inputs": [
						{
							"indexed": false,
							"internalType": "bytes32",
							"name": "txHash",
							"type": "bytes32"
						}
					],
					"name": "ExecutionSuccess",
					"type": "event"
				},
				{
					"inputs": [
						{
							"internalType": "bytes32",
							"name": "dataHash",
							"type": "bytes32"
						},
						{
							"internalType": "bytes",
							"name": "signatures",
							"type": "bytes"
						}
					],
					"name": "checkSignatures",
					"outputs": [],
					"stateMutability": "view",
					"type": "function"
				},
				{
					"inputs": [
						{
							"internalType": "address",
							"name": "to",
							"type": "address"
						},
						{
							"internalType": "uint256",
							"name": "value",
							"type": "uint256"
						},
						{
							"internalType": "bytes",
							"name": "data",
							"type": "bytes"
						},
						{
							"internalType": "uint256",
							"name": "_nonce",
							"type": "uint256"
						},
						{
							"internalType": "uint256",
							"name": "chainid",
							"type": "uint256"
						}
					],
					"name": "encodeTransactionData",
					"outputs": [
						{
							"internalType": "bytes32",
							"name": "",
							"type": "bytes32"
						}
					],
					"stateMutability": "pure",
					"type": "function"
				},
				{
					"inputs": [
						{
							"internalType": "address",
							"name": "to",
							"type": "address"
						},
						{
							"internalType": "uint256",
							"name": "value",
							"type": "uint256"
						},
						{
							"internalType": "bytes",
							"name": "data",
							"type": "bytes"
						},
						{
							"internalType": "bytes",
							"name": "signatures",
							"type": "bytes"
						}
					],
					"name": "execTransaction",
					"outputs": [
						{
							"internalType": "bool",
							"name": "success",
							"type": "bool"
						}
					],
					"stateMutability": "payable",
					"type": "function"
				},
				{
					"inputs": [
						{
							"internalType": "address",
							"name": "",
							"type": "address"
						}
					],
					"name": "isOwner",
					"outputs": [
						{
							"internalType": "bool",
							"name": "",
							"type": "bool"
						}
					],
					"stateMutability": "view",
					"type": "function"
				},
				{
					"inputs": [],
					"name": "nonce",
					"outputs": [
						{
							"internalType": "uint256",
							"name": "",
							"type": "uint256"
						}
					],
					"stateMutability": "view",
					"type": "function"
				},
				{
					"inputs": [],
					"name": "ownerCount",
					"outputs": [
						{
							"internalType": "uint256",
							"name": "",
							"type": "uint256"
						}
					],
					"stateMutability": "view",
					"type": "function"
				},
				{
					"inputs": [
						{
							"internalType": "uint256",
							"name": "",
							"type": "uint256"
						}
					],
					"name": "owners",
					"outputs": [
						{
							"internalType": "address",
							"name": "",
							"type": "address"
						}
					],
					"stateMutability": "view",
					"type": "function"
				},
				{
					"inputs": [],
					"name": "threshold",
					"outputs": [
						{
							"internalType": "uint256",
							"name": "",
							"type": "uint256"
						}
					],
					"stateMutability": "view",
					"type": "function"
				},
				{
					"stateMutability": "payable",
					"type": "receive"
				}
			],
			"devdoc": {
				"kind": "dev",
				"methods": {
					"checkSignatures(bytes32,bytes)": {
						"details": "检查签名和交易数据是否对应。如果是无效签名，交易会revert",
						"params": {
							"dataHash": "交易数据哈希",
							"signatures": "几个多签签名打包在一起"
						}
					},
					"encodeTransactionData(address,uint256,bytes,uint256,uint256)": {
						"details": "编码交易数据",
						"params": {
							"_nonce": "交易的nonce.",
							"chainid": "链id",
							"data": "calldata",
							"to": "目标合约地址",
							"value": "msg.value，支付的以太坊"
						},
						"returns": {
							"_0": "交易哈希bytes."
						}
					},
					"execTransaction(address,uint256,bytes,bytes)": {
						"details": "在收集足够的多签签名后，执行交易",
						"params": {
							"data": "calldata",
							"signatures": "打包的签名，对应的多签地址由小到达，方便检查。 ({bytes32 r}{bytes32 s}{uint8 v}) (第一个多签的签名, 第二个多签的签名 ... )",
							"to": "目标合约地址",
							"value": "msg.value，支付的以太坊"
						}
					}
				},
				"version": 1
			},
			"evm": {
				"assembly": "    /* \"contracts/multisigWallet.sol\":142:5910  contract MultisigWallet {... */\n  mstore(0x40, 0x80)\n    /* \"contracts/multisigWallet.sol\":771:879  constructor(address[] memory _owners, uint256 _threshold) {... */\n  callvalue\n  dup1\n  iszero\n  tag_1\n  jumpi\n  0x00\n  dup1\n  revert\ntag_1:\n  pop\n  mload(0x40)\n  sub(codesize, bytecodeSize)\n  dup1\n  bytecodeSize\n  dup4\n  codecopy\n  dup2\n  dup2\n  add\n  0x40\n  mstore\n  dup2\n  add\n  swap1\n  tag_2\n  swap2\n  swap1\n  tag_3\n  jump\t// in\ntag_2:\n    /* \"contracts/multisigWallet.sol\":839:872  _setupOwners(_owners, _threshold) */\n  tag_6\n    /* \"contracts/multisigWallet.sol\":852:859  _owners */\n  dup3\n    /* \"contracts/multisigWallet.sol\":861:871  _threshold */\n  dup3\n    /* \"contracts/multisigWallet.sol\":839:851  _setupOwners */\n  shl(0x20, tag_7)\n    /* \"contracts/multisigWallet.sol\":839:872  _setupOwners(_owners, _threshold) */\n  0x20\n  shr\n  jump\t// in\ntag_6:\n    /* \"contracts/multisigWallet.sol\":771:879  constructor(address[] memory _owners, uint256 _threshold) {... */\n  pop\n  pop\n    /* \"contracts/multisigWallet.sol\":142:5910  contract MultisigWallet {... */\n  jump(tag_8)\n    /* \"contracts/multisigWallet.sol\":1079:1935  function _setupOwners(address[] memory _owners, uint256 _threshold)... */\ntag_7:\n    /* \"contracts/multisigWallet.sol\":1238:1239  0 */\n  0x00\n    /* \"contracts/multisigWallet.sol\":1225:1234  threshold */\n  sload(0x03)\n    /* \"contracts/multisigWallet.sol\":1225:1239  threshold == 0 */\n  eq\n    /* \"contracts/multisigWallet.sol\":1217:1247  require(threshold == 0, \"001\") */\n  tag_10\n  jumpi\n  mload(0x40)\n  0x08c379a000000000000000000000000000000000000000000000000000000000\n  dup2\n  mstore\n  0x04\n  add\n  tag_11\n  swap1\n  tag_12\n  jump\t// in\ntag_11:\n  mload(0x40)\n  dup1\n  swap2\n  sub\n  swap1\n  revert\ntag_10:\n    /* \"contracts/multisigWallet.sol\":1329:1336  _owners */\n  dup2\n    /* \"contracts/multisigWallet.sol\":1329:1343  _owners.length */\n  mload\n    /* \"contracts/multisigWallet.sol\":1315:1325  _threshold */\n  dup2\n    /* \"contracts/multisigWallet.sol\":1315:1343  _threshold <= _owners.length */\n  gt\n  iszero\n    /* \"contracts/multisigWallet.sol\":1307:1351  require(_threshold <= _owners.length, \"002\") */\n  tag_13\n  jumpi\n  mload(0x40)\n  0x08c379a000000000000000000000000000000000000000000000000000000000\n  dup2\n  mstore\n  0x04\n  add\n  tag_14\n  swap1\n  tag_15\n  jump\t// in\ntag_14:\n  mload(0x40)\n  dup1\n  swap2\n  sub\n  swap1\n  revert\ntag_13:\n    /* \"contracts/multisigWallet.sol\":1423:1424  1 */\n  0x01\n    /* \"contracts/multisigWallet.sol\":1409:1419  _threshold */\n  dup2\n    /* \"contracts/multisigWallet.sol\":1409:1424  _threshold >= 1 */\n  lt\n  iszero\n    /* \"contracts/multisigWallet.sol\":1401:1432  require(_threshold >= 1, \"003\") */\n  tag_16\n  jumpi\n  mload(0x40)\n  0x08c379a000000000000000000000000000000000000000000000000000000000\n  dup2\n  mstore\n  0x04\n  add\n  tag_17\n  swap1\n  tag_18\n  jump\t// in\ntag_17:\n  mload(0x40)\n  dup1\n  swap2\n  sub\n  swap1\n  revert\ntag_16:\n    /* \"contracts/multisigWallet.sol\":1448:1457  uint256 i */\n  0x00\n    /* \"contracts/multisigWallet.sol\":1443:1860  for (uint256 i = 0; i < _owners.length; i++) {... */\ntag_19:\n    /* \"contracts/multisigWallet.sol\":1467:1474  _owners */\n  dup3\n    /* \"contracts/multisigWallet.sol\":1467:1481  _owners.length */\n  mload\n    /* \"contracts/multisigWallet.sol\":1463:1464  i */\n  dup2\n    /* \"contracts/multisigWallet.sol\":1463:1481  i < _owners.length */\n  lt\n    /* \"contracts/multisigWallet.sol\":1443:1860  for (uint256 i = 0; i < _owners.length; i++) {... */\n  iszero\n  tag_20\n  jumpi\n    /* \"contracts/multisigWallet.sol\":1502:1515  address owner */\n  0x00\n    /* \"contracts/multisigWallet.sol\":1518:1525  _owners */\n  dup4\n    /* \"contracts/multisigWallet.sol\":1526:1527  i */\n  dup3\n    /* \"contracts/multisigWallet.sol\":1518:1528  _owners[i] */\n  dup2\n  mload\n  dup2\n  lt\n  tag_22\n  jumpi\n  tag_23\n  tag_24\n  jump\t// in\ntag_23:\ntag_22:\n  0x20\n  mul\n  0x20\n  add\n  add\n  mload\n    /* \"contracts/multisigWallet.sol\":1502:1528  address owner = _owners[i] */\n  swap1\n  pop\n    /* \"contracts/multisigWallet.sol\":1658:1659  0 */\n  0x00\n    /* \"contracts/multisigWallet.sol\":1641:1660  owner != address(0) */\n  0xffffffffffffffffffffffffffffffffffffffff\n  and\n    /* \"contracts/multisigWallet.sol\":1641:1646  owner */\n  dup2\n    /* \"contracts/multisigWallet.sol\":1641:1660  owner != address(0) */\n  0xffffffffffffffffffffffffffffffffffffffff\n  and\n  eq\n  iszero\n    /* \"contracts/multisigWallet.sol\":1641:1706  owner != address(0) &&... */\n  dup1\n  iszero\n  tag_25\n  jumpi\n  pop\n    /* \"contracts/multisigWallet.sol\":1701:1705  this */\n  address\n    /* \"contracts/multisigWallet.sol\":1684:1706  owner != address(this) */\n  0xffffffffffffffffffffffffffffffffffffffff\n  and\n    /* \"contracts/multisigWallet.sol\":1684:1689  owner */\n  dup2\n    /* \"contracts/multisigWallet.sol\":1684:1706  owner != address(this) */\n  0xffffffffffffffffffffffffffffffffffffffff\n  and\n  eq\n  iszero\n    /* \"contracts/multisigWallet.sol\":1641:1706  owner != address(0) &&... */\ntag_25:\n    /* \"contracts/multisigWallet.sol\":1641:1745  owner != address(0) &&... */\n  dup1\n  iszero\n  tag_26\n  jumpi\n  pop\n    /* \"contracts/multisigWallet.sol\":1731:1738  isOwner */\n  0x01\n    /* \"contracts/multisigWallet.sol\":1731:1745  isOwner[owner] */\n  0x00\n    /* \"contracts/multisigWallet.sol\":1739:1744  owner */\n  dup3\n    /* \"contracts/multisigWallet.sol\":1731:1745  isOwner[owner] */\n  0xffffffffffffffffffffffffffffffffffffffff\n  and\n  0xffffffffffffffffffffffffffffffffffffffff\n  and\n  dup2\n  mstore\n  0x20\n  add\n  swap1\n  dup2\n  mstore\n  0x20\n  add\n  0x00\n  keccak256\n  0x00\n  swap1\n  sload\n  swap1\n  0x0100\n  exp\n  swap1\n  div\n  0xff\n  and\n    /* \"contracts/multisigWallet.sol\":1730:1745  !isOwner[owner] */\n  iszero\n    /* \"contracts/multisigWallet.sol\":1641:1745  owner != address(0) &&... */\ntag_26:\n    /* \"contracts/multisigWallet.sol\":1616:1782  require(... */\n  tag_27\n  jumpi\n  mload(0x40)\n  0x08c379a000000000000000000000000000000000000000000000000000000000\n  dup2\n  mstore\n  0x04\n  add\n  tag_28\n  swap1\n  tag_29\n  jump\t// in\ntag_28:\n  mload(0x40)\n  dup1\n  swap2\n  sub\n  swap1\n  revert\ntag_27:\n    /* \"contracts/multisigWallet.sol\":1796:1802  owners */\n  0x00\n    /* \"contracts/multisigWallet.sol\":1808:1813  owner */\n  dup2\n    /* \"contracts/multisigWallet.sol\":1796:1814  owners.push(owner) */\n  swap1\n  dup1\n  0x01\n  dup2\n  sload\n  add\n  dup1\n  dup3\n  sstore\n  dup1\n  swap2\n  pop\n  pop\n  0x01\n  swap1\n  sub\n  swap1\n  0x00\n  mstore\n  keccak256(0x00, 0x20)\n  add\n  0x00\n  swap1\n  swap2\n  swap1\n  swap2\n  swap1\n  swap2\n  0x0100\n  exp\n  dup2\n  sload\n  dup2\n  0xffffffffffffffffffffffffffffffffffffffff\n  mul\n  not\n  and\n  swap1\n  dup4\n  0xffffffffffffffffffffffffffffffffffffffff\n  and\n  mul\n  or\n  swap1\n  sstore\n  pop\n    /* \"contracts/multisigWallet.sol\":1845:1849  true */\n  0x01\n    /* \"contracts/multisigWallet.sol\":1828:1835  isOwner */\n  dup1\n    /* \"contracts/multisigWallet.sol\":1828:1842  isOwner[owner] */\n  0x00\n    /* \"contracts/multisigWallet.sol\":1836:1841  owner */\n  dup4\n    /* \"contracts/multisigWallet.sol\":1828:1842  isOwner[owner] */\n  0xffffffffffffffffffffffffffffffffffffffff\n  and\n  0xffffffffffffffffffffffffffffffffffffffff\n  and\n  dup2\n  mstore\n  0x20\n  add\n  swap1\n  dup2\n  mstore\n  0x20\n  add\n  0x00\n  keccak256\n  0x00\n    /* \"contracts/multisigWallet.sol\":1828:1849  isOwner[owner] = true */\n  0x0100\n  exp\n  dup2\n  sload\n  dup2\n  0xff\n  mul\n  not\n  and\n  swap1\n  dup4\n  iszero\n  iszero\n  mul\n  or\n  swap1\n  sstore\n  pop\n    /* \"contracts/multisigWallet.sol\":1488:1860  {... */\n  pop\n    /* \"contracts/multisigWallet.sol\":1483:1486  i++ */\n  dup1\n  dup1\n  tag_31\n  swap1\n  tag_32\n  jump\t// in\ntag_31:\n  swap2\n  pop\n  pop\n    /* \"contracts/multisigWallet.sol\":1443:1860  for (uint256 i = 0; i < _owners.length; i++) {... */\n  jump(tag_19)\ntag_20:\n  pop\n    /* \"contracts/multisigWallet.sol\":1882:1889  _owners */\n  dup2\n    /* \"contracts/multisigWallet.sol\":1882:1896  _owners.length */\n  mload\n    /* \"contracts/multisigWallet.sol\":1869:1879  ownerCount */\n  0x02\n    /* \"contracts/multisigWallet.sol\":1869:1896  ownerCount = _owners.length */\n  dup2\n  swap1\n  sstore\n  pop\n    /* \"contracts/multisigWallet.sol\":1918:1928  _threshold */\n  dup1\n    /* \"contracts/multisigWallet.sol\":1906:1915  threshold */\n  0x03\n    /* \"contracts/multisigWallet.sol\":1906:1928  threshold = _threshold */\n  dup2\n  swap1\n  sstore\n  pop\n    /* \"contracts/multisigWallet.sol\":1079:1935  function _setupOwners(address[] memory _owners, uint256 _threshold)... */\n  pop\n  pop\n  jump\t// out\n    /* \"#utility.yul\":24:768   */\ntag_34:\n    /* \"#utility.yul\":131:136   */\n  0x00\n    /* \"#utility.yul\":156:237   */\n  tag_36\n    /* \"#utility.yul\":172:236   */\n  tag_37\n    /* \"#utility.yul\":229:235   */\n  dup5\n    /* \"#utility.yul\":172:236   */\n  tag_38\n  jump\t// in\ntag_37:\n    /* \"#utility.yul\":156:237   */\n  tag_39\n  jump\t// in\ntag_36:\n    /* \"#utility.yul\":147:237   */\n  swap1\n  pop\n    /* \"#utility.yul\":257:262   */\n  dup1\n    /* \"#utility.yul\":286:292   */\n  dup4\n    /* \"#utility.yul\":279:284   */\n  dup3\n    /* \"#utility.yul\":272:293   */\n  mstore\n    /* \"#utility.yul\":320:324   */\n  0x20\n    /* \"#utility.yul\":313:318   */\n  dup3\n    /* \"#utility.yul\":309:325   */\n  add\n    /* \"#utility.yul\":302:325   */\n  swap1\n  pop\n    /* \"#utility.yul\":346:352   */\n  dup3\n    /* \"#utility.yul\":396:399   */\n  dup6\n    /* \"#utility.yul\":388:392   */\n  0x20\n    /* \"#utility.yul\":380:386   */\n  dup7\n    /* \"#utility.yul\":376:393   */\n  mul\n    /* \"#utility.yul\":371:374   */\n  dup3\n    /* \"#utility.yul\":367:394   */\n  add\n    /* \"#utility.yul\":364:400   */\n  gt\n    /* \"#utility.yul\":361:504   */\n  iszero\n  tag_40\n  jumpi\n    /* \"#utility.yul\":415:494   */\n  tag_41\n  tag_42\n  jump\t// in\ntag_41:\n    /* \"#utility.yul\":361:504   */\ntag_40:\n    /* \"#utility.yul\":528:529   */\n  0x00\n    /* \"#utility.yul\":513:762   */\ntag_43:\n    /* \"#utility.yul\":538:544   */\n  dup6\n    /* \"#utility.yul\":535:536   */\n  dup2\n    /* \"#utility.yul\":532:545   */\n  lt\n    /* \"#utility.yul\":513:762   */\n  iszero\n  tag_45\n  jumpi\n    /* \"#utility.yul\":606:609   */\n  dup2\n    /* \"#utility.yul\":635:683   */\n  tag_46\n    /* \"#utility.yul\":679:682   */\n  dup9\n    /* \"#utility.yul\":667:677   */\n  dup3\n    /* \"#utility.yul\":635:683   */\n  tag_47\n  jump\t// in\ntag_46:\n    /* \"#utility.yul\":630:633   */\n  dup5\n    /* \"#utility.yul\":623:684   */\n  mstore\n    /* \"#utility.yul\":713:717   */\n  0x20\n    /* \"#utility.yul\":708:711   */\n  dup5\n    /* \"#utility.yul\":704:718   */\n  add\n    /* \"#utility.yul\":697:718   */\n  swap4\n  pop\n    /* \"#utility.yul\":747:751   */\n  0x20\n    /* \"#utility.yul\":742:745   */\n  dup4\n    /* \"#utility.yul\":738:752   */\n  add\n    /* \"#utility.yul\":731:752   */\n  swap3\n  pop\n    /* \"#utility.yul\":573:762   */\n  pop\n    /* \"#utility.yul\":560:561   */\n  0x01\n    /* \"#utility.yul\":557:558   */\n  dup2\n    /* \"#utility.yul\":553:562   */\n  add\n    /* \"#utility.yul\":548:562   */\n  swap1\n  pop\n    /* \"#utility.yul\":513:762   */\n  jump(tag_43)\ntag_45:\n    /* \"#utility.yul\":517:531   */\n  pop\n    /* \"#utility.yul\":137:768   */\n  pop\n  pop\n    /* \"#utility.yul\":24:768   */\n  swap4\n  swap3\n  pop\n  pop\n  pop\n  jump\t// out\n    /* \"#utility.yul\":774:917   */\ntag_47:\n    /* \"#utility.yul\":831:836   */\n  0x00\n    /* \"#utility.yul\":862:868   */\n  dup2\n    /* \"#utility.yul\":856:869   */\n  mload\n    /* \"#utility.yul\":847:869   */\n  swap1\n  pop\n    /* \"#utility.yul\":878:911   */\n  tag_49\n    /* \"#utility.yul\":905:910   */\n  dup2\n    /* \"#utility.yul\":878:911   */\n  tag_50\n  jump\t// in\ntag_49:\n    /* \"#utility.yul\":774:917   */\n  swap3\n  swap2\n  pop\n  pop\n  jump\t// out\n    /* \"#utility.yul\":940:1325   */\ntag_51:\n    /* \"#utility.yul\":1022:1027   */\n  0x00\n    /* \"#utility.yul\":1071:1074   */\n  dup3\n    /* \"#utility.yul\":1064:1068   */\n  0x1f\n    /* \"#utility.yul\":1056:1062   */\n  dup4\n    /* \"#utility.yul\":1052:1069   */\n  add\n    /* \"#utility.yul\":1048:1075   */\n  slt\n    /* \"#utility.yul\":1038:1160   */\n  tag_53\n  jumpi\n    /* \"#utility.yul\":1079:1158   */\n  tag_54\n  tag_55\n  jump\t// in\ntag_54:\n    /* \"#utility.yul\":1038:1160   */\ntag_53:\n    /* \"#utility.yul\":1189:1195   */\n  dup2\n    /* \"#utility.yul\":1183:1196   */\n  mload\n    /* \"#utility.yul\":1214:1319   */\n  tag_56\n    /* \"#utility.yul\":1315:1318   */\n  dup5\n    /* \"#utility.yul\":1307:1313   */\n  dup3\n    /* \"#utility.yul\":1300:1304   */\n  0x20\n    /* \"#utility.yul\":1292:1298   */\n  dup7\n    /* \"#utility.yul\":1288:1305   */\n  add\n    /* \"#utility.yul\":1214:1319   */\n  tag_34\n  jump\t// in\ntag_56:\n    /* \"#utility.yul\":1205:1319   */\n  swap2\n  pop\n    /* \"#utility.yul\":1028:1325   */\n  pop\n    /* \"#utility.yul\":940:1325   */\n  swap3\n  swap2\n  pop\n  pop\n  jump\t// out\n    /* \"#utility.yul\":1331:1474   */\ntag_57:\n    /* \"#utility.yul\":1388:1393   */\n  0x00\n    /* \"#utility.yul\":1419:1425   */\n  dup2\n    /* \"#utility.yul\":1413:1426   */\n  mload\n    /* \"#utility.yul\":1404:1426   */\n  swap1\n  pop\n    /* \"#utility.yul\":1435:1468   */\n  tag_59\n    /* \"#utility.yul\":1462:1467   */\n  dup2\n    /* \"#utility.yul\":1435:1468   */\n  tag_60\n  jump\t// in\ntag_59:\n    /* \"#utility.yul\":1331:1474   */\n  swap3\n  swap2\n  pop\n  pop\n  jump\t// out\n    /* \"#utility.yul\":1480:2190   */\ntag_3:\n    /* \"#utility.yul\":1584:1590   */\n  0x00\n    /* \"#utility.yul\":1592:1598   */\n  dup1\n    /* \"#utility.yul\":1641:1643   */\n  0x40\n    /* \"#utility.yul\":1629:1638   */\n  dup4\n    /* \"#utility.yul\":1620:1627   */\n  dup6\n    /* \"#utility.yul\":1616:1639   */\n  sub\n    /* \"#utility.yul\":1612:1644   */\n  slt\n    /* \"#utility.yul\":1609:1728   */\n  iszero\n  tag_62\n  jumpi\n    /* \"#utility.yul\":1647:1726   */\n  tag_63\n  tag_64\n  jump\t// in\ntag_63:\n    /* \"#utility.yul\":1609:1728   */\ntag_62:\n    /* \"#utility.yul\":1788:1789   */\n  0x00\n    /* \"#utility.yul\":1777:1786   */\n  dup4\n    /* \"#utility.yul\":1773:1790   */\n  add\n    /* \"#utility.yul\":1767:1791   */\n  mload\n    /* \"#utility.yul\":1818:1836   */\n  0xffffffffffffffff\n    /* \"#utility.yul\":1810:1816   */\n  dup2\n    /* \"#utility.yul\":1807:1837   */\n  gt\n    /* \"#utility.yul\":1804:1921   */\n  iszero\n  tag_65\n  jumpi\n    /* \"#utility.yul\":1840:1919   */\n  tag_66\n  tag_67\n  jump\t// in\ntag_66:\n    /* \"#utility.yul\":1804:1921   */\ntag_65:\n    /* \"#utility.yul\":1945:2034   */\n  tag_68\n    /* \"#utility.yul\":2026:2033   */\n  dup6\n    /* \"#utility.yul\":2017:2023   */\n  dup3\n    /* \"#utility.yul\":2006:2015   */\n  dup7\n    /* \"#utility.yul\":2002:2024   */\n  add\n    /* \"#utility.yul\":1945:2034   */\n  tag_51\n  jump\t// in\ntag_68:\n    /* \"#utility.yul\":1935:2034   */\n  swap3\n  pop\n    /* \"#utility.yul\":1738:2044   */\n  pop\n    /* \"#utility.yul\":2083:2085   */\n  0x20\n    /* \"#utility.yul\":2109:2173   */\n  tag_69\n    /* \"#utility.yul\":2165:2172   */\n  dup6\n    /* \"#utility.yul\":2156:2162   */\n  dup3\n    /* \"#utility.yul\":2145:2154   */\n  dup7\n    /* \"#utility.yul\":2141:2163   */\n  add\n    /* \"#utility.yul\":2109:2173   */\n  tag_57\n  jump\t// in\ntag_69:\n    /* \"#utility.yul\":2099:2173   */\n  swap2\n  pop\n    /* \"#utility.yul\":2054:2183   */\n  pop\n    /* \"#utility.yul\":1480:2190   */\n  swap3\n  pop\n  swap3\n  swap1\n  pop\n  jump\t// out\n    /* \"#utility.yul\":2196:2561   */\ntag_70:\n    /* \"#utility.yul\":2338:2341   */\n  0x00\n    /* \"#utility.yul\":2359:2425   */\n  tag_72\n    /* \"#utility.yul\":2423:2424   */\n  0x03\n    /* \"#utility.yul\":2418:2421   */\n  dup4\n    /* \"#utility.yul\":2359:2425   */\n  tag_73\n  jump\t// in\ntag_72:\n    /* \"#utility.yul\":2352:2425   */\n  swap2\n  pop\n    /* \"#utility.yul\":2434:2527   */\n  tag_74\n    /* \"#utility.yul\":2523:2526   */\n  dup3\n    /* \"#utility.yul\":2434:2527   */\n  tag_75\n  jump\t// in\ntag_74:\n    /* \"#utility.yul\":2552:2554   */\n  0x20\n    /* \"#utility.yul\":2547:2550   */\n  dup3\n    /* \"#utility.yul\":2543:2555   */\n  add\n    /* \"#utility.yul\":2536:2555   */\n  swap1\n  pop\n    /* \"#utility.yul\":2196:2561   */\n  swap2\n  swap1\n  pop\n  jump\t// out\n    /* \"#utility.yul\":2567:2932   */\ntag_76:\n    /* \"#utility.yul\":2709:2712   */\n  0x00\n    /* \"#utility.yul\":2730:2796   */\n  tag_78\n    /* \"#utility.yul\":2794:2795   */\n  0x03\n    /* \"#utility.yul\":2789:2792   */\n  dup4\n    /* \"#utility.yul\":2730:2796   */\n  tag_73\n  jump\t// in\ntag_78:\n    /* \"#utility.yul\":2723:2796   */\n  swap2\n  pop\n    /* \"#utility.yul\":2805:2898   */\n  tag_79\n    /* \"#utility.yul\":2894:2897   */\n  dup3\n    /* \"#utility.yul\":2805:2898   */\n  tag_80\n  jump\t// in\ntag_79:\n    /* \"#utility.yul\":2923:2925   */\n  0x20\n    /* \"#utility.yul\":2918:2921   */\n  dup3\n    /* \"#utility.yul\":2914:2926   */\n  add\n    /* \"#utility.yul\":2907:2926   */\n  swap1\n  pop\n    /* \"#utility.yul\":2567:2932   */\n  swap2\n  swap1\n  pop\n  jump\t// out\n    /* \"#utility.yul\":2938:3303   */\ntag_81:\n    /* \"#utility.yul\":3080:3083   */\n  0x00\n    /* \"#utility.yul\":3101:3167   */\n  tag_83\n    /* \"#utility.yul\":3165:3166   */\n  0x03\n    /* \"#utility.yul\":3160:3163   */\n  dup4\n    /* \"#utility.yul\":3101:3167   */\n  tag_73\n  jump\t// in\ntag_83:\n    /* \"#utility.yul\":3094:3167   */\n  swap2\n  pop\n    /* \"#utility.yul\":3176:3269   */\n  tag_84\n    /* \"#utility.yul\":3265:3268   */\n  dup3\n    /* \"#utility.yul\":3176:3269   */\n  tag_85\n  jump\t// in\ntag_84:\n    /* \"#utility.yul\":3294:3296   */\n  0x20\n    /* \"#utility.yul\":3289:3292   */\n  dup3\n    /* \"#utility.yul\":3285:3297   */\n  add\n    /* \"#utility.yul\":3278:3297   */\n  swap1\n  pop\n    /* \"#utility.yul\":2938:3303   */\n  swap2\n  swap1\n  pop\n  jump\t// out\n    /* \"#utility.yul\":3309:3674   */\ntag_86:\n    /* \"#utility.yul\":3451:3454   */\n  0x00\n    /* \"#utility.yul\":3472:3538   */\n  tag_88\n    /* \"#utility.yul\":3536:3537   */\n  0x03\n    /* \"#utility.yul\":3531:3534   */\n  dup4\n    /* \"#utility.yul\":3472:3538   */\n  tag_73\n  jump\t// in\ntag_88:\n    /* \"#utility.yul\":3465:3538   */\n  swap2\n  pop\n    /* \"#utility.yul\":3547:3640   */\n  tag_89\n    /* \"#utility.yul\":3636:3639   */\n  dup3\n    /* \"#utility.yul\":3547:3640   */\n  tag_90\n  jump\t// in\ntag_89:\n    /* \"#utility.yul\":3665:3667   */\n  0x20\n    /* \"#utility.yul\":3660:3663   */\n  dup3\n    /* \"#utility.yul\":3656:3668   */\n  add\n    /* \"#utility.yul\":3649:3668   */\n  swap1\n  pop\n    /* \"#utility.yul\":3309:3674   */\n  swap2\n  swap1\n  pop\n  jump\t// out\n    /* \"#utility.yul\":3680:4099   */\ntag_15:\n    /* \"#utility.yul\":3846:3850   */\n  0x00\n    /* \"#utility.yul\":3884:3886   */\n  0x20\n    /* \"#utility.yul\":3873:3882   */\n  dup3\n    /* \"#utility.yul\":3869:3887   */\n  add\n    /* \"#utility.yul\":3861:3887   */\n  swap1\n  pop\n    /* \"#utility.yul\":3933:3942   */\n  dup2\n    /* \"#utility.yul\":3927:3931   */\n  dup2\n    /* \"#utility.yul\":3923:3943   */\n  sub\n    /* \"#utility.yul\":3919:3920   */\n  0x00\n    /* \"#utility.yul\":3908:3917   */\n  dup4\n    /* \"#utility.yul\":3904:3921   */\n  add\n    /* \"#utility.yul\":3897:3944   */\n  mstore\n    /* \"#utility.yul\":3961:4092   */\n  tag_92\n    /* \"#utility.yul\":4087:4091   */\n  dup2\n    /* \"#utility.yul\":3961:4092   */\n  tag_70\n  jump\t// in\ntag_92:\n    /* \"#utility.yul\":3953:4092   */\n  swap1\n  pop\n    /* \"#utility.yul\":3680:4099   */\n  swap2\n  swap1\n  pop\n  jump\t// out\n    /* \"#utility.yul\":4105:4524   */\ntag_29:\n    /* \"#utility.yul\":4271:4275   */\n  0x00\n    /* \"#utility.yul\":4309:4311   */\n  0x20\n    /* \"#utility.yul\":4298:4307   */\n  dup3\n    /* \"#utility.yul\":4294:4312   */\n  add\n    /* \"#utility.yul\":4286:4312   */\n  swap1\n  pop\n    /* \"#utility.yul\":4358:4367   */\n  dup2\n    /* \"#utility.yul\":4352:4356   */\n  dup2\n    /* \"#utility.yul\":4348:4368   */\n  sub\n    /* \"#utility.yul\":4344:4345   */\n  0x00\n    /* \"#utility.yul\":4333:4342   */\n  dup4\n    /* \"#utility.yul\":4329:4346   */\n  add\n    /* \"#utility.yul\":4322:4369   */\n  mstore\n    /* \"#utility.yul\":4386:4517   */\n  tag_94\n    /* \"#utility.yul\":4512:4516   */\n  dup2\n    /* \"#utility.yul\":4386:4517   */\n  tag_76\n  jump\t// in\ntag_94:\n    /* \"#utility.yul\":4378:4517   */\n  swap1\n  pop\n    /* \"#utility.yul\":4105:4524   */\n  swap2\n  swap1\n  pop\n  jump\t// out\n    /* \"#utility.yul\":4530:4949   */\ntag_12:\n    /* \"#utility.yul\":4696:4700   */\n  0x00\n    /* \"#utility.yul\":4734:4736   */\n  0x20\n    /* \"#utility.yul\":4723:4732   */\n  dup3\n    /* \"#utility.yul\":4719:4737   */\n  add\n    /* \"#utility.yul\":4711:4737   */\n  swap1\n  pop\n    /* \"#utility.yul\":4783:4792   */\n  dup2\n    /* \"#utility.yul\":4777:4781   */\n  dup2\n    /* \"#utility.yul\":4773:4793   */\n  sub\n    /* \"#utility.yul\":4769:4770   */\n  0x00\n    /* \"#utility.yul\":4758:4767   */\n  dup4\n    /* \"#utility.yul\":4754:4771   */\n  add\n    /* \"#utility.yul\":4747:4794   */\n  mstore\n    /* \"#utility.yul\":4811:4942   */\n  tag_96\n    /* \"#utility.yul\":4937:4941   */\n  dup2\n    /* \"#utility.yul\":4811:4942   */\n  tag_81\n  jump\t// in\ntag_96:\n    /* \"#utility.yul\":4803:4942   */\n  swap1\n  pop\n    /* \"#utility.yul\":4530:4949   */\n  swap2\n  swap1\n  pop\n  jump\t// out\n    /* \"#utility.yul\":4955:5374   */\ntag_18:\n    /* \"#utility.yul\":5121:5125   */\n  0x00\n    /* \"#utility.yul\":5159:5161   */\n  0x20\n    /* \"#utility.yul\":5148:5157   */\n  dup3\n    /* \"#utility.yul\":5144:5162   */\n  add\n    /* \"#utility.yul\":5136:5162   */\n  swap1\n  pop\n    /* \"#utility.yul\":5208:5217   */\n  dup2\n    /* \"#utility.yul\":5202:5206   */\n  dup2\n    /* \"#utility.yul\":5198:5218   */\n  sub\n    /* \"#utility.yul\":5194:5195   */\n  0x00\n    /* \"#utility.yul\":5183:5192   */\n  dup4\n    /* \"#utility.yul\":5179:5196   */\n  add\n    /* \"#utility.yul\":5172:5219   */\n  mstore\n    /* \"#utility.yul\":5236:5367   */\n  tag_98\n    /* \"#utility.yul\":5362:5366   */\n  dup2\n    /* \"#utility.yul\":5236:5367   */\n  tag_86\n  jump\t// in\ntag_98:\n    /* \"#utility.yul\":5228:5367   */\n  swap1\n  pop\n    /* \"#utility.yul\":4955:5374   */\n  swap2\n  swap1\n  pop\n  jump\t// out\n    /* \"#utility.yul\":5380:5509   */\ntag_39:\n    /* \"#utility.yul\":5414:5420   */\n  0x00\n    /* \"#utility.yul\":5441:5461   */\n  tag_100\n  tag_101\n  jump\t// in\ntag_100:\n    /* \"#utility.yul\":5431:5461   */\n  swap1\n  pop\n    /* \"#utility.yul\":5470:5503   */\n  tag_102\n    /* \"#utility.yul\":5498:5502   */\n  dup3\n    /* \"#utility.yul\":5490:5496   */\n  dup3\n    /* \"#utility.yul\":5470:5503   */\n  tag_103\n  jump\t// in\ntag_102:\n    /* \"#utility.yul\":5380:5509   */\n  swap2\n  swap1\n  pop\n  jump\t// out\n    /* \"#utility.yul\":5515:5590   */\ntag_101:\n    /* \"#utility.yul\":5548:5554   */\n  0x00\n    /* \"#utility.yul\":5581:5583   */\n  0x40\n    /* \"#utility.yul\":5575:5584   */\n  mload\n    /* \"#utility.yul\":5565:5584   */\n  swap1\n  pop\n    /* \"#utility.yul\":5515:5590   */\n  swap1\n  jump\t// out\n    /* \"#utility.yul\":5596:5907   */\ntag_38:\n    /* \"#utility.yul\":5673:5677   */\n  0x00\n    /* \"#utility.yul\":5763:5781   */\n  0xffffffffffffffff\n    /* \"#utility.yul\":5755:5761   */\n  dup3\n    /* \"#utility.yul\":5752:5782   */\n  gt\n    /* \"#utility.yul\":5749:5805   */\n  iszero\n  tag_106\n  jumpi\n    /* \"#utility.yul\":5785:5803   */\n  tag_107\n  tag_108\n  jump\t// in\ntag_107:\n    /* \"#utility.yul\":5749:5805   */\ntag_106:\n    /* \"#utility.yul\":5835:5839   */\n  0x20\n    /* \"#utility.yul\":5827:5833   */\n  dup3\n    /* \"#utility.yul\":5823:5840   */\n  mul\n    /* \"#utility.yul\":5815:5840   */\n  swap1\n  pop\n    /* \"#utility.yul\":5895:5899   */\n  0x20\n    /* \"#utility.yul\":5889:5893   */\n  dup2\n    /* \"#utility.yul\":5885:5900   */\n  add\n    /* \"#utility.yul\":5877:5900   */\n  swap1\n  pop\n    /* \"#utility.yul\":5596:5907   */\n  swap2\n  swap1\n  pop\n  jump\t// out\n    /* \"#utility.yul\":5913:6082   */\ntag_73:\n    /* \"#utility.yul\":5997:6008   */\n  0x00\n    /* \"#utility.yul\":6031:6037   */\n  dup3\n    /* \"#utility.yul\":6026:6029   */\n  dup3\n    /* \"#utility.yul\":6019:6038   */\n  mstore\n    /* \"#utility.yul\":6071:6075   */\n  0x20\n    /* \"#utility.yul\":6066:6069   */\n  dup3\n    /* \"#utility.yul\":6062:6076   */\n  add\n    /* \"#utility.yul\":6047:6076   */\n  swap1\n  pop\n    /* \"#utility.yul\":5913:6082   */\n  swap3\n  swap2\n  pop\n  pop\n  jump\t// out\n    /* \"#utility.yul\":6088:6184   */\ntag_110:\n    /* \"#utility.yul\":6125:6132   */\n  0x00\n    /* \"#utility.yul\":6154:6178   */\n  tag_112\n    /* \"#utility.yul\":6172:6177   */\n  dup3\n    /* \"#utility.yul\":6154:6178   */\n  tag_113\n  jump\t// in\ntag_112:\n    /* \"#utility.yul\":6143:6178   */\n  swap1\n  pop\n    /* \"#utility.yul\":6088:6184   */\n  swap2\n  swap1\n  pop\n  jump\t// out\n    /* \"#utility.yul\":6190:6316   */\ntag_113:\n    /* \"#utility.yul\":6227:6234   */\n  0x00\n    /* \"#utility.yul\":6267:6309   */\n  0xffffffffffffffffffffffffffffffffffffffff\n    /* \"#utility.yul\":6260:6265   */\n  dup3\n    /* \"#utility.yul\":6256:6310   */\n  and\n    /* \"#utility.yul\":6245:6310   */\n  swap1\n  pop\n    /* \"#utility.yul\":6190:6316   */\n  swap2\n  swap1\n  pop\n  jump\t// out\n    /* \"#utility.yul\":6322:6399   */\ntag_115:\n    /* \"#utility.yul\":6359:6366   */\n  0x00\n    /* \"#utility.yul\":6388:6393   */\n  dup2\n    /* \"#utility.yul\":6377:6393   */\n  swap1\n  pop\n    /* \"#utility.yul\":6322:6399   */\n  swap2\n  swap1\n  pop\n  jump\t// out\n    /* \"#utility.yul\":6405:6686   */\ntag_103:\n    /* \"#utility.yul\":6488:6515   */\n  tag_118\n    /* \"#utility.yul\":6510:6514   */\n  dup3\n    /* \"#utility.yul\":6488:6515   */\n  tag_119\n  jump\t// in\ntag_118:\n    /* \"#utility.yul\":6480:6486   */\n  dup2\n    /* \"#utility.yul\":6476:6516   */\n  add\n    /* \"#utility.yul\":6618:6624   */\n  dup2\n    /* \"#utility.yul\":6606:6616   */\n  dup2\n    /* \"#utility.yul\":6603:6625   */\n  lt\n    /* \"#utility.yul\":6582:6600   */\n  0xffffffffffffffff\n    /* \"#utility.yul\":6570:6580   */\n  dup3\n    /* \"#utility.yul\":6567:6601   */\n  gt\n    /* \"#utility.yul\":6564:6626   */\n  or\n    /* \"#utility.yul\":6561:6649   */\n  iszero\n  tag_120\n  jumpi\n    /* \"#utility.yul\":6629:6647   */\n  tag_121\n  tag_108\n  jump\t// in\ntag_121:\n    /* \"#utility.yul\":6561:6649   */\ntag_120:\n    /* \"#utility.yul\":6669:6679   */\n  dup1\n    /* \"#utility.yul\":6665:6667   */\n  0x40\n    /* \"#utility.yul\":6658:6680   */\n  mstore\n    /* \"#utility.yul\":6448:6686   */\n  pop\n    /* \"#utility.yul\":6405:6686   */\n  pop\n  pop\n  jump\t// out\n    /* \"#utility.yul\":6692:6925   */\ntag_32:\n    /* \"#utility.yul\":6731:6734   */\n  0x00\n    /* \"#utility.yul\":6754:6778   */\n  tag_123\n    /* \"#utility.yul\":6772:6777   */\n  dup3\n    /* \"#utility.yul\":6754:6778   */\n  tag_115\n  jump\t// in\ntag_123:\n    /* \"#utility.yul\":6745:6778   */\n  swap2\n  pop\n    /* \"#utility.yul\":6800:6866   */\n  0xffffffffffffffffffffffffffffffffffffffffffffffffffffffffffffffff\n    /* \"#utility.yul\":6793:6798   */\n  dup3\n    /* \"#utility.yul\":6790:6867   */\n  eq\n    /* \"#utility.yul\":6787:6890   */\n  iszero\n  tag_124\n  jumpi\n    /* \"#utility.yul\":6870:6888   */\n  tag_125\n  tag_126\n  jump\t// in\ntag_125:\n    /* \"#utility.yul\":6787:6890   */\ntag_124:\n    /* \"#utility.yul\":6917:6918   */\n  0x01\n    /* \"#utility.yul\":6910:6915   */\n  dup3\n    /* \"#utility.yul\":6906:6919   */\n  add\n    /* \"#utility.yul\":6899:6919   */\n  swap1\n  pop\n    /* \"#utility.yul\":6692:6925   */\n  swap2\n  swap1\n  pop\n  jump\t// out\n    /* \"#utility.yul\":6931:7111   */\ntag_126:\n    /* \"#utility.yul\":6979:7056   */\n  0x4e487b7100000000000000000000000000000000000000000000000000000000\n    /* \"#utility.yul\":6976:6977   */\n  0x00\n    /* \"#utility.yul\":6969:7057   */\n  mstore\n    /* \"#utility.yul\":7076:7080   */\n  0x11\n    /* \"#utility.yul\":7073:7074   */\n  0x04\n    /* \"#utility.yul\":7066:7081   */\n  mstore\n    /* \"#utility.yul\":7100:7104   */\n  0x24\n    /* \"#utility.yul\":7097:7098   */\n  0x00\n    /* \"#utility.yul\":7090:7105   */\n  revert\n    /* \"#utility.yul\":7117:7297   */\ntag_24:\n    /* \"#utility.yul\":7165:7242   */\n  0x4e487b7100000000000000000000000000000000000000000000000000000000\n    /* \"#utility.yul\":7162:7163   */\n  0x00\n    /* \"#utility.yul\":7155:7243   */\n  mstore\n    /* \"#utility.yul\":7262:7266   */\n  0x32\n    /* \"#utility.yul\":7259:7260   */\n  0x04\n    /* \"#utility.yul\":7252:7267   */\n  mstore\n    /* \"#utility.yul\":7286:7290   */\n  0x24\n    /* \"#utility.yul\":7283:7284   */\n  0x00\n    /* \"#utility.yul\":7276:7291   */\n  revert\n    /* \"#utility.yul\":7303:7483   */\ntag_108:\n    /* \"#utility.yul\":7351:7428   */\n  0x4e487b7100000000000000000000000000000000000000000000000000000000\n    /* \"#utility.yul\":7348:7349   */\n  0x00\n    /* \"#utility.yul\":7341:7429   */\n  mstore\n    /* \"#utility.yul\":7448:7452   */\n  0x41\n    /* \"#utility.yul\":7445:7446   */\n  0x04\n    /* \"#utility.yul\":7438:7453   */\n  mstore\n    /* \"#utility.yul\":7472:7476   */\n  0x24\n    /* \"#utility.yul\":7469:7470   */\n  0x00\n    /* \"#utility.yul\":7462:7477   */\n  revert\n    /* \"#utility.yul\":7489:7606   */\ntag_55:\n    /* \"#utility.yul\":7598:7599   */\n  0x00\n    /* \"#utility.yul\":7595:7596   */\n  dup1\n    /* \"#utility.yul\":7588:7600   */\n  revert\n    /* \"#utility.yul\":7612:7729   */\ntag_42:\n    /* \"#utility.yul\":7721:7722   */\n  0x00\n    /* \"#utility.yul\":7718:7719   */\n  dup1\n    /* \"#utility.yul\":7711:7723   */\n  revert\n    /* \"#utility.yul\":7735:7852   */\ntag_67:\n    /* \"#utility.yul\":7844:7845   */\n  0x00\n    /* \"#utility.yul\":7841:7842   */\n  dup1\n    /* \"#utility.yul\":7834:7846   */\n  revert\n    /* \"#utility.yul\":7858:7975   */\ntag_64:\n    /* \"#utility.yul\":7967:7968   */\n  0x00\n    /* \"#utility.yul\":7964:7965   */\n  dup1\n    /* \"#utility.yul\":7957:7969   */\n  revert\n    /* \"#utility.yul\":7981:8083   */\ntag_119:\n    /* \"#utility.yul\":8022:8028   */\n  0x00\n    /* \"#utility.yul\":8073:8075   */\n  0x1f\n    /* \"#utility.yul\":8069:8076   */\n  not\n    /* \"#utility.yul\":8064:8066   */\n  0x1f\n    /* \"#utility.yul\":8057:8062   */\n  dup4\n    /* \"#utility.yul\":8053:8067   */\n  add\n    /* \"#utility.yul\":8049:8077   */\n  and\n    /* \"#utility.yul\":8039:8077   */\n  swap1\n  pop\n    /* \"#utility.yul\":7981:8083   */\n  swap2\n  swap1\n  pop\n  jump\t// out\n    /* \"#utility.yul\":8089:8242   */\ntag_75:\n    /* \"#utility.yul\":8229:8234   */\n  0x3030320000000000000000000000000000000000000000000000000000000000\n    /* \"#utility.yul\":8225:8226   */\n  0x00\n    /* \"#utility.yul\":8217:8223   */\n  dup3\n    /* \"#utility.yul\":8213:8227   */\n  add\n    /* \"#utility.yul\":8206:8235   */\n  mstore\n    /* \"#utility.yul\":8089:8242   */\n  pop\n  jump\t// out\n    /* \"#utility.yul\":8248:8401   */\ntag_80:\n    /* \"#utility.yul\":8388:8393   */\n  0x3030340000000000000000000000000000000000000000000000000000000000\n    /* \"#utility.yul\":8384:8385   */\n  0x00\n    /* \"#utility.yul\":8376:8382   */\n  dup3\n    /* \"#utility.yul\":8372:8386   */\n  add\n    /* \"#utility.yul\":8365:8394   */\n  mstore\n    /* \"#utility.yul\":8248:8401   */\n  pop\n  jump\t// out\n    /* \"#utility.yul\":8407:8560   */\ntag_85:\n    /* \"#utility.yul\":8547:8552   */\n  0x3030310000000000000000000000000000000000000000000000000000000000\n    /* \"#utility.yul\":8543:8544   */\n  0x00\n    /* \"#utility.yul\":8535:8541   */\n  dup3\n    /* \"#utility.yul\":8531:8545   */\n  add\n    /* \"#utility.yul\":8524:8553   */\n  mstore\n    /* \"#utility.yul\":8407:8560   */\n  pop\n  jump\t// out\n    /* \"#utility.yul\":8566:8719   */\ntag_90:\n    /* \"#utility.yul\":8706:8711   */\n  0x3030330000000000000000000000000000000000000000000000000000000000\n    /* \"#utility.yul\":8702:8703   */\n  0x00\n    /* \"#utility.yul\":8694:8700   */\n  dup3\n    /* \"#utility.yul\":8690:8704   */\n  add\n    /* \"#utility.yul\":8683:8712   */\n  mstore\n    /* \"#utility.yul\":8566:8719   */\n  pop\n  jump\t// out\n    /* \"#utility.yul\":8725:8847   */\ntag_50:\n    /* \"#utility.yul\":8798:8822   */\n  tag_140\n    /* \"#utility.yul\":8816:8821   */\n  dup2\n    /* \"#utility.yul\":8798:8822   */\n  tag_110\n  jump\t// in\ntag_140:\n    /* \"#utility.yul\":8791:8796   */\n  dup2\n    /* \"#utility.yul\":8788:8823   */\n  eq\n    /* \"#utility.yul\":8778:8841   */\n  tag_141\n  jumpi\n    /* \"#utility.yul\":8837:8838   */\n  0x00\n    /* \"#utility.yul\":8834:8835   */\n  dup1\n    /* \"#utility.yul\":8827:8839   */\n  revert\n    /* \"#utility.yul\":8778:8841   */\ntag_141:\n    /* \"#utility.yul\":8725:8847   */\n  pop\n  jump\t// out\n    /* \"#utility.yul\":8853:8975   */\ntag_60:\n    /* \"#utility.yul\":8926:8950   */\n  tag_143\n    /* \"#utility.yul\":8944:8949   */\n  dup2\n    /* \"#utility.yul\":8926:8950   */\n  tag_115\n  jump\t// in\ntag_143:\n    /* \"#utility.yul\":8919:8924   */\n  dup2\n    /* \"#utility.yul\":8916:8951   */\n  eq\n    /* \"#utility.yul\":8906:8969   */\n  tag_144\n  jumpi\n    /* \"#utility.yul\":8965:8966   */\n  0x00\n    /* \"#utility.yul\":8962:8963   */\n  dup1\n    /* \"#utility.yul\":8955:8967   */\n  revert\n    /* \"#utility.yul\":8906:8969   */\ntag_144:\n    /* \"#utility.yul\":8853:8975   */\n  pop\n  jump\t// out\n    /* \"contracts/multisigWallet.sol\":142:5910  contract MultisigWallet {... */\ntag_8:\n  dataSize(sub_0)\n  dup1\n  dataOffset(sub_0)\n  0x00\n  codecopy\n  0x00\n  return\nstop\n\nsub_0: assembly {\n        /* \"contracts/multisigWallet.sol\":142:5910  contract MultisigWallet {... */\n      mstore(0x40, 0x80)\n      jumpi(tag_1, lt(calldatasize, 0x04))\n      shr(0xe0, calldataload(0x00))\n      dup1\n      0xa67dd509\n      gt\n      tag_11\n      jumpi\n      dup1\n      0xa67dd509\n      eq\n      tag_7\n      jumpi\n      dup1\n      0xaffed0e0\n      eq\n      tag_8\n      jumpi\n      dup1\n      0xd01aa318\n      eq\n      tag_9\n      jumpi\n      dup1\n      0xed516d51\n      eq\n      tag_10\n      jumpi\n      jump(tag_2)\n    tag_11:\n      dup1\n      0x025e7c27\n      eq\n      tag_3\n      jumpi\n      dup1\n      0x0db02622\n      eq\n      tag_4\n      jumpi\n      dup1\n      0x2f54bf6e\n      eq\n      tag_5\n      jumpi\n      dup1\n      0x42cde4e8\n      eq\n      tag_6\n      jumpi\n      jump(tag_2)\n    tag_1:\n      jumpi(tag_2, calldatasize)\n      stop\n    tag_2:\n      0x00\n      dup1\n      revert\n        /* \"contracts/multisigWallet.sol\":304:327  address[] public owners */\n    tag_3:\n      callvalue\n      dup1\n      iszero\n      tag_14\n      jumpi\n      0x00\n      dup1\n      revert\n    tag_14:\n      pop\n      tag_15\n      0x04\n      dup1\n      calldatasize\n      sub\n      dup2\n      add\n      swap1\n      tag_16\n      swap2\n      swap1\n      tag_17\n      jump\t// in\n    tag_16:\n      tag_18\n      jump\t// in\n    tag_15:\n      mload(0x40)\n      tag_19\n      swap2\n      swap1\n      tag_20\n      jump\t// in\n    tag_19:\n      mload(0x40)\n      dup1\n      swap2\n      sub\n      swap1\n      return\n        /* \"contracts/multisigWallet.sol\":440:465  uint256 public ownerCount */\n    tag_4:\n      callvalue\n      dup1\n      iszero\n      tag_21\n      jumpi\n      0x00\n      dup1\n      revert\n    tag_21:\n      pop\n      tag_22\n      tag_23\n      jump\t// in\n    tag_22:\n      mload(0x40)\n      tag_24\n      swap2\n      swap1\n      tag_25\n      jump\t// in\n    tag_24:\n      mload(0x40)\n      dup1\n      swap2\n      sub\n      swap1\n      return\n        /* \"contracts/multisigWallet.sol\":358:397  mapping(address => bool) public isOwner */\n    tag_5:\n      callvalue\n      dup1\n      iszero\n      tag_26\n      jumpi\n      0x00\n      dup1\n      revert\n    tag_26:\n      pop\n      tag_27\n      0x04\n      dup1\n      calldatasize\n      sub\n      dup2\n      add\n      swap1\n      tag_28\n      swap2\n      swap1\n      tag_29\n      jump\t// in\n    tag_28:\n      tag_30\n      jump\t// in\n    tag_27:\n      mload(0x40)\n      tag_31\n      swap2\n      swap1\n      tag_32\n      jump\t// in\n    tag_31:\n      mload(0x40)\n      dup1\n      swap2\n      sub\n      swap1\n      return\n        /* \"contracts/multisigWallet.sol\":496:520  uint256 public threshold */\n    tag_6:\n      callvalue\n      dup1\n      iszero\n      tag_33\n      jumpi\n      0x00\n      dup1\n      revert\n    tag_33:\n      pop\n      tag_34\n      tag_35\n      jump\t// in\n    tag_34:\n      mload(0x40)\n      tag_36\n      swap2\n      swap1\n      tag_25\n      jump\t// in\n    tag_36:\n      mload(0x40)\n      dup1\n      swap2\n      sub\n      swap1\n      return\n        /* \"contracts/multisigWallet.sol\":5569:5908  function encodeTransactionData(... */\n    tag_7:\n      callvalue\n      dup1\n      iszero\n      tag_37\n      jumpi\n      0x00\n      dup1\n      revert\n    tag_37:\n      pop\n      tag_38\n      0x04\n      dup1\n      calldatasize\n      sub\n      dup2\n      add\n      swap1\n      tag_39\n      swap2\n      swap1\n      tag_40\n      jump\t// in\n    tag_39:\n      tag_41\n      jump\t// in\n    tag_38:\n      mload(0x40)\n      tag_42\n      swap2\n      swap1\n      tag_43\n      jump\t// in\n    tag_42:\n      mload(0x40)\n      dup1\n      swap2\n      sub\n      swap1\n      return\n        /* \"contracts/multisigWallet.sol\":603:623  uint256 public nonce */\n    tag_8:\n      callvalue\n      dup1\n      iszero\n      tag_44\n      jumpi\n      0x00\n      dup1\n      revert\n    tag_44:\n      pop\n      tag_45\n      tag_46\n      jump\t// in\n    tag_45:\n      mload(0x40)\n      tag_47\n      swap2\n      swap1\n      tag_25\n      jump\t// in\n    tag_47:\n      mload(0x40)\n      dup1\n      swap2\n      sub\n      swap1\n      return\n        /* \"contracts/multisigWallet.sol\":2309:3029  function execTransaction(... */\n    tag_9:\n      tag_48\n      0x04\n      dup1\n      calldatasize\n      sub\n      dup2\n      add\n      swap1\n      tag_49\n      swap2\n      swap1\n      tag_50\n      jump\t// in\n    tag_49:\n      tag_51\n      jump\t// in\n    tag_48:\n      mload(0x40)\n      tag_52\n      swap2\n      swap1\n      tag_32\n      jump\t// in\n    tag_52:\n      mload(0x40)\n      dup1\n      swap2\n      sub\n      swap1\n      return\n        /* \"contracts/multisigWallet.sol\":3246:4625  function checkSignatures(bytes32 dataHash, bytes memory signatures)... */\n    tag_10:\n      callvalue\n      dup1\n      iszero\n      tag_53\n      jumpi\n      0x00\n      dup1\n      revert\n    tag_53:\n      pop\n      tag_54\n      0x04\n      dup1\n      calldatasize\n      sub\n      dup2\n      add\n      swap1\n      tag_55\n      swap2\n      swap1\n      tag_56\n      jump\t// in\n    tag_55:\n      tag_57\n      jump\t// in\n    tag_54:\n      stop\n        /* \"contracts/multisigWallet.sol\":304:327  address[] public owners */\n    tag_18:\n      0x00\n      dup2\n      dup2\n      sload\n      dup2\n      lt\n      tag_58\n      jumpi\n      0x00\n      dup1\n      revert\n    tag_58:\n      swap1\n      0x00\n      mstore\n      keccak256(0x00, 0x20)\n      add\n      0x00\n      swap2\n      pop\n      sload\n      swap1\n      0x0100\n      exp\n      swap1\n      div\n      0xffffffffffffffffffffffffffffffffffffffff\n      and\n      dup2\n      jump\t// out\n        /* \"contracts/multisigWallet.sol\":440:465  uint256 public ownerCount */\n    tag_23:\n      sload(0x02)\n      dup2\n      jump\t// out\n        /* \"contracts/multisigWallet.sol\":358:397  mapping(address => bool) public isOwner */\n    tag_30:\n      mstore(0x20, 0x01)\n      dup1\n      0x00\n      mstore\n      keccak256(0x00, 0x40)\n      0x00\n      swap2\n      pop\n      sload\n      swap1\n      0x0100\n      exp\n      swap1\n      div\n      0xff\n      and\n      dup2\n      jump\t// out\n        /* \"contracts/multisigWallet.sol\":496:520  uint256 public threshold */\n    tag_35:\n      sload(0x03)\n      dup2\n      jump\t// out\n        /* \"contracts/multisigWallet.sol\":5569:5908  function encodeTransactionData(... */\n    tag_41:\n        /* \"contracts/multisigWallet.sol\":5746:5753  bytes32 */\n      0x00\n        /* \"contracts/multisigWallet.sol\":5765:5783  bytes32 safeTxHash */\n      dup1\n        /* \"contracts/multisigWallet.sol\":5820:5822  to */\n      dup7\n        /* \"contracts/multisigWallet.sol\":5824:5829  value */\n      dup7\n        /* \"contracts/multisigWallet.sol\":5841:5845  data */\n      dup7\n        /* \"contracts/multisigWallet.sol\":5831:5846  keccak256(data) */\n      dup1\n      mload\n      swap1\n      0x20\n      add\n      keccak256\n        /* \"contracts/multisigWallet.sol\":5848:5854  _nonce */\n      dup7\n        /* \"contracts/multisigWallet.sol\":5856:5863  chainid */\n      dup7\n        /* \"contracts/multisigWallet.sol\":5809:5864  abi.encode(to, value, keccak256(data), _nonce, chainid) */\n      add(0x20, mload(0x40))\n      tag_61\n      swap6\n      swap5\n      swap4\n      swap3\n      swap2\n      swap1\n      tag_62\n      jump\t// in\n    tag_61:\n      mload(0x40)\n      0x20\n      dup2\n      dup4\n      sub\n      sub\n      dup2\n      mstore\n      swap1\n      0x40\n      mstore\n        /* \"contracts/multisigWallet.sol\":5786:5874  keccak256(... */\n      dup1\n      mload\n      swap1\n      0x20\n      add\n      keccak256\n        /* \"contracts/multisigWallet.sol\":5765:5874  bytes32 safeTxHash = keccak256(... */\n      swap1\n      pop\n        /* \"contracts/multisigWallet.sol\":5891:5901  safeTxHash */\n      dup1\n        /* \"contracts/multisigWallet.sol\":5884:5901  return safeTxHash */\n      swap2\n      pop\n      pop\n        /* \"contracts/multisigWallet.sol\":5569:5908  function encodeTransactionData(... */\n      swap6\n      swap5\n      pop\n      pop\n      pop\n      pop\n      pop\n      jump\t// out\n        /* \"contracts/multisigWallet.sol\":603:623  uint256 public nonce */\n    tag_46:\n      sload(0x04)\n      dup2\n      jump\t// out\n        /* \"contracts/multisigWallet.sol\":2309:3029  function execTransaction(... */\n    tag_51:\n        /* \"contracts/multisigWallet.sol\":2475:2487  bool success */\n      0x00\n        /* \"contracts/multisigWallet.sol\":2544:2558  bytes32 txHash */\n      dup1\n        /* \"contracts/multisigWallet.sol\":2561:2691  encodeTransactionData(... */\n      tag_64\n        /* \"contracts/multisigWallet.sol\":2596:2598  to */\n      dup7\n        /* \"contracts/multisigWallet.sol\":2612:2617  value */\n      dup7\n        /* \"contracts/multisigWallet.sol\":2631:2635  data */\n      dup7\n        /* \"contracts/multisigWallet.sol\":2649:2654  nonce */\n      sload(0x04)\n        /* \"contracts/multisigWallet.sol\":2668:2681  block.chainid */\n      chainid\n        /* \"contracts/multisigWallet.sol\":2561:2582  encodeTransactionData */\n      tag_41\n        /* \"contracts/multisigWallet.sol\":2561:2691  encodeTransactionData(... */\n      jump\t// in\n    tag_64:\n        /* \"contracts/multisigWallet.sol\":2544:2691  bytes32 txHash = encodeTransactionData(... */\n      swap1\n      pop\n        /* \"contracts/multisigWallet.sol\":2701:2706  nonce */\n      0x04\n      0x00\n        /* \"contracts/multisigWallet.sol\":2701:2708  nonce++ */\n      dup2\n      sload\n      dup1\n      swap3\n      swap2\n      swap1\n      tag_65\n      swap1\n      tag_66\n      jump\t// in\n    tag_65:\n      swap2\n      swap1\n      pop\n      sstore\n      pop\n        /* \"contracts/multisigWallet.sol\":2733:2768  checkSignatures(txHash, signatures) */\n      tag_67\n        /* \"contracts/multisigWallet.sol\":2749:2755  txHash */\n      dup2\n        /* \"contracts/multisigWallet.sol\":2757:2767  signatures */\n      dup5\n        /* \"contracts/multisigWallet.sol\":2733:2748  checkSignatures */\n      tag_57\n        /* \"contracts/multisigWallet.sol\":2733:2768  checkSignatures(txHash, signatures) */\n      jump\t// in\n    tag_67:\n        /* \"contracts/multisigWallet.sol\":2866:2868  to */\n      dup6\n        /* \"contracts/multisigWallet.sol\":2866:2873  to.call */\n      0xffffffffffffffffffffffffffffffffffffffff\n      and\n        /* \"contracts/multisigWallet.sol\":2881:2886  value */\n      dup6\n        /* \"contracts/multisigWallet.sol\":2888:2892  data */\n      dup6\n        /* \"contracts/multisigWallet.sol\":2866:2893  to.call{value: value}(data) */\n      mload(0x40)\n      tag_68\n      swap2\n      swap1\n      tag_69\n      jump\t// in\n    tag_68:\n      0x00\n      mload(0x40)\n      dup1\n      dup4\n      sub\n      dup2\n      dup6\n      dup8\n      gas\n      call\n      swap3\n      pop\n      pop\n      pop\n      returndatasize\n      dup1\n      0x00\n      dup2\n      eq\n      tag_72\n      jumpi\n      mload(0x40)\n      swap2\n      pop\n      and(add(returndatasize, 0x3f), not(0x1f))\n      dup3\n      add\n      0x40\n      mstore\n      returndatasize\n      dup3\n      mstore\n      returndatasize\n      0x00\n      0x20\n      dup5\n      add\n      returndatacopy\n      jump(tag_71)\n    tag_72:\n      0x60\n      swap2\n      pop\n    tag_71:\n      pop\n        /* \"contracts/multisigWallet.sol\":2852:2893  (success, ) = to.call{value: value}(data) */\n      pop\n      dup1\n      swap3\n      pop\n      pop\n        /* \"contracts/multisigWallet.sol\":2911:2918  success */\n      dup2\n        /* \"contracts/multisigWallet.sol\":2903:2926  require(success, \"005\") */\n      tag_73\n      jumpi\n      mload(0x40)\n      0x08c379a000000000000000000000000000000000000000000000000000000000\n      dup2\n      mstore\n      0x04\n      add\n      tag_74\n      swap1\n      tag_75\n      jump\t// in\n    tag_74:\n      mload(0x40)\n      dup1\n      swap2\n      sub\n      swap1\n      revert\n    tag_73:\n        /* \"contracts/multisigWallet.sol\":2940:2947  success */\n      dup2\n        /* \"contracts/multisigWallet.sol\":2936:3022  if (success) emit ExecutionSuccess(txHash);... */\n      iszero\n      tag_76\n      jumpi\n        /* \"contracts/multisigWallet.sol\":2954:2978  ExecutionSuccess(txHash) */\n      0xdc29884a71d2bb98d3c53dc09718be05c7bfd142b7773a5c5cf2517629290ac0\n        /* \"contracts/multisigWallet.sol\":2971:2977  txHash */\n      dup2\n        /* \"contracts/multisigWallet.sol\":2954:2978  ExecutionSuccess(txHash) */\n      mload(0x40)\n      tag_77\n      swap2\n      swap1\n      tag_43\n      jump\t// in\n    tag_77:\n      mload(0x40)\n      dup1\n      swap2\n      sub\n      swap1\n      log1\n        /* \"contracts/multisigWallet.sol\":2936:3022  if (success) emit ExecutionSuccess(txHash);... */\n      jump(tag_78)\n    tag_76:\n        /* \"contracts/multisigWallet.sol\":2998:3022  ExecutionFailure(txHash) */\n      0xdbe42d02a4e07d7eeff2874efe172540c93b297d206f6d691c9782a257323e32\n        /* \"contracts/multisigWallet.sol\":3015:3021  txHash */\n      dup2\n        /* \"contracts/multisigWallet.sol\":2998:3022  ExecutionFailure(txHash) */\n      mload(0x40)\n      tag_79\n      swap2\n      swap1\n      tag_43\n      jump\t// in\n    tag_79:\n      mload(0x40)\n      dup1\n      swap2\n      sub\n      swap1\n      log1\n        /* \"contracts/multisigWallet.sol\":2936:3022  if (success) emit ExecutionSuccess(txHash);... */\n    tag_78:\n        /* \"contracts/multisigWallet.sol\":2489:3029  {... */\n      pop\n        /* \"contracts/multisigWallet.sol\":2309:3029  function execTransaction(... */\n      swap5\n      swap4\n      pop\n      pop\n      pop\n      pop\n      jump\t// out\n        /* \"contracts/multisigWallet.sol\":3246:4625  function checkSignatures(bytes32 dataHash, bytes memory signatures)... */\n    tag_57:\n        /* \"contracts/multisigWallet.sol\":3392:3410  uint256 _threshold */\n      0x00\n        /* \"contracts/multisigWallet.sol\":3413:3422  threshold */\n      sload(0x03)\n        /* \"contracts/multisigWallet.sol\":3392:3422  uint256 _threshold = threshold */\n      swap1\n      pop\n        /* \"contracts/multisigWallet.sol\":3453:3454  0 */\n      0x00\n        /* \"contracts/multisigWallet.sol\":3440:3450  _threshold */\n      dup2\n        /* \"contracts/multisigWallet.sol\":3440:3454  _threshold > 0 */\n      gt\n        /* \"contracts/multisigWallet.sol\":3432:3462  require(_threshold > 0, \"006\") */\n      tag_81\n      jumpi\n      mload(0x40)\n      0x08c379a000000000000000000000000000000000000000000000000000000000\n      dup2\n      mstore\n      0x04\n      add\n      tag_82\n      swap1\n      tag_83\n      jump\t// in\n    tag_82:\n      mload(0x40)\n      dup1\n      swap2\n      sub\n      swap1\n      revert\n    tag_81:\n        /* \"contracts/multisigWallet.sol\":3554:3556  65 */\n      0x41\n        /* \"contracts/multisigWallet.sol\":3541:3551  _threshold */\n      dup2\n        /* \"contracts/multisigWallet.sol\":3541:3556  _threshold * 65 */\n      tag_84\n      swap2\n      swap1\n      tag_85\n      jump\t// in\n    tag_84:\n        /* \"contracts/multisigWallet.sol\":3520:3530  signatures */\n      dup3\n        /* \"contracts/multisigWallet.sol\":3520:3537  signatures.length */\n      mload\n        /* \"contracts/multisigWallet.sol\":3520:3556  signatures.length >= _threshold * 65 */\n      lt\n      iszero\n        /* \"contracts/multisigWallet.sol\":3512:3564  require(signatures.length >= _threshold * 65, \"007\") */\n      tag_86\n      jumpi\n      mload(0x40)\n      0x08c379a000000000000000000000000000000000000000000000000000000000\n      dup2\n      mstore\n      0x04\n      add\n      tag_87\n      swap1\n      tag_88\n      jump\t// in\n    tag_87:\n      mload(0x40)\n      dup1\n      swap2\n      sub\n      swap1\n      revert\n    tag_86:\n        /* \"contracts/multisigWallet.sol\":3896:3913  address lastOwner */\n      0x00\n        /* \"contracts/multisigWallet.sol\":3936:3956  address currentOwner */\n      dup1\n        /* \"contracts/multisigWallet.sol\":3966:3973  uint8 v */\n      dup1\n        /* \"contracts/multisigWallet.sol\":3983:3992  bytes32 r */\n      0x00\n        /* \"contracts/multisigWallet.sol\":4002:4011  bytes32 s */\n      dup1\n        /* \"contracts/multisigWallet.sol\":4021:4030  uint256 i */\n      0x00\n        /* \"contracts/multisigWallet.sol\":4040:4619  for (i = 0; i < _threshold; i++) {... */\n    tag_89:\n        /* \"contracts/multisigWallet.sol\":4056:4066  _threshold */\n      dup7\n        /* \"contracts/multisigWallet.sol\":4052:4053  i */\n      dup2\n        /* \"contracts/multisigWallet.sol\":4052:4066  i < _threshold */\n      lt\n        /* \"contracts/multisigWallet.sol\":4040:4619  for (i = 0; i < _threshold; i++) {... */\n      iszero\n      tag_90\n      jumpi\n        /* \"contracts/multisigWallet.sol\":4099:4128  signatureSplit(signatures, i) */\n      tag_92\n        /* \"contracts/multisigWallet.sol\":4114:4124  signatures */\n      dup9\n        /* \"contracts/multisigWallet.sol\":4126:4127  i */\n      dup3\n        /* \"contracts/multisigWallet.sol\":4099:4113  signatureSplit */\n      tag_93\n        /* \"contracts/multisigWallet.sol\":4099:4128  signatureSplit(signatures, i) */\n      jump\t// in\n    tag_92:\n        /* \"contracts/multisigWallet.sol\":4087:4128  (v, r, s) = signatureSplit(signatures, i) */\n      dup1\n      swap5\n      pop\n      dup2\n      swap6\n      pop\n      dup3\n      swap7\n      pop\n      pop\n      pop\n      pop\n        /* \"contracts/multisigWallet.sol\":4212:4491  ecrecover(... */\n      0x01\n        /* \"contracts/multisigWallet.sol\":4372:4380  dataHash */\n      dup10\n        /* \"contracts/multisigWallet.sol\":4270:4402  abi.encodePacked(... */\n      add(0x20, mload(0x40))\n      tag_94\n      swap2\n      swap1\n      tag_95\n      jump\t// in\n    tag_94:\n      mload(0x40)\n      0x20\n      dup2\n      dup4\n      sub\n      sub\n      dup2\n      mstore\n      swap1\n      0x40\n      mstore\n        /* \"contracts/multisigWallet.sol\":4239:4420  keccak256(... */\n      dup1\n      mload\n      swap1\n      0x20\n      add\n      keccak256\n        /* \"contracts/multisigWallet.sol\":4438:4439  v */\n      dup6\n        /* \"contracts/multisigWallet.sol\":4457:4458  r */\n      dup6\n        /* \"contracts/multisigWallet.sol\":4476:4477  s */\n      dup6\n        /* \"contracts/multisigWallet.sol\":4212:4491  ecrecover(... */\n      mload(0x40)\n      0x00\n      dup2\n      mstore\n      0x20\n      add\n      0x40\n      mstore\n      mload(0x40)\n      tag_96\n      swap5\n      swap4\n      swap3\n      swap2\n      swap1\n      tag_97\n      jump\t// in\n    tag_96:\n      0x20\n      mload(0x40)\n      0x20\n      dup2\n      sub\n      swap1\n      dup1\n      dup5\n      sub\n      swap1\n      dup6\n      gas\n      staticcall\n      iszero\n      dup1\n      iszero\n      tag_99\n      jumpi\n      returndatasize\n      0x00\n      dup1\n      returndatacopy\n      revert(0x00, returndatasize)\n    tag_99:\n      pop\n      pop\n      pop\n      mload(sub(mload(0x40), 0x20))\n        /* \"contracts/multisigWallet.sol\":4197:4491  currentOwner = ecrecover(... */\n      swap5\n      pop\n        /* \"contracts/multisigWallet.sol\":4528:4537  lastOwner */\n      dup6\n        /* \"contracts/multisigWallet.sol\":4513:4537  currentOwner > lastOwner */\n      0xffffffffffffffffffffffffffffffffffffffff\n      and\n        /* \"contracts/multisigWallet.sol\":4513:4525  currentOwner */\n      dup6\n        /* \"contracts/multisigWallet.sol\":4513:4537  currentOwner > lastOwner */\n      0xffffffffffffffffffffffffffffffffffffffff\n      and\n      gt\n        /* \"contracts/multisigWallet.sol\":4513:4562  currentOwner > lastOwner && isOwner[currentOwner] */\n      dup1\n      iszero\n      tag_100\n      jumpi\n      pop\n        /* \"contracts/multisigWallet.sol\":4541:4548  isOwner */\n      0x01\n        /* \"contracts/multisigWallet.sol\":4541:4562  isOwner[currentOwner] */\n      0x00\n        /* \"contracts/multisigWallet.sol\":4549:4561  currentOwner */\n      dup7\n        /* \"contracts/multisigWallet.sol\":4541:4562  isOwner[currentOwner] */\n      0xffffffffffffffffffffffffffffffffffffffff\n      and\n      0xffffffffffffffffffffffffffffffffffffffff\n      and\n      dup2\n      mstore\n      0x20\n      add\n      swap1\n      dup2\n      mstore\n      0x20\n      add\n      0x00\n      keccak256\n      0x00\n      swap1\n      sload\n      swap1\n      0x0100\n      exp\n      swap1\n      div\n      0xff\n      and\n        /* \"contracts/multisigWallet.sol\":4513:4562  currentOwner > lastOwner && isOwner[currentOwner] */\n    tag_100:\n        /* \"contracts/multisigWallet.sol\":4505:4570  require(currentOwner > lastOwner && isOwner[currentOwner], \"008\") */\n      tag_101\n      jumpi\n      mload(0x40)\n      0x08c379a000000000000000000000000000000000000000000000000000000000\n      dup2\n      mstore\n      0x04\n      add\n      tag_102\n      swap1\n      tag_103\n      jump\t// in\n    tag_102:\n      mload(0x40)\n      dup1\n      swap2\n      sub\n      swap1\n      revert\n    tag_101:\n        /* \"contracts/multisigWallet.sol\":4596:4608  currentOwner */\n      dup5\n        /* \"contracts/multisigWallet.sol\":4584:4608  lastOwner = currentOwner */\n      swap6\n      pop\n        /* \"contracts/multisigWallet.sol\":4068:4071  i++ */\n      dup1\n      dup1\n      tag_104\n      swap1\n      tag_66\n      jump\t// in\n    tag_104:\n      swap2\n      pop\n      pop\n        /* \"contracts/multisigWallet.sol\":4040:4619  for (i = 0; i < _threshold; i++) {... */\n      jump(tag_89)\n    tag_90:\n        /* \"contracts/multisigWallet.sol\":3346:4625  {... */\n      pop\n      pop\n      pop\n      pop\n      pop\n      pop\n      pop\n        /* \"contracts/multisigWallet.sol\":3246:4625  function checkSignatures(bytes32 dataHash, bytes memory signatures)... */\n      pop\n      pop\n      jump\t// out\n        /* \"contracts/multisigWallet.sol\":4771:5311  function signatureSplit(bytes memory signatures, uint256 pos)... */\n    tag_93:\n        /* \"contracts/multisigWallet.sol\":4893:4900  uint8 v */\n      0x00\n        /* \"contracts/multisigWallet.sol\":4914:4923  bytes32 r */\n      dup1\n        /* \"contracts/multisigWallet.sol\":4937:4946  bytes32 s */\n      0x00\n        /* \"contracts/multisigWallet.sol\":5085:5088  pos */\n      dup4\n        /* \"contracts/multisigWallet.sol\":5079:5083  0x41 */\n      0x41\n        /* \"contracts/multisigWallet.sol\":5075:5089  mul(0x41, pos) */\n      mul\n        /* \"contracts/multisigWallet.sol\":5147:5151  0x20 */\n      0x20\n        /* \"contracts/multisigWallet.sol\":5133:5145  signaturePos */\n      dup2\n        /* \"contracts/multisigWallet.sol\":5129:5152  add(signaturePos, 0x20) */\n      add\n        /* \"contracts/multisigWallet.sol\":5117:5127  signatures */\n      dup7\n        /* \"contracts/multisigWallet.sol\":5113:5153  add(signatures, add(signaturePos, 0x20)) */\n      add\n        /* \"contracts/multisigWallet.sol\":5107:5154  mload(add(signatures, add(signaturePos, 0x20))) */\n      mload\n        /* \"contracts/multisigWallet.sol\":5102:5154  r := mload(add(signatures, add(signaturePos, 0x20))) */\n      swap3\n      pop\n        /* \"contracts/multisigWallet.sol\":5212:5216  0x40 */\n      0x40\n        /* \"contracts/multisigWallet.sol\":5198:5210  signaturePos */\n      dup2\n        /* \"contracts/multisigWallet.sol\":5194:5217  add(signaturePos, 0x40) */\n      add\n        /* \"contracts/multisigWallet.sol\":5182:5192  signatures */\n      dup7\n        /* \"contracts/multisigWallet.sol\":5178:5218  add(signatures, add(signaturePos, 0x40)) */\n      add\n        /* \"contracts/multisigWallet.sol\":5172:5219  mload(add(signatures, add(signaturePos, 0x40))) */\n      mload\n        /* \"contracts/multisigWallet.sol\":5167:5219  s := mload(add(signatures, add(signaturePos, 0x40))) */\n      swap2\n      pop\n        /* \"contracts/multisigWallet.sol\":5290:5294  0xff */\n      0xff\n        /* \"contracts/multisigWallet.sol\":5281:5285  0x41 */\n      0x41\n        /* \"contracts/multisigWallet.sol\":5267:5279  signaturePos */\n      dup3\n        /* \"contracts/multisigWallet.sol\":5263:5286  add(signaturePos, 0x41) */\n      add\n        /* \"contracts/multisigWallet.sol\":5251:5261  signatures */\n      dup8\n        /* \"contracts/multisigWallet.sol\":5247:5287  add(signatures, add(signaturePos, 0x41)) */\n      add\n        /* \"contracts/multisigWallet.sol\":5241:5288  mload(add(signatures, add(signaturePos, 0x41))) */\n      mload\n        /* \"contracts/multisigWallet.sol\":5237:5295  and(mload(add(signatures, add(signaturePos, 0x41))), 0xff) */\n      and\n        /* \"contracts/multisigWallet.sol\":5232:5295  v := and(mload(add(signatures, add(signaturePos, 0x41))), 0xff) */\n      swap4\n      pop\n        /* \"contracts/multisigWallet.sol\":5041:5305  {... */\n      pop\n        /* \"contracts/multisigWallet.sol\":4771:5311  function signatureSplit(bytes memory signatures, uint256 pos)... */\n      swap3\n      pop\n      swap3\n      pop\n      swap3\n      jump\t// out\n        /* \"#utility.yul\":7:417   */\n    tag_107:\n        /* \"#utility.yul\":84:89   */\n      0x00\n        /* \"#utility.yul\":109:174   */\n      tag_109\n        /* \"#utility.yul\":125:173   */\n      tag_110\n        /* \"#utility.yul\":166:172   */\n      dup5\n        /* \"#utility.yul\":125:173   */\n      tag_111\n      jump\t// in\n    tag_110:\n        /* \"#utility.yul\":109:174   */\n      tag_112\n      jump\t// in\n    tag_109:\n        /* \"#utility.yul\":100:174   */\n      swap1\n      pop\n        /* \"#utility.yul\":197:203   */\n      dup3\n        /* \"#utility.yul\":190:195   */\n      dup2\n        /* \"#utility.yul\":183:204   */\n      mstore\n        /* \"#utility.yul\":235:239   */\n      0x20\n        /* \"#utility.yul\":228:233   */\n      dup2\n        /* \"#utility.yul\":224:240   */\n      add\n        /* \"#utility.yul\":273:276   */\n      dup5\n        /* \"#utility.yul\":264:270   */\n      dup5\n        /* \"#utility.yul\":259:262   */\n      dup5\n        /* \"#utility.yul\":255:271   */\n      add\n        /* \"#utility.yul\":252:277   */\n      gt\n        /* \"#utility.yul\":249:361   */\n      iszero\n      tag_113\n      jumpi\n        /* \"#utility.yul\":280:359   */\n      tag_114\n      tag_115\n      jump\t// in\n    tag_114:\n        /* \"#utility.yul\":249:361   */\n    tag_113:\n        /* \"#utility.yul\":370:411   */\n      tag_116\n        /* \"#utility.yul\":404:410   */\n      dup5\n        /* \"#utility.yul\":399:402   */\n      dup3\n        /* \"#utility.yul\":394:397   */\n      dup6\n        /* \"#utility.yul\":370:411   */\n      tag_117\n      jump\t// in\n    tag_116:\n        /* \"#utility.yul\":90:417   */\n      pop\n        /* \"#utility.yul\":7:417   */\n      swap4\n      swap3\n      pop\n      pop\n      pop\n      jump\t// out\n        /* \"#utility.yul\":423:562   */\n    tag_118:\n        /* \"#utility.yul\":469:474   */\n      0x00\n        /* \"#utility.yul\":507:513   */\n      dup2\n        /* \"#utility.yul\":494:514   */\n      calldataload\n        /* \"#utility.yul\":485:514   */\n      swap1\n      pop\n        /* \"#utility.yul\":523:556   */\n      tag_120\n        /* \"#utility.yul\":550:555   */\n      dup2\n        /* \"#utility.yul\":523:556   */\n      tag_121\n      jump\t// in\n    tag_120:\n        /* \"#utility.yul\":423:562   */\n      swap3\n      swap2\n      pop\n      pop\n      jump\t// out\n        /* \"#utility.yul\":568:707   */\n    tag_122:\n        /* \"#utility.yul\":614:619   */\n      0x00\n        /* \"#utility.yul\":652:658   */\n      dup2\n        /* \"#utility.yul\":639:659   */\n      calldataload\n        /* \"#utility.yul\":630:659   */\n      swap1\n      pop\n        /* \"#utility.yul\":668:701   */\n      tag_124\n        /* \"#utility.yul\":695:700   */\n      dup2\n        /* \"#utility.yul\":668:701   */\n      tag_125\n      jump\t// in\n    tag_124:\n        /* \"#utility.yul\":568:707   */\n      swap3\n      swap2\n      pop\n      pop\n      jump\t// out\n        /* \"#utility.yul\":726:1064   */\n    tag_126:\n        /* \"#utility.yul\":781:786   */\n      0x00\n        /* \"#utility.yul\":830:833   */\n      dup3\n        /* \"#utility.yul\":823:827   */\n      0x1f\n        /* \"#utility.yul\":815:821   */\n      dup4\n        /* \"#utility.yul\":811:828   */\n      add\n        /* \"#utility.yul\":807:834   */\n      slt\n        /* \"#utility.yul\":797:919   */\n      tag_128\n      jumpi\n        /* \"#utility.yul\":838:917   */\n      tag_129\n      tag_130\n      jump\t// in\n    tag_129:\n        /* \"#utility.yul\":797:919   */\n    tag_128:\n        /* \"#utility.yul\":955:961   */\n      dup2\n        /* \"#utility.yul\":942:962   */\n      calldataload\n        /* \"#utility.yul\":980:1058   */\n      tag_131\n        /* \"#utility.yul\":1054:1057   */\n      dup5\n        /* \"#utility.yul\":1046:1052   */\n      dup3\n        /* \"#utility.yul\":1039:1043   */\n      0x20\n        /* \"#utility.yul\":1031:1037   */\n      dup7\n        /* \"#utility.yul\":1027:1044   */\n      add\n        /* \"#utility.yul\":980:1058   */\n      tag_107\n      jump\t// in\n    tag_131:\n        /* \"#utility.yul\":971:1058   */\n      swap2\n      pop\n        /* \"#utility.yul\":787:1064   */\n      pop\n        /* \"#utility.yul\":726:1064   */\n      swap3\n      swap2\n      pop\n      pop\n      jump\t// out\n        /* \"#utility.yul\":1070:1209   */\n    tag_132:\n        /* \"#utility.yul\":1116:1121   */\n      0x00\n        /* \"#utility.yul\":1154:1160   */\n      dup2\n        /* \"#utility.yul\":1141:1161   */\n      calldataload\n        /* \"#utility.yul\":1132:1161   */\n      swap1\n      pop\n        /* \"#utility.yul\":1170:1203   */\n      tag_134\n        /* \"#utility.yul\":1197:1202   */\n      dup2\n        /* \"#utility.yul\":1170:1203   */\n      tag_135\n      jump\t// in\n    tag_134:\n        /* \"#utility.yul\":1070:1209   */\n      swap3\n      swap2\n      pop\n      pop\n      jump\t// out\n        /* \"#utility.yul\":1215:1544   */\n    tag_29:\n        /* \"#utility.yul\":1274:1280   */\n      0x00\n        /* \"#utility.yul\":1323:1325   */\n      0x20\n        /* \"#utility.yul\":1311:1320   */\n      dup3\n        /* \"#utility.yul\":1302:1309   */\n      dup5\n        /* \"#utility.yul\":1298:1321   */\n      sub\n        /* \"#utility.yul\":1294:1326   */\n      slt\n        /* \"#utility.yul\":1291:1410   */\n      iszero\n      tag_137\n      jumpi\n        /* \"#utility.yul\":1329:1408   */\n      tag_138\n      tag_139\n      jump\t// in\n    tag_138:\n        /* \"#utility.yul\":1291:1410   */\n    tag_137:\n        /* \"#utility.yul\":1449:1450   */\n      0x00\n        /* \"#utility.yul\":1474:1527   */\n      tag_140\n        /* \"#utility.yul\":1519:1526   */\n      dup5\n        /* \"#utility.yul\":1510:1516   */\n      dup3\n        /* \"#utility.yul\":1499:1508   */\n      dup6\n        /* \"#utility.yul\":1495:1517   */\n      add\n        /* \"#utility.yul\":1474:1527   */\n      tag_118\n      jump\t// in\n    tag_140:\n        /* \"#utility.yul\":1464:1527   */\n      swap2\n      pop\n        /* \"#utility.yul\":1420:1537   */\n      pop\n        /* \"#utility.yul\":1215:1544   */\n      swap3\n      swap2\n      pop\n      pop\n      jump\t// out\n        /* \"#utility.yul\":1550:2671   */\n    tag_50:\n        /* \"#utility.yul\":1654:1660   */\n      0x00\n        /* \"#utility.yul\":1662:1668   */\n      dup1\n        /* \"#utility.yul\":1670:1676   */\n      0x00\n        /* \"#utility.yul\":1678:1684   */\n      dup1\n        /* \"#utility.yul\":1727:1730   */\n      0x80\n        /* \"#utility.yul\":1715:1724   */\n      dup6\n        /* \"#utility.yul\":1706:1713   */\n      dup8\n        /* \"#utility.yul\":1702:1725   */\n      sub\n        /* \"#utility.yul\":1698:1731   */\n      slt\n        /* \"#utility.yul\":1695:1815   */\n      iszero\n      tag_142\n      jumpi\n        /* \"#utility.yul\":1734:1813   */\n      tag_143\n      tag_139\n      jump\t// in\n    tag_143:\n        /* \"#utility.yul\":1695:1815   */\n    tag_142:\n        /* \"#utility.yul\":1854:1855   */\n      0x00\n        /* \"#utility.yul\":1879:1932   */\n      tag_144\n        /* \"#utility.yul\":1924:1931   */\n      dup8\n        /* \"#utility.yul\":1915:1921   */\n      dup3\n        /* \"#utility.yul\":1904:1913   */\n      dup9\n        /* \"#utility.yul\":1900:1922   */\n      add\n        /* \"#utility.yul\":1879:1932   */\n      tag_118\n      jump\t// in\n    tag_144:\n        /* \"#utility.yul\":1869:1932   */\n      swap5\n      pop\n        /* \"#utility.yul\":1825:1942   */\n      pop\n        /* \"#utility.yul\":1981:1983   */\n      0x20\n        /* \"#utility.yul\":2007:2060   */\n      tag_145\n        /* \"#utility.yul\":2052:2059   */\n      dup8\n        /* \"#utility.yul\":2043:2049   */\n      dup3\n        /* \"#utility.yul\":2032:2041   */\n      dup9\n        /* \"#utility.yul\":2028:2050   */\n      add\n        /* \"#utility.yul\":2007:2060   */\n      tag_132\n      jump\t// in\n    tag_145:\n        /* \"#utility.yul\":1997:2060   */\n      swap4\n      pop\n        /* \"#utility.yul\":1952:2070   */\n      pop\n        /* \"#utility.yul\":2137:2139   */\n      0x40\n        /* \"#utility.yul\":2126:2135   */\n      dup6\n        /* \"#utility.yul\":2122:2140   */\n      add\n        /* \"#utility.yul\":2109:2141   */\n      calldataload\n        /* \"#utility.yul\":2168:2186   */\n      0xffffffffffffffff\n        /* \"#utility.yul\":2160:2166   */\n      dup2\n        /* \"#utility.yul\":2157:2187   */\n      gt\n        /* \"#utility.yul\":2154:2271   */\n      iszero\n      tag_146\n      jumpi\n        /* \"#utility.yul\":2190:2269   */\n      tag_147\n      tag_148\n      jump\t// in\n    tag_147:\n        /* \"#utility.yul\":2154:2271   */\n    tag_146:\n        /* \"#utility.yul\":2295:2357   */\n      tag_149\n        /* \"#utility.yul\":2349:2356   */\n      dup8\n        /* \"#utility.yul\":2340:2346   */\n      dup3\n        /* \"#utility.yul\":2329:2338   */\n      dup9\n        /* \"#utility.yul\":2325:2347   */\n      add\n        /* \"#utility.yul\":2295:2357   */\n      tag_126\n      jump\t// in\n    tag_149:\n        /* \"#utility.yul\":2285:2357   */\n      swap3\n      pop\n        /* \"#utility.yul\":2080:2367   */\n      pop\n        /* \"#utility.yul\":2434:2436   */\n      0x60\n        /* \"#utility.yul\":2423:2432   */\n      dup6\n        /* \"#utility.yul\":2419:2437   */\n      add\n        /* \"#utility.yul\":2406:2438   */\n      calldataload\n        /* \"#utility.yul\":2465:2483   */\n      0xffffffffffffffff\n        /* \"#utility.yul\":2457:2463   */\n      dup2\n        /* \"#utility.yul\":2454:2484   */\n      gt\n        /* \"#utility.yul\":2451:2568   */\n      iszero\n      tag_150\n      jumpi\n        /* \"#utility.yul\":2487:2566   */\n      tag_151\n      tag_148\n      jump\t// in\n    tag_151:\n        /* \"#utility.yul\":2451:2568   */\n    tag_150:\n        /* \"#utility.yul\":2592:2654   */\n      tag_152\n        /* \"#utility.yul\":2646:2653   */\n      dup8\n        /* \"#utility.yul\":2637:2643   */\n      dup3\n        /* \"#utility.yul\":2626:2635   */\n      dup9\n        /* \"#utility.yul\":2622:2644   */\n      add\n        /* \"#utility.yul\":2592:2654   */\n      tag_126\n      jump\t// in\n    tag_152:\n        /* \"#utility.yul\":2582:2654   */\n      swap2\n      pop\n        /* \"#utility.yul\":2377:2664   */\n      pop\n        /* \"#utility.yul\":1550:2671   */\n      swap3\n      swap6\n      swap2\n      swap5\n      pop\n      swap3\n      pop\n      jump\t// out\n        /* \"#utility.yul\":2677:3766   */\n    tag_40:\n        /* \"#utility.yul\":2781:2787   */\n      0x00\n        /* \"#utility.yul\":2789:2795   */\n      dup1\n        /* \"#utility.yul\":2797:2803   */\n      0x00\n        /* \"#utility.yul\":2805:2811   */\n      dup1\n        /* \"#utility.yul\":2813:2819   */\n      0x00\n        /* \"#utility.yul\":2862:2865   */\n      0xa0\n        /* \"#utility.yul\":2850:2859   */\n      dup7\n        /* \"#utility.yul\":2841:2848   */\n      dup9\n        /* \"#utility.yul\":2837:2860   */\n      sub\n        /* \"#utility.yul\":2833:2866   */\n      slt\n        /* \"#utility.yul\":2830:2950   */\n      iszero\n      tag_154\n      jumpi\n        /* \"#utility.yul\":2869:2948   */\n      tag_155\n      tag_139\n      jump\t// in\n    tag_155:\n        /* \"#utility.yul\":2830:2950   */\n    tag_154:\n        /* \"#utility.yul\":2989:2990   */\n      0x00\n        /* \"#utility.yul\":3014:3067   */\n      tag_156\n        /* \"#utility.yul\":3059:3066   */\n      dup9\n        /* \"#utility.yul\":3050:3056   */\n      dup3\n        /* \"#utility.yul\":3039:3048   */\n      dup10\n        /* \"#utility.yul\":3035:3057   */\n      add\n        /* \"#utility.yul\":3014:3067   */\n      tag_118\n      jump\t// in\n    tag_156:\n        /* \"#utility.yul\":3004:3067   */\n      swap6\n      pop\n        /* \"#utility.yul\":2960:3077   */\n      pop\n        /* \"#utility.yul\":3116:3118   */\n      0x20\n        /* \"#utility.yul\":3142:3195   */\n      tag_157\n        /* \"#utility.yul\":3187:3194   */\n      dup9\n        /* \"#utility.yul\":3178:3184   */\n      dup3\n        /* \"#utility.yul\":3167:3176   */\n      dup10\n        /* \"#utility.yul\":3163:3185   */\n      add\n        /* \"#utility.yul\":3142:3195   */\n      tag_132\n      jump\t// in\n    tag_157:\n        /* \"#utility.yul\":3132:3195   */\n      swap5\n      pop\n        /* \"#utility.yul\":3087:3205   */\n      pop\n        /* \"#utility.yul\":3272:3274   */\n      0x40\n        /* \"#utility.yul\":3261:3270   */\n      dup7\n        /* \"#utility.yul\":3257:3275   */\n      add\n        /* \"#utility.yul\":3244:3276   */\n      calldataload\n        /* \"#utility.yul\":3303:3321   */\n      0xffffffffffffffff\n        /* \"#utility.yul\":3295:3301   */\n      dup2\n        /* \"#utility.yul\":3292:3322   */\n      gt\n        /* \"#utility.yul\":3289:3406   */\n      iszero\n      tag_158\n      jumpi\n        /* \"#utility.yul\":3325:3404   */\n      tag_159\n      tag_148\n      jump\t// in\n    tag_159:\n        /* \"#utility.yul\":3289:3406   */\n    tag_158:\n        /* \"#utility.yul\":3430:3492   */\n      tag_160\n        /* \"#utility.yul\":3484:3491   */\n      dup9\n        /* \"#utility.yul\":3475:3481   */\n      dup3\n        /* \"#utility.yul\":3464:3473   */\n      dup10\n        /* \"#utility.yul\":3460:3482   */\n      add\n        /* \"#utility.yul\":3430:3492   */\n      tag_126\n      jump\t// in\n    tag_160:\n        /* \"#utility.yul\":3420:3492   */\n      swap4\n      pop\n        /* \"#utility.yul\":3215:3502   */\n      pop\n        /* \"#utility.yul\":3541:3543   */\n      0x60\n        /* \"#utility.yul\":3567:3620   */\n      tag_161\n        /* \"#utility.yul\":3612:3619   */\n      dup9\n        /* \"#utility.yul\":3603:3609   */\n      dup3\n        /* \"#utility.yul\":3592:3601   */\n      dup10\n        /* \"#utility.yul\":3588:3610   */\n      add\n        /* \"#utility.yul\":3567:3620   */\n      tag_132\n      jump\t// in\n    tag_161:\n        /* \"#utility.yul\":3557:3620   */\n      swap3\n      pop\n        /* \"#utility.yul\":3512:3630   */\n      pop\n        /* \"#utility.yul\":3669:3672   */\n      0x80\n        /* \"#utility.yul\":3696:3749   */\n      tag_162\n        /* \"#utility.yul\":3741:3748   */\n      dup9\n        /* \"#utility.yul\":3732:3738   */\n      dup3\n        /* \"#utility.yul\":3721:3730   */\n      dup10\n        /* \"#utility.yul\":3717:3739   */\n      add\n        /* \"#utility.yul\":3696:3749   */\n      tag_132\n      jump\t// in\n    tag_162:\n        /* \"#utility.yul\":3686:3749   */\n      swap2\n      pop\n        /* \"#utility.yul\":3640:3759   */\n      pop\n        /* \"#utility.yul\":2677:3766   */\n      swap3\n      swap6\n      pop\n      swap3\n      swap6\n      swap1\n      swap4\n      pop\n      jump\t// out\n        /* \"#utility.yul\":3772:4424   */\n    tag_56:\n        /* \"#utility.yul\":3849:3855   */\n      0x00\n        /* \"#utility.yul\":3857:3863   */\n      dup1\n        /* \"#utility.yul\":3906:3908   */\n      0x40\n        /* \"#utility.yul\":3894:3903   */\n      dup4\n        /* \"#utility.yul\":3885:3892   */\n      dup6\n        /* \"#utility.yul\":3881:3904   */\n      sub\n        /* \"#utility.yul\":3877:3909   */\n      slt\n        /* \"#utility.yul\":3874:3993   */\n      iszero\n      tag_164\n      jumpi\n        /* \"#utility.yul\":3912:3991   */\n      tag_165\n      tag_139\n      jump\t// in\n    tag_165:\n        /* \"#utility.yul\":3874:3993   */\n    tag_164:\n        /* \"#utility.yul\":4032:4033   */\n      0x00\n        /* \"#utility.yul\":4057:4110   */\n      tag_166\n        /* \"#utility.yul\":4102:4109   */\n      dup6\n        /* \"#utility.yul\":4093:4099   */\n      dup3\n        /* \"#utility.yul\":4082:4091   */\n      dup7\n        /* \"#utility.yul\":4078:4100   */\n      add\n        /* \"#utility.yul\":4057:4110   */\n      tag_122\n      jump\t// in\n    tag_166:\n        /* \"#utility.yul\":4047:4110   */\n      swap3\n      pop\n        /* \"#utility.yul\":4003:4120   */\n      pop\n        /* \"#utility.yul\":4187:4189   */\n      0x20\n        /* \"#utility.yul\":4176:4185   */\n      dup4\n        /* \"#utility.yul\":4172:4190   */\n      add\n        /* \"#utility.yul\":4159:4191   */\n      calldataload\n        /* \"#utility.yul\":4218:4236   */\n      0xffffffffffffffff\n        /* \"#utility.yul\":4210:4216   */\n      dup2\n        /* \"#utility.yul\":4207:4237   */\n      gt\n        /* \"#utility.yul\":4204:4321   */\n      iszero\n      tag_167\n      jumpi\n        /* \"#utility.yul\":4240:4319   */\n      tag_168\n      tag_148\n      jump\t// in\n    tag_168:\n        /* \"#utility.yul\":4204:4321   */\n    tag_167:\n        /* \"#utility.yul\":4345:4407   */\n      tag_169\n        /* \"#utility.yul\":4399:4406   */\n      dup6\n        /* \"#utility.yul\":4390:4396   */\n      dup3\n        /* \"#utility.yul\":4379:4388   */\n      dup7\n        /* \"#utility.yul\":4375:4397   */\n      add\n        /* \"#utility.yul\":4345:4407   */\n      tag_126\n      jump\t// in\n    tag_169:\n        /* \"#utility.yul\":4335:4407   */\n      swap2\n      pop\n        /* \"#utility.yul\":4130:4417   */\n      pop\n        /* \"#utility.yul\":3772:4424   */\n      swap3\n      pop\n      swap3\n      swap1\n      pop\n      jump\t// out\n        /* \"#utility.yul\":4430:4759   */\n    tag_17:\n        /* \"#utility.yul\":4489:4495   */\n      0x00\n        /* \"#utility.yul\":4538:4540   */\n      0x20\n        /* \"#utility.yul\":4526:4535   */\n      dup3\n        /* \"#utility.yul\":4517:4524   */\n      dup5\n        /* \"#utility.yul\":4513:4536   */\n      sub\n        /* \"#utility.yul\":4509:4541   */\n      slt\n        /* \"#utility.yul\":4506:4625   */\n      iszero\n      tag_171\n      jumpi\n        /* \"#utility.yul\":4544:4623   */\n      tag_172\n      tag_139\n      jump\t// in\n    tag_172:\n        /* \"#utility.yul\":4506:4625   */\n    tag_171:\n        /* \"#utility.yul\":4664:4665   */\n      0x00\n        /* \"#utility.yul\":4689:4742   */\n      tag_173\n        /* \"#utility.yul\":4734:4741   */\n      dup5\n        /* \"#utility.yul\":4725:4731   */\n      dup3\n        /* \"#utility.yul\":4714:4723   */\n      dup6\n        /* \"#utility.yul\":4710:4732   */\n      add\n        /* \"#utility.yul\":4689:4742   */\n      tag_132\n      jump\t// in\n    tag_173:\n        /* \"#utility.yul\":4679:4742   */\n      swap2\n      pop\n        /* \"#utility.yul\":4635:4752   */\n      pop\n        /* \"#utility.yul\":4430:4759   */\n      swap3\n      swap2\n      pop\n      pop\n      jump\t// out\n        /* \"#utility.yul\":4765:4883   */\n    tag_174:\n        /* \"#utility.yul\":4852:4876   */\n      tag_176\n        /* \"#utility.yul\":4870:4875   */\n      dup2\n        /* \"#utility.yul\":4852:4876   */\n      tag_177\n      jump\t// in\n    tag_176:\n        /* \"#utility.yul\":4847:4850   */\n      dup3\n        /* \"#utility.yul\":4840:4877   */\n      mstore\n        /* \"#utility.yul\":4765:4883   */\n      pop\n      pop\n      jump\t// out\n        /* \"#utility.yul\":4889:4998   */\n    tag_178:\n        /* \"#utility.yul\":4970:4991   */\n      tag_180\n        /* \"#utility.yul\":4985:4990   */\n      dup2\n        /* \"#utility.yul\":4970:4991   */\n      tag_181\n      jump\t// in\n    tag_180:\n        /* \"#utility.yul\":4965:4968   */\n      dup3\n        /* \"#utility.yul\":4958:4992   */\n      mstore\n        /* \"#utility.yul\":4889:4998   */\n      pop\n      pop\n      jump\t// out\n        /* \"#utility.yul\":5004:5122   */\n    tag_182:\n        /* \"#utility.yul\":5091:5115   */\n      tag_184\n        /* \"#utility.yul\":5109:5114   */\n      dup2\n        /* \"#utility.yul\":5091:5115   */\n      tag_185\n      jump\t// in\n    tag_184:\n        /* \"#utility.yul\":5086:5089   */\n      dup3\n        /* \"#utility.yul\":5079:5116   */\n      mstore\n        /* \"#utility.yul\":5004:5122   */\n      pop\n      pop\n      jump\t// out\n        /* \"#utility.yul\":5128:5285   */\n    tag_186:\n        /* \"#utility.yul\":5233:5278   */\n      tag_188\n        /* \"#utility.yul\":5253:5277   */\n      tag_189\n        /* \"#utility.yul\":5271:5276   */\n      dup3\n        /* \"#utility.yul\":5253:5277   */\n      tag_185\n      jump\t// in\n    tag_189:\n        /* \"#utility.yul\":5233:5278   */\n      tag_190\n      jump\t// in\n    tag_188:\n        /* \"#utility.yul\":5228:5231   */\n      dup3\n        /* \"#utility.yul\":5221:5279   */\n      mstore\n        /* \"#utility.yul\":5128:5285   */\n      pop\n      pop\n      jump\t// out\n        /* \"#utility.yul\":5291:5664   */\n    tag_191:\n        /* \"#utility.yul\":5395:5398   */\n      0x00\n        /* \"#utility.yul\":5423:5461   */\n      tag_193\n        /* \"#utility.yul\":5455:5460   */\n      dup3\n        /* \"#utility.yul\":5423:5461   */\n      tag_194\n      jump\t// in\n    tag_193:\n        /* \"#utility.yul\":5477:5565   */\n      tag_195\n        /* \"#utility.yul\":5558:5564   */\n      dup2\n        /* \"#utility.yul\":5553:5556   */\n      dup6\n        /* \"#utility.yul\":5477:5565   */\n      tag_196\n      jump\t// in\n    tag_195:\n        /* \"#utility.yul\":5470:5565   */\n      swap4\n      pop\n        /* \"#utility.yul\":5574:5626   */\n      tag_197\n        /* \"#utility.yul\":5619:5625   */\n      dup2\n        /* \"#utility.yul\":5614:5617   */\n      dup6\n        /* \"#utility.yul\":5607:5611   */\n      0x20\n        /* \"#utility.yul\":5600:5605   */\n      dup7\n        /* \"#utility.yul\":5596:5612   */\n      add\n        /* \"#utility.yul\":5574:5626   */\n      tag_198\n      jump\t// in\n    tag_197:\n        /* \"#utility.yul\":5651:5657   */\n      dup1\n        /* \"#utility.yul\":5646:5649   */\n      dup5\n        /* \"#utility.yul\":5642:5658   */\n      add\n        /* \"#utility.yul\":5635:5658   */\n      swap2\n      pop\n        /* \"#utility.yul\":5399:5664   */\n      pop\n        /* \"#utility.yul\":5291:5664   */\n      swap3\n      swap2\n      pop\n      pop\n      jump\t// out\n        /* \"#utility.yul\":5670:6035   */\n    tag_199:\n        /* \"#utility.yul\":5812:5815   */\n      0x00\n        /* \"#utility.yul\":5833:5899   */\n      tag_201\n        /* \"#utility.yul\":5897:5898   */\n      0x03\n        /* \"#utility.yul\":5892:5895   */\n      dup4\n        /* \"#utility.yul\":5833:5899   */\n      tag_202\n      jump\t// in\n    tag_201:\n        /* \"#utility.yul\":5826:5899   */\n      swap2\n      pop\n        /* \"#utility.yul\":5908:6001   */\n      tag_203\n        /* \"#utility.yul\":5997:6000   */\n      dup3\n        /* \"#utility.yul\":5908:6001   */\n      tag_204\n      jump\t// in\n    tag_203:\n        /* \"#utility.yul\":6026:6028   */\n      0x20\n        /* \"#utility.yul\":6021:6024   */\n      dup3\n        /* \"#utility.yul\":6017:6029   */\n      add\n        /* \"#utility.yul\":6010:6029   */\n      swap1\n      pop\n        /* \"#utility.yul\":5670:6035   */\n      swap2\n      swap1\n      pop\n      jump\t// out\n        /* \"#utility.yul\":6041:6406   */\n    tag_205:\n        /* \"#utility.yul\":6183:6186   */\n      0x00\n        /* \"#utility.yul\":6204:6270   */\n      tag_207\n        /* \"#utility.yul\":6268:6269   */\n      0x03\n        /* \"#utility.yul\":6263:6266   */\n      dup4\n        /* \"#utility.yul\":6204:6270   */\n      tag_202\n      jump\t// in\n    tag_207:\n        /* \"#utility.yul\":6197:6270   */\n      swap2\n      pop\n        /* \"#utility.yul\":6279:6372   */\n      tag_208\n        /* \"#utility.yul\":6368:6371   */\n      dup3\n        /* \"#utility.yul\":6279:6372   */\n      tag_209\n      jump\t// in\n    tag_208:\n        /* \"#utility.yul\":6397:6399   */\n      0x20\n        /* \"#utility.yul\":6392:6395   */\n      dup3\n        /* \"#utility.yul\":6388:6400   */\n      add\n        /* \"#utility.yul\":6381:6400   */\n      swap1\n      pop\n        /* \"#utility.yul\":6041:6406   */\n      swap2\n      swap1\n      pop\n      jump\t// out\n        /* \"#utility.yul\":6412:6814   */\n    tag_210:\n        /* \"#utility.yul\":6572:6575   */\n      0x00\n        /* \"#utility.yul\":6593:6678   */\n      tag_212\n        /* \"#utility.yul\":6675:6677   */\n      0x1c\n        /* \"#utility.yul\":6670:6673   */\n      dup4\n        /* \"#utility.yul\":6593:6678   */\n      tag_213\n      jump\t// in\n    tag_212:\n        /* \"#utility.yul\":6586:6678   */\n      swap2\n      pop\n        /* \"#utility.yul\":6687:6780   */\n      tag_214\n        /* \"#utility.yul\":6776:6779   */\n      dup3\n        /* \"#utility.yul\":6687:6780   */\n      tag_215\n      jump\t// in\n    tag_214:\n        /* \"#utility.yul\":6805:6807   */\n      0x1c\n        /* \"#utility.yul\":6800:6803   */\n      dup3\n        /* \"#utility.yul\":6796:6808   */\n      add\n        /* \"#utility.yul\":6789:6808   */\n      swap1\n      pop\n        /* \"#utility.yul\":6412:6814   */\n      swap2\n      swap1\n      pop\n      jump\t// out\n        /* \"#utility.yul\":6820:7185   */\n    tag_216:\n        /* \"#utility.yul\":6962:6965   */\n      0x00\n        /* \"#utility.yul\":6983:7049   */\n      tag_218\n        /* \"#utility.yul\":7047:7048   */\n      0x03\n        /* \"#utility.yul\":7042:7045   */\n      dup4\n        /* \"#utility.yul\":6983:7049   */\n      tag_202\n      jump\t// in\n    tag_218:\n        /* \"#utility.yul\":6976:7049   */\n      swap2\n      pop\n        /* \"#utility.yul\":7058:7151   */\n      tag_219\n        /* \"#utility.yul\":7147:7150   */\n      dup3\n        /* \"#utility.yul\":7058:7151   */\n      tag_220\n      jump\t// in\n    tag_219:\n        /* \"#utility.yul\":7176:7178   */\n      0x20\n        /* \"#utility.yul\":7171:7174   */\n      dup3\n        /* \"#utility.yul\":7167:7179   */\n      add\n        /* \"#utility.yul\":7160:7179   */\n      swap1\n      pop\n        /* \"#utility.yul\":6820:7185   */\n      swap2\n      swap1\n      pop\n      jump\t// out\n        /* \"#utility.yul\":7191:7556   */\n    tag_221:\n        /* \"#utility.yul\":7333:7336   */\n      0x00\n        /* \"#utility.yul\":7354:7420   */\n      tag_223\n        /* \"#utility.yul\":7418:7419   */\n      0x03\n        /* \"#utility.yul\":7413:7416   */\n      dup4\n        /* \"#utility.yul\":7354:7420   */\n      tag_202\n      jump\t// in\n    tag_223:\n        /* \"#utility.yul\":7347:7420   */\n      swap2\n      pop\n        /* \"#utility.yul\":7429:7522   */\n      tag_224\n        /* \"#utility.yul\":7518:7521   */\n      dup3\n        /* \"#utility.yul\":7429:7522   */\n      tag_225\n      jump\t// in\n    tag_224:\n        /* \"#utility.yul\":7547:7549   */\n      0x20\n        /* \"#utility.yul\":7542:7545   */\n      dup3\n        /* \"#utility.yul\":7538:7550   */\n      add\n        /* \"#utility.yul\":7531:7550   */\n      swap1\n      pop\n        /* \"#utility.yul\":7191:7556   */\n      swap2\n      swap1\n      pop\n      jump\t// out\n        /* \"#utility.yul\":7562:7680   */\n    tag_226:\n        /* \"#utility.yul\":7649:7673   */\n      tag_228\n        /* \"#utility.yul\":7667:7672   */\n      dup2\n        /* \"#utility.yul\":7649:7673   */\n      tag_229\n      jump\t// in\n    tag_228:\n        /* \"#utility.yul\":7644:7647   */\n      dup3\n        /* \"#utility.yul\":7637:7674   */\n      mstore\n        /* \"#utility.yul\":7562:7680   */\n      pop\n      pop\n      jump\t// out\n        /* \"#utility.yul\":7686:7798   */\n    tag_230:\n        /* \"#utility.yul\":7769:7791   */\n      tag_232\n        /* \"#utility.yul\":7785:7790   */\n      dup2\n        /* \"#utility.yul\":7769:7791   */\n      tag_233\n      jump\t// in\n    tag_232:\n        /* \"#utility.yul\":7764:7767   */\n      dup3\n        /* \"#utility.yul\":7757:7792   */\n      mstore\n        /* \"#utility.yul\":7686:7798   */\n      pop\n      pop\n      jump\t// out\n        /* \"#utility.yul\":7804:8075   */\n    tag_69:\n        /* \"#utility.yul\":7934:7937   */\n      0x00\n        /* \"#utility.yul\":7956:8049   */\n      tag_235\n        /* \"#utility.yul\":8045:8048   */\n      dup3\n        /* \"#utility.yul\":8036:8042   */\n      dup5\n        /* \"#utility.yul\":7956:8049   */\n      tag_191\n      jump\t// in\n    tag_235:\n        /* \"#utility.yul\":7949:8049   */\n      swap2\n      pop\n        /* \"#utility.yul\":8066:8069   */\n      dup2\n        /* \"#utility.yul\":8059:8069   */\n      swap1\n      pop\n        /* \"#utility.yul\":7804:8075   */\n      swap3\n      swap2\n      pop\n      pop\n      jump\t// out\n        /* \"#utility.yul\":8081:8603   */\n    tag_95:\n        /* \"#utility.yul\":8294:8297   */\n      0x00\n        /* \"#utility.yul\":8316:8464   */\n      tag_237\n        /* \"#utility.yul\":8460:8463   */\n      dup3\n        /* \"#utility.yul\":8316:8464   */\n      tag_210\n      jump\t// in\n    tag_237:\n        /* \"#utility.yul\":8309:8464   */\n      swap2\n      pop\n        /* \"#utility.yul\":8474:8549   */\n      tag_238\n        /* \"#utility.yul\":8545:8548   */\n      dup3\n        /* \"#utility.yul\":8536:8542   */\n      dup5\n        /* \"#utility.yul\":8474:8549   */\n      tag_186\n      jump\t// in\n    tag_238:\n        /* \"#utility.yul\":8574:8576   */\n      0x20\n        /* \"#utility.yul\":8569:8572   */\n      dup3\n        /* \"#utility.yul\":8565:8577   */\n      add\n        /* \"#utility.yul\":8558:8577   */\n      swap2\n      pop\n        /* \"#utility.yul\":8594:8597   */\n      dup2\n        /* \"#utility.yul\":8587:8597   */\n      swap1\n      pop\n        /* \"#utility.yul\":8081:8603   */\n      swap3\n      swap2\n      pop\n      pop\n      jump\t// out\n        /* \"#utility.yul\":8609:8831   */\n    tag_20:\n        /* \"#utility.yul\":8702:8706   */\n      0x00\n        /* \"#utility.yul\":8740:8742   */\n      0x20\n        /* \"#utility.yul\":8729:8738   */\n      dup3\n        /* \"#utility.yul\":8725:8743   */\n      add\n        /* \"#utility.yul\":8717:8743   */\n      swap1\n      pop\n        /* \"#utility.yul\":8753:8824   */\n      tag_240\n        /* \"#utility.yul\":8821:8822   */\n      0x00\n        /* \"#utility.yul\":8810:8819   */\n      dup4\n        /* \"#utility.yul\":8806:8823   */\n      add\n        /* \"#utility.yul\":8797:8803   */\n      dup5\n        /* \"#utility.yul\":8753:8824   */\n      tag_174\n      jump\t// in\n    tag_240:\n        /* \"#utility.yul\":8609:8831   */\n      swap3\n      swap2\n      pop\n      pop\n      jump\t// out\n        /* \"#utility.yul\":8837:9501   */\n    tag_62:\n        /* \"#utility.yul\":9042:9046   */\n      0x00\n        /* \"#utility.yul\":9080:9083   */\n      0xa0\n        /* \"#utility.yul\":9069:9078   */\n      dup3\n        /* \"#utility.yul\":9065:9084   */\n      add\n        /* \"#utility.yul\":9057:9084   */\n      swap1\n      pop\n        /* \"#utility.yul\":9094:9165   */\n      tag_242\n        /* \"#utility.yul\":9162:9163   */\n      0x00\n        /* \"#utility.yul\":9151:9160   */\n      dup4\n        /* \"#utility.yul\":9147:9164   */\n      add\n        /* \"#utility.yul\":9138:9144   */\n      dup9\n        /* \"#utility.yul\":9094:9165   */\n      tag_174\n      jump\t// in\n    tag_242:\n        /* \"#utility.yul\":9175:9247   */\n      tag_243\n        /* \"#utility.yul\":9243:9245   */\n      0x20\n        /* \"#utility.yul\":9232:9241   */\n      dup4\n        /* \"#utility.yul\":9228:9246   */\n      add\n        /* \"#utility.yul\":9219:9225   */\n      dup8\n        /* \"#utility.yul\":9175:9247   */\n      tag_226\n      jump\t// in\n    tag_243:\n        /* \"#utility.yul\":9257:9329   */\n      tag_244\n        /* \"#utility.yul\":9325:9327   */\n      0x40\n        /* \"#utility.yul\":9314:9323   */\n      dup4\n        /* \"#utility.yul\":9310:9328   */\n      add\n        /* \"#utility.yul\":9301:9307   */\n      dup7\n        /* \"#utility.yul\":9257:9329   */\n      tag_182\n      jump\t// in\n    tag_244:\n        /* \"#utility.yul\":9339:9411   */\n      tag_245\n        /* \"#utility.yul\":9407:9409   */\n      0x60\n        /* \"#utility.yul\":9396:9405   */\n      dup4\n        /* \"#utility.yul\":9392:9410   */\n      add\n        /* \"#utility.yul\":9383:9389   */\n      dup6\n        /* \"#utility.yul\":9339:9411   */\n      tag_226\n      jump\t// in\n    tag_245:\n        /* \"#utility.yul\":9421:9494   */\n      tag_246\n        /* \"#utility.yul\":9489:9492   */\n      0x80\n        /* \"#utility.yul\":9478:9487   */\n      dup4\n        /* \"#utility.yul\":9474:9493   */\n      add\n        /* \"#utility.yul\":9465:9471   */\n      dup5\n        /* \"#utility.yul\":9421:9494   */\n      tag_226\n      jump\t// in\n    tag_246:\n        /* \"#utility.yul\":8837:9501   */\n      swap7\n      swap6\n      pop\n      pop\n      pop\n      pop\n      pop\n      pop\n      jump\t// out\n        /* \"#utility.yul\":9507:9717   */\n    tag_32:\n        /* \"#utility.yul\":9594:9598   */\n      0x00\n        /* \"#utility.yul\":9632:9634   */\n      0x20\n        /* \"#utility.yul\":9621:9630   */\n      dup3\n        /* \"#utility.yul\":9617:9635   */\n      add\n        /* \"#utility.yul\":9609:9635   */\n      swap1\n      pop\n        /* \"#utility.yul\":9645:9710   */\n      tag_248\n        /* \"#utility.yul\":9707:9708   */\n      0x00\n        /* \"#utility.yul\":9696:9705   */\n      dup4\n        /* \"#utility.yul\":9692:9709   */\n      add\n        /* \"#utility.yul\":9683:9689   */\n      dup5\n        /* \"#utility.yul\":9645:9710   */\n      tag_178\n      jump\t// in\n    tag_248:\n        /* \"#utility.yul\":9507:9717   */\n      swap3\n      swap2\n      pop\n      pop\n      jump\t// out\n        /* \"#utility.yul\":9723:9945   */\n    tag_43:\n        /* \"#utility.yul\":9816:9820   */\n      0x00\n        /* \"#utility.yul\":9854:9856   */\n      0x20\n        /* \"#utility.yul\":9843:9852   */\n      dup3\n        /* \"#utility.yul\":9839:9857   */\n      add\n        /* \"#utility.yul\":9831:9857   */\n      swap1\n      pop\n        /* \"#utility.yul\":9867:9938   */\n      tag_250\n        /* \"#utility.yul\":9935:9936   */\n      0x00\n        /* \"#utility.yul\":9924:9933   */\n      dup4\n        /* \"#utility.yul\":9920:9937   */\n      add\n        /* \"#utility.yul\":9911:9917   */\n      dup5\n        /* \"#utility.yul\":9867:9938   */\n      tag_182\n      jump\t// in\n    tag_250:\n        /* \"#utility.yul\":9723:9945   */\n      swap3\n      swap2\n      pop\n      pop\n      jump\t// out\n        /* \"#utility.yul\":9951:10496   */\n    tag_97:\n        /* \"#utility.yul\":10124:10128   */\n      0x00\n        /* \"#utility.yul\":10162:10165   */\n      0x80\n        /* \"#utility.yul\":10151:10160   */\n      dup3\n        /* \"#utility.yul\":10147:10166   */\n      add\n        /* \"#utility.yul\":10139:10166   */\n      swap1\n      pop\n        /* \"#utility.yul\":10176:10247   */\n      tag_252\n        /* \"#utility.yul\":10244:10245   */\n      0x00\n        /* \"#utility.yul\":10233:10242   */\n      dup4\n        /* \"#utility.yul\":10229:10246   */\n      add\n        /* \"#utility.yul\":10220:10226   */\n      dup8\n        /* \"#utility.yul\":10176:10247   */\n      tag_182\n      jump\t// in\n    tag_252:\n        /* \"#utility.yul\":10257:10325   */\n      tag_253\n        /* \"#utility.yul\":10321:10323   */\n      0x20\n        /* \"#utility.yul\":10310:10319   */\n      dup4\n        /* \"#utility.yul\":10306:10324   */\n      add\n        /* \"#utility.yul\":10297:10303   */\n      dup7\n        /* \"#utility.yul\":10257:10325   */\n      tag_230\n      jump\t// in\n    tag_253:\n        /* \"#utility.yul\":10335:10407   */\n      tag_254\n        /* \"#utility.yul\":10403:10405   */\n      0x40\n        /* \"#utility.yul\":10392:10401   */\n      dup4\n        /* \"#utility.yul\":10388:10406   */\n      add\n        /* \"#utility.yul\":10379:10385   */\n      dup6\n        /* \"#utility.yul\":10335:10407   */\n      tag_182\n      jump\t// in\n    tag_254:\n        /* \"#utility.yul\":10417:10489   */\n      tag_255\n        /* \"#utility.yul\":10485:10487   */\n      0x60\n        /* \"#utility.yul\":10474:10483   */\n      dup4\n        /* \"#utility.yul\":10470:10488   */\n      add\n        /* \"#utility.yul\":10461:10467   */\n      dup5\n        /* \"#utility.yul\":10417:10489   */\n      tag_182\n      jump\t// in\n    tag_255:\n        /* \"#utility.yul\":9951:10496   */\n      swap6\n      swap5\n      pop\n      pop\n      pop\n      pop\n      pop\n      jump\t// out\n        /* \"#utility.yul\":10502:10921   */\n    tag_103:\n        /* \"#utility.yul\":10668:10672   */\n      0x00\n        /* \"#utility.yul\":10706:10708   */\n      0x20\n        /* \"#utility.yul\":10695:10704   */\n      dup3\n        /* \"#utility.yul\":10691:10709   */\n      add\n        /* \"#utility.yul\":10683:10709   */\n      swap1\n      pop\n        /* \"#utility.yul\":10755:10764   */\n      dup2\n        /* \"#utility.yul\":10749:10753   */\n      dup2\n        /* \"#utility.yul\":10745:10765   */\n      sub\n        /* \"#utility.yul\":10741:10742   */\n      0x00\n        /* \"#utility.yul\":10730:10739   */\n      dup4\n        /* \"#utility.yul\":10726:10743   */\n      add\n        /* \"#utility.yul\":10719:10766   */\n      mstore\n        /* \"#utility.yul\":10783:10914   */\n      tag_257\n        /* \"#utility.yul\":10909:10913   */\n      dup2\n        /* \"#utility.yul\":10783:10914   */\n      tag_199\n      jump\t// in\n    tag_257:\n        /* \"#utility.yul\":10775:10914   */\n      swap1\n      pop\n        /* \"#utility.yul\":10502:10921   */\n      swap2\n      swap1\n      pop\n      jump\t// out\n        /* \"#utility.yul\":10927:11346   */\n    tag_83:\n        /* \"#utility.yul\":11093:11097   */\n      0x00\n        /* \"#utility.yul\":11131:11133   */\n      0x20\n        /* \"#utility.yul\":11120:11129   */\n      dup3\n        /* \"#utility.yul\":11116:11134   */\n      add\n        /* \"#utility.yul\":11108:11134   */\n      swap1\n      pop\n        /* \"#utility.yul\":11180:11189   */\n      dup2\n        /* \"#utility.yul\":11174:11178   */\n      dup2\n        /* \"#utility.yul\":11170:11190   */\n      sub\n        /* \"#utility.yul\":11166:11167   */\n      0x00\n        /* \"#utility.yul\":11155:11164   */\n      dup4\n        /* \"#utility.yul\":11151:11168   */\n      add\n        /* \"#utility.yul\":11144:11191   */\n      mstore\n        /* \"#utility.yul\":11208:11339   */\n      tag_259\n        /* \"#utility.yul\":11334:11338   */\n      dup2\n        /* \"#utility.yul\":11208:11339   */\n      tag_205\n      jump\t// in\n    tag_259:\n        /* \"#utility.yul\":11200:11339   */\n      swap1\n      pop\n        /* \"#utility.yul\":10927:11346   */\n      swap2\n      swap1\n      pop\n      jump\t// out\n        /* \"#utility.yul\":11352:11771   */\n    tag_75:\n        /* \"#utility.yul\":11518:11522   */\n      0x00\n        /* \"#utility.yul\":11556:11558   */\n      0x20\n        /* \"#utility.yul\":11545:11554   */\n      dup3\n        /* \"#utility.yul\":11541:11559   */\n      add\n        /* \"#utility.yul\":11533:11559   */\n      swap1\n      pop\n        /* \"#utility.yul\":11605:11614   */\n      dup2\n        /* \"#utility.yul\":11599:11603   */\n      dup2\n        /* \"#utility.yul\":11595:11615   */\n      sub\n        /* \"#utility.yul\":11591:11592   */\n      0x00\n        /* \"#utility.yul\":11580:11589   */\n      dup4\n        /* \"#utility.yul\":11576:11593   */\n      add\n        /* \"#utility.yul\":11569:11616   */\n      mstore\n        /* \"#utility.yul\":11633:11764   */\n      tag_261\n        /* \"#utility.yul\":11759:11763   */\n      dup2\n        /* \"#utility.yul\":11633:11764   */\n      tag_216\n      jump\t// in\n    tag_261:\n        /* \"#utility.yul\":11625:11764   */\n      swap1\n      pop\n        /* \"#utility.yul\":11352:11771   */\n      swap2\n      swap1\n      pop\n      jump\t// out\n        /* \"#utility.yul\":11777:12196   */\n    tag_88:\n        /* \"#utility.yul\":11943:11947   */\n      0x00\n        /* \"#utility.yul\":11981:11983   */\n      0x20\n        /* \"#utility.yul\":11970:11979   */\n      dup3\n        /* \"#utility.yul\":11966:11984   */\n      add\n        /* \"#utility.yul\":11958:11984   */\n      swap1\n      pop\n        /* \"#utility.yul\":12030:12039   */\n      dup2\n        /* \"#utility.yul\":12024:12028   */\n      dup2\n        /* \"#utility.yul\":12020:12040   */\n      sub\n        /* \"#utility.yul\":12016:12017   */\n      0x00\n        /* \"#utility.yul\":12005:12014   */\n      dup4\n        /* \"#utility.yul\":12001:12018   */\n      add\n        /* \"#utility.yul\":11994:12041   */\n      mstore\n        /* \"#utility.yul\":12058:12189   */\n      tag_263\n        /* \"#utility.yul\":12184:12188   */\n      dup2\n        /* \"#utility.yul\":12058:12189   */\n      tag_221\n      jump\t// in\n    tag_263:\n        /* \"#utility.yul\":12050:12189   */\n      swap1\n      pop\n        /* \"#utility.yul\":11777:12196   */\n      swap2\n      swap1\n      pop\n      jump\t// out\n        /* \"#utility.yul\":12202:12424   */\n    tag_25:\n        /* \"#utility.yul\":12295:12299   */\n      0x00\n        /* \"#utility.yul\":12333:12335   */\n      0x20\n        /* \"#utility.yul\":12322:12331   */\n      dup3\n        /* \"#utility.yul\":12318:12336   */\n      add\n        /* \"#utility.yul\":12310:12336   */\n      swap1\n      pop\n        /* \"#utility.yul\":12346:12417   */\n      tag_265\n        /* \"#utility.yul\":12414:12415   */\n      0x00\n        /* \"#utility.yul\":12403:12412   */\n      dup4\n        /* \"#utility.yul\":12399:12416   */\n      add\n        /* \"#utility.yul\":12390:12396   */\n      dup5\n        /* \"#utility.yul\":12346:12417   */\n      tag_226\n      jump\t// in\n    tag_265:\n        /* \"#utility.yul\":12202:12424   */\n      swap3\n      swap2\n      pop\n      pop\n      jump\t// out\n        /* \"#utility.yul\":12430:12559   */\n    tag_112:\n        /* \"#utility.yul\":12464:12470   */\n      0x00\n        /* \"#utility.yul\":12491:12511   */\n      tag_267\n      tag_268\n      jump\t// in\n    tag_267:\n        /* \"#utility.yul\":12481:12511   */\n      swap1\n      pop\n        /* \"#utility.yul\":12520:12553   */\n      tag_269\n        /* \"#utility.yul\":12548:12552   */\n      dup3\n        /* \"#utility.yul\":12540:12546   */\n      dup3\n        /* \"#utility.yul\":12520:12553   */\n      tag_270\n      jump\t// in\n    tag_269:\n        /* \"#utility.yul\":12430:12559   */\n      swap2\n      swap1\n      pop\n      jump\t// out\n        /* \"#utility.yul\":12565:12640   */\n    tag_268:\n        /* \"#utility.yul\":12598:12604   */\n      0x00\n        /* \"#utility.yul\":12631:12633   */\n      0x40\n        /* \"#utility.yul\":12625:12634   */\n      mload\n        /* \"#utility.yul\":12615:12634   */\n      swap1\n      pop\n        /* \"#utility.yul\":12565:12640   */\n      swap1\n      jump\t// out\n        /* \"#utility.yul\":12646:12953   */\n    tag_111:\n        /* \"#utility.yul\":12707:12711   */\n      0x00\n        /* \"#utility.yul\":12797:12815   */\n      0xffffffffffffffff\n        /* \"#utility.yul\":12789:12795   */\n      dup3\n        /* \"#utility.yul\":12786:12816   */\n      gt\n        /* \"#utility.yul\":12783:12839   */\n      iszero\n      tag_273\n      jumpi\n        /* \"#utility.yul\":12819:12837   */\n      tag_274\n      tag_275\n      jump\t// in\n    tag_274:\n        /* \"#utility.yul\":12783:12839   */\n    tag_273:\n        /* \"#utility.yul\":12857:12886   */\n      tag_276\n        /* \"#utility.yul\":12879:12885   */\n      dup3\n        /* \"#utility.yul\":12857:12886   */\n      tag_277\n      jump\t// in\n    tag_276:\n        /* \"#utility.yul\":12849:12886   */\n      swap1\n      pop\n        /* \"#utility.yul\":12941:12945   */\n      0x20\n        /* \"#utility.yul\":12935:12939   */\n      dup2\n        /* \"#utility.yul\":12931:12946   */\n      add\n        /* \"#utility.yul\":12923:12946   */\n      swap1\n      pop\n        /* \"#utility.yul\":12646:12953   */\n      swap2\n      swap1\n      pop\n      jump\t// out\n        /* \"#utility.yul\":12959:13057   */\n    tag_194:\n        /* \"#utility.yul\":13010:13016   */\n      0x00\n        /* \"#utility.yul\":13044:13049   */\n      dup2\n        /* \"#utility.yul\":13038:13050   */\n      mload\n        /* \"#utility.yul\":13028:13050   */\n      swap1\n      pop\n        /* \"#utility.yul\":12959:13057   */\n      swap2\n      swap1\n      pop\n      jump\t// out\n        /* \"#utility.yul\":13063:13210   */\n    tag_196:\n        /* \"#utility.yul\":13164:13175   */\n      0x00\n        /* \"#utility.yul\":13201:13204   */\n      dup2\n        /* \"#utility.yul\":13186:13204   */\n      swap1\n      pop\n        /* \"#utility.yul\":13063:13210   */\n      swap3\n      swap2\n      pop\n      pop\n      jump\t// out\n        /* \"#utility.yul\":13216:13385   */\n    tag_202:\n        /* \"#utility.yul\":13300:13311   */\n      0x00\n        /* \"#utility.yul\":13334:13340   */\n      dup3\n        /* \"#utility.yul\":13329:13332   */\n      dup3\n        /* \"#utility.yul\":13322:13341   */\n      mstore\n        /* \"#utility.yul\":13374:13378   */\n      0x20\n        /* \"#utility.yul\":13369:13372   */\n      dup3\n        /* \"#utility.yul\":13365:13379   */\n      add\n        /* \"#utility.yul\":13350:13379   */\n      swap1\n      pop\n        /* \"#utility.yul\":13216:13385   */\n      swap3\n      swap2\n      pop\n      pop\n      jump\t// out\n        /* \"#utility.yul\":13391:13539   */\n    tag_213:\n        /* \"#utility.yul\":13493:13504   */\n      0x00\n        /* \"#utility.yul\":13530:13533   */\n      dup2\n        /* \"#utility.yul\":13515:13533   */\n      swap1\n      pop\n        /* \"#utility.yul\":13391:13539   */\n      swap3\n      swap2\n      pop\n      pop\n      jump\t// out\n        /* \"#utility.yul\":13545:13893   */\n    tag_85:\n        /* \"#utility.yul\":13585:13592   */\n      0x00\n        /* \"#utility.yul\":13608:13628   */\n      tag_283\n        /* \"#utility.yul\":13626:13627   */\n      dup3\n        /* \"#utility.yul\":13608:13628   */\n      tag_229\n      jump\t// in\n    tag_283:\n        /* \"#utility.yul\":13603:13628   */\n      swap2\n      pop\n        /* \"#utility.yul\":13642:13662   */\n      tag_284\n        /* \"#utility.yul\":13660:13661   */\n      dup4\n        /* \"#utility.yul\":13642:13662   */\n      tag_229\n      jump\t// in\n    tag_284:\n        /* \"#utility.yul\":13637:13662   */\n      swap3\n      pop\n        /* \"#utility.yul\":13830:13831   */\n      dup2\n        /* \"#utility.yul\":13762:13828   */\n      0xffffffffffffffffffffffffffffffffffffffffffffffffffffffffffffffff\n        /* \"#utility.yul\":13758:13832   */\n      div\n        /* \"#utility.yul\":13755:13756   */\n      dup4\n        /* \"#utility.yul\":13752:13833   */\n      gt\n        /* \"#utility.yul\":13747:13748   */\n      dup3\n        /* \"#utility.yul\":13740:13749   */\n      iszero\n        /* \"#utility.yul\":13733:13750   */\n      iszero\n        /* \"#utility.yul\":13729:13834   */\n      and\n        /* \"#utility.yul\":13726:13857   */\n      iszero\n      tag_285\n      jumpi\n        /* \"#utility.yul\":13837:13855   */\n      tag_286\n      tag_287\n      jump\t// in\n    tag_286:\n        /* \"#utility.yul\":13726:13857   */\n    tag_285:\n        /* \"#utility.yul\":13885:13886   */\n      dup3\n        /* \"#utility.yul\":13882:13883   */\n      dup3\n        /* \"#utility.yul\":13878:13887   */\n      mul\n        /* \"#utility.yul\":13867:13887   */\n      swap1\n      pop\n        /* \"#utility.yul\":13545:13893   */\n      swap3\n      swap2\n      pop\n      pop\n      jump\t// out\n        /* \"#utility.yul\":13899:13995   */\n    tag_177:\n        /* \"#utility.yul\":13936:13943   */\n      0x00\n        /* \"#utility.yul\":13965:13989   */\n      tag_289\n        /* \"#utility.yul\":13983:13988   */\n      dup3\n        /* \"#utility.yul\":13965:13989   */\n      tag_290\n      jump\t// in\n    tag_289:\n        /* \"#utility.yul\":13954:13989   */\n      swap1\n      pop\n        /* \"#utility.yul\":13899:13995   */\n      swap2\n      swap1\n      pop\n      jump\t// out\n        /* \"#utility.yul\":14001:14091   */\n    tag_181:\n        /* \"#utility.yul\":14035:14042   */\n      0x00\n        /* \"#utility.yul\":14078:14083   */\n      dup2\n        /* \"#utility.yul\":14071:14084   */\n      iszero\n        /* \"#utility.yul\":14064:14085   */\n      iszero\n        /* \"#utility.yul\":14053:14085   */\n      swap1\n      pop\n        /* \"#utility.yul\":14001:14091   */\n      swap2\n      swap1\n      pop\n      jump\t// out\n        /* \"#utility.yul\":14097:14174   */\n    tag_185:\n        /* \"#utility.yul\":14134:14141   */\n      0x00\n        /* \"#utility.yul\":14163:14168   */\n      dup2\n        /* \"#utility.yul\":14152:14168   */\n      swap1\n      pop\n        /* \"#utility.yul\":14097:14174   */\n      swap2\n      swap1\n      pop\n      jump\t// out\n        /* \"#utility.yul\":14180:14306   */\n    tag_290:\n        /* \"#utility.yul\":14217:14224   */\n      0x00\n        /* \"#utility.yul\":14257:14299   */\n      0xffffffffffffffffffffffffffffffffffffffff\n        /* \"#utility.yul\":14250:14255   */\n      dup3\n        /* \"#utility.yul\":14246:14300   */\n      and\n        /* \"#utility.yul\":14235:14300   */\n      swap1\n      pop\n        /* \"#utility.yul\":14180:14306   */\n      swap2\n      swap1\n      pop\n      jump\t// out\n        /* \"#utility.yul\":14312:14389   */\n    tag_229:\n        /* \"#utility.yul\":14349:14356   */\n      0x00\n        /* \"#utility.yul\":14378:14383   */\n      dup2\n        /* \"#utility.yul\":14367:14383   */\n      swap1\n      pop\n        /* \"#utility.yul\":14312:14389   */\n      swap2\n      swap1\n      pop\n      jump\t// out\n        /* \"#utility.yul\":14395:14481   */\n    tag_233:\n        /* \"#utility.yul\":14430:14437   */\n      0x00\n        /* \"#utility.yul\":14470:14474   */\n      0xff\n        /* \"#utility.yul\":14463:14468   */\n      dup3\n        /* \"#utility.yul\":14459:14475   */\n      and\n        /* \"#utility.yul\":14448:14475   */\n      swap1\n      pop\n        /* \"#utility.yul\":14395:14481   */\n      swap2\n      swap1\n      pop\n      jump\t// out\n        /* \"#utility.yul\":14487:14641   */\n    tag_117:\n        /* \"#utility.yul\":14571:14577   */\n      dup3\n        /* \"#utility.yul\":14566:14569   */\n      dup2\n        /* \"#utility.yul\":14561:14564   */\n      dup4\n        /* \"#utility.yul\":14548:14578   */\n      calldatacopy\n        /* \"#utility.yul\":14633:14634   */\n      0x00\n        /* \"#utility.yul\":14624:14630   */\n      dup4\n        /* \"#utility.yul\":14619:14622   */\n      dup4\n        /* \"#utility.yul\":14615:14631   */\n      add\n        /* \"#utility.yul\":14608:14635   */\n      mstore\n        /* \"#utility.yul\":14487:14641   */\n      pop\n      pop\n      pop\n      jump\t// out\n        /* \"#utility.yul\":14647:14954   */\n    tag_198:\n        /* \"#utility.yul\":14715:14716   */\n      0x00\n        /* \"#utility.yul\":14725:14838   */\n    tag_298:\n        /* \"#utility.yul\":14739:14745   */\n      dup4\n        /* \"#utility.yul\":14736:14737   */\n      dup2\n        /* \"#utility.yul\":14733:14746   */\n      lt\n        /* \"#utility.yul\":14725:14838   */\n      iszero\n      tag_300\n      jumpi\n        /* \"#utility.yul\":14824:14825   */\n      dup1\n        /* \"#utility.yul\":14819:14822   */\n      dup3\n        /* \"#utility.yul\":14815:14826   */\n      add\n        /* \"#utility.yul\":14809:14827   */\n      mload\n        /* \"#utility.yul\":14805:14806   */\n      dup2\n        /* \"#utility.yul\":14800:14803   */\n      dup5\n        /* \"#utility.yul\":14796:14807   */\n      add\n        /* \"#utility.yul\":14789:14828   */\n      mstore\n        /* \"#utility.yul\":14761:14763   */\n      0x20\n        /* \"#utility.yul\":14758:14759   */\n      dup2\n        /* \"#utility.yul\":14754:14764   */\n      add\n        /* \"#utility.yul\":14749:14764   */\n      swap1\n      pop\n        /* \"#utility.yul\":14725:14838   */\n      jump(tag_298)\n    tag_300:\n        /* \"#utility.yul\":14856:14862   */\n      dup4\n        /* \"#utility.yul\":14853:14854   */\n      dup2\n        /* \"#utility.yul\":14850:14863   */\n      gt\n        /* \"#utility.yul\":14847:14948   */\n      iszero\n      tag_301\n      jumpi\n        /* \"#utility.yul\":14936:14937   */\n      0x00\n        /* \"#utility.yul\":14927:14933   */\n      dup5\n        /* \"#utility.yul\":14922:14925   */\n      dup5\n        /* \"#utility.yul\":14918:14934   */\n      add\n        /* \"#utility.yul\":14911:14938   */\n      mstore\n        /* \"#utility.yul\":14847:14948   */\n    tag_301:\n        /* \"#utility.yul\":14696:14954   */\n      pop\n        /* \"#utility.yul\":14647:14954   */\n      pop\n      pop\n      pop\n      jump\t// out\n        /* \"#utility.yul\":14960:15241   */\n    tag_270:\n        /* \"#utility.yul\":15043:15070   */\n      tag_303\n        /* \"#utility.yul\":15065:15069   */\n      dup3\n        /* \"#utility.yul\":15043:15070   */\n      tag_277\n      jump\t// in\n    tag_303:\n        /* \"#utility.yul\":15035:15041   */\n      dup2\n        /* \"#utility.yul\":15031:15071   */\n      add\n        /* \"#utility.yul\":15173:15179   */\n      dup2\n        /* \"#utility.yul\":15161:15171   */\n      dup2\n        /* \"#utility.yul\":15158:15180   */\n      lt\n        /* \"#utility.yul\":15137:15155   */\n      0xffffffffffffffff\n        /* \"#utility.yul\":15125:15135   */\n      dup3\n        /* \"#utility.yul\":15122:15156   */\n      gt\n        /* \"#utility.yul\":15119:15181   */\n      or\n        /* \"#utility.yul\":15116:15204   */\n      iszero\n      tag_304\n      jumpi\n        /* \"#utility.yul\":15184:15202   */\n      tag_305\n      tag_275\n      jump\t// in\n    tag_305:\n        /* \"#utility.yul\":15116:15204   */\n    tag_304:\n        /* \"#utility.yul\":15224:15234   */\n      dup1\n        /* \"#utility.yul\":15220:15222   */\n      0x40\n        /* \"#utility.yul\":15213:15235   */\n      mstore\n        /* \"#utility.yul\":15003:15241   */\n      pop\n        /* \"#utility.yul\":14960:15241   */\n      pop\n      pop\n      jump\t// out\n        /* \"#utility.yul\":15247:15480   */\n    tag_66:\n        /* \"#utility.yul\":15286:15289   */\n      0x00\n        /* \"#utility.yul\":15309:15333   */\n      tag_307\n        /* \"#utility.yul\":15327:15332   */\n      dup3\n        /* \"#utility.yul\":15309:15333   */\n      tag_229\n      jump\t// in\n    tag_307:\n        /* \"#utility.yul\":15300:15333   */\n      swap2\n      pop\n        /* \"#utility.yul\":15355:15421   */\n      0xffffffffffffffffffffffffffffffffffffffffffffffffffffffffffffffff\n        /* \"#utility.yul\":15348:15353   */\n      dup3\n        /* \"#utility.yul\":15345:15422   */\n      eq\n        /* \"#utility.yul\":15342:15445   */\n      iszero\n      tag_308\n      jumpi\n        /* \"#utility.yul\":15425:15443   */\n      tag_309\n      tag_287\n      jump\t// in\n    tag_309:\n        /* \"#utility.yul\":15342:15445   */\n    tag_308:\n        /* \"#utility.yul\":15472:15473   */\n      0x01\n        /* \"#utility.yul\":15465:15470   */\n      dup3\n        /* \"#utility.yul\":15461:15474   */\n      add\n        /* \"#utility.yul\":15454:15474   */\n      swap1\n      pop\n        /* \"#utility.yul\":15247:15480   */\n      swap2\n      swap1\n      pop\n      jump\t// out\n        /* \"#utility.yul\":15486:15565   */\n    tag_190:\n        /* \"#utility.yul\":15525:15532   */\n      0x00\n        /* \"#utility.yul\":15554:15559   */\n      dup2\n        /* \"#utility.yul\":15543:15559   */\n      swap1\n      pop\n        /* \"#utility.yul\":15486:15565   */\n      swap2\n      swap1\n      pop\n      jump\t// out\n        /* \"#utility.yul\":15571:15751   */\n    tag_287:\n        /* \"#utility.yul\":15619:15696   */\n      0x4e487b7100000000000000000000000000000000000000000000000000000000\n        /* \"#utility.yul\":15616:15617   */\n      0x00\n        /* \"#utility.yul\":15609:15697   */\n      mstore\n        /* \"#utility.yul\":15716:15720   */\n      0x11\n        /* \"#utility.yul\":15713:15714   */\n      0x04\n        /* \"#utility.yul\":15706:15721   */\n      mstore\n        /* \"#utility.yul\":15740:15744   */\n      0x24\n        /* \"#utility.yul\":15737:15738   */\n      0x00\n        /* \"#utility.yul\":15730:15745   */\n      revert\n        /* \"#utility.yul\":15757:15937   */\n    tag_275:\n        /* \"#utility.yul\":15805:15882   */\n      0x4e487b7100000000000000000000000000000000000000000000000000000000\n        /* \"#utility.yul\":15802:15803   */\n      0x00\n        /* \"#utility.yul\":15795:15883   */\n      mstore\n        /* \"#utility.yul\":15902:15906   */\n      0x41\n        /* \"#utility.yul\":15899:15900   */\n      0x04\n        /* \"#utility.yul\":15892:15907   */\n      mstore\n        /* \"#utility.yul\":15926:15930   */\n      0x24\n        /* \"#utility.yul\":15923:15924   */\n      0x00\n        /* \"#utility.yul\":15916:15931   */\n      revert\n        /* \"#utility.yul\":15943:16060   */\n    tag_130:\n        /* \"#utility.yul\":16052:16053   */\n      0x00\n        /* \"#utility.yul\":16049:16050   */\n      dup1\n        /* \"#utility.yul\":16042:16054   */\n      revert\n        /* \"#utility.yul\":16066:16183   */\n    tag_115:\n        /* \"#utility.yul\":16175:16176   */\n      0x00\n        /* \"#utility.yul\":16172:16173   */\n      dup1\n        /* \"#utility.yul\":16165:16177   */\n      revert\n        /* \"#utility.yul\":16189:16306   */\n    tag_148:\n        /* \"#utility.yul\":16298:16299   */\n      0x00\n        /* \"#utility.yul\":16295:16296   */\n      dup1\n        /* \"#utility.yul\":16288:16300   */\n      revert\n        /* \"#utility.yul\":16312:16429   */\n    tag_139:\n        /* \"#utility.yul\":16421:16422   */\n      0x00\n        /* \"#utility.yul\":16418:16419   */\n      dup1\n        /* \"#utility.yul\":16411:16423   */\n      revert\n        /* \"#utility.yul\":16435:16537   */\n    tag_277:\n        /* \"#utility.yul\":16476:16482   */\n      0x00\n        /* \"#utility.yul\":16527:16529   */\n      0x1f\n        /* \"#utility.yul\":16523:16530   */\n      not\n        /* \"#utility.yul\":16518:16520   */\n      0x1f\n        /* \"#utility.yul\":16511:16516   */\n      dup4\n        /* \"#utility.yul\":16507:16521   */\n      add\n        /* \"#utility.yul\":16503:16531   */\n      and\n        /* \"#utility.yul\":16493:16531   */\n      swap1\n      pop\n        /* \"#utility.yul\":16435:16537   */\n      swap2\n      swap1\n      pop\n      jump\t// out\n        /* \"#utility.yul\":16543:16696   */\n    tag_204:\n        /* \"#utility.yul\":16683:16688   */\n      0x3030380000000000000000000000000000000000000000000000000000000000\n        /* \"#utility.yul\":16679:16680   */\n      0x00\n        /* \"#utility.yul\":16671:16677   */\n      dup3\n        /* \"#utility.yul\":16667:16681   */\n      add\n        /* \"#utility.yul\":16660:16689   */\n      mstore\n        /* \"#utility.yul\":16543:16696   */\n      pop\n      jump\t// out\n        /* \"#utility.yul\":16702:16855   */\n    tag_209:\n        /* \"#utility.yul\":16842:16847   */\n      0x3030360000000000000000000000000000000000000000000000000000000000\n        /* \"#utility.yul\":16838:16839   */\n      0x00\n        /* \"#utility.yul\":16830:16836   */\n      dup3\n        /* \"#utility.yul\":16826:16840   */\n      add\n        /* \"#utility.yul\":16819:16848   */\n      mstore\n        /* \"#utility.yul\":16702:16855   */\n      pop\n      jump\t// out\n        /* \"#utility.yul\":16861:17075   */\n    tag_215:\n        /* \"#utility.yul\":17001:17067   */\n      0x19457468657265756d205369676e6564204d6573736167653a0a333200000000\n        /* \"#utility.yul\":16997:16998   */\n      0x00\n        /* \"#utility.yul\":16989:16995   */\n      dup3\n        /* \"#utility.yul\":16985:16999   */\n      add\n        /* \"#utility.yul\":16978:17068   */\n      mstore\n        /* \"#utility.yul\":16861:17075   */\n      pop\n      jump\t// out\n        /* \"#utility.yul\":17081:17234   */\n    tag_220:\n        /* \"#utility.yul\":17221:17226   */\n      0x3030350000000000000000000000000000000000000000000000000000000000\n        /* \"#utility.yul\":17217:17218   */\n      0x00\n        /* \"#utility.yul\":17209:17215   */\n      dup3\n        /* \"#utility.yul\":17205:17219   */\n      add\n        /* \"#utility.yul\":17198:17227   */\n      mstore\n        /* \"#utility.yul\":17081:17234   */\n      pop\n      jump\t// out\n        /* \"#utility.yul\":17240:17393   */\n    tag_225:\n        /* \"#utility.yul\":17380:17385   */\n      0x3030370000000000000000000000000000000000000000000000000000000000\n        /* \"#utility.yul\":17376:17377   */\n      0x00\n        /* \"#utility.yul\":17368:17374   */\n      dup3\n        /* \"#utility.yul\":17364:17378   */\n      add\n        /* \"#utility.yul\":17357:17386   */\n      mstore\n        /* \"#utility.yul\":17240:17393   */\n      pop\n      jump\t// out\n        /* \"#utility.yul\":17399:17521   */\n    tag_121:\n        /* \"#utility.yul\":17472:17496   */\n      tag_324\n        /* \"#utility.yul\":17490:17495   */\n      dup2\n        /* \"#utility.yul\":17472:17496   */\n      tag_177\n      jump\t// in\n    tag_324:\n        /* \"#utility.yul\":17465:17470   */\n      dup2\n        /* \"#utility.yul\":17462:17497   */\n      eq\n        /* \"#utility.yul\":17452:17515   */\n      tag_325\n      jumpi\n        /* \"#utility.yul\":17511:17512   */\n      0x00\n        /* \"#utility.yul\":17508:17509   */\n      dup1\n        /* \"#utility.yul\":17501:17513   */\n      revert\n        /* \"#utility.yul\":17452:17515   */\n    tag_325:\n        /* \"#utility.yul\":17399:17521   */\n      pop\n      jump\t// out\n        /* \"#utility.yul\":17527:17649   */\n    tag_125:\n        /* \"#utility.yul\":17600:17624   */\n      tag_327\n        /* \"#utility.yul\":17618:17623   */\n      dup2\n        /* \"#utility.yul\":17600:17624   */\n      tag_185\n      jump\t// in\n    tag_327:\n        /* \"#utility.yul\":17593:17598   */\n      dup2\n        /* \"#utility.yul\":17590:17625   */\n      eq\n        /* \"#utility.yul\":17580:17643   */\n      tag_328\n      jumpi\n        /* \"#utility.yul\":17639:17640   */\n      0x00\n        /* \"#utility.yul\":17636:17637   */\n      dup1\n        /* \"#utility.yul\":17629:17641   */\n      revert\n        /* \"#utility.yul\":17580:17643   */\n    tag_328:\n        /* \"#utility.yul\":17527:17649   */\n      pop\n      jump\t// out\n        /* \"#utility.yul\":17655:17777   */\n    tag_135:\n        /* \"#utility.yul\":17728:17752   */\n      tag_330\n        /* \"#utility.yul\":17746:17751   */\n      dup2\n        /* \"#utility.yul\":17728:17752   */\n      tag_229\n      jump\t// in\n    tag_330:\n        /* \"#utility.yul\":17721:17726   */\n      dup2\n        /* \"#utility.yul\":17718:17753   */\n      eq\n        /* \"#utility.yul\":17708:17771   */\n      tag_331\n      jumpi\n        /* \"#utility.yul\":17767:17768   */\n      0x00\n        /* \"#utility.yul\":17764:17765   */\n      dup1\n        /* \"#utility.yul\":17757:17769   */\n      revert\n        /* \"#utility.yul\":17708:17771   */\n    tag_331:\n        /* \"#utility.yul\":17655:17777   */\n      pop\n      jump\t// out\n\n    auxdata: 0xa2646970667358221220899a27d0b8c8a3fc6d38196e37672c4854b1c40b91373958c4980c4de6d91b6264736f6c63430008070033\n}\n",
				"bytecode": {
					"linkReferences": {},
					"object": "60806040523480156200001157600080fd5b50604051620018613803806200186183398181016040528101906200003791906200041a565b6200004982826200005160201b60201c565b505062000859565b60006003541462000099576040517f08c379a0000000000000000000000000000000000000000000000000000000008152600401620000909062000560565b60405180910390fd5b8151811115620000e0576040517f08c379a0000000000000000000000000000000000000000000000000000000008152600401620000d7906200051c565b60405180910390fd5b600181101562000127576040517f08c379a00000000000000000000000000000000000000000000000000000000081526004016200011e9062000582565b60405180910390fd5b60005b82518110156200032a5760008382815181106200014c576200014b620006fe565b5b60200260200101519050600073ffffffffffffffffffffffffffffffffffffffff168173ffffffffffffffffffffffffffffffffffffffff1614158015620001c057503073ffffffffffffffffffffffffffffffffffffffff168173ffffffffffffffffffffffffffffffffffffffff1614155b8015620002175750600160008273ffffffffffffffffffffffffffffffffffffffff1673ffffffffffffffffffffffffffffffffffffffff16815260200190815260200160002060009054906101000a900460ff16155b62000259576040517f08c379a000000000000000000000000000000000000000000000000000000000815260040162000250906200053e565b60405180910390fd5b6000819080600181540180825580915050600190039060005260206000200160009091909190916101000a81548173ffffffffffffffffffffffffffffffffffffffff021916908373ffffffffffffffffffffffffffffffffffffffff16021790555060018060008373ffffffffffffffffffffffffffffffffffffffff1673ffffffffffffffffffffffffffffffffffffffff16815260200190815260200160002060006101000a81548160ff021916908315150217905550508080620003219062000681565b9150506200012a565b508151600281905550806003819055505050565b6000620003556200034f84620005cd565b620005a4565b905080838252602082019050828560208602820111156200037b576200037a62000761565b5b60005b85811015620003af5781620003948882620003b9565b8452602084019350602083019250506001810190506200037e565b5050509392505050565b600081519050620003ca8162000825565b92915050565b600082601f830112620003e857620003e76200075c565b5b8151620003fa8482602086016200033e565b91505092915050565b60008151905062000414816200083f565b92915050565b600080604083850312156200043457620004336200076b565b5b600083015167ffffffffffffffff81111562000455576200045462000766565b5b6200046385828601620003d0565b9250506020620004768582860162000403565b9150509250929050565b60006200048f600383620005fc565b91506200049c8262000781565b602082019050919050565b6000620004b6600383620005fc565b9150620004c382620007aa565b602082019050919050565b6000620004dd600383620005fc565b9150620004ea82620007d3565b602082019050919050565b600062000504600383620005fc565b91506200051182620007fc565b602082019050919050565b60006020820190508181036000830152620005378162000480565b9050919050565b600060208201905081810360008301526200055981620004a7565b9050919050565b600060208201905081810360008301526200057b81620004ce565b9050919050565b600060208201905081810360008301526200059d81620004f5565b9050919050565b6000620005b0620005c3565b9050620005be82826200064b565b919050565b6000604051905090565b600067ffffffffffffffff821115620005eb57620005ea6200072d565b5b602082029050602081019050919050565b600082825260208201905092915050565b60006200061a8262000621565b9050919050565b600073ffffffffffffffffffffffffffffffffffffffff82169050919050565b6000819050919050565b620006568262000770565b810181811067ffffffffffffffff821117156200067857620006776200072d565b5b80604052505050565b60006200068e8262000641565b91507fffffffffffffffffffffffffffffffffffffffffffffffffffffffffffffffff821415620006c457620006c3620006cf565b5b600182019050919050565b7f4e487b7100000000000000000000000000000000000000000000000000000000600052601160045260246000fd5b7f4e487b7100000000000000000000000000000000000000000000000000000000600052603260045260246000fd5b7f4e487b7100000000000000000000000000000000000000000000000000000000600052604160045260246000fd5b600080fd5b600080fd5b600080fd5b600080fd5b6000601f19601f8301169050919050565b7f3030320000000000000000000000000000000000000000000000000000000000600082015250565b7f3030340000000000000000000000000000000000000000000000000000000000600082015250565b7f3030310000000000000000000000000000000000000000000000000000000000600082015250565b7f3030330000000000000000000000000000000000000000000000000000000000600082015250565b62000830816200060d565b81146200083c57600080fd5b50565b6200084a8162000641565b81146200085657600080fd5b50565b610ff880620008696000396000f3fe60806040526004361061007f5760003560e01c8063a67dd5091161004e578063a67dd5091461015b578063affed0e014610198578063d01aa318146101c3578063ed516d51146101f357610086565b8063025e7c271461008b5780630db02622146100c85780632f54bf6e146100f357806342cde4e81461013057610086565b3661008657005b600080fd5b34801561009757600080fd5b506100b260048036038101906100ad91906108f6565b61021c565b6040516100bf9190610aa2565b60405180910390f35b3480156100d457600080fd5b506100dd61025b565b6040516100ea9190610c0b565b60405180910390f35b3480156100ff57600080fd5b5061011a60048036038101906101159190610737565b610261565b6040516101279190610b10565b60405180910390f35b34801561013c57600080fd5b50610145610281565b6040516101529190610c0b565b60405180910390f35b34801561016757600080fd5b50610182600480360381019061017d9190610803565b610287565b60405161018f9190610b2b565b60405180910390f35b3480156101a457600080fd5b506101ad6102cf565b6040516101ba9190610c0b565b60405180910390f35b6101dd60048036038101906101d89190610764565b6102d5565b6040516101ea9190610b10565b60405180910390f35b3480156101ff57600080fd5b5061021a6004803603810190610215919061089a565b61043c565b005b6000818154811061022c57600080fd5b906000526020600020016000915054906101000a900473ffffffffffffffffffffffffffffffffffffffff1681565b60025481565b60016020528060005260406000206000915054906101000a900460ff1681565b60035481565b6000808686868051906020012086866040516020016102aa959493929190610abd565b6040516020818303038152906040528051906020012090508091505095945050505050565b60045481565b6000806102e786868660045446610287565b9050600460008154809291906102fc90610dda565b919050555061030b818461043c565b8573ffffffffffffffffffffffffffffffffffffffff1685856040516103319190610a65565b60006040518083038185875af1925050503d806000811461036e576040519150601f19603f3d011682016040523d82523d6000602084013e610373565b606091505b505080925050816103b9576040517f08c379a00000000000000000000000000000000000000000000000000000000081526004016103b090610bcb565b60405180910390fd5b81156103fb577fdc29884a71d2bb98d3c53dc09718be05c7bfd142b7773a5c5cf2517629290ac0816040516103ee9190610b2b565b60405180910390a1610433565b7fdbe42d02a4e07d7eeff2874efe172540c93b297d206f6d691c9782a257323e328160405161042a9190610b2b565b60405180910390a15b50949350505050565b6000600354905060008111610486576040517f08c379a000000000000000000000000000000000000000000000000000000000815260040161047d90610bab565b60405180910390fd5b6041816104939190610cae565b825110156104d6576040517f08c379a00000000000000000000000000000000000000000000000000000000081526004016104cd90610beb565b60405180910390fd5b6000808060008060005b8681101561064e576104f28882610659565b8094508195508296505050506001896040516020016105119190610a7c565b60405160208183030381529060405280519060200120858585604051600081526020016040526040516105479493929190610b46565b6020604051602081039080840390855afa158015610569573d6000803e3d6000fd5b5050506020604051035194508573ffffffffffffffffffffffffffffffffffffffff168573ffffffffffffffffffffffffffffffffffffffff161180156105f95750600160008673ffffffffffffffffffffffffffffffffffffffff1673ffffffffffffffffffffffffffffffffffffffff16815260200190815260200160002060009054906101000a900460ff165b610638576040517f08c379a000000000000000000000000000000000000000000000000000000000815260040161062f90610b8b565b60405180910390fd5b849550808061064690610dda565b9150506104e0565b505050505050505050565b60008060008360410260208101860151925060408101860151915060ff60418201870151169350509250925092565b600061069b61069684610c4b565b610c26565b9050828152602081018484840111156106b7576106b6610e90565b5b6106c2848285610d67565b509392505050565b6000813590506106d981610f7d565b92915050565b6000813590506106ee81610f94565b92915050565b600082601f83011261070957610708610e8b565b5b8135610719848260208601610688565b91505092915050565b60008135905061073181610fab565b92915050565b60006020828403121561074d5761074c610e9a565b5b600061075b848285016106ca565b91505092915050565b6000806000806080858703121561077e5761077d610e9a565b5b600061078c878288016106ca565b945050602061079d87828801610722565b935050604085013567ffffffffffffffff8111156107be576107bd610e95565b5b6107ca878288016106f4565b925050606085013567ffffffffffffffff8111156107eb576107ea610e95565b5b6107f7878288016106f4565b91505092959194509250565b600080600080600060a0868803121561081f5761081e610e9a565b5b600061082d888289016106ca565b955050602061083e88828901610722565b945050604086013567ffffffffffffffff81111561085f5761085e610e95565b5b61086b888289016106f4565b935050606061087c88828901610722565b925050608061088d88828901610722565b9150509295509295909350565b600080604083850312156108b1576108b0610e9a565b5b60006108bf858286016106df565b925050602083013567ffffffffffffffff8111156108e0576108df610e95565b5b6108ec858286016106f4565b9150509250929050565b60006020828403121561090c5761090b610e9a565b5b600061091a84828501610722565b91505092915050565b61092c81610d08565b82525050565b61093b81610d1a565b82525050565b61094a81610d26565b82525050565b61096161095c82610d26565b610e23565b82525050565b600061097282610c7c565b61097c8185610c87565b935061098c818560208601610d76565b80840191505092915050565b60006109a5600383610c92565b91506109b082610eb0565b602082019050919050565b60006109c8600383610c92565b91506109d382610ed9565b602082019050919050565b60006109eb601c83610ca3565b91506109f682610f02565b601c82019050919050565b6000610a0e600383610c92565b9150610a1982610f2b565b602082019050919050565b6000610a31600383610c92565b9150610a3c82610f54565b602082019050919050565b610a5081610d50565b82525050565b610a5f81610d5a565b82525050565b6000610a718284610967565b915081905092915050565b6000610a87826109de565b9150610a938284610950565b60208201915081905092915050565b6000602082019050610ab76000830184610923565b92915050565b600060a082019050610ad26000830188610923565b610adf6020830187610a47565b610aec6040830186610941565b610af96060830185610a47565b610b066080830184610a47565b9695505050505050565b6000602082019050610b256000830184610932565b92915050565b6000602082019050610b406000830184610941565b92915050565b6000608082019050610b5b6000830187610941565b610b686020830186610a56565b610b756040830185610941565b610b826060830184610941565b95945050505050565b60006020820190508181036000830152610ba481610998565b9050919050565b60006020820190508181036000830152610bc4816109bb565b9050919050565b60006020820190508181036000830152610be481610a01565b9050919050565b60006020820190508181036000830152610c0481610a24565b9050919050565b6000602082019050610c206000830184610a47565b92915050565b6000610c30610c41565b9050610c3c8282610da9565b919050565b6000604051905090565b600067ffffffffffffffff821115610c6657610c65610e5c565b5b610c6f82610e9f565b9050602081019050919050565b600081519050919050565b600081905092915050565b600082825260208201905092915050565b600081905092915050565b6000610cb982610d50565b9150610cc483610d50565b9250817fffffffffffffffffffffffffffffffffffffffffffffffffffffffffffffffff0483118215151615610cfd57610cfc610e2d565b5b828202905092915050565b6000610d1382610d30565b9050919050565b60008115159050919050565b6000819050919050565b600073ffffffffffffffffffffffffffffffffffffffff82169050919050565b6000819050919050565b600060ff82169050919050565b82818337600083830152505050565b60005b83811015610d94578082015181840152602081019050610d79565b83811115610da3576000848401525b50505050565b610db282610e9f565b810181811067ffffffffffffffff82111715610dd157610dd0610e5c565b5b80604052505050565b6000610de582610d50565b91507fffffffffffffffffffffffffffffffffffffffffffffffffffffffffffffffff821415610e1857610e17610e2d565b5b600182019050919050565b6000819050919050565b7f4e487b7100000000000000000000000000000000000000000000000000000000600052601160045260246000fd5b7f4e487b7100000000000000000000000000000000000000000000000000000000600052604160045260246000fd5b600080fd5b600080fd5b600080fd5b600080fd5b6000601f19601f8301169050919050565b7f3030380000000000000000000000000000000000000000000000000000000000600082015250565b7f3030360000000000000000000000000000000000000000000000000000000000600082015250565b7f19457468657265756d205369676e6564204d6573736167653a0a333200000000600082015250565b7f3030350000000000000000000000000000000000000000000000000000000000600082015250565b7f3030370000000000000000000000000000000000000000000000000000000000600082015250565b610f8681610d08565b8114610f9157600080fd5b50565b610f9d81610d26565b8114610fa857600080fd5b50565b610fb481610d50565b8114610fbf57600080fd5b5056fea2646970667358221220899a27d0b8c8a3fc6d38196e37672c4854b1c40b91373958c4980c4de6d91b6264736f6c63430008070033",
					"opcodes": "PUSH1 0x80 PUSH1 0x40 MSTORE CALLVALUE DUP1 ISZERO PUSH3 0x11 JUMPI PUSH1 0x0 DUP1 REVERT JUMPDEST POP PUSH1 0x40 MLOAD PUSH3 0x1861 CODESIZE SUB DUP1 PUSH3 0x1861 DUP4 CODECOPY DUP2 DUP2 ADD PUSH1 0x40 MSTORE DUP2 ADD SWAP1 PUSH3 0x37 SWAP2 SWAP1 PUSH3 0x41A JUMP JUMPDEST PUSH3 0x49 DUP3 DUP3 PUSH3 0x51 PUSH1 0x20 SHL PUSH1 0x20 SHR JUMP JUMPDEST POP POP PUSH3 0x859 JUMP JUMPDEST PUSH1 0x0 PUSH1 0x3 SLOAD EQ PUSH3 0x99 JUMPI PUSH1 0x40 MLOAD PUSH32 0x8C379A000000000000000000000000000000000000000000000000000000000 DUP2 MSTORE PUSH1 0x4 ADD PUSH3 0x90 SWAP1 PUSH3 0x560 JUMP JUMPDEST PUSH1 0x40 MLOAD DUP1 SWAP2 SUB SWAP1 REVERT JUMPDEST DUP2 MLOAD DUP2 GT ISZERO PUSH3 0xE0 JUMPI PUSH1 0x40 MLOAD PUSH32 0x8C379A000000000000000000000000000000000000000000000000000000000 DUP2 MSTORE PUSH1 0x4 ADD PUSH3 0xD7 SWAP1 PUSH3 0x51C JUMP JUMPDEST PUSH1 0x40 MLOAD DUP1 SWAP2 SUB SWAP1 REVERT JUMPDEST PUSH1 0x1 DUP2 LT ISZERO PUSH3 0x127 JUMPI PUSH1 0x40 MLOAD PUSH32 0x8C379A000000000000000000000000000000000000000000000000000000000 DUP2 MSTORE PUSH1 0x4 ADD PUSH3 0x11E SWAP1 PUSH3 0x582 JUMP JUMPDEST PUSH1 0x40 MLOAD DUP1 SWAP2 SUB SWAP1 REVERT JUMPDEST PUSH1 0x0 JUMPDEST DUP3 MLOAD DUP2 LT ISZERO PUSH3 0x32A JUMPI PUSH1 0x0 DUP4 DUP3 DUP2 MLOAD DUP2 LT PUSH3 0x14C JUMPI PUSH3 0x14B PUSH3 0x6FE JUMP JUMPDEST JUMPDEST PUSH1 0x20 MUL PUSH1 0x20 ADD ADD MLOAD SWAP1 POP PUSH1 0x0 PUSH20 0xFFFFFFFFFFFFFFFFFFFFFFFFFFFFFFFFFFFFFFFF AND DUP2 PUSH20 0xFFFFFFFFFFFFFFFFFFFFFFFFFFFFFFFFFFFFFFFF AND EQ ISZERO DUP1 ISZERO PUSH3 0x1C0 JUMPI POP ADDRESS PUSH20 0xFFFFFFFFFFFFFFFFFFFFFFFFFFFFFFFFFFFFFFFF AND DUP2 PUSH20 0xFFFFFFFFFFFFFFFFFFFFFFFFFFFFFFFFFFFFFFFF AND EQ ISZERO JUMPDEST DUP1 ISZERO PUSH3 0x217 JUMPI POP PUSH1 0x1 PUSH1 0x0 DUP3 PUSH20 0xFFFFFFFFFFFFFFFFFFFFFFFFFFFFFFFFFFFFFFFF AND PUSH20 0xFFFFFFFFFFFFFFFFFFFFFFFFFFFFFFFFFFFFFFFF AND DUP2 MSTORE PUSH1 0x20 ADD SWAP1 DUP2 MSTORE PUSH1 0x20 ADD PUSH1 0x0 KECCAK256 PUSH1 0x0 SWAP1 SLOAD SWAP1 PUSH2 0x100 EXP SWAP1 DIV PUSH1 0xFF AND ISZERO JUMPDEST PUSH3 0x259 JUMPI PUSH1 0x40 MLOAD PUSH32 0x8C379A000000000000000000000000000000000000000000000000000000000 DUP2 MSTORE PUSH1 0x4 ADD PUSH3 0x250 SWAP1 PUSH3 0x53E JUMP JUMPDEST PUSH1 0x40 MLOAD DUP1 SWAP2 SUB SWAP1 REVERT JUMPDEST PUSH1 0x0 DUP2 SWAP1 DUP1 PUSH1 0x1 DUP2 SLOAD ADD DUP1 DUP3 SSTORE DUP1 SWAP2 POP POP PUSH1 0x1 SWAP1 SUB SWAP1 PUSH1 0x0 MSTORE PUSH1 0x20 PUSH1 0x0 KECCAK256 ADD PUSH1 0x0 SWAP1 SWAP2 SWAP1 SWAP2 SWAP1 SWAP2 PUSH2 0x100 EXP DUP2 SLOAD DUP2 PUSH20 0xFFFFFFFFFFFFFFFFFFFFFFFFFFFFFFFFFFFFFFFF MUL NOT AND SWAP1 DUP4 PUSH20 0xFFFFFFFFFFFFFFFFFFFFFFFFFFFFFFFFFFFFFFFF AND MUL OR SWAP1 SSTORE POP PUSH1 0x1 DUP1 PUSH1 0x0 DUP4 PUSH20 0xFFFFFFFFFFFFFFFFFFFFFFFFFFFFFFFFFFFFFFFF AND PUSH20 0xFFFFFFFFFFFFFFFFFFFFFFFFFFFFFFFFFFFFFFFF AND DUP2 MSTORE PUSH1 0x20 ADD SWAP1 DUP2 MSTORE PUSH1 0x20 ADD PUSH1 0x0 KECCAK256 PUSH1 0x0 PUSH2 0x100 EXP DUP2 SLOAD DUP2 PUSH1 0xFF MUL NOT AND SWAP1 DUP4 ISZERO ISZERO MUL OR SWAP1 SSTORE POP POP DUP1 DUP1 PUSH3 0x321 SWAP1 PUSH3 0x681 JUMP JUMPDEST SWAP2 POP POP PUSH3 0x12A JUMP JUMPDEST POP DUP2 MLOAD PUSH1 0x2 DUP2 SWAP1 SSTORE POP DUP1 PUSH1 0x3 DUP2 SWAP1 SSTORE POP POP POP JUMP JUMPDEST PUSH1 0x0 PUSH3 0x355 PUSH3 0x34F DUP5 PUSH3 0x5CD JUMP JUMPDEST PUSH3 0x5A4 JUMP JUMPDEST SWAP1 POP DUP1 DUP4 DUP3 MSTORE PUSH1 0x20 DUP3 ADD SWAP1 POP DUP3 DUP6 PUSH1 0x20 DUP7 MUL DUP3 ADD GT ISZERO PUSH3 0x37B JUMPI PUSH3 0x37A PUSH3 0x761 JUMP JUMPDEST JUMPDEST PUSH1 0x0 JUMPDEST DUP6 DUP2 LT ISZERO PUSH3 0x3AF JUMPI DUP2 PUSH3 0x394 DUP9 DUP3 PUSH3 0x3B9 JUMP JUMPDEST DUP5 MSTORE PUSH1 0x20 DUP5 ADD SWAP4 POP PUSH1 0x20 DUP4 ADD SWAP3 POP POP PUSH1 0x1 DUP2 ADD SWAP1 POP PUSH3 0x37E JUMP JUMPDEST POP POP POP SWAP4 SWAP3 POP POP POP JUMP JUMPDEST PUSH1 0x0 DUP2 MLOAD SWAP1 POP PUSH3 0x3CA DUP2 PUSH3 0x825 JUMP JUMPDEST SWAP3 SWAP2 POP POP JUMP JUMPDEST PUSH1 0x0 DUP3 PUSH1 0x1F DUP4 ADD SLT PUSH3 0x3E8 JUMPI PUSH3 0x3E7 PUSH3 0x75C JUMP JUMPDEST JUMPDEST DUP2 MLOAD PUSH3 0x3FA DUP5 DUP3 PUSH1 0x20 DUP7 ADD PUSH3 0x33E JUMP JUMPDEST SWAP2 POP POP SWAP3 SWAP2 POP POP JUMP JUMPDEST PUSH1 0x0 DUP2 MLOAD SWAP1 POP PUSH3 0x414 DUP2 PUSH3 0x83F JUMP JUMPDEST SWAP3 SWAP2 POP POP JUMP JUMPDEST PUSH1 0x0 DUP1 PUSH1 0x40 DUP4 DUP6 SUB SLT ISZERO PUSH3 0x434 JUMPI PUSH3 0x433 PUSH3 0x76B JUMP JUMPDEST JUMPDEST PUSH1 0x0 DUP4 ADD MLOAD PUSH8 0xFFFFFFFFFFFFFFFF DUP2 GT ISZERO PUSH3 0x455 JUMPI PUSH3 0x454 PUSH3 0x766 JUMP JUMPDEST JUMPDEST PUSH3 0x463 DUP6 DUP3 DUP7 ADD PUSH3 0x3D0 JUMP JUMPDEST SWAP3 POP POP PUSH1 0x20 PUSH3 0x476 DUP6 DUP3 DUP7 ADD PUSH3 0x403 JUMP JUMPDEST SWAP2 POP POP SWAP3 POP SWAP3 SWAP1 POP JUMP JUMPDEST PUSH1 0x0 PUSH3 0x48F PUSH1 0x3 DUP4 PUSH3 0x5FC JUMP JUMPDEST SWAP2 POP PUSH3 0x49C DUP3 PUSH3 0x781 JUMP JUMPDEST PUSH1 0x20 DUP3 ADD SWAP1 POP SWAP2 SWAP1 POP JUMP JUMPDEST PUSH1 0x0 PUSH3 0x4B6 PUSH1 0x3 DUP4 PUSH3 0x5FC JUMP JUMPDEST SWAP2 POP PUSH3 0x4C3 DUP3 PUSH3 0x7AA JUMP JUMPDEST PUSH1 0x20 DUP3 ADD SWAP1 POP SWAP2 SWAP1 POP JUMP JUMPDEST PUSH1 0x0 PUSH3 0x4DD PUSH1 0x3 DUP4 PUSH3 0x5FC JUMP JUMPDEST SWAP2 POP PUSH3 0x4EA DUP3 PUSH3 0x7D3 JUMP JUMPDEST PUSH1 0x20 DUP3 ADD SWAP1 POP SWAP2 SWAP1 POP JUMP JUMPDEST PUSH1 0x0 PUSH3 0x504 PUSH1 0x3 DUP4 PUSH3 0x5FC JUMP JUMPDEST SWAP2 POP PUSH3 0x511 DUP3 PUSH3 0x7FC JUMP JUMPDEST PUSH1 0x20 DUP3 ADD SWAP1 POP SWAP2 SWAP1 POP JUMP JUMPDEST PUSH1 0x0 PUSH1 0x20 DUP3 ADD SWAP1 POP DUP2 DUP2 SUB PUSH1 0x0 DUP4 ADD MSTORE PUSH3 0x537 DUP2 PUSH3 0x480 JUMP JUMPDEST SWAP1 POP SWAP2 SWAP1 POP JUMP JUMPDEST PUSH1 0x0 PUSH1 0x20 DUP3 ADD SWAP1 POP DUP2 DUP2 SUB PUSH1 0x0 DUP4 ADD MSTORE PUSH3 0x559 DUP2 PUSH3 0x4A7 JUMP JUMPDEST SWAP1 POP SWAP2 SWAP1 POP JUMP JUMPDEST PUSH1 0x0 PUSH1 0x20 DUP3 ADD SWAP1 POP DUP2 DUP2 SUB PUSH1 0x0 DUP4 ADD MSTORE PUSH3 0x57B DUP2 PUSH3 0x4CE JUMP JUMPDEST SWAP1 POP SWAP2 SWAP1 POP JUMP JUMPDEST PUSH1 0x0 PUSH1 0x20 DUP3 ADD SWAP1 POP DUP2 DUP2 SUB PUSH1 0x0 DUP4 ADD MSTORE PUSH3 0x59D DUP2 PUSH3 0x4F5 JUMP JUMPDEST SWAP1 POP SWAP2 SWAP1 POP JUMP JUMPDEST PUSH1 0x0 PUSH3 0x5B0 PUSH3 0x5C3 JUMP JUMPDEST SWAP1 POP PUSH3 0x5BE DUP3 DUP3 PUSH3 0x64B JUMP JUMPDEST SWAP2 SWAP1 POP JUMP JUMPDEST PUSH1 0x0 PUSH1 0x40 MLOAD SWAP1 POP SWAP1 JUMP JUMPDEST PUSH1 0x0 PUSH8 0xFFFFFFFFFFFFFFFF DUP3 GT ISZERO PUSH3 0x5EB JUMPI PUSH3 0x5EA PUSH3 0x72D JUMP JUMPDEST JUMPDEST PUSH1 0x20 DUP3 MUL SWAP1 POP PUSH1 0x20 DUP2 ADD SWAP1 POP SWAP2 SWAP1 POP JUMP JUMPDEST PUSH1 0x0 DUP3 DUP3 MSTORE PUSH1 0x20 DUP3 ADD SWAP1 POP SWAP3 SWAP2 POP POP JUMP JUMPDEST PUSH1 0x0 PUSH3 0x61A DUP3 PUSH3 0x621 JUMP JUMPDEST SWAP1 POP SWAP2 SWAP1 POP JUMP JUMPDEST PUSH1 0x0 PUSH20 0xFFFFFFFFFFFFFFFFFFFFFFFFFFFFFFFFFFFFFFFF DUP3 AND SWAP1 POP SWAP2 SWAP1 POP JUMP JUMPDEST PUSH1 0x0 DUP2 SWAP1 POP SWAP2 SWAP1 POP JUMP JUMPDEST PUSH3 0x656 DUP3 PUSH3 0x770 JUMP JUMPDEST DUP2 ADD DUP2 DUP2 LT PUSH8 0xFFFFFFFFFFFFFFFF DUP3 GT OR ISZERO PUSH3 0x678 JUMPI PUSH3 0x677 PUSH3 0x72D JUMP JUMPDEST JUMPDEST DUP1 PUSH1 0x40 MSTORE POP POP POP JUMP JUMPDEST PUSH1 0x0 PUSH3 0x68E DUP3 PUSH3 0x641 JUMP JUMPDEST SWAP2 POP PUSH32 0xFFFFFFFFFFFFFFFFFFFFFFFFFFFFFFFFFFFFFFFFFFFFFFFFFFFFFFFFFFFFFFFF DUP3 EQ ISZERO PUSH3 0x6C4 JUMPI PUSH3 0x6C3 PUSH3 0x6CF JUMP JUMPDEST JUMPDEST PUSH1 0x1 DUP3 ADD SWAP1 POP SWAP2 SWAP1 POP JUMP JUMPDEST PUSH32 0x4E487B7100000000000000000000000000000000000000000000000000000000 PUSH1 0x0 MSTORE PUSH1 0x11 PUSH1 0x4 MSTORE PUSH1 0x24 PUSH1 0x0 REVERT JUMPDEST PUSH32 0x4E487B7100000000000000000000000000000000000000000000000000000000 PUSH1 0x0 MSTORE PUSH1 0x32 PUSH1 0x4 MSTORE PUSH1 0x24 PUSH1 0x0 REVERT JUMPDEST PUSH32 0x4E487B7100000000000000000000000000000000000000000000000000000000 PUSH1 0x0 MSTORE PUSH1 0x41 PUSH1 0x4 MSTORE PUSH1 0x24 PUSH1 0x0 REVERT JUMPDEST PUSH1 0x0 DUP1 REVERT JUMPDEST PUSH1 0x0 DUP1 REVERT JUMPDEST PUSH1 0x0 DUP1 REVERT JUMPDEST PUSH1 0x0 DUP1 REVERT JUMPDEST PUSH1 0x0 PUSH1 0x1F NOT PUSH1 0x1F DUP4 ADD AND SWAP1 POP SWAP2 SWAP1 POP JUMP JUMPDEST PUSH32 0x3030320000000000000000000000000000000000000000000000000000000000 PUSH1 0x0 DUP3 ADD MSTORE POP JUMP JUMPDEST PUSH32 0x3030340000000000000000000000000000000000000000000000000000000000 PUSH1 0x0 DUP3 ADD MSTORE POP JUMP JUMPDEST PUSH32 0x3030310000000000000000000000000000000000000000000000000000000000 PUSH1 0x0 DUP3 ADD MSTORE POP JUMP JUMPDEST PUSH32 0x3030330000000000000000000000000000000000000000000000000000000000 PUSH1 0x0 DUP3 ADD MSTORE POP JUMP JUMPDEST PUSH3 0x830 DUP2 PUSH3 0x60D JUMP JUMPDEST DUP2 EQ PUSH3 0x83C JUMPI PUSH1 0x0 DUP1 REVERT JUMPDEST POP JUMP JUMPDEST PUSH3 0x84A DUP2 PUSH3 0x641 JUMP JUMPDEST DUP2 EQ PUSH3 0x856 JUMPI PUSH1 0x0 DUP1 REVERT JUMPDEST POP JUMP JUMPDEST PUSH2 0xFF8 DUP1 PUSH3 0x869 PUSH1 0x0 CODECOPY PUSH1 0x0 RETURN INVALID PUSH1 0x80 PUSH1 0x40 MSTORE PUSH1 0x4 CALLDATASIZE LT PUSH2 0x7F JUMPI PUSH1 0x0 CALLDATALOAD PUSH1 0xE0 SHR DUP1 PUSH4 0xA67DD509 GT PUSH2 0x4E JUMPI DUP1 PUSH4 0xA67DD509 EQ PUSH2 0x15B JUMPI DUP1 PUSH4 0xAFFED0E0 EQ PUSH2 0x198 JUMPI DUP1 PUSH4 0xD01AA318 EQ PUSH2 0x1C3 JUMPI DUP1 PUSH4 0xED516D51 EQ PUSH2 0x1F3 JUMPI PUSH2 0x86 JUMP JUMPDEST DUP1 PUSH4 0x25E7C27 EQ PUSH2 0x8B JUMPI DUP1 PUSH4 0xDB02622 EQ PUSH2 0xC8 JUMPI DUP1 PUSH4 0x2F54BF6E EQ PUSH2 0xF3 JUMPI DUP1 PUSH4 0x42CDE4E8 EQ PUSH2 0x130 JUMPI PUSH2 0x86 JUMP JUMPDEST CALLDATASIZE PUSH2 0x86 JUMPI STOP JUMPDEST PUSH1 0x0 DUP1 REVERT JUMPDEST CALLVALUE DUP1 ISZERO PUSH2 0x97 JUMPI PUSH1 0x0 DUP1 REVERT JUMPDEST POP PUSH2 0xB2 PUSH1 0x4 DUP1 CALLDATASIZE SUB DUP2 ADD SWAP1 PUSH2 0xAD SWAP2 SWAP1 PUSH2 0x8F6 JUMP JUMPDEST PUSH2 0x21C JUMP JUMPDEST PUSH1 0x40 MLOAD PUSH2 0xBF SWAP2 SWAP1 PUSH2 0xAA2 JUMP JUMPDEST PUSH1 0x40 MLOAD DUP1 SWAP2 SUB SWAP1 RETURN JUMPDEST CALLVALUE DUP1 ISZERO PUSH2 0xD4 JUMPI PUSH1 0x0 DUP1 REVERT JUMPDEST POP PUSH2 0xDD PUSH2 0x25B JUMP JUMPDEST PUSH1 0x40 MLOAD PUSH2 0xEA SWAP2 SWAP1 PUSH2 0xC0B JUMP JUMPDEST PUSH1 0x40 MLOAD DUP1 SWAP2 SUB SWAP1 RETURN JUMPDEST CALLVALUE DUP1 ISZERO PUSH2 0xFF JUMPI PUSH1 0x0 DUP1 REVERT JUMPDEST POP PUSH2 0x11A PUSH1 0x4 DUP1 CALLDATASIZE SUB DUP2 ADD SWAP1 PUSH2 0x115 SWAP2 SWAP1 PUSH2 0x737 JUMP JUMPDEST PUSH2 0x261 JUMP JUMPDEST PUSH1 0x40 MLOAD PUSH2 0x127 SWAP2 SWAP1 PUSH2 0xB10 JUMP JUMPDEST PUSH1 0x40 MLOAD DUP1 SWAP2 SUB SWAP1 RETURN JUMPDEST CALLVALUE DUP1 ISZERO PUSH2 0x13C JUMPI PUSH1 0x0 DUP1 REVERT JUMPDEST POP PUSH2 0x145 PUSH2 0x281 JUMP JUMPDEST PUSH1 0x40 MLOAD PUSH2 0x152 SWAP2 SWAP1 PUSH2 0xC0B JUMP JUMPDEST PUSH1 0x40 MLOAD DUP1 SWAP2 SUB SWAP1 RETURN JUMPDEST CALLVALUE DUP1 ISZERO PUSH2 0x167 JUMPI PUSH1 0x0 DUP1 REVERT JUMPDEST POP PUSH2 0x182 PUSH1 0x4 DUP1 CALLDATASIZE SUB DUP2 ADD SWAP1 PUSH2 0x17D SWAP2 SWAP1 PUSH2 0x803 JUMP JUMPDEST PUSH2 0x287 JUMP JUMPDEST PUSH1 0x40 MLOAD PUSH2 0x18F SWAP2 SWAP1 PUSH2 0xB2B JUMP JUMPDEST PUSH1 0x40 MLOAD DUP1 SWAP2 SUB SWAP1 RETURN JUMPDEST CALLVALUE DUP1 ISZERO PUSH2 0x1A4 JUMPI PUSH1 0x0 DUP1 REVERT JUMPDEST POP PUSH2 0x1AD PUSH2 0x2CF JUMP JUMPDEST PUSH1 0x40 MLOAD PUSH2 0x1BA SWAP2 SWAP1 PUSH2 0xC0B JUMP JUMPDEST PUSH1 0x40 MLOAD DUP1 SWAP2 SUB SWAP1 RETURN JUMPDEST PUSH2 0x1DD PUSH1 0x4 DUP1 CALLDATASIZE SUB DUP2 ADD SWAP1 PUSH2 0x1D8 SWAP2 SWAP1 PUSH2 0x764 JUMP JUMPDEST PUSH2 0x2D5 JUMP JUMPDEST PUSH1 0x40 MLOAD PUSH2 0x1EA SWAP2 SWAP1 PUSH2 0xB10 JUMP JUMPDEST PUSH1 0x40 MLOAD DUP1 SWAP2 SUB SWAP1 RETURN JUMPDEST CALLVALUE DUP1 ISZERO PUSH2 0x1FF JUMPI PUSH1 0x0 DUP1 REVERT JUMPDEST POP PUSH2 0x21A PUSH1 0x4 DUP1 CALLDATASIZE SUB DUP2 ADD SWAP1 PUSH2 0x215 SWAP2 SWAP1 PUSH2 0x89A JUMP JUMPDEST PUSH2 0x43C JUMP JUMPDEST STOP JUMPDEST PUSH1 0x0 DUP2 DUP2 SLOAD DUP2 LT PUSH2 0x22C JUMPI PUSH1 0x0 DUP1 REVERT JUMPDEST SWAP1 PUSH1 0x0 MSTORE PUSH1 0x20 PUSH1 0x0 KECCAK256 ADD PUSH1 0x0 SWAP2 POP SLOAD SWAP1 PUSH2 0x100 EXP SWAP1 DIV PUSH20 0xFFFFFFFFFFFFFFFFFFFFFFFFFFFFFFFFFFFFFFFF AND DUP2 JUMP JUMPDEST PUSH1 0x2 SLOAD DUP2 JUMP JUMPDEST PUSH1 0x1 PUSH1 0x20 MSTORE DUP1 PUSH1 0x0 MSTORE PUSH1 0x40 PUSH1 0x0 KECCAK256 PUSH1 0x0 SWAP2 POP SLOAD SWAP1 PUSH2 0x100 EXP SWAP1 DIV PUSH1 0xFF AND DUP2 JUMP JUMPDEST PUSH1 0x3 SLOAD DUP2 JUMP JUMPDEST PUSH1 0x0 DUP1 DUP7 DUP7 DUP7 DUP1 MLOAD SWAP1 PUSH1 0x20 ADD KECCAK256 DUP7 DUP7 PUSH1 0x40 MLOAD PUSH1 0x20 ADD PUSH2 0x2AA SWAP6 SWAP5 SWAP4 SWAP3 SWAP2 SWAP1 PUSH2 0xABD JUMP JUMPDEST PUSH1 0x40 MLOAD PUSH1 0x20 DUP2 DUP4 SUB SUB DUP2 MSTORE SWAP1 PUSH1 0x40 MSTORE DUP1 MLOAD SWAP1 PUSH1 0x20 ADD KECCAK256 SWAP1 POP DUP1 SWAP2 POP POP SWAP6 SWAP5 POP POP POP POP POP JUMP JUMPDEST PUSH1 0x4 SLOAD DUP2 JUMP JUMPDEST PUSH1 0x0 DUP1 PUSH2 0x2E7 DUP7 DUP7 DUP7 PUSH1 0x4 SLOAD CHAINID PUSH2 0x287 JUMP JUMPDEST SWAP1 POP PUSH1 0x4 PUSH1 0x0 DUP2 SLOAD DUP1 SWAP3 SWAP2 SWAP1 PUSH2 0x2FC SWAP1 PUSH2 0xDDA JUMP JUMPDEST SWAP2 SWAP1 POP SSTORE POP PUSH2 0x30B DUP2 DUP5 PUSH2 0x43C JUMP JUMPDEST DUP6 PUSH20 0xFFFFFFFFFFFFFFFFFFFFFFFFFFFFFFFFFFFFFFFF AND DUP6 DUP6 PUSH1 0x40 MLOAD PUSH2 0x331 SWAP2 SWAP1 PUSH2 0xA65 JUMP JUMPDEST PUSH1 0x0 PUSH1 0x40 MLOAD DUP1 DUP4 SUB DUP2 DUP6 DUP8 GAS CALL SWAP3 POP POP POP RETURNDATASIZE DUP1 PUSH1 0x0 DUP2 EQ PUSH2 0x36E JUMPI PUSH1 0x40 MLOAD SWAP2 POP PUSH1 0x1F NOT PUSH1 0x3F RETURNDATASIZE ADD AND DUP3 ADD PUSH1 0x40 MSTORE RETURNDATASIZE DUP3 MSTORE RETURNDATASIZE PUSH1 0x0 PUSH1 0x20 DUP5 ADD RETURNDATACOPY PUSH2 0x373 JUMP JUMPDEST PUSH1 0x60 SWAP2 POP JUMPDEST POP POP DUP1 SWAP3 POP POP DUP2 PUSH2 0x3B9 JUMPI PUSH1 0x40 MLOAD PUSH32 0x8C379A000000000000000000000000000000000000000000000000000000000 DUP2 MSTORE PUSH1 0x4 ADD PUSH2 0x3B0 SWAP1 PUSH2 0xBCB JUMP JUMPDEST PUSH1 0x40 MLOAD DUP1 SWAP2 SUB SWAP1 REVERT JUMPDEST DUP2 ISZERO PUSH2 0x3FB JUMPI PUSH32 0xDC29884A71D2BB98D3C53DC09718BE05C7BFD142B7773A5C5CF2517629290AC0 DUP2 PUSH1 0x40 MLOAD PUSH2 0x3EE SWAP2 SWAP1 PUSH2 0xB2B JUMP JUMPDEST PUSH1 0x40 MLOAD DUP1 SWAP2 SUB SWAP1 LOG1 PUSH2 0x433 JUMP JUMPDEST PUSH32 0xDBE42D02A4E07D7EEFF2874EFE172540C93B297D206F6D691C9782A257323E32 DUP2 PUSH1 0x40 MLOAD PUSH2 0x42A SWAP2 SWAP1 PUSH2 0xB2B JUMP JUMPDEST PUSH1 0x40 MLOAD DUP1 SWAP2 SUB SWAP1 LOG1 JUMPDEST POP SWAP5 SWAP4 POP POP POP POP JUMP JUMPDEST PUSH1 0x0 PUSH1 0x3 SLOAD SWAP1 POP PUSH1 0x0 DUP2 GT PUSH2 0x486 JUMPI PUSH1 0x40 MLOAD PUSH32 0x8C379A000000000000000000000000000000000000000000000000000000000 DUP2 MSTORE PUSH1 0x4 ADD PUSH2 0x47D SWAP1 PUSH2 0xBAB JUMP JUMPDEST PUSH1 0x40 MLOAD DUP1 SWAP2 SUB SWAP1 REVERT JUMPDEST PUSH1 0x41 DUP2 PUSH2 0x493 SWAP2 SWAP1 PUSH2 0xCAE JUMP JUMPDEST DUP3 MLOAD LT ISZERO PUSH2 0x4D6 JUMPI PUSH1 0x40 MLOAD PUSH32 0x8C379A000000000000000000000000000000000000000000000000000000000 DUP2 MSTORE PUSH1 0x4 ADD PUSH2 0x4CD SWAP1 PUSH2 0xBEB JUMP JUMPDEST PUSH1 0x40 MLOAD DUP1 SWAP2 SUB SWAP1 REVERT JUMPDEST PUSH1 0x0 DUP1 DUP1 PUSH1 0x0 DUP1 PUSH1 0x0 JUMPDEST DUP7 DUP2 LT ISZERO PUSH2 0x64E JUMPI PUSH2 0x4F2 DUP9 DUP3 PUSH2 0x659 JUMP JUMPDEST DUP1 SWAP5 POP DUP2 SWAP6 POP DUP3 SWAP7 POP POP POP POP PUSH1 0x1 DUP10 PUSH1 0x40 MLOAD PUSH1 0x20 ADD PUSH2 0x511 SWAP2 SWAP1 PUSH2 0xA7C JUMP JUMPDEST PUSH1 0x40 MLOAD PUSH1 0x20 DUP2 DUP4 SUB SUB DUP2 MSTORE SWAP1 PUSH1 0x40 MSTORE DUP1 MLOAD SWAP1 PUSH1 0x20 ADD KECCAK256 DUP6 DUP6 DUP6 PUSH1 0x40 MLOAD PUSH1 0x0 DUP2 MSTORE PUSH1 0x20 ADD PUSH1 0x40 MSTORE PUSH1 0x40 MLOAD PUSH2 0x547 SWAP5 SWAP4 SWAP3 SWAP2 SWAP1 PUSH2 0xB46 JUMP JUMPDEST PUSH1 0x20 PUSH1 0x40 MLOAD PUSH1 0x20 DUP2 SUB SWAP1 DUP1 DUP5 SUB SWAP1 DUP6 GAS STATICCALL ISZERO DUP1 ISZERO PUSH2 0x569 JUMPI RETURNDATASIZE PUSH1 0x0 DUP1 RETURNDATACOPY RETURNDATASIZE PUSH1 0x0 REVERT JUMPDEST POP POP POP PUSH1 0x20 PUSH1 0x40 MLOAD SUB MLOAD SWAP5 POP DUP6 PUSH20 0xFFFFFFFFFFFFFFFFFFFFFFFFFFFFFFFFFFFFFFFF AND DUP6 PUSH20 0xFFFFFFFFFFFFFFFFFFFFFFFFFFFFFFFFFFFFFFFF AND GT DUP1 ISZERO PUSH2 0x5F9 JUMPI POP PUSH1 0x1 PUSH1 0x0 DUP7 PUSH20 0xFFFFFFFFFFFFFFFFFFFFFFFFFFFFFFFFFFFFFFFF AND PUSH20 0xFFFFFFFFFFFFFFFFFFFFFFFFFFFFFFFFFFFFFFFF AND DUP2 MSTORE PUSH1 0x20 ADD SWAP1 DUP2 MSTORE PUSH1 0x20 ADD PUSH1 0x0 KECCAK256 PUSH1 0x0 SWAP1 SLOAD SWAP1 PUSH2 0x100 EXP SWAP1 DIV PUSH1 0xFF AND JUMPDEST PUSH2 0x638 JUMPI PUSH1 0x40 MLOAD PUSH32 0x8C379A000000000000000000000000000000000000000000000000000000000 DUP2 MSTORE PUSH1 0x4 ADD PUSH2 0x62F SWAP1 PUSH2 0xB8B JUMP JUMPDEST PUSH1 0x40 MLOAD DUP1 SWAP2 SUB SWAP1 REVERT JUMPDEST DUP5 SWAP6 POP DUP1 DUP1 PUSH2 0x646 SWAP1 PUSH2 0xDDA JUMP JUMPDEST SWAP2 POP POP PUSH2 0x4E0 JUMP JUMPDEST POP POP POP POP POP POP POP POP POP JUMP JUMPDEST PUSH1 0x0 DUP1 PUSH1 0x0 DUP4 PUSH1 0x41 MUL PUSH1 0x20 DUP2 ADD DUP7 ADD MLOAD SWAP3 POP PUSH1 0x40 DUP2 ADD DUP7 ADD MLOAD SWAP2 POP PUSH1 0xFF PUSH1 0x41 DUP3 ADD DUP8 ADD MLOAD AND SWAP4 POP POP SWAP3 POP SWAP3 POP SWAP3 JUMP JUMPDEST PUSH1 0x0 PUSH2 0x69B PUSH2 0x696 DUP5 PUSH2 0xC4B JUMP JUMPDEST PUSH2 0xC26 JUMP JUMPDEST SWAP1 POP DUP3 DUP2 MSTORE PUSH1 0x20 DUP2 ADD DUP5 DUP5 DUP5 ADD GT ISZERO PUSH2 0x6B7 JUMPI PUSH2 0x6B6 PUSH2 0xE90 JUMP JUMPDEST JUMPDEST PUSH2 0x6C2 DUP5 DUP3 DUP6 PUSH2 0xD67 JUMP JUMPDEST POP SWAP4 SWAP3 POP POP POP JUMP JUMPDEST PUSH1 0x0 DUP2 CALLDATALOAD SWAP1 POP PUSH2 0x6D9 DUP2 PUSH2 0xF7D JUMP JUMPDEST SWAP3 SWAP2 POP POP JUMP JUMPDEST PUSH1 0x0 DUP2 CALLDATALOAD SWAP1 POP PUSH2 0x6EE DUP2 PUSH2 0xF94 JUMP JUMPDEST SWAP3 SWAP2 POP POP JUMP JUMPDEST PUSH1 0x0 DUP3 PUSH1 0x1F DUP4 ADD SLT PUSH2 0x709 JUMPI PUSH2 0x708 PUSH2 0xE8B JUMP JUMPDEST JUMPDEST DUP2 CALLDATALOAD PUSH2 0x719 DUP5 DUP3 PUSH1 0x20 DUP7 ADD PUSH2 0x688 JUMP JUMPDEST SWAP2 POP POP SWAP3 SWAP2 POP POP JUMP JUMPDEST PUSH1 0x0 DUP2 CALLDATALOAD SWAP1 POP PUSH2 0x731 DUP2 PUSH2 0xFAB JUMP JUMPDEST SWAP3 SWAP2 POP POP JUMP JUMPDEST PUSH1 0x0 PUSH1 0x20 DUP3 DUP5 SUB SLT ISZERO PUSH2 0x74D JUMPI PUSH2 0x74C PUSH2 0xE9A JUMP JUMPDEST JUMPDEST PUSH1 0x0 PUSH2 0x75B DUP5 DUP3 DUP6 ADD PUSH2 0x6CA JUMP JUMPDEST SWAP2 POP POP SWAP3 SWAP2 POP POP JUMP JUMPDEST PUSH1 0x0 DUP1 PUSH1 0x0 DUP1 PUSH1 0x80 DUP6 DUP8 SUB SLT ISZERO PUSH2 0x77E JUMPI PUSH2 0x77D PUSH2 0xE9A JUMP JUMPDEST JUMPDEST PUSH1 0x0 PUSH2 0x78C DUP8 DUP3 DUP9 ADD PUSH2 0x6CA JUMP JUMPDEST SWAP5 POP POP PUSH1 0x20 PUSH2 0x79D DUP8 DUP3 DUP9 ADD PUSH2 0x722 JUMP JUMPDEST SWAP4 POP POP PUSH1 0x40 DUP6 ADD CALLDATALOAD PUSH8 0xFFFFFFFFFFFFFFFF DUP2 GT ISZERO PUSH2 0x7BE JUMPI PUSH2 0x7BD PUSH2 0xE95 JUMP JUMPDEST JUMPDEST PUSH2 0x7CA DUP8 DUP3 DUP9 ADD PUSH2 0x6F4 JUMP JUMPDEST SWAP3 POP POP PUSH1 0x60 DUP6 ADD CALLDATALOAD PUSH8 0xFFFFFFFFFFFFFFFF DUP2 GT ISZERO PUSH2 0x7EB JUMPI PUSH2 0x7EA PUSH2 0xE95 JUMP JUMPDEST JUMPDEST PUSH2 0x7F7 DUP8 DUP3 DUP9 ADD PUSH2 0x6F4 JUMP JUMPDEST SWAP2 POP POP SWAP3 SWAP6 SWAP2 SWAP5 POP SWAP3 POP JUMP JUMPDEST PUSH1 0x0 DUP1 PUSH1 0x0 DUP1 PUSH1 0x0 PUSH1 0xA0 DUP7 DUP9 SUB SLT ISZERO PUSH2 0x81F JUMPI PUSH2 0x81E PUSH2 0xE9A JUMP JUMPDEST JUMPDEST PUSH1 0x0 PUSH2 0x82D DUP9 DUP3 DUP10 ADD PUSH2 0x6CA JUMP JUMPDEST SWAP6 POP POP PUSH1 0x20 PUSH2 0x83E DUP9 DUP3 DUP10 ADD PUSH2 0x722 JUMP JUMPDEST SWAP5 POP POP PUSH1 0x40 DUP7 ADD CALLDATALOAD PUSH8 0xFFFFFFFFFFFFFFFF DUP2 GT ISZERO PUSH2 0x85F JUMPI PUSH2 0x85E PUSH2 0xE95 JUMP JUMPDEST JUMPDEST PUSH2 0x86B DUP9 DUP3 DUP10 ADD PUSH2 0x6F4 JUMP JUMPDEST SWAP4 POP POP PUSH1 0x60 PUSH2 0x87C DUP9 DUP3 DUP10 ADD PUSH2 0x722 JUMP JUMPDEST SWAP3 POP POP PUSH1 0x80 PUSH2 0x88D DUP9 DUP3 DUP10 ADD PUSH2 0x722 JUMP JUMPDEST SWAP2 POP POP SWAP3 SWAP6 POP SWAP3 SWAP6 SWAP1 SWAP4 POP JUMP JUMPDEST PUSH1 0x0 DUP1 PUSH1 0x40 DUP4 DUP6 SUB SLT ISZERO PUSH2 0x8B1 JUMPI PUSH2 0x8B0 PUSH2 0xE9A JUMP JUMPDEST JUMPDEST PUSH1 0x0 PUSH2 0x8BF DUP6 DUP3 DUP7 ADD PUSH2 0x6DF JUMP JUMPDEST SWAP3 POP POP PUSH1 0x20 DUP4 ADD CALLDATALOAD PUSH8 0xFFFFFFFFFFFFFFFF DUP2 GT ISZERO PUSH2 0x8E0 JUMPI PUSH2 0x8DF PUSH2 0xE95 JUMP JUMPDEST JUMPDEST PUSH2 0x8EC DUP6 DUP3 DUP7 ADD PUSH2 0x6F4 JUMP JUMPDEST SWAP2 POP POP SWAP3 POP SWAP3 SWAP1 POP JUMP JUMPDEST PUSH1 0x0 PUSH1 0x20 DUP3 DUP5 SUB SLT ISZERO PUSH2 0x90C JUMPI PUSH2 0x90B PUSH2 0xE9A JUMP JUMPDEST JUMPDEST PUSH1 0x0 PUSH2 0x91A DUP5 DUP3 DUP6 ADD PUSH2 0x722 JUMP JUMPDEST SWAP2 POP POP SWAP3 SWAP2 POP POP JUMP JUMPDEST PUSH2 0x92C DUP2 PUSH2 0xD08 JUMP JUMPDEST DUP3 MSTORE POP POP JUMP JUMPDEST PUSH2 0x93B DUP2 PUSH2 0xD1A JUMP JUMPDEST DUP3 MSTORE POP POP JUMP JUMPDEST PUSH2 0x94A DUP2 PUSH2 0xD26 JUMP JUMPDEST DUP3 MSTORE POP POP JUMP JUMPDEST PUSH2 0x961 PUSH2 0x95C DUP3 PUSH2 0xD26 JUMP JUMPDEST PUSH2 0xE23 JUMP JUMPDEST DUP3 MSTORE POP POP JUMP JUMPDEST PUSH1 0x0 PUSH2 0x972 DUP3 PUSH2 0xC7C JUMP JUMPDEST PUSH2 0x97C DUP2 DUP6 PUSH2 0xC87 JUMP JUMPDEST SWAP4 POP PUSH2 0x98C DUP2 DUP6 PUSH1 0x20 DUP7 ADD PUSH2 0xD76 JUMP JUMPDEST DUP1 DUP5 ADD SWAP2 POP POP SWAP3 SWAP2 POP POP JUMP JUMPDEST PUSH1 0x0 PUSH2 0x9A5 PUSH1 0x3 DUP4 PUSH2 0xC92 JUMP JUMPDEST SWAP2 POP PUSH2 0x9B0 DUP3 PUSH2 0xEB0 JUMP JUMPDEST PUSH1 0x20 DUP3 ADD SWAP1 POP SWAP2 SWAP1 POP JUMP JUMPDEST PUSH1 0x0 PUSH2 0x9C8 PUSH1 0x3 DUP4 PUSH2 0xC92 JUMP JUMPDEST SWAP2 POP PUSH2 0x9D3 DUP3 PUSH2 0xED9 JUMP JUMPDEST PUSH1 0x20 DUP3 ADD SWAP1 POP SWAP2 SWAP1 POP JUMP JUMPDEST PUSH1 0x0 PUSH2 0x9EB PUSH1 0x1C DUP4 PUSH2 0xCA3 JUMP JUMPDEST SWAP2 POP PUSH2 0x9F6 DUP3 PUSH2 0xF02 JUMP JUMPDEST PUSH1 0x1C DUP3 ADD SWAP1 POP SWAP2 SWAP1 POP JUMP JUMPDEST PUSH1 0x0 PUSH2 0xA0E PUSH1 0x3 DUP4 PUSH2 0xC92 JUMP JUMPDEST SWAP2 POP PUSH2 0xA19 DUP3 PUSH2 0xF2B JUMP JUMPDEST PUSH1 0x20 DUP3 ADD SWAP1 POP SWAP2 SWAP1 POP JUMP JUMPDEST PUSH1 0x0 PUSH2 0xA31 PUSH1 0x3 DUP4 PUSH2 0xC92 JUMP JUMPDEST SWAP2 POP PUSH2 0xA3C DUP3 PUSH2 0xF54 JUMP JUMPDEST PUSH1 0x20 DUP3 ADD SWAP1 POP SWAP2 SWAP1 POP JUMP JUMPDEST PUSH2 0xA50 DUP2 PUSH2 0xD50 JUMP JUMPDEST DUP3 MSTORE POP POP JUMP JUMPDEST PUSH2 0xA5F DUP2 PUSH2 0xD5A JUMP JUMPDEST DUP3 MSTORE POP POP JUMP JUMPDEST PUSH1 0x0 PUSH2 0xA71 DUP3 DUP5 PUSH2 0x967 JUMP JUMPDEST SWAP2 POP DUP2 SWAP1 POP SWAP3 SWAP2 POP POP JUMP JUMPDEST PUSH1 0x0 PUSH2 0xA87 DUP3 PUSH2 0x9DE JUMP JUMPDEST SWAP2 POP PUSH2 0xA93 DUP3 DUP5 PUSH2 0x950 JUMP JUMPDEST PUSH1 0x20 DUP3 ADD SWAP2 POP DUP2 SWAP1 POP SWAP3 SWAP2 POP POP JUMP JUMPDEST PUSH1 0x0 PUSH1 0x20 DUP3 ADD SWAP1 POP PUSH2 0xAB7 PUSH1 0x0 DUP4 ADD DUP5 PUSH2 0x923 JUMP JUMPDEST SWAP3 SWAP2 POP POP JUMP JUMPDEST PUSH1 0x0 PUSH1 0xA0 DUP3 ADD SWAP1 POP PUSH2 0xAD2 PUSH1 0x0 DUP4 ADD DUP9 PUSH2 0x923 JUMP JUMPDEST PUSH2 0xADF PUSH1 0x20 DUP4 ADD DUP8 PUSH2 0xA47 JUMP JUMPDEST PUSH2 0xAEC PUSH1 0x40 DUP4 ADD DUP7 PUSH2 0x941 JUMP JUMPDEST PUSH2 0xAF9 PUSH1 0x60 DUP4 ADD DUP6 PUSH2 0xA47 JUMP JUMPDEST PUSH2 0xB06 PUSH1 0x80 DUP4 ADD DUP5 PUSH2 0xA47 JUMP JUMPDEST SWAP7 SWAP6 POP POP POP POP POP POP JUMP JUMPDEST PUSH1 0x0 PUSH1 0x20 DUP3 ADD SWAP1 POP PUSH2 0xB25 PUSH1 0x0 DUP4 ADD DUP5 PUSH2 0x932 JUMP JUMPDEST SWAP3 SWAP2 POP POP JUMP JUMPDEST PUSH1 0x0 PUSH1 0x20 DUP3 ADD SWAP1 POP PUSH2 0xB40 PUSH1 0x0 DUP4 ADD DUP5 PUSH2 0x941 JUMP JUMPDEST SWAP3 SWAP2 POP POP JUMP JUMPDEST PUSH1 0x0 PUSH1 0x80 DUP3 ADD SWAP1 POP PUSH2 0xB5B PUSH1 0x0 DUP4 ADD DUP8 PUSH2 0x941 JUMP JUMPDEST PUSH2 0xB68 PUSH1 0x20 DUP4 ADD DUP7 PUSH2 0xA56 JUMP JUMPDEST PUSH2 0xB75 PUSH1 0x40 DUP4 ADD DUP6 PUSH2 0x941 JUMP JUMPDEST PUSH2 0xB82 PUSH1 0x60 DUP4 ADD DUP5 PUSH2 0x941 JUMP JUMPDEST SWAP6 SWAP5 POP POP POP POP POP JUMP JUMPDEST PUSH1 0x0 PUSH1 0x20 DUP3 ADD SWAP1 POP DUP2 DUP2 SUB PUSH1 0x0 DUP4 ADD MSTORE PUSH2 0xBA4 DUP2 PUSH2 0x998 JUMP JUMPDEST SWAP1 POP SWAP2 SWAP1 POP JUMP JUMPDEST PUSH1 0x0 PUSH1 0x20 DUP3 ADD SWAP1 POP DUP2 DUP2 SUB PUSH1 0x0 DUP4 ADD MSTORE PUSH2 0xBC4 DUP2 PUSH2 0x9BB JUMP JUMPDEST SWAP1 POP SWAP2 SWAP1 POP JUMP JUMPDEST PUSH1 0x0 PUSH1 0x20 DUP3 ADD SWAP1 POP DUP2 DUP2 SUB PUSH1 0x0 DUP4 ADD MSTORE PUSH2 0xBE4 DUP2 PUSH2 0xA01 JUMP JUMPDEST SWAP1 POP SWAP2 SWAP1 POP JUMP JUMPDEST PUSH1 0x0 PUSH1 0x20 DUP3 ADD SWAP1 POP DUP2 DUP2 SUB PUSH1 0x0 DUP4 ADD MSTORE PUSH2 0xC04 DUP2 PUSH2 0xA24 JUMP JUMPDEST SWAP1 POP SWAP2 SWAP1 POP JUMP JUMPDEST PUSH1 0x0 PUSH1 0x20 DUP3 ADD SWAP1 POP PUSH2 0xC20 PUSH1 0x0 DUP4 ADD DUP5 PUSH2 0xA47 JUMP JUMPDEST SWAP3 SWAP2 POP POP JUMP JUMPDEST PUSH1 0x0 PUSH2 0xC30 PUSH2 0xC41 JUMP JUMPDEST SWAP1 POP PUSH2 0xC3C DUP3 DUP3 PUSH2 0xDA9 JUMP JUMPDEST SWAP2 SWAP1 POP JUMP JUMPDEST PUSH1 0x0 PUSH1 0x40 MLOAD SWAP1 POP SWAP1 JUMP JUMPDEST PUSH1 0x0 PUSH8 0xFFFFFFFFFFFFFFFF DUP3 GT ISZERO PUSH2 0xC66 JUMPI PUSH2 0xC65 PUSH2 0xE5C JUMP JUMPDEST JUMPDEST PUSH2 0xC6F DUP3 PUSH2 0xE9F JUMP JUMPDEST SWAP1 POP PUSH1 0x20 DUP2 ADD SWAP1 POP SWAP2 SWAP1 POP JUMP JUMPDEST PUSH1 0x0 DUP2 MLOAD SWAP1 POP SWAP2 SWAP1 POP JUMP JUMPDEST PUSH1 0x0 DUP2 SWAP1 POP SWAP3 SWAP2 POP POP JUMP JUMPDEST PUSH1 0x0 DUP3 DUP3 MSTORE PUSH1 0x20 DUP3 ADD SWAP1 POP SWAP3 SWAP2 POP POP JUMP JUMPDEST PUSH1 0x0 DUP2 SWAP1 POP SWAP3 SWAP2 POP POP JUMP JUMPDEST PUSH1 0x0 PUSH2 0xCB9 DUP3 PUSH2 0xD50 JUMP JUMPDEST SWAP2 POP PUSH2 0xCC4 DUP4 PUSH2 0xD50 JUMP JUMPDEST SWAP3 POP DUP2 PUSH32 0xFFFFFFFFFFFFFFFFFFFFFFFFFFFFFFFFFFFFFFFFFFFFFFFFFFFFFFFFFFFFFFFF DIV DUP4 GT DUP3 ISZERO ISZERO AND ISZERO PUSH2 0xCFD JUMPI PUSH2 0xCFC PUSH2 0xE2D JUMP JUMPDEST JUMPDEST DUP3 DUP3 MUL SWAP1 POP SWAP3 SWAP2 POP POP JUMP JUMPDEST PUSH1 0x0 PUSH2 0xD13 DUP3 PUSH2 0xD30 JUMP JUMPDEST SWAP1 POP SWAP2 SWAP1 POP JUMP JUMPDEST PUSH1 0x0 DUP2 ISZERO ISZERO SWAP1 POP SWAP2 SWAP1 POP JUMP JUMPDEST PUSH1 0x0 DUP2 SWAP1 POP SWAP2 SWAP1 POP JUMP JUMPDEST PUSH1 0x0 PUSH20 0xFFFFFFFFFFFFFFFFFFFFFFFFFFFFFFFFFFFFFFFF DUP3 AND SWAP1 POP SWAP2 SWAP1 POP JUMP JUMPDEST PUSH1 0x0 DUP2 SWAP1 POP SWAP2 SWAP1 POP JUMP JUMPDEST PUSH1 0x0 PUSH1 0xFF DUP3 AND SWAP1 POP SWAP2 SWAP1 POP JUMP JUMPDEST DUP3 DUP2 DUP4 CALLDATACOPY PUSH1 0x0 DUP4 DUP4 ADD MSTORE POP POP POP JUMP JUMPDEST PUSH1 0x0 JUMPDEST DUP4 DUP2 LT ISZERO PUSH2 0xD94 JUMPI DUP1 DUP3 ADD MLOAD DUP2 DUP5 ADD MSTORE PUSH1 0x20 DUP2 ADD SWAP1 POP PUSH2 0xD79 JUMP JUMPDEST DUP4 DUP2 GT ISZERO PUSH2 0xDA3 JUMPI PUSH1 0x0 DUP5 DUP5 ADD MSTORE JUMPDEST POP POP POP POP JUMP JUMPDEST PUSH2 0xDB2 DUP3 PUSH2 0xE9F JUMP JUMPDEST DUP2 ADD DUP2 DUP2 LT PUSH8 0xFFFFFFFFFFFFFFFF DUP3 GT OR ISZERO PUSH2 0xDD1 JUMPI PUSH2 0xDD0 PUSH2 0xE5C JUMP JUMPDEST JUMPDEST DUP1 PUSH1 0x40 MSTORE POP POP POP JUMP JUMPDEST PUSH1 0x0 PUSH2 0xDE5 DUP3 PUSH2 0xD50 JUMP JUMPDEST SWAP2 POP PUSH32 0xFFFFFFFFFFFFFFFFFFFFFFFFFFFFFFFFFFFFFFFFFFFFFFFFFFFFFFFFFFFFFFFF DUP3 EQ ISZERO PUSH2 0xE18 JUMPI PUSH2 0xE17 PUSH2 0xE2D JUMP JUMPDEST JUMPDEST PUSH1 0x1 DUP3 ADD SWAP1 POP SWAP2 SWAP1 POP JUMP JUMPDEST PUSH1 0x0 DUP2 SWAP1 POP SWAP2 SWAP1 POP JUMP JUMPDEST PUSH32 0x4E487B7100000000000000000000000000000000000000000000000000000000 PUSH1 0x0 MSTORE PUSH1 0x11 PUSH1 0x4 MSTORE PUSH1 0x24 PUSH1 0x0 REVERT JUMPDEST PUSH32 0x4E487B7100000000000000000000000000000000000000000000000000000000 PUSH1 0x0 MSTORE PUSH1 0x41 PUSH1 0x4 MSTORE PUSH1 0x24 PUSH1 0x0 REVERT JUMPDEST PUSH1 0x0 DUP1 REVERT JUMPDEST PUSH1 0x0 DUP1 REVERT JUMPDEST PUSH1 0x0 DUP1 REVERT JUMPDEST PUSH1 0x0 DUP1 REVERT JUMPDEST PUSH1 0x0 PUSH1 0x1F NOT PUSH1 0x1F DUP4 ADD AND SWAP1 POP SWAP2 SWAP1 POP JUMP JUMPDEST PUSH32 0x3030380000000000000000000000000000000000000000000000000000000000 PUSH1 0x0 DUP3 ADD MSTORE POP JUMP JUMPDEST PUSH32 0x3030360000000000000000000000000000000000000000000000000000000000 PUSH1 0x0 DUP3 ADD MSTORE POP JUMP JUMPDEST PUSH32 0x19457468657265756D205369676E6564204D6573736167653A0A333200000000 PUSH1 0x0 DUP3 ADD MSTORE POP JUMP JUMPDEST PUSH32 0x3030350000000000000000000000000000000000000000000000000000000000 PUSH1 0x0 DUP3 ADD MSTORE POP JUMP JUMPDEST PUSH32 0x3030370000000000000000000000000000000000000000000000000000000000 PUSH1 0x0 DUP3 ADD MSTORE POP JUMP JUMPDEST PUSH2 0xF86 DUP2 PUSH2 0xD08 JUMP JUMPDEST DUP2 EQ PUSH2 0xF91 JUMPI PUSH1 0x0 DUP1 REVERT JUMPDEST POP JUMP JUMPDEST PUSH2 0xF9D DUP2 PUSH2 0xD26 JUMP JUMPDEST DUP2 EQ PUSH2 0xFA8 JUMPI PUSH1 0x0 DUP1 REVERT JUMPDEST POP JUMP JUMPDEST PUSH2 0xFB4 DUP2 PUSH2 0xD50 JUMP JUMPDEST DUP2 EQ PUSH2 0xFBF JUMPI PUSH1 0x0 DUP1 REVERT JUMPDEST POP JUMP INVALID LOG2 PUSH5 0x6970667358 0x22 SLT KECCAK256 DUP10 SWAP11 0x27 0xD0 0xB8 0xC8 LOG3 0xFC PUSH14 0x38196E37672C4854B1C40B913739 PC 0xC4 SWAP9 0xC 0x4D 0xE6 0xD9 SHL PUSH3 0x64736F PUSH13 0x63430008070033000000000000 "
				},
				"gasEstimates": {
					"creation": {
						"codeDepositCost": "817600",
						"executionCost": "infinite",
						"totalCost": "infinite"
					},
					"external": {
						"checkSignatures(bytes32,bytes)": "infinite",
						"encodeTransactionData(address,uint256,bytes,uint256,uint256)": "infinite",
						"execTransaction(address,uint256,bytes,bytes)": "infinite",
						"isOwner(address)": "2890",
						"nonce()": "2451",
						"ownerCount()": "2452",
						"owners(uint256)": "4957",
						"threshold()": "2496"
					},
					"internal": {
						"_setupOwners(address[] memory,uint256)": "infinite",
						"signatureSplit(bytes memory,uint256)": "infinite"
					}
				},
				"methodIdentifiers": {
					"checkSignatures(bytes32,bytes)": "ed516d51",
					"encodeTransactionData(address,uint256,bytes,uint256,uint256)": "a67dd509",
					"execTransaction(address,uint256,bytes,bytes)": "d01aa318",
					"isOwner(address)": "2f54bf6e",
					"nonce()": "affed0e0",
					"ownerCount()": "0db02622",
					"owners(uint256)": "025e7c27",
					"threshold()": "42cde4e8"
				}
			},
			"storageLayout": {
				"storage": [
					{
						"astId": 13,
						"contract": "contracts/multisigWallet.sol:MultisigWallet",
						"label": "owners",
						"offset": 0,
						"slot": "0",
						"type": "t_array(t_address)dyn_storage"
					},
					{
						"astId": 17,
						"contract": "contracts/multisigWallet.sol:MultisigWallet",
						"label": "isOwner",
						"offset": 0,
						"slot": "1",
						"type": "t_mapping(t_address,t_bool)"
					},
					{
						"astId": 19,
						"contract": "contracts/multisigWallet.sol:MultisigWallet",
						"label": "ownerCount",
						"offset": 0,
						"slot": "2",
						"type": "t_uint256"
					},
					{
						"astId": 21,
						"contract": "contracts/multisigWallet.sol:MultisigWallet",
						"label": "threshold",
						"offset": 0,
						"slot": "3",
						"type": "t_uint256"
					},
					{
						"astId": 23,
						"contract": "contracts/multisigWallet.sol:MultisigWallet",
						"label": "nonce",
						"offset": 0,
						"slot": "4",
						"type": "t_uint256"
					}
				],
				"types": {
					"t_address": {
						"encoding": "inplace",
						"label": "address",
						"numberOfBytes": "20"
					},
					"t_array(t_address)dyn_storage": {
						"base": "t_address",
						"encoding": "dynamic_array",
						"label": "address[]",
						"numberOfBytes": "32"
					},
					"t_bool": {
						"encoding": "inplace",
						"label": "bool",
						"numberOfBytes": "1"
					},
					"t_mapping(t_address,t_bool)": {
						"encoding": "mapping",
						"key": "t_address",
						"label": "mapping(address => bool)",
						"numberOfBytes": "32",
						"value": "t_bool"
					},
					"t_uint256": {
						"encoding": "inplace",
						"label": "uint256",
						"numberOfBytes": "32"
					}
				}
			},
			"userdoc": {
				"kind": "user",
				"methods": {},
				"notice": "基于签名的多签钱包，由gnosis safe合约简化而来，教学使用。",
				"version": 1
			}
		}
	}
}