{
  "_format": "hh-sol-artifact-1",
  "contractName": "WorldCupV2",
  "sourceName": "contracts/upgrade/WorldCupV2.sol",
  "abi": [
    {
      "anonymous": false,
      "inputs": [
        {
          "indexed": false,
          "internalType": "uint256",
          "name": "_prev",
          "type": "uint256"
        },
        {
          "indexed": false,
          "internalType": "uint256",
          "name": "_curr",
          "type": "uint256"
        }
      ],
      "name": "ChangeDeadline",
      "type": "event"
    },
    {
      "anonymous": false,
      "inputs": [
        {
          "indexed": false,
          "internalType": "address",
          "name": "_claimer",
          "type": "address"
        },
        {
          "indexed": false,
          "internalType": "uint256",
          "name": "_amt",
          "type": "uint256"
        }
      ],
      "name": "ClaimReward",
      "type": "event"
    },
    {
      "anonymous": false,
      "inputs": [
        {
          "indexed": false,
          "internalType": "uint8",
          "name": "_currRound",
          "type": "uint8"
        },
        {
          "indexed": false,
          "internalType": "uint256",
          "name": "_country",
          "type": "uint256"
        }
      ],
      "name": "Finialize",
      "type": "event"
    },
    {
      "anonymous": false,
      "inputs": [
        {
          "indexed": false,
          "internalType": "uint8",
          "name": "version",
          "type": "uint8"
        }
      ],
      "name": "Initialized",
      "type": "event"
    },
    {
      "anonymous": false,
      "inputs": [
        {
          "indexed": false,
          "internalType": "uint8",
          "name": "_currRound",
          "type": "uint8"
        },
        {
          "indexed": false,
          "internalType": "address",
          "name": "_player",
          "type": "address"
        },
        {
          "indexed": false,
          "internalType": "enum WorldCupV2.Country",
          "name": "_country",
          "type": "uint8"
        }
      ],
      "name": "Play",
      "type": "event"
    },
    {
      "inputs": [],
      "name": "admin",
      "outputs": [
        {
          "internalType": "address",
          "name": "",
          "type": "address"
        }
      ],
      "stateMutability": "view",
      "type": "function"
    },
    {
      "inputs": [
        {
          "internalType": "uint256",
          "name": "_newDeadline",
          "type": "uint256"
        }
      ],
      "name": "changeDeadline",
      "outputs": [],
      "stateMutability": "nonpayable",
      "type": "function"
    },
    {
      "inputs": [],
      "name": "claimReward",
      "outputs": [],
      "stateMutability": "nonpayable",
      "type": "function"
    },
    {
      "inputs": [
        {
          "internalType": "uint8",
          "name": "",
          "type": "uint8"
        },
        {
          "internalType": "enum WorldCupV2.Country",
          "name": "",
          "type": "uint8"
        },
        {
          "internalType": "uint256",
          "name": "",
          "type": "uint256"
        }
      ],
      "name": "countryToPlayers",
      "outputs": [
        {
          "internalType": "address",
          "name": "",
          "type": "address"
        }
      ],
      "stateMutability": "view",
      "type": "function"
    },
    {
      "inputs": [],
      "name": "currRound",
      "outputs": [
        {
          "internalType": "uint8",
          "name": "",
          "type": "uint8"
        }
      ],
      "stateMutability": "view",
      "type": "function"
    },
    {
      "inputs": [],
      "name": "deadline",
      "outputs": [
        {
          "internalType": "uint256",
          "name": "",
          "type": "uint256"
        }
      ],
      "stateMutability": "view",
      "type": "function"
    },
    {
      "inputs": [
        {
          "internalType": "enum WorldCupV2.Country",
          "name": "_country",
          "type": "uint8"
        }
      ],
      "name": "finialize",
      "outputs": [],
      "stateMutability": "nonpayable",
      "type": "function"
    },
    {
      "inputs": [
        {
          "internalType": "uint8",
          "name": "_round",
          "type": "uint8"
        },
        {
          "internalType": "enum WorldCupV2.Country",
          "name": "_country",
          "type": "uint8"
        }
      ],
      "name": "getCountryPlayters",
      "outputs": [
        {
          "internalType": "uint256",
          "name": "",
          "type": "uint256"
        }
      ],
      "stateMutability": "view",
      "type": "function"
    },
    {
      "inputs": [
        {
          "internalType": "uint8",
          "name": "_round",
          "type": "uint8"
        },
        {
          "internalType": "address",
          "name": "_player",
          "type": "address"
        },
        {
          "internalType": "enum WorldCupV2.Country",
          "name": "_country",
          "type": "uint8"
        }
      ],
      "name": "getPlayerInfo",
      "outputs": [
        {
          "internalType": "uint256",
          "name": "_counts",
          "type": "uint256"
        }
      ],
      "stateMutability": "view",
      "type": "function"
    },
    {
      "inputs": [],
      "name": "getVaultBalance",
      "outputs": [
        {
          "internalType": "uint256",
          "name": "bal",
          "type": "uint256"
        }
      ],
      "stateMutability": "view",
      "type": "function"
    },
    {
      "inputs": [
        {
          "internalType": "uint256",
          "name": "_deadline",
          "type": "uint256"
        }
      ],
      "name": "initialize",
      "outputs": [],
      "stateMutability": "nonpayable",
      "type": "function"
    },
    {
      "inputs": [],
      "name": "lockedAmts",
      "outputs": [
        {
          "internalType": "uint256",
          "name": "",
          "type": "uint256"
        }
      ],
      "stateMutability": "view",
      "type": "function"
    },
    {
      "inputs": [
        {
          "internalType": "enum WorldCupV2.Country",
          "name": "_selected",
          "type": "uint8"
        }
      ],
      "name": "play",
      "outputs": [],
      "stateMutability": "payable",
      "type": "function"
    },
    {
      "inputs": [
        {
          "internalType": "address",
          "name": "",
          "type": "address"
        }
      ],
      "name": "winnerVaults",
      "outputs": [
        {
          "internalType": "uint256",
          "name": "",
          "type": "uint256"
        }
      ],
      "stateMutability": "view",
      "type": "function"
    }
  ],
  "bytecode": "0x608060405234801561001057600080fd5b50611250806100206000396000f3fe6080604052600436106100dd5760003560e01c80637aca97b51161007f578063c4864f5711610059578063c4864f5714610243578063ed12e8ef14610263578063f851a44014610276578063fe4b84df1461029c57600080fd5b80637aca97b5146101ee578063ada2ac381461020e578063b88a802f1461022e57600080fd5b806334330586116100bb578063343305861461015957806334bf6d01146101865780633f5d8056146101a857806353a04b05146101db57600080fd5b80630fa68115146100e257806328655c5b1461011f57806329dcb0cf14610143575b600080fd5b3480156100ee57600080fd5b506101026100fd366004610ea4565b6102bc565b6040516001600160a01b0390911681526020015b60405180910390f35b34801561012b57600080fd5b5061013560055481565b604051908152602001610116565b34801561014f57600080fd5b5061013560045481565b34801561016557600080fd5b50610135610174366004610ef7565b60036020526000908152604090205481565b34801561019257600080fd5b506101a66101a1366004610f19565b610301565b005b3480156101b457600080fd5b506000546101c990600160b01b900460ff1681565b60405160ff9091168152602001610116565b6101a66101e9366004610f19565b6107a6565b3480156101fa57600080fd5b506101a6610209366004610f34565b610966565b34801561021a57600080fd5b50610135610229366004610f4d565b6109a7565b34801561023a57600080fd5b506101a6610a0a565b34801561024f57600080fd5b5061013561025e366004610f90565b610b73565b34801561026f57600080fd5b5047610135565b34801561028257600080fd5b50600054610102906201000090046001600160a01b031681565b3480156102a857600080fd5b506101a66102b7366004610f34565b610bc1565b600260205282600052604060002060205281600052604060002081815481106102e457600080fd5b6000918252602090912001546001600160a01b0316925083915050565b6000546201000090046001600160a01b031633146103585760405162461bcd60e51b815260206004820152600f60248201526e6e6f7420617574686f72697a65642160881b60448201526064015b60405180910390fd5b60008054600160b01b900460ff1681526002602052604081208183600481111561038457610384610fc3565b600481111561039557610395610fc3565b81526020019081526020016000208054806020026020016040519081016040528092919081815260200182805480156103f757602002820191906000526020600020905b81546001600160a01b031681526001909101906020018083116103d9575b5050505050905060008060055461040b4790565b6104159190610fef565b90506104726040518060400160405280601081526020016f31bab93920bb30b62130b630b731b29d60811b815250826040518060400160405280600e81526020016d3bb4b73732b9399031b7bab73a1d60911b8152508651610d3f565b60005b83518110156106d357600084828151811061049257610492611006565b6020908102919091018101516000805460ff600160b01b909104811682526001845260408083206001600160a01b038516845290945292902080549193509116156104ff576104f86040518060600160405280603281526020016111e960329139610d8e565b50506106c1565b805460ff19166001908117825560009082018189600481111561052457610524610fc3565b600481111561053557610535610fc3565b815260208082019290925260409081016000908120548154600160b01b900460ff1682526002909352908120919250908290828b600481111561057a5761057a610fc3565b600481111561058b5761058b610fc3565b81526020810191909152604001600020546105a6908861101c565b6105b0919061103e565b6001600160a01b0385166000908152600360205260408120805492935083929091906105dd90849061105d565b909155506105ed9050818861105d565b96508060056000828254610601919061105d565b92505081905550610656604051806040016040528060078152602001663bb4b73732b91d60c91b815250856040518060400160405280600b81526020016a31bab93921b7bab73a399d60a91b81525085610dd4565b604080518082018252601081526f3932bbb0b9321030b6ba1031bab9391d60811b6020808301919091528251808401845260068152653a37ba30b61d60d11b818301526001600160a01b03881660009081526003909252929020546106bc928491610d3f565b505050505b806106cb81611075565b915050610475565b5060006106e08383610fef565b9050801561071c57600080546201000090046001600160a01b03168152600360205260408120805483929061071690849061105d565b90915550505b600080547ff29c2f4a0ac8b177f1c72bbdf7cd3899630a10ce3626cc73671d98f682d574c091600160b01b90910460ff1690601661075983611090565b91906101000a81548160ff021916908360ff16021790555086600481111561078357610783610fc3565b6040805160ff909316835260208301919091520160405180910390a15050505050565b34633b9aca00146107f95760405162461bcd60e51b815260206004820152601760248201527f696e76616c69642066756e64732070726f766964656421000000000000000000604482015260640161034f565b600454421061083b5760405162461bcd60e51b815260206004820152600e60248201526d6974277320616c6c206f7665722160901b604482015260640161034f565b60008054600160b01b900460ff1681526002602052604081209082600481111561086757610867610fc3565b600481111561087857610878610fc3565b8152602080820192909252604090810160009081208054600181810183559183528483200180546001600160a01b03191633908117909155825460ff600160b01b9091041683528185528383209083529093529081209190828201908460048111156108e6576108e6610fc3565b60048111156108f7576108f7610fc3565b81526020019081526020016000206000828254610914919061105d565b90915550506000546040517fed75611777bda76f73e63b79a0b4b2f59dfb76a034ff90e9a4f204f414dadef79161095a91600160b01b90910460ff1690339086906110b0565b60405180910390a15050565b60045460408051918252602082018390527f971a644aa91b5d500f684dc15814182ae5e2c3d047bb2ef0247c63bbcd8b378c910160405180910390a1600455565b60ff831660009081526001602081815260408084206001600160a01b0387168552909152822001818360048111156109e1576109e1610fc3565b60048111156109f2576109f2610fc3565b81526020019081526020016000205490509392505050565b3360009081526003602052604090205480610a5b5760405162461bcd60e51b81526020600482015260116024820152706e6f7468696e6720746f20636c61696d2160781b604482015260640161034f565b33600090815260036020526040812081905560058054839290610a7f908490610fef565b9091555050604051600090339083908381818185875af1925050503d8060008114610ac6576040519150601f19603f3d011682016040523d82523d6000602084013e610acb565b606091505b5050905080610b135760405162461bcd60e51b8152602060048201526014602482015273636c61696d20726577617264206661696c65642160601b604482015260640161034f565b610b3d604051806040016040528060088152602001673932bbb0b932399d60c11b81525083610e1d565b60408051338152602081018490527fba8de60c3403ec381d1d484652ea1980e3c3e56359195c92525bff4ce47ad98e910161095a565b60ff8216600090815260026020526040812081836004811115610b9857610b98610fc3565b6004811115610ba957610ba9610fc3565b81526020810191909152604001600020549392505050565b600054610100900460ff1615808015610be15750600054600160ff909116105b80610bfb5750303b158015610bfb575060005460ff166001145b610c5e5760405162461bcd60e51b815260206004820152602e60248201527f496e697469616c697a61626c653a20636f6e747261637420697320616c72656160448201526d191e481a5b9a5d1a585b1a5e995960921b606482015260840161034f565b6000805460ff191660011790558015610c81576000805461ff0019166101001790555b6000805462010000600160b01b031916336201000002179055428211610cf45760405162461bcd60e51b815260206004820152602260248201527f576f726c644375704c6f74746572793a20696e76616c696420646561646c696e604482015261652160f01b606482015260840161034f565b60048290558015610d3b576000805461ff0019169055604051600181527f7f26b83ff96e1f2b6a682f133852f6798a09c465da95921460cefb38474024989060200161095a565b5050565b610d8884848484604051602401610d599493929190611142565b60408051601f198184030181529190526020810180516001600160e01b031663c67ea9d160e01b179052610e5e565b50505050565b610dd181604051602401610da2919061117f565b60408051601f198184030181529190526020810180516001600160e01b031663104c13eb60e21b179052610e5e565b50565b610d8884848484604051602401610dee9493929190611192565b60408051601f198184030181529190526020810180516001600160e01b03166348e8889760e11b179052610e5e565b610d3b8282604051602401610e339291906111c6565b60408051601f198184030181529190526020810180516001600160e01b0316632d839cb360e21b1790525b80516a636f6e736f6c652e6c6f67602083016000808483855afa5050505050565b803560ff81168114610e9057600080fd5b919050565b803560058110610e9057600080fd5b600080600060608486031215610eb957600080fd5b610ec284610e7f565b9250610ed060208501610e95565b9150604084013590509250925092565b80356001600160a01b0381168114610e9057600080fd5b600060208284031215610f0957600080fd5b610f1282610ee0565b9392505050565b600060208284031215610f2b57600080fd5b610f1282610e95565b600060208284031215610f4657600080fd5b5035919050565b600080600060608486031215610f6257600080fd5b610f6b84610e7f565b9250610f7960208501610ee0565b9150610f8760408501610e95565b90509250925092565b60008060408385031215610fa357600080fd5b610fac83610e7f565b9150610fba60208401610e95565b90509250929050565b634e487b7160e01b600052602160045260246000fd5b634e487b7160e01b600052601160045260246000fd5b60008282101561100157611001610fd9565b500390565b634e487b7160e01b600052603260045260246000fd5b60008261103957634e487b7160e01b600052601260045260246000fd5b500490565b600081600019048311821515161561105857611058610fd9565b500290565b6000821982111561107057611070610fd9565b500190565b600060001982141561108957611089610fd9565b5060010190565b600060ff821660ff8114156110a7576110a7610fd9565b60010192915050565b60ff841681526001600160a01b038316602082015260608101600583106110e757634e487b7160e01b600052602160045260246000fd5b826040830152949350505050565b6000815180845260005b8181101561111b576020818501810151868301820152016110ff565b8181111561112d576000602083870101525b50601f01601f19169290920160200192915050565b60808152600061115560808301876110f5565b856020840152828103604084015261116d81866110f5565b91505082606083015295945050505050565b602081526000610f1260208301846110f5565b6080815260006111a560808301876110f5565b6001600160a01b0386166020840152828103604084015261116d81866110f5565b6040815260006111d960408301856110f5565b9050826020830152939250505056fe746869732077696e6e657220686173206265656e2073657420616c72656164792c2077696c6c20626520736b697070656421a26469706673582212202b2d5f29b699ac00ffb0a82b1013b003491af4ad90c1c652719166192875872b64736f6c63430008090033",
  "linkReferences": {},
  "deployedLinkReferences": {}
}