{"contracts/upgrade/WorldCupV2.sol":{"WorldCupV2":{"abi":[{"anonymous":false,"inputs":[{"indexed":false,"internalType":"uint256","name":"_prev","type":"uint256"},{"indexed":false,"internalType":"uint256","name":"_curr","type":"uint256"}],"name":"ChangeDeadline","type":"event"},{"anonymous":false,"inputs":[{"indexed":false,"internalType":"address","name":"_claimer","type":"address"},{"indexed":false,"internalType":"uint256","name":"_amt","type":"uint256"}],"name":"ClaimReward","type":"event"},{"anonymous":false,"inputs":[{"indexed":false,"internalType":"uint8","name":"_currRound","type":"uint8"},{"indexed":false,"internalType":"uint256","name":"_country","type":"uint256"}],"name":"Finialize","type":"event"},{"anonymous":false,"inputs":[{"indexed":false,"internalType":"uint8","name":"version","type":"uint8"}],"name":"Initialized","type":"event"},{"anonymous":false,"inputs":[{"indexed":false,"internalType":"uint8","name":"_currRound","type":"uint8"},{"indexed":false,"internalType":"address","name":"_player","type":"address"},{"indexed":false,"internalType":"enum WorldCupV2.Country","name":"_country","type":"uint8"}],"name":"Play","type":"event"},{"inputs":[],"name":"admin","outputs":[{"internalType":"address","name":"","type":"address"}],"stateMutability":"view","type":"function"},{"inputs":[{"internalType":"uint256","name":"_newDeadline","type":"uint256"}],"name":"changeDeadline","outputs":[],"stateMutability":"nonpayable","type":"function"},{"inputs":[],"name":"claimReward","outputs":[],"stateMutability":"nonpayable","type":"function"},{"inputs":[{"internalType":"uint8","name":"","type":"uint8"},{"internalType":"enum WorldCupV2.Country","name":"","type":"uint8"},{"internalType":"uint256","name":"","type":"uint256"}],"name":"countryToPlayers","outputs":[{"internalType":"address","name":"","type":"address"}],"stateMutability":"view","type":"function"},{"inputs":[],"name":"currRound","outputs":[{"internalType":"uint8","name":"","type":"uint8"}],"stateMutability":"view","type":"function"},{"inputs":[],"name":"deadline","outputs":[{"internalType":"uint256","name":"","type":"uint256"}],"stateMutability":"view","type":"function"},{"inputs":[{"internalType":"enum WorldCupV2.Country","name":"_country","type":"uint8"}],"name":"finialize","outputs":[],"stateMutability":"nonpayable","type":"function"},{"inputs":[{"internalType":"uint8","name":"_round","type":"uint8"},{"internalType":"enum WorldCupV2.Country","name":"_country","type":"uint8"}],"name":"getCountryPlayters","outputs":[{"internalType":"uint256","name":"","type":"uint256"}],"stateMutability":"view","type":"function"},{"inputs":[{"internalType":"uint8","name":"_round","type":"uint8"},{"internalType":"address","name":"_player","type":"address"},{"internalType":"enum WorldCupV2.Country","name":"_country","type":"uint8"}],"name":"getPlayerInfo","outputs":[{"internalType":"uint256","name":"_counts","type":"uint256"}],"stateMutability":"view","type":"function"},{"inputs":[],"name":"getVaultBalance","outputs":[{"internalType":"uint256","name":"bal","type":"uint256"}],"stateMutability":"view","type":"function"},{"inputs":[{"internalType":"uint256","name":"_deadline","type":"uint256"}],"name":"initialize","outputs":[],"stateMutability":"nonpayable","type":"function"},{"inputs":[],"name":"lockedAmts","outputs":[{"internalType":"uint256","name":"","type":"uint256"}],"stateMutability":"view","type":"function"},{"inputs":[{"internalType":"enum WorldCupV2.Country","name":"_selected","type":"uint8"}],"name":"play","outputs":[],"stateMutability":"payable","type":"function"},{"inputs":[{"internalType":"address","name":"","type":"address"}],"name":"winnerVaults","outputs":[{"internalType":"uint256","name":"","type":"uint256"}],"stateMutability":"view","type":"function"}],"evm":{"bytecode":{"linkReferences":{},"object":"608060405234801561001057600080fd5b50611250806100206000396000f3fe6080604052600436106100dd5760003560e01c80637aca97b51161007f578063c4864f5711610059578063c4864f5714610243578063ed12e8ef14610263578063f851a44014610276578063fe4b84df1461029c57600080fd5b80637aca97b5146101ee578063ada2ac381461020e578063b88a802f1461022e57600080fd5b806334330586116100bb578063343305861461015957806334bf6d01146101865780633f5d8056146101a857806353a04b05146101db57600080fd5b80630fa68115146100e257806328655c5b1461011f57806329dcb0cf14610143575b600080fd5b3480156100ee57600080fd5b506101026100fd366004610ea4565b6102bc565b6040516001600160a01b0390911681526020015b60405180910390f35b34801561012b57600080fd5b5061013560055481565b604051908152602001610116565b34801561014f57600080fd5b5061013560045481565b34801561016557600080fd5b50610135610174366004610ef7565b60036020526000908152604090205481565b34801561019257600080fd5b506101a66101a1366004610f19565b610301565b005b3480156101b457600080fd5b506000546101c990600160b01b900460ff1681565b60405160ff9091168152602001610116565b6101a66101e9366004610f19565b6107a6565b3480156101fa57600080fd5b506101a6610209366004610f34565b610966565b34801561021a57600080fd5b50610135610229366004610f4d565b6109a7565b34801561023a57600080fd5b506101a6610a0a565b34801561024f57600080fd5b5061013561025e366004610f90565b610b73565b34801561026f57600080fd5b5047610135565b34801561028257600080fd5b50600054610102906201000090046001600160a01b031681565b3480156102a857600080fd5b506101a66102b7366004610f34565b610bc1565b600260205282600052604060002060205281600052604060002081815481106102e457600080fd5b6000918252602090912001546001600160a01b0316925083915050565b6000546201000090046001600160a01b031633146103585760405162461bcd60e51b815260206004820152600f60248201526e6e6f7420617574686f72697a65642160881b60448201526064015b60405180910390fd5b60008054600160b01b900460ff1681526002602052604081208183600481111561038457610384610fc3565b600481111561039557610395610fc3565b81526020019081526020016000208054806020026020016040519081016040528092919081815260200182805480156103f757602002820191906000526020600020905b81546001600160a01b031681526001909101906020018083116103d9575b5050505050905060008060055461040b4790565b6104159190610fef565b90506104726040518060400160405280601081526020016f31bab93920bb30b62130b630b731b29d60811b815250826040518060400160405280600e81526020016d3bb4b73732b9399031b7bab73a1d60911b8152508651610d3f565b60005b83518110156106d357600084828151811061049257610492611006565b6020908102919091018101516000805460ff600160b01b909104811682526001845260408083206001600160a01b038516845290945292902080549193509116156104ff576104f86040518060600160405280603281526020016111e960329139610d8e565b50506106c1565b805460ff19166001908117825560009082018189600481111561052457610524610fc3565b600481111561053557610535610fc3565b815260208082019290925260409081016000908120548154600160b01b900460ff1682526002909352908120919250908290828b600481111561057a5761057a610fc3565b600481111561058b5761058b610fc3565b81526020810191909152604001600020546105a6908861101c565b6105b0919061103e565b6001600160a01b0385166000908152600360205260408120805492935083929091906105dd90849061105d565b909155506105ed9050818861105d565b96508060056000828254610601919061105d565b92505081905550610656604051806040016040528060078152602001663bb4b73732b91d60c91b815250856040518060400160405280600b81526020016a31bab93921b7bab73a399d60a91b81525085610dd4565b604080518082018252601081526f3932bbb0b9321030b6ba1031bab9391d60811b6020808301919091528251808401845260068152653a37ba30b61d60d11b818301526001600160a01b03881660009081526003909252929020546106bc928491610d3f565b505050505b806106cb81611075565b915050610475565b5060006106e08383610fef565b9050801561071c57600080546201000090046001600160a01b03168152600360205260408120805483929061071690849061105d565b90915550505b600080547ff29c2f4a0ac8b177f1c72bbdf7cd3899630a10ce3626cc73671d98f682d574c091600160b01b90910460ff1690601661075983611090565b91906101000a81548160ff021916908360ff16021790555086600481111561078357610783610fc3565b6040805160ff909316835260208301919091520160405180910390a15050505050565b34633b9aca00146107f95760405162461bcd60e51b815260206004820152601760248201527f696e76616c69642066756e64732070726f766964656421000000000000000000604482015260640161034f565b600454421061083b5760405162461bcd60e51b815260206004820152600e60248201526d6974277320616c6c206f7665722160901b604482015260640161034f565b60008054600160b01b900460ff1681526002602052604081209082600481111561086757610867610fc3565b600481111561087857610878610fc3565b8152602080820192909252604090810160009081208054600181810183559183528483200180546001600160a01b03191633908117909155825460ff600160b01b9091041683528185528383209083529093529081209190828201908460048111156108e6576108e6610fc3565b60048111156108f7576108f7610fc3565b81526020019081526020016000206000828254610914919061105d565b90915550506000546040517fed75611777bda76f73e63b79a0b4b2f59dfb76a034ff90e9a4f204f414dadef79161095a91600160b01b90910460ff1690339086906110b0565b60405180910390a15050565b60045460408051918252602082018390527f971a644aa91b5d500f684dc15814182ae5e2c3d047bb2ef0247c63bbcd8b378c910160405180910390a1600455565b60ff831660009081526001602081815260408084206001600160a01b0387168552909152822001818360048111156109e1576109e1610fc3565b60048111156109f2576109f2610fc3565b81526020019081526020016000205490509392505050565b3360009081526003602052604090205480610a5b5760405162461bcd60e51b81526020600482015260116024820152706e6f7468696e6720746f20636c61696d2160781b604482015260640161034f565b33600090815260036020526040812081905560058054839290610a7f908490610fef565b9091555050604051600090339083908381818185875af1925050503d8060008114610ac6576040519150601f19603f3d011682016040523d82523d6000602084013e610acb565b606091505b5050905080610b135760405162461bcd60e51b8152602060048201526014602482015273636c61696d20726577617264206661696c65642160601b604482015260640161034f565b610b3d604051806040016040528060088152602001673932bbb0b932399d60c11b81525083610e1d565b60408051338152602081018490527fba8de60c3403ec381d1d484652ea1980e3c3e56359195c92525bff4ce47ad98e910161095a565b60ff8216600090815260026020526040812081836004811115610b9857610b98610fc3565b6004811115610ba957610ba9610fc3565b81526020810191909152604001600020549392505050565b600054610100900460ff1615808015610be15750600054600160ff909116105b80610bfb5750303b158015610bfb575060005460ff166001145b610c5e5760405162461bcd60e51b815260206004820152602e60248201527f496e697469616c697a61626c653a20636f6e747261637420697320616c72656160448201526d191e481a5b9a5d1a585b1a5e995960921b606482015260840161034f565b6000805460ff191660011790558015610c81576000805461ff0019166101001790555b6000805462010000600160b01b031916336201000002179055428211610cf45760405162461bcd60e51b815260206004820152602260248201527f576f726c644375704c6f74746572793a20696e76616c696420646561646c696e604482015261652160f01b606482015260840161034f565b60048290558015610d3b576000805461ff0019169055604051600181527f7f26b83ff96e1f2b6a682f133852f6798a09c465da95921460cefb38474024989060200161095a565b5050565b610d8884848484604051602401610d599493929190611142565b60408051601f198184030181529190526020810180516001600160e01b031663c67ea9d160e01b179052610e5e565b50505050565b610dd181604051602401610da2919061117f565b60408051601f198184030181529190526020810180516001600160e01b031663104c13eb60e21b179052610e5e565b50565b610d8884848484604051602401610dee9493929190611192565b60408051601f198184030181529190526020810180516001600160e01b03166348e8889760e11b179052610e5e565b610d3b8282604051602401610e339291906111c6565b60408051601f198184030181529190526020810180516001600160e01b0316632d839cb360e21b1790525b80516a636f6e736f6c652e6c6f67602083016000808483855afa5050505050565b803560ff81168114610e9057600080fd5b919050565b803560058110610e9057600080fd5b600080600060608486031215610eb957600080fd5b610ec284610e7f565b9250610ed060208501610e95565b9150604084013590509250925092565b80356001600160a01b0381168114610e9057600080fd5b600060208284031215610f0957600080fd5b610f1282610ee0565b9392505050565b600060208284031215610f2b57600080fd5b610f1282610e95565b600060208284031215610f4657600080fd5b5035919050565b600080600060608486031215610f6257600080fd5b610f6b84610e7f565b9250610f7960208501610ee0565b9150610f8760408501610e95565b90509250925092565b60008060408385031215610fa357600080fd5b610fac83610e7f565b9150610fba60208401610e95565b90509250929050565b634e487b7160e01b600052602160045260246000fd5b634e487b7160e01b600052601160045260246000fd5b60008282101561100157611001610fd9565b500390565b634e487b7160e01b600052603260045260246000fd5b60008261103957634e487b7160e01b600052601260045260246000fd5b500490565b600081600019048311821515161561105857611058610fd9565b500290565b6000821982111561107057611070610fd9565b500190565b600060001982141561108957611089610fd9565b5060010190565b600060ff821660ff8114156110a7576110a7610fd9565b60010192915050565b60ff841681526001600160a01b038316602082015260608101600583106110e757634e487b7160e01b600052602160045260246000fd5b826040830152949350505050565b6000815180845260005b8181101561111b576020818501810151868301820152016110ff565b8181111561112d576000602083870101525b50601f01601f19169290920160200192915050565b60808152600061115560808301876110f5565b856020840152828103604084015261116d81866110f5565b91505082606083015295945050505050565b602081526000610f1260208301846110f5565b6080815260006111a560808301876110f5565b6001600160a01b0386166020840152828103604084015261116d81866110f5565b6040815260006111d960408301856110f5565b9050826020830152939250505056fe746869732077696e6e657220686173206265656e2073657420616c72656164792c2077696c6c20626520736b697070656421a26469706673582212202b2d5f29b699ac00ffb0a82b1013b003491af4ad90c1c652719166192875872b64736f6c63430008090033","opcodes":"PUSH1 0x80 PUSH1 0x40 MSTORE CALLVALUE DUP1 ISZERO PUSH2 0x10 JUMPI PUSH1 0x0 DUP1 REVERT JUMPDEST POP PUSH2 0x1250 DUP1 PUSH2 0x20 PUSH1 0x0 CODECOPY PUSH1 0x0 RETURN INVALID PUSH1 0x80 PUSH1 0x40 MSTORE PUSH1 0x4 CALLDATASIZE LT PUSH2 0xDD JUMPI PUSH1 0x0 CALLDATALOAD PUSH1 0xE0 SHR DUP1 PUSH4 0x7ACA97B5 GT PUSH2 0x7F JUMPI DUP1 PUSH4 0xC4864F57 GT PUSH2 0x59 JUMPI DUP1 PUSH4 0xC4864F57 EQ PUSH2 0x243 JUMPI DUP1 PUSH4 0xED12E8EF EQ PUSH2 0x263 JUMPI DUP1 PUSH4 0xF851A440 EQ PUSH2 0x276 JUMPI DUP1 PUSH4 0xFE4B84DF EQ PUSH2 0x29C JUMPI PUSH1 0x0 DUP1 REVERT JUMPDEST DUP1 PUSH4 0x7ACA97B5 EQ PUSH2 0x1EE JUMPI DUP1 PUSH4 0xADA2AC38 EQ PUSH2 0x20E JUMPI DUP1 PUSH4 0xB88A802F EQ PUSH2 0x22E JUMPI PUSH1 0x0 DUP1 REVERT JUMPDEST DUP1 PUSH4 0x34330586 GT PUSH2 0xBB JUMPI DUP1 PUSH4 0x34330586 EQ PUSH2 0x159 JUMPI DUP1 PUSH4 0x34BF6D01 EQ PUSH2 0x186 JUMPI DUP1 PUSH4 0x3F5D8056 EQ PUSH2 0x1A8 JUMPI DUP1 PUSH4 0x53A04B05 EQ PUSH2 0x1DB JUMPI PUSH1 0x0 DUP1 REVERT JUMPDEST DUP1 PUSH4 0xFA68115 EQ PUSH2 0xE2 JUMPI DUP1 PUSH4 0x28655C5B EQ PUSH2 0x11F JUMPI DUP1 PUSH4 0x29DCB0CF EQ PUSH2 0x143 JUMPI JUMPDEST PUSH1 0x0 DUP1 REVERT JUMPDEST CALLVALUE DUP1 ISZERO PUSH2 0xEE JUMPI PUSH1 0x0 DUP1 REVERT JUMPDEST POP PUSH2 0x102 PUSH2 0xFD CALLDATASIZE PUSH1 0x4 PUSH2 0xEA4 JUMP JUMPDEST PUSH2 0x2BC JUMP JUMPDEST PUSH1 0x40 MLOAD PUSH1 0x1 PUSH1 0x1 PUSH1 0xA0 SHL SUB SWAP1 SWAP2 AND DUP2 MSTORE PUSH1 0x20 ADD JUMPDEST PUSH1 0x40 MLOAD DUP1 SWAP2 SUB SWAP1 RETURN JUMPDEST CALLVALUE DUP1 ISZERO PUSH2 0x12B JUMPI PUSH1 0x0 DUP1 REVERT JUMPDEST POP PUSH2 0x135 PUSH1 0x5 SLOAD DUP2 JUMP JUMPDEST PUSH1 0x40 MLOAD SWAP1 DUP2 MSTORE PUSH1 0x20 ADD PUSH2 0x116 JUMP JUMPDEST CALLVALUE DUP1 ISZERO PUSH2 0x14F JUMPI PUSH1 0x0 DUP1 REVERT JUMPDEST POP PUSH2 0x135 PUSH1 0x4 SLOAD DUP2 JUMP JUMPDEST CALLVALUE DUP1 ISZERO PUSH2 0x165 JUMPI PUSH1 0x0 DUP1 REVERT JUMPDEST POP PUSH2 0x135 PUSH2 0x174 CALLDATASIZE PUSH1 0x4 PUSH2 0xEF7 JUMP JUMPDEST PUSH1 0x3 PUSH1 0x20 MSTORE PUSH1 0x0 SWAP1 DUP2 MSTORE PUSH1 0x40 SWAP1 KECCAK256 SLOAD DUP2 JUMP JUMPDEST CALLVALUE DUP1 ISZERO PUSH2 0x192 JUMPI PUSH1 0x0 DUP1 REVERT JUMPDEST POP PUSH2 0x1A6 PUSH2 0x1A1 CALLDATASIZE PUSH1 0x4 PUSH2 0xF19 JUMP JUMPDEST PUSH2 0x301 JUMP JUMPDEST STOP JUMPDEST CALLVALUE DUP1 ISZERO PUSH2 0x1B4 JUMPI PUSH1 0x0 DUP1 REVERT JUMPDEST POP PUSH1 0x0 SLOAD PUSH2 0x1C9 SWAP1 PUSH1 0x1 PUSH1 0xB0 SHL SWAP1 DIV PUSH1 0xFF AND DUP2 JUMP JUMPDEST PUSH1 0x40 MLOAD PUSH1 0xFF SWAP1 SWAP2 AND DUP2 MSTORE PUSH1 0x20 ADD PUSH2 0x116 JUMP JUMPDEST PUSH2 0x1A6 PUSH2 0x1E9 CALLDATASIZE PUSH1 0x4 PUSH2 0xF19 JUMP JUMPDEST PUSH2 0x7A6 JUMP JUMPDEST CALLVALUE DUP1 ISZERO PUSH2 0x1FA JUMPI PUSH1 0x0 DUP1 REVERT JUMPDEST POP PUSH2 0x1A6 PUSH2 0x209 CALLDATASIZE PUSH1 0x4 PUSH2 0xF34 JUMP JUMPDEST PUSH2 0x966 JUMP JUMPDEST CALLVALUE DUP1 ISZERO PUSH2 0x21A JUMPI PUSH1 0x0 DUP1 REVERT JUMPDEST POP PUSH2 0x135 PUSH2 0x229 CALLDATASIZE PUSH1 0x4 PUSH2 0xF4D JUMP JUMPDEST PUSH2 0x9A7 JUMP JUMPDEST CALLVALUE DUP1 ISZERO PUSH2 0x23A JUMPI PUSH1 0x0 DUP1 REVERT JUMPDEST POP PUSH2 0x1A6 PUSH2 0xA0A JUMP JUMPDEST CALLVALUE DUP1 ISZERO PUSH2 0x24F JUMPI PUSH1 0x0 DUP1 REVERT JUMPDEST POP PUSH2 0x135 PUSH2 0x25E CALLDATASIZE PUSH1 0x4 PUSH2 0xF90 JUMP JUMPDEST PUSH2 0xB73 JUMP JUMPDEST CALLVALUE DUP1 ISZERO PUSH2 0x26F JUMPI PUSH1 0x0 DUP1 REVERT JUMPDEST POP SELFBALANCE PUSH2 0x135 JUMP JUMPDEST CALLVALUE DUP1 ISZERO PUSH2 0x282 JUMPI PUSH1 0x0 DUP1 REVERT JUMPDEST POP PUSH1 0x0 SLOAD PUSH2 0x102 SWAP1 PUSH3 0x10000 SWAP1 DIV PUSH1 0x1 PUSH1 0x1 PUSH1 0xA0 SHL SUB AND DUP2 JUMP JUMPDEST CALLVALUE DUP1 ISZERO PUSH2 0x2A8 JUMPI PUSH1 0x0 DUP1 REVERT JUMPDEST POP PUSH2 0x1A6 PUSH2 0x2B7 CALLDATASIZE PUSH1 0x4 PUSH2 0xF34 JUMP JUMPDEST PUSH2 0xBC1 JUMP JUMPDEST PUSH1 0x2 PUSH1 0x20 MSTORE DUP3 PUSH1 0x0 MSTORE PUSH1 0x40 PUSH1 0x0 KECCAK256 PUSH1 0x20 MSTORE DUP2 PUSH1 0x0 MSTORE PUSH1 0x40 PUSH1 0x0 KECCAK256 DUP2 DUP2 SLOAD DUP2 LT PUSH2 0x2E4 JUMPI PUSH1 0x0 DUP1 REVERT JUMPDEST PUSH1 0x0 SWAP2 DUP3 MSTORE PUSH1 0x20 SWAP1 SWAP2 KECCAK256 ADD SLOAD PUSH1 0x1 PUSH1 0x1 PUSH1 0xA0 SHL SUB AND SWAP3 POP DUP4 SWAP2 POP POP JUMP JUMPDEST PUSH1 0x0 SLOAD PUSH3 0x10000 SWAP1 DIV PUSH1 0x1 PUSH1 0x1 PUSH1 0xA0 SHL SUB AND CALLER EQ PUSH2 0x358 JUMPI PUSH1 0x40 MLOAD PUSH3 0x461BCD PUSH1 0xE5 SHL DUP2 MSTORE PUSH1 0x20 PUSH1 0x4 DUP3 ADD MSTORE PUSH1 0xF PUSH1 0x24 DUP3 ADD MSTORE PUSH15 0x6E6F7420617574686F72697A656421 PUSH1 0x88 SHL PUSH1 0x44 DUP3 ADD MSTORE PUSH1 0x64 ADD JUMPDEST PUSH1 0x40 MLOAD DUP1 SWAP2 SUB SWAP1 REVERT JUMPDEST PUSH1 0x0 DUP1 SLOAD PUSH1 0x1 PUSH1 0xB0 SHL SWAP1 DIV PUSH1 0xFF AND DUP2 MSTORE PUSH1 0x2 PUSH1 0x20 MSTORE PUSH1 0x40 DUP2 KECCAK256 DUP2 DUP4 PUSH1 0x4 DUP2 GT ISZERO PUSH2 0x384 JUMPI PUSH2 0x384 PUSH2 0xFC3 JUMP JUMPDEST PUSH1 0x4 DUP2 GT ISZERO PUSH2 0x395 JUMPI PUSH2 0x395 PUSH2 0xFC3 JUMP JUMPDEST DUP2 MSTORE PUSH1 0x20 ADD SWAP1 DUP2 MSTORE PUSH1 0x20 ADD PUSH1 0x0 KECCAK256 DUP1 SLOAD DUP1 PUSH1 0x20 MUL PUSH1 0x20 ADD PUSH1 0x40 MLOAD SWAP1 DUP2 ADD PUSH1 0x40 MSTORE DUP1 SWAP3 SWAP2 SWAP1 DUP2 DUP2 MSTORE PUSH1 0x20 ADD DUP3 DUP1 SLOAD DUP1 ISZERO PUSH2 0x3F7 JUMPI PUSH1 0x20 MUL DUP3 ADD SWAP2 SWAP1 PUSH1 0x0 MSTORE PUSH1 0x20 PUSH1 0x0 KECCAK256 SWAP1 JUMPDEST DUP2 SLOAD PUSH1 0x1 PUSH1 0x1 PUSH1 0xA0 SHL SUB AND DUP2 MSTORE PUSH1 0x1 SWAP1 SWAP2 ADD SWAP1 PUSH1 0x20 ADD DUP1 DUP4 GT PUSH2 0x3D9 JUMPI JUMPDEST POP POP POP POP POP SWAP1 POP PUSH1 0x0 DUP1 PUSH1 0x5 SLOAD PUSH2 0x40B SELFBALANCE SWAP1 JUMP JUMPDEST PUSH2 0x415 SWAP2 SWAP1 PUSH2 0xFEF JUMP JUMPDEST SWAP1 POP PUSH2 0x472 PUSH1 0x40 MLOAD DUP1 PUSH1 0x40 ADD PUSH1 0x40 MSTORE DUP1 PUSH1 0x10 DUP2 MSTORE PUSH1 0x20 ADD PUSH16 0x31BAB93920BB30B62130B630B731B29D PUSH1 0x81 SHL DUP2 MSTORE POP DUP3 PUSH1 0x40 MLOAD DUP1 PUSH1 0x40 ADD PUSH1 0x40 MSTORE DUP1 PUSH1 0xE DUP2 MSTORE PUSH1 0x20 ADD PUSH14 0x3BB4B73732B9399031B7BAB73A1D PUSH1 0x91 SHL DUP2 MSTORE POP DUP7 MLOAD PUSH2 0xD3F JUMP JUMPDEST PUSH1 0x0 JUMPDEST DUP4 MLOAD DUP2 LT ISZERO PUSH2 0x6D3 JUMPI PUSH1 0x0 DUP5 DUP3 DUP2 MLOAD DUP2 LT PUSH2 0x492 JUMPI PUSH2 0x492 PUSH2 0x1006 JUMP JUMPDEST PUSH1 0x20 SWAP1 DUP2 MUL SWAP2 SWAP1 SWAP2 ADD DUP2 ADD MLOAD PUSH1 0x0 DUP1 SLOAD PUSH1 0xFF PUSH1 0x1 PUSH1 0xB0 SHL SWAP1 SWAP2 DIV DUP2 AND DUP3 MSTORE PUSH1 0x1 DUP5 MSTORE PUSH1 0x40 DUP1 DUP4 KECCAK256 PUSH1 0x1 PUSH1 0x1 PUSH1 0xA0 SHL SUB DUP6 AND DUP5 MSTORE SWAP1 SWAP5 MSTORE SWAP3 SWAP1 KECCAK256 DUP1 SLOAD SWAP2 SWAP4 POP SWAP2 AND ISZERO PUSH2 0x4FF JUMPI PUSH2 0x4F8 PUSH1 0x40 MLOAD DUP1 PUSH1 0x60 ADD PUSH1 0x40 MSTORE DUP1 PUSH1 0x32 DUP2 MSTORE PUSH1 0x20 ADD PUSH2 0x11E9 PUSH1 0x32 SWAP2 CODECOPY PUSH2 0xD8E JUMP JUMPDEST POP POP PUSH2 0x6C1 JUMP JUMPDEST DUP1 SLOAD PUSH1 0xFF NOT AND PUSH1 0x1 SWAP1 DUP2 OR DUP3 SSTORE PUSH1 0x0 SWAP1 DUP3 ADD DUP2 DUP10 PUSH1 0x4 DUP2 GT ISZERO PUSH2 0x524 JUMPI PUSH2 0x524 PUSH2 0xFC3 JUMP JUMPDEST PUSH1 0x4 DUP2 GT ISZERO PUSH2 0x535 JUMPI PUSH2 0x535 PUSH2 0xFC3 JUMP JUMPDEST DUP2 MSTORE PUSH1 0x20 DUP1 DUP3 ADD SWAP3 SWAP1 SWAP3 MSTORE PUSH1 0x40 SWAP1 DUP2 ADD PUSH1 0x0 SWAP1 DUP2 KECCAK256 SLOAD DUP2 SLOAD PUSH1 0x1 PUSH1 0xB0 SHL SWAP1 DIV PUSH1 0xFF AND DUP3 MSTORE PUSH1 0x2 SWAP1 SWAP4 MSTORE SWAP1 DUP2 KECCAK256 SWAP2 SWAP3 POP SWAP1 DUP3 SWAP1 DUP3 DUP12 PUSH1 0x4 DUP2 GT ISZERO PUSH2 0x57A JUMPI PUSH2 0x57A PUSH2 0xFC3 JUMP JUMPDEST PUSH1 0x4 DUP2 GT ISZERO PUSH2 0x58B JUMPI PUSH2 0x58B PUSH2 0xFC3 JUMP JUMPDEST DUP2 MSTORE PUSH1 0x20 DUP2 ADD SWAP2 SWAP1 SWAP2 MSTORE PUSH1 0x40 ADD PUSH1 0x0 KECCAK256 SLOAD PUSH2 0x5A6 SWAP1 DUP9 PUSH2 0x101C JUMP JUMPDEST PUSH2 0x5B0 SWAP2 SWAP1 PUSH2 0x103E JUMP JUMPDEST PUSH1 0x1 PUSH1 0x1 PUSH1 0xA0 SHL SUB DUP6 AND PUSH1 0x0 SWAP1 DUP2 MSTORE PUSH1 0x3 PUSH1 0x20 MSTORE PUSH1 0x40 DUP2 KECCAK256 DUP1 SLOAD SWAP3 SWAP4 POP DUP4 SWAP3 SWAP1 SWAP2 SWAP1 PUSH2 0x5DD SWAP1 DUP5 SWAP1 PUSH2 0x105D JUMP JUMPDEST SWAP1 SWAP2 SSTORE POP PUSH2 0x5ED SWAP1 POP DUP2 DUP9 PUSH2 0x105D JUMP JUMPDEST SWAP7 POP DUP1 PUSH1 0x5 PUSH1 0x0 DUP3 DUP3 SLOAD PUSH2 0x601 SWAP2 SWAP1 PUSH2 0x105D JUMP JUMPDEST SWAP3 POP POP DUP2 SWAP1 SSTORE POP PUSH2 0x656 PUSH1 0x40 MLOAD DUP1 PUSH1 0x40 ADD PUSH1 0x40 MSTORE DUP1 PUSH1 0x7 DUP2 MSTORE PUSH1 0x20 ADD PUSH7 0x3BB4B73732B91D PUSH1 0xC9 SHL DUP2 MSTORE POP DUP6 PUSH1 0x40 MLOAD DUP1 PUSH1 0x40 ADD PUSH1 0x40 MSTORE DUP1 PUSH1 0xB DUP2 MSTORE PUSH1 0x20 ADD PUSH11 0x31BAB93921B7BAB73A399D PUSH1 0xA9 SHL DUP2 MSTORE POP DUP6 PUSH2 0xDD4 JUMP JUMPDEST PUSH1 0x40 DUP1 MLOAD DUP1 DUP3 ADD DUP3 MSTORE PUSH1 0x10 DUP2 MSTORE PUSH16 0x3932BBB0B9321030B6BA1031BAB9391D PUSH1 0x81 SHL PUSH1 0x20 DUP1 DUP4 ADD SWAP2 SWAP1 SWAP2 MSTORE DUP3 MLOAD DUP1 DUP5 ADD DUP5 MSTORE PUSH1 0x6 DUP2 MSTORE PUSH6 0x3A37BA30B61D PUSH1 0xD1 SHL DUP2 DUP4 ADD MSTORE PUSH1 0x1 PUSH1 0x1 PUSH1 0xA0 SHL SUB DUP9 AND PUSH1 0x0 SWAP1 DUP2 MSTORE PUSH1 0x3 SWAP1 SWAP3 MSTORE SWAP3 SWAP1 KECCAK256 SLOAD PUSH2 0x6BC SWAP3 DUP5 SWAP2 PUSH2 0xD3F JUMP JUMPDEST POP POP POP POP JUMPDEST DUP1 PUSH2 0x6CB DUP2 PUSH2 0x1075 JUMP JUMPDEST SWAP2 POP POP PUSH2 0x475 JUMP JUMPDEST POP PUSH1 0x0 PUSH2 0x6E0 DUP4 DUP4 PUSH2 0xFEF JUMP JUMPDEST SWAP1 POP DUP1 ISZERO PUSH2 0x71C JUMPI PUSH1 0x0 DUP1 SLOAD PUSH3 0x10000 SWAP1 DIV PUSH1 0x1 PUSH1 0x1 PUSH1 0xA0 SHL SUB AND DUP2 MSTORE PUSH1 0x3 PUSH1 0x20 MSTORE PUSH1 0x40 DUP2 KECCAK256 DUP1 SLOAD DUP4 SWAP3 SWAP1 PUSH2 0x716 SWAP1 DUP5 SWAP1 PUSH2 0x105D JUMP JUMPDEST SWAP1 SWAP2 SSTORE POP POP JUMPDEST PUSH1 0x0 DUP1 SLOAD PUSH32 0xF29C2F4A0AC8B177F1C72BBDF7CD3899630A10CE3626CC73671D98F682D574C0 SWAP2 PUSH1 0x1 PUSH1 0xB0 SHL SWAP1 SWAP2 DIV PUSH1 0xFF AND SWAP1 PUSH1 0x16 PUSH2 0x759 DUP4 PUSH2 0x1090 JUMP JUMPDEST SWAP2 SWAP1 PUSH2 0x100 EXP DUP2 SLOAD DUP2 PUSH1 0xFF MUL NOT AND SWAP1 DUP4 PUSH1 0xFF AND MUL OR SWAP1 SSTORE POP DUP7 PUSH1 0x4 DUP2 GT ISZERO PUSH2 0x783 JUMPI PUSH2 0x783 PUSH2 0xFC3 JUMP JUMPDEST PUSH1 0x40 DUP1 MLOAD PUSH1 0xFF SWAP1 SWAP4 AND DUP4 MSTORE PUSH1 0x20 DUP4 ADD SWAP2 SWAP1 SWAP2 MSTORE ADD PUSH1 0x40 MLOAD DUP1 SWAP2 SUB SWAP1 LOG1 POP POP POP POP POP JUMP JUMPDEST CALLVALUE PUSH4 0x3B9ACA00 EQ PUSH2 0x7F9 JUMPI PUSH1 0x40 MLOAD PUSH3 0x461BCD PUSH1 0xE5 SHL DUP2 MSTORE PUSH1 0x20 PUSH1 0x4 DUP3 ADD MSTORE PUSH1 0x17 PUSH1 0x24 DUP3 ADD MSTORE PUSH32 0x696E76616C69642066756E64732070726F766964656421000000000000000000 PUSH1 0x44 DUP3 ADD MSTORE PUSH1 0x64 ADD PUSH2 0x34F JUMP JUMPDEST PUSH1 0x4 SLOAD TIMESTAMP LT PUSH2 0x83B JUMPI PUSH1 0x40 MLOAD PUSH3 0x461BCD PUSH1 0xE5 SHL DUP2 MSTORE PUSH1 0x20 PUSH1 0x4 DUP3 ADD MSTORE PUSH1 0xE PUSH1 0x24 DUP3 ADD MSTORE PUSH14 0x6974277320616C6C206F76657221 PUSH1 0x90 SHL PUSH1 0x44 DUP3 ADD MSTORE PUSH1 0x64 ADD PUSH2 0x34F JUMP JUMPDEST PUSH1 0x0 DUP1 SLOAD PUSH1 0x1 PUSH1 0xB0 SHL SWAP1 DIV PUSH1 0xFF AND DUP2 MSTORE PUSH1 0x2 PUSH1 0x20 MSTORE PUSH1 0x40 DUP2 KECCAK256 SWAP1 DUP3 PUSH1 0x4 DUP2 GT ISZERO PUSH2 0x867 JUMPI PUSH2 0x867 PUSH2 0xFC3 JUMP JUMPDEST PUSH1 0x4 DUP2 GT ISZERO PUSH2 0x878 JUMPI PUSH2 0x878 PUSH2 0xFC3 JUMP JUMPDEST DUP2 MSTORE PUSH1 0x20 DUP1 DUP3 ADD SWAP3 SWAP1 SWAP3 MSTORE PUSH1 0x40 SWAP1 DUP2 ADD PUSH1 0x0 SWAP1 DUP2 KECCAK256 DUP1 SLOAD PUSH1 0x1 DUP2 DUP2 ADD DUP4 SSTORE SWAP2 DUP4 MSTORE DUP5 DUP4 KECCAK256 ADD DUP1 SLOAD PUSH1 0x1 PUSH1 0x1 PUSH1 0xA0 SHL SUB NOT AND CALLER SWAP1 DUP2 OR SWAP1 SWAP2 SSTORE DUP3 SLOAD PUSH1 0xFF PUSH1 0x1 PUSH1 0xB0 SHL SWAP1 SWAP2 DIV AND DUP4 MSTORE DUP2 DUP6 MSTORE DUP4 DUP4 KECCAK256 SWAP1 DUP4 MSTORE SWAP1 SWAP4 MSTORE SWAP1 DUP2 KECCAK256 SWAP2 SWAP1 DUP3 DUP3 ADD SWAP1 DUP5 PUSH1 0x4 DUP2 GT ISZERO PUSH2 0x8E6 JUMPI PUSH2 0x8E6 PUSH2 0xFC3 JUMP JUMPDEST PUSH1 0x4 DUP2 GT ISZERO PUSH2 0x8F7 JUMPI PUSH2 0x8F7 PUSH2 0xFC3 JUMP JUMPDEST DUP2 MSTORE PUSH1 0x20 ADD SWAP1 DUP2 MSTORE PUSH1 0x20 ADD PUSH1 0x0 KECCAK256 PUSH1 0x0 DUP3 DUP3 SLOAD PUSH2 0x914 SWAP2 SWAP1 PUSH2 0x105D JUMP JUMPDEST SWAP1 SWAP2 SSTORE POP POP PUSH1 0x0 SLOAD PUSH1 0x40 MLOAD PUSH32 0xED75611777BDA76F73E63B79A0B4B2F59DFB76A034FF90E9A4F204F414DADEF7 SWAP2 PUSH2 0x95A SWAP2 PUSH1 0x1 PUSH1 0xB0 SHL SWAP1 SWAP2 DIV PUSH1 0xFF AND SWAP1 CALLER SWAP1 DUP7 SWAP1 PUSH2 0x10B0 JUMP JUMPDEST PUSH1 0x40 MLOAD DUP1 SWAP2 SUB SWAP1 LOG1 POP POP JUMP JUMPDEST PUSH1 0x4 SLOAD PUSH1 0x40 DUP1 MLOAD SWAP2 DUP3 MSTORE PUSH1 0x20 DUP3 ADD DUP4 SWAP1 MSTORE PUSH32 0x971A644AA91B5D500F684DC15814182AE5E2C3D047BB2EF0247C63BBCD8B378C SWAP2 ADD PUSH1 0x40 MLOAD DUP1 SWAP2 SUB SWAP1 LOG1 PUSH1 0x4 SSTORE JUMP JUMPDEST PUSH1 0xFF DUP4 AND PUSH1 0x0 SWAP1 DUP2 MSTORE PUSH1 0x1 PUSH1 0x20 DUP2 DUP2 MSTORE PUSH1 0x40 DUP1 DUP5 KECCAK256 PUSH1 0x1 PUSH1 0x1 PUSH1 0xA0 SHL SUB DUP8 AND DUP6 MSTORE SWAP1 SWAP2 MSTORE DUP3 KECCAK256 ADD DUP2 DUP4 PUSH1 0x4 DUP2 GT ISZERO PUSH2 0x9E1 JUMPI PUSH2 0x9E1 PUSH2 0xFC3 JUMP JUMPDEST PUSH1 0x4 DUP2 GT ISZERO PUSH2 0x9F2 JUMPI PUSH2 0x9F2 PUSH2 0xFC3 JUMP JUMPDEST DUP2 MSTORE PUSH1 0x20 ADD SWAP1 DUP2 MSTORE PUSH1 0x20 ADD PUSH1 0x0 KECCAK256 SLOAD SWAP1 POP SWAP4 SWAP3 POP POP POP JUMP JUMPDEST CALLER PUSH1 0x0 SWAP1 DUP2 MSTORE PUSH1 0x3 PUSH1 0x20 MSTORE PUSH1 0x40 SWAP1 KECCAK256 SLOAD DUP1 PUSH2 0xA5B JUMPI PUSH1 0x40 MLOAD PUSH3 0x461BCD PUSH1 0xE5 SHL DUP2 MSTORE PUSH1 0x20 PUSH1 0x4 DUP3 ADD MSTORE PUSH1 0x11 PUSH1 0x24 DUP3 ADD MSTORE PUSH17 0x6E6F7468696E6720746F20636C61696D21 PUSH1 0x78 SHL PUSH1 0x44 DUP3 ADD MSTORE PUSH1 0x64 ADD PUSH2 0x34F JUMP JUMPDEST CALLER PUSH1 0x0 SWAP1 DUP2 MSTORE PUSH1 0x3 PUSH1 0x20 MSTORE PUSH1 0x40 DUP2 KECCAK256 DUP2 SWAP1 SSTORE PUSH1 0x5 DUP1 SLOAD DUP4 SWAP3 SWAP1 PUSH2 0xA7F SWAP1 DUP5 SWAP1 PUSH2 0xFEF JUMP JUMPDEST SWAP1 SWAP2 SSTORE POP POP PUSH1 0x40 MLOAD PUSH1 0x0 SWAP1 CALLER SWAP1 DUP4 SWAP1 DUP4 DUP2 DUP2 DUP2 DUP6 DUP8 GAS CALL SWAP3 POP POP POP RETURNDATASIZE DUP1 PUSH1 0x0 DUP2 EQ PUSH2 0xAC6 JUMPI PUSH1 0x40 MLOAD SWAP2 POP PUSH1 0x1F NOT PUSH1 0x3F RETURNDATASIZE ADD AND DUP3 ADD PUSH1 0x40 MSTORE RETURNDATASIZE DUP3 MSTORE RETURNDATASIZE PUSH1 0x0 PUSH1 0x20 DUP5 ADD RETURNDATACOPY PUSH2 0xACB JUMP JUMPDEST PUSH1 0x60 SWAP2 POP JUMPDEST POP POP SWAP1 POP DUP1 PUSH2 0xB13 JUMPI PUSH1 0x40 MLOAD PUSH3 0x461BCD PUSH1 0xE5 SHL DUP2 MSTORE PUSH1 0x20 PUSH1 0x4 DUP3 ADD MSTORE PUSH1 0x14 PUSH1 0x24 DUP3 ADD MSTORE PUSH20 0x636C61696D20726577617264206661696C656421 PUSH1 0x60 SHL PUSH1 0x44 DUP3 ADD MSTORE PUSH1 0x64 ADD PUSH2 0x34F JUMP JUMPDEST PUSH2 0xB3D PUSH1 0x40 MLOAD DUP1 PUSH1 0x40 ADD PUSH1 0x40 MSTORE DUP1 PUSH1 0x8 DUP2 MSTORE PUSH1 0x20 ADD PUSH8 0x3932BBB0B932399D PUSH1 0xC1 SHL DUP2 MSTORE POP DUP4 PUSH2 0xE1D JUMP JUMPDEST PUSH1 0x40 DUP1 MLOAD CALLER DUP2 MSTORE PUSH1 0x20 DUP2 ADD DUP5 SWAP1 MSTORE PUSH32 0xBA8DE60C3403EC381D1D484652EA1980E3C3E56359195C92525BFF4CE47AD98E SWAP2 ADD PUSH2 0x95A JUMP JUMPDEST PUSH1 0xFF DUP3 AND PUSH1 0x0 SWAP1 DUP2 MSTORE PUSH1 0x2 PUSH1 0x20 MSTORE PUSH1 0x40 DUP2 KECCAK256 DUP2 DUP4 PUSH1 0x4 DUP2 GT ISZERO PUSH2 0xB98 JUMPI PUSH2 0xB98 PUSH2 0xFC3 JUMP JUMPDEST PUSH1 0x4 DUP2 GT ISZERO PUSH2 0xBA9 JUMPI PUSH2 0xBA9 PUSH2 0xFC3 JUMP JUMPDEST DUP2 MSTORE PUSH1 0x20 DUP2 ADD SWAP2 SWAP1 SWAP2 MSTORE PUSH1 0x40 ADD PUSH1 0x0 KECCAK256 SLOAD SWAP4 SWAP3 POP POP POP JUMP JUMPDEST PUSH1 0x0 SLOAD PUSH2 0x100 SWAP1 DIV PUSH1 0xFF AND ISZERO DUP1 DUP1 ISZERO PUSH2 0xBE1 JUMPI POP PUSH1 0x0 SLOAD PUSH1 0x1 PUSH1 0xFF SWAP1 SWAP2 AND LT JUMPDEST DUP1 PUSH2 0xBFB JUMPI POP ADDRESS EXTCODESIZE ISZERO DUP1 ISZERO PUSH2 0xBFB JUMPI POP PUSH1 0x0 SLOAD PUSH1 0xFF AND PUSH1 0x1 EQ JUMPDEST PUSH2 0xC5E JUMPI PUSH1 0x40 MLOAD PUSH3 0x461BCD PUSH1 0xE5 SHL DUP2 MSTORE PUSH1 0x20 PUSH1 0x4 DUP3 ADD MSTORE PUSH1 0x2E PUSH1 0x24 DUP3 ADD MSTORE PUSH32 0x496E697469616C697A61626C653A20636F6E747261637420697320616C726561 PUSH1 0x44 DUP3 ADD MSTORE PUSH14 0x191E481A5B9A5D1A585B1A5E9959 PUSH1 0x92 SHL PUSH1 0x64 DUP3 ADD MSTORE PUSH1 0x84 ADD PUSH2 0x34F JUMP JUMPDEST PUSH1 0x0 DUP1 SLOAD PUSH1 0xFF NOT AND PUSH1 0x1 OR SWAP1 SSTORE DUP1 ISZERO PUSH2 0xC81 JUMPI PUSH1 0x0 DUP1 SLOAD PUSH2 0xFF00 NOT AND PUSH2 0x100 OR SWAP1 SSTORE JUMPDEST PUSH1 0x0 DUP1 SLOAD PUSH3 0x10000 PUSH1 0x1 PUSH1 0xB0 SHL SUB NOT AND CALLER PUSH3 0x10000 MUL OR SWAP1 SSTORE TIMESTAMP DUP3 GT PUSH2 0xCF4 JUMPI PUSH1 0x40 MLOAD PUSH3 0x461BCD PUSH1 0xE5 SHL DUP2 MSTORE PUSH1 0x20 PUSH1 0x4 DUP3 ADD MSTORE PUSH1 0x22 PUSH1 0x24 DUP3 ADD MSTORE PUSH32 0x576F726C644375704C6F74746572793A20696E76616C696420646561646C696E PUSH1 0x44 DUP3 ADD MSTORE PUSH2 0x6521 PUSH1 0xF0 SHL PUSH1 0x64 DUP3 ADD MSTORE PUSH1 0x84 ADD PUSH2 0x34F JUMP JUMPDEST PUSH1 0x4 DUP3 SWAP1 SSTORE DUP1 ISZERO PUSH2 0xD3B JUMPI PUSH1 0x0 DUP1 SLOAD PUSH2 0xFF00 NOT AND SWAP1 SSTORE PUSH1 0x40 MLOAD PUSH1 0x1 DUP2 MSTORE PUSH32 0x7F26B83FF96E1F2B6A682F133852F6798A09C465DA95921460CEFB3847402498 SWAP1 PUSH1 0x20 ADD PUSH2 0x95A JUMP JUMPDEST POP POP JUMP JUMPDEST PUSH2 0xD88 DUP5 DUP5 DUP5 DUP5 PUSH1 0x40 MLOAD PUSH1 0x24 ADD PUSH2 0xD59 SWAP5 SWAP4 SWAP3 SWAP2 SWAP1 PUSH2 0x1142 JUMP JUMPDEST PUSH1 0x40 DUP1 MLOAD PUSH1 0x1F NOT DUP2 DUP5 SUB ADD DUP2 MSTORE SWAP2 SWAP1 MSTORE PUSH1 0x20 DUP2 ADD DUP1 MLOAD PUSH1 0x1 PUSH1 0x1 PUSH1 0xE0 SHL SUB AND PUSH4 0xC67EA9D1 PUSH1 0xE0 SHL OR SWAP1 MSTORE PUSH2 0xE5E JUMP JUMPDEST POP POP POP POP JUMP JUMPDEST PUSH2 0xDD1 DUP2 PUSH1 0x40 MLOAD PUSH1 0x24 ADD PUSH2 0xDA2 SWAP2 SWAP1 PUSH2 0x117F JUMP JUMPDEST PUSH1 0x40 DUP1 MLOAD PUSH1 0x1F NOT DUP2 DUP5 SUB ADD DUP2 MSTORE SWAP2 SWAP1 MSTORE PUSH1 0x20 DUP2 ADD DUP1 MLOAD PUSH1 0x1 PUSH1 0x1 PUSH1 0xE0 SHL SUB AND PUSH4 0x104C13EB PUSH1 0xE2 SHL OR SWAP1 MSTORE PUSH2 0xE5E JUMP JUMPDEST POP JUMP JUMPDEST PUSH2 0xD88 DUP5 DUP5 DUP5 DUP5 PUSH1 0x40 MLOAD PUSH1 0x24 ADD PUSH2 0xDEE SWAP5 SWAP4 SWAP3 SWAP2 SWAP1 PUSH2 0x1192 JUMP JUMPDEST PUSH1 0x40 DUP1 MLOAD PUSH1 0x1F NOT DUP2 DUP5 SUB ADD DUP2 MSTORE SWAP2 SWAP1 MSTORE PUSH1 0x20 DUP2 ADD DUP1 MLOAD PUSH1 0x1 PUSH1 0x1 PUSH1 0xE0 SHL SUB AND PUSH4 0x48E88897 PUSH1 0xE1 SHL OR SWAP1 MSTORE PUSH2 0xE5E JUMP JUMPDEST PUSH2 0xD3B DUP3 DUP3 PUSH1 0x40 MLOAD PUSH1 0x24 ADD PUSH2 0xE33 SWAP3 SWAP2 SWAP1 PUSH2 0x11C6 JUMP JUMPDEST PUSH1 0x40 DUP1 MLOAD PUSH1 0x1F NOT DUP2 DUP5 SUB ADD DUP2 MSTORE SWAP2 SWAP1 MSTORE PUSH1 0x20 DUP2 ADD DUP1 MLOAD PUSH1 0x1 PUSH1 0x1 PUSH1 0xE0 SHL SUB AND PUSH4 0x2D839CB3 PUSH1 0xE2 SHL OR SWAP1 MSTORE JUMPDEST DUP1 MLOAD PUSH11 0x636F6E736F6C652E6C6F67 PUSH1 0x20 DUP4 ADD PUSH1 0x0 DUP1 DUP5 DUP4 DUP6 GAS STATICCALL POP POP POP POP POP JUMP JUMPDEST DUP1 CALLDATALOAD PUSH1 0xFF DUP2 AND DUP2 EQ PUSH2 0xE90 JUMPI PUSH1 0x0 DUP1 REVERT JUMPDEST SWAP2 SWAP1 POP JUMP JUMPDEST DUP1 CALLDATALOAD PUSH1 0x5 DUP2 LT PUSH2 0xE90 JUMPI PUSH1 0x0 DUP1 REVERT JUMPDEST PUSH1 0x0 DUP1 PUSH1 0x0 PUSH1 0x60 DUP5 DUP7 SUB SLT ISZERO PUSH2 0xEB9 JUMPI PUSH1 0x0 DUP1 REVERT JUMPDEST PUSH2 0xEC2 DUP5 PUSH2 0xE7F JUMP JUMPDEST SWAP3 POP PUSH2 0xED0 PUSH1 0x20 DUP6 ADD PUSH2 0xE95 JUMP JUMPDEST SWAP2 POP PUSH1 0x40 DUP5 ADD CALLDATALOAD SWAP1 POP SWAP3 POP SWAP3 POP SWAP3 JUMP JUMPDEST DUP1 CALLDATALOAD PUSH1 0x1 PUSH1 0x1 PUSH1 0xA0 SHL SUB DUP2 AND DUP2 EQ PUSH2 0xE90 JUMPI PUSH1 0x0 DUP1 REVERT JUMPDEST PUSH1 0x0 PUSH1 0x20 DUP3 DUP5 SUB SLT ISZERO PUSH2 0xF09 JUMPI PUSH1 0x0 DUP1 REVERT JUMPDEST PUSH2 0xF12 DUP3 PUSH2 0xEE0 JUMP JUMPDEST SWAP4 SWAP3 POP POP POP JUMP JUMPDEST PUSH1 0x0 PUSH1 0x20 DUP3 DUP5 SUB SLT ISZERO PUSH2 0xF2B JUMPI PUSH1 0x0 DUP1 REVERT JUMPDEST PUSH2 0xF12 DUP3 PUSH2 0xE95 JUMP JUMPDEST PUSH1 0x0 PUSH1 0x20 DUP3 DUP5 SUB SLT ISZERO PUSH2 0xF46 JUMPI PUSH1 0x0 DUP1 REVERT JUMPDEST POP CALLDATALOAD SWAP2 SWAP1 POP JUMP JUMPDEST PUSH1 0x0 DUP1 PUSH1 0x0 PUSH1 0x60 DUP5 DUP7 SUB SLT ISZERO PUSH2 0xF62 JUMPI PUSH1 0x0 DUP1 REVERT JUMPDEST PUSH2 0xF6B DUP5 PUSH2 0xE7F JUMP JUMPDEST SWAP3 POP PUSH2 0xF79 PUSH1 0x20 DUP6 ADD PUSH2 0xEE0 JUMP JUMPDEST SWAP2 POP PUSH2 0xF87 PUSH1 0x40 DUP6 ADD PUSH2 0xE95 JUMP JUMPDEST SWAP1 POP SWAP3 POP SWAP3 POP SWAP3 JUMP JUMPDEST PUSH1 0x0 DUP1 PUSH1 0x40 DUP4 DUP6 SUB SLT ISZERO PUSH2 0xFA3 JUMPI PUSH1 0x0 DUP1 REVERT JUMPDEST PUSH2 0xFAC DUP4 PUSH2 0xE7F JUMP JUMPDEST SWAP2 POP PUSH2 0xFBA PUSH1 0x20 DUP5 ADD PUSH2 0xE95 JUMP JUMPDEST SWAP1 POP SWAP3 POP SWAP3 SWAP1 POP JUMP JUMPDEST PUSH4 0x4E487B71 PUSH1 0xE0 SHL PUSH1 0x0 MSTORE PUSH1 0x21 PUSH1 0x4 MSTORE PUSH1 0x24 PUSH1 0x0 REVERT JUMPDEST PUSH4 0x4E487B71 PUSH1 0xE0 SHL PUSH1 0x0 MSTORE PUSH1 0x11 PUSH1 0x4 MSTORE PUSH1 0x24 PUSH1 0x0 REVERT JUMPDEST PUSH1 0x0 DUP3 DUP3 LT ISZERO PUSH2 0x1001 JUMPI PUSH2 0x1001 PUSH2 0xFD9 JUMP JUMPDEST POP SUB SWAP1 JUMP JUMPDEST PUSH4 0x4E487B71 PUSH1 0xE0 SHL PUSH1 0x0 MSTORE PUSH1 0x32 PUSH1 0x4 MSTORE PUSH1 0x24 PUSH1 0x0 REVERT JUMPDEST PUSH1 0x0 DUP3 PUSH2 0x1039 JUMPI PUSH4 0x4E487B71 PUSH1 0xE0 SHL PUSH1 0x0 MSTORE PUSH1 0x12 PUSH1 0x4 MSTORE PUSH1 0x24 PUSH1 0x0 REVERT JUMPDEST POP DIV SWAP1 JUMP JUMPDEST PUSH1 0x0 DUP2 PUSH1 0x0 NOT DIV DUP4 GT DUP3 ISZERO ISZERO AND ISZERO PUSH2 0x1058 JUMPI PUSH2 0x1058 PUSH2 0xFD9 JUMP JUMPDEST POP MUL SWAP1 JUMP JUMPDEST PUSH1 0x0 DUP3 NOT DUP3 GT ISZERO PUSH2 0x1070 JUMPI PUSH2 0x1070 PUSH2 0xFD9 JUMP JUMPDEST POP ADD SWAP1 JUMP JUMPDEST PUSH1 0x0 PUSH1 0x0 NOT DUP3 EQ ISZERO PUSH2 0x1089 JUMPI PUSH2 0x1089 PUSH2 0xFD9 JUMP JUMPDEST POP PUSH1 0x1 ADD SWAP1 JUMP JUMPDEST PUSH1 0x0 PUSH1 0xFF DUP3 AND PUSH1 0xFF DUP2 EQ ISZERO PUSH2 0x10A7 JUMPI PUSH2 0x10A7 PUSH2 0xFD9 JUMP JUMPDEST PUSH1 0x1 ADD SWAP3 SWAP2 POP POP JUMP JUMPDEST PUSH1 0xFF DUP5 AND DUP2 MSTORE PUSH1 0x1 PUSH1 0x1 PUSH1 0xA0 SHL SUB DUP4 AND PUSH1 0x20 DUP3 ADD MSTORE PUSH1 0x60 DUP2 ADD PUSH1 0x5 DUP4 LT PUSH2 0x10E7 JUMPI PUSH4 0x4E487B71 PUSH1 0xE0 SHL PUSH1 0x0 MSTORE PUSH1 0x21 PUSH1 0x4 MSTORE PUSH1 0x24 PUSH1 0x0 REVERT JUMPDEST DUP3 PUSH1 0x40 DUP4 ADD MSTORE SWAP5 SWAP4 POP POP POP POP JUMP JUMPDEST PUSH1 0x0 DUP2 MLOAD DUP1 DUP5 MSTORE PUSH1 0x0 JUMPDEST DUP2 DUP2 LT ISZERO PUSH2 0x111B JUMPI PUSH1 0x20 DUP2 DUP6 ADD DUP2 ADD MLOAD DUP7 DUP4 ADD DUP3 ADD MSTORE ADD PUSH2 0x10FF JUMP JUMPDEST DUP2 DUP2 GT ISZERO PUSH2 0x112D JUMPI PUSH1 0x0 PUSH1 0x20 DUP4 DUP8 ADD ADD MSTORE JUMPDEST POP PUSH1 0x1F ADD PUSH1 0x1F NOT AND SWAP3 SWAP1 SWAP3 ADD PUSH1 0x20 ADD SWAP3 SWAP2 POP POP JUMP JUMPDEST PUSH1 0x80 DUP2 MSTORE PUSH1 0x0 PUSH2 0x1155 PUSH1 0x80 DUP4 ADD DUP8 PUSH2 0x10F5 JUMP JUMPDEST DUP6 PUSH1 0x20 DUP5 ADD MSTORE DUP3 DUP2 SUB PUSH1 0x40 DUP5 ADD MSTORE PUSH2 0x116D DUP2 DUP7 PUSH2 0x10F5 JUMP JUMPDEST SWAP2 POP POP DUP3 PUSH1 0x60 DUP4 ADD MSTORE SWAP6 SWAP5 POP POP POP POP POP JUMP JUMPDEST PUSH1 0x20 DUP2 MSTORE PUSH1 0x0 PUSH2 0xF12 PUSH1 0x20 DUP4 ADD DUP5 PUSH2 0x10F5 JUMP JUMPDEST PUSH1 0x80 DUP2 MSTORE PUSH1 0x0 PUSH2 0x11A5 PUSH1 0x80 DUP4 ADD DUP8 PUSH2 0x10F5 JUMP JUMPDEST PUSH1 0x1 PUSH1 0x1 PUSH1 0xA0 SHL SUB DUP7 AND PUSH1 0x20 DUP5 ADD MSTORE DUP3 DUP2 SUB PUSH1 0x40 DUP5 ADD MSTORE PUSH2 0x116D DUP2 DUP7 PUSH2 0x10F5 JUMP JUMPDEST PUSH1 0x40 DUP2 MSTORE PUSH1 0x0 PUSH2 0x11D9 PUSH1 0x40 DUP4 ADD DUP6 PUSH2 0x10F5 JUMP JUMPDEST SWAP1 POP DUP3 PUSH1 0x20 DUP4 ADD MSTORE SWAP4 SWAP3 POP POP POP JUMP INVALID PUSH21 0x6869732077696E6E657220686173206265656E2073 PUSH6 0x7420616C7265 PUSH2 0x6479 0x2C KECCAK256 PUSH24 0x696C6C20626520736B697070656421A26469706673582212 KECCAK256 0x2B 0x2D 0x5F 0x29 0xB6 SWAP10 0xAC STOP SELFDESTRUCT 0xB0 0xA8 0x2B LT SGT 0xB0 SUB 0x49 BYTE DELEGATECALL 0xAD SWAP1 0xC1 0xC6 MSTORE PUSH18 0x9166192875872B64736F6C63430008090033 "},"methodIdentifiers":{"admin()":"f851a440","changeDeadline(uint256)":"7aca97b5","claimReward()":"b88a802f","countryToPlayers(uint8,uint8,uint256)":"0fa68115","currRound()":"3f5d8056","deadline()":"29dcb0cf","finialize(uint8)":"34bf6d01","getCountryPlayters(uint8,uint8)":"c4864f57","getPlayerInfo(uint8,address,uint8)":"ada2ac38","getVaultBalance()":"ed12e8ef","initialize(uint256)":"fe4b84df","lockedAmts()":"28655c5b","play(uint8)":"53a04b05","winnerVaults(address)":"34330586"}},"storageLayout":{"storage":[{"astId":6,"contract":"contracts/upgrade/WorldCupV2.sol:WorldCupV2","label":"_initialized","offset":0,"slot":"0","type":"t_uint8"},{"astId":9,"contract":"contracts/upgrade/WorldCupV2.sol:WorldCupV2","label":"_initializing","offset":1,"slot":"0","type":"t_bool"},{"astId":460,"contract":"contracts/upgrade/WorldCupV2.sol:WorldCupV2","label":"admin","offset":2,"slot":"0","type":"t_address"},{"astId":462,"contract":"contracts/upgrade/WorldCupV2.sol:WorldCupV2","label":"currRound","offset":22,"slot":"0","type":"t_uint8"},{"astId":469,"contract":"contracts/upgrade/WorldCupV2.sol:WorldCupV2","label":"players","offset":0,"slot":"1","type":"t_mapping(t_uint8,t_mapping(t_address,t_struct(Player)540_storage))"},{"astId":477,"contract":"contracts/upgrade/WorldCupV2.sol:WorldCupV2","label":"countryToPlayers","offset":0,"slot":"2","type":"t_mapping(t_uint8,t_mapping(t_enum(Country)493,t_array(t_address)dyn_storage))"},{"astId":481,"contract":"contracts/upgrade/WorldCupV2.sol:WorldCupV2","label":"winnerVaults","offset":0,"slot":"3","type":"t_mapping(t_address,t_uint256)"},{"astId":483,"contract":"contracts/upgrade/WorldCupV2.sol:WorldCupV2","label":"deadline","offset":0,"slot":"4","type":"t_uint256"},{"astId":485,"contract":"contracts/upgrade/WorldCupV2.sol:WorldCupV2","label":"lockedAmts","offset":0,"slot":"5","type":"t_uint256"},{"astId":487,"contract":"contracts/upgrade/WorldCupV2.sol:WorldCupV2","label":"changeCount","offset":0,"slot":"6","type":"t_uint256"}],"types":{"t_address":{"encoding":"inplace","label":"address","numberOfBytes":"20"},"t_array(t_address)dyn_storage":{"base":"t_address","encoding":"dynamic_array","label":"address[]","numberOfBytes":"32"},"t_bool":{"encoding":"inplace","label":"bool","numberOfBytes":"1"},"t_enum(Country)493":{"encoding":"inplace","label":"enum WorldCupV2.Country","numberOfBytes":"1"},"t_mapping(t_address,t_struct(Player)540_storage)":{"encoding":"mapping","key":"t_address","label":"mapping(address => struct WorldCupV2.Player)","numberOfBytes":"32","value":"t_struct(Player)540_storage"},"t_mapping(t_address,t_uint256)":{"encoding":"mapping","key":"t_address","label":"mapping(address => uint256)","numberOfBytes":"32","value":"t_uint256"},"t_mapping(t_enum(Country)493,t_array(t_address)dyn_storage)":{"encoding":"mapping","key":"t_enum(Country)493","label":"mapping(enum WorldCupV2.Country => address[])","numberOfBytes":"32","value":"t_array(t_address)dyn_storage"},"t_mapping(t_enum(Country)493,t_uint256)":{"encoding":"mapping","key":"t_enum(Country)493","label":"mapping(enum WorldCupV2.Country => uint256)","numberOfBytes":"32","value":"t_uint256"},"t_mapping(t_uint8,t_mapping(t_address,t_struct(Player)540_storage))":{"encoding":"mapping","key":"t_uint8","label":"mapping(uint8 => mapping(address => struct WorldCupV2.Player))","numberOfBytes":"32","value":"t_mapping(t_address,t_struct(Player)540_storage)"},"t_mapping(t_uint8,t_mapping(t_enum(Country)493,t_array(t_address)dyn_storage))":{"encoding":"mapping","key":"t_uint8","label":"mapping(uint8 => mapping(enum WorldCupV2.Country => address[]))","numberOfBytes":"32","value":"t_mapping(t_enum(Country)493,t_array(t_address)dyn_storage)"},"t_struct(Player)540_storage":{"encoding":"inplace","label":"struct WorldCupV2.Player","members":[{"astId":534,"contract":"contracts/upgrade/WorldCupV2.sol:WorldCupV2","label":"isSet","offset":0,"slot":"0","type":"t_bool"},{"astId":539,"contract":"contracts/upgrade/WorldCupV2.sol:WorldCupV2","label":"counts","offset":0,"slot":"1","type":"t_mapping(t_enum(Country)493,t_uint256)"}],"numberOfBytes":"64"},"t_uint256":{"encoding":"inplace","label":"uint256","numberOfBytes":"32"},"t_uint8":{"encoding":"inplace","label":"uint8","numberOfBytes":"1"}}}}}}