{"contracts/WorldCup.sol":{"WorldCup":{"abi":[{"inputs":[{"internalType":"uint256","name":"_deadline","type":"uint256"}],"stateMutability":"nonpayable","type":"constructor"},{"anonymous":false,"inputs":[{"indexed":false,"internalType":"address","name":"_claimer","type":"address"},{"indexed":false,"internalType":"uint256","name":"_amt","type":"uint256"}],"name":"ClaimReward","type":"event"},{"anonymous":false,"inputs":[{"indexed":false,"internalType":"uint8","name":"_currRound","type":"uint8"},{"indexed":false,"internalType":"uint256","name":"_country","type":"uint256"}],"name":"Finialize","type":"event"},{"anonymous":false,"inputs":[{"indexed":false,"internalType":"uint8","name":"_currRound","type":"uint8"},{"indexed":false,"internalType":"address","name":"_player","type":"address"},{"indexed":false,"internalType":"enum WorldCup.Country","name":"_country","type":"uint8"}],"name":"Play","type":"event"},{"inputs":[],"name":"admin","outputs":[{"internalType":"address","name":"","type":"address"}],"stateMutability":"view","type":"function"},{"inputs":[],"name":"claimReward","outputs":[],"stateMutability":"nonpayable","type":"function"},{"inputs":[{"internalType":"uint256","name":"","type":"uint256"}],"name":"countries","outputs":[{"internalType":"string","name":"","type":"string"}],"stateMutability":"view","type":"function"},{"inputs":[{"internalType":"uint8","name":"","type":"uint8"},{"internalType":"enum WorldCup.Country","name":"","type":"uint8"},{"internalType":"uint256","name":"","type":"uint256"}],"name":"countryToPlayers","outputs":[{"internalType":"address","name":"","type":"address"}],"stateMutability":"view","type":"function"},{"inputs":[],"name":"currRound","outputs":[{"internalType":"uint8","name":"","type":"uint8"}],"stateMutability":"view","type":"function"},{"inputs":[],"name":"deadline","outputs":[{"internalType":"uint256","name":"","type":"uint256"}],"stateMutability":"view","type":"function"},{"inputs":[{"internalType":"enum WorldCup.Country","name":"_country","type":"uint8"}],"name":"finialize","outputs":[],"stateMutability":"nonpayable","type":"function"},{"inputs":[{"internalType":"uint8","name":"_round","type":"uint8"},{"internalType":"enum WorldCup.Country","name":"_country","type":"uint8"}],"name":"getCountryPlayters","outputs":[{"internalType":"uint256","name":"","type":"uint256"}],"stateMutability":"view","type":"function"},{"inputs":[{"internalType":"uint8","name":"_round","type":"uint8"},{"internalType":"address","name":"_player","type":"address"},{"internalType":"enum WorldCup.Country","name":"_country","type":"uint8"}],"name":"getPlayerInfo","outputs":[{"internalType":"uint256","name":"_counts","type":"uint256"}],"stateMutability":"view","type":"function"},{"inputs":[],"name":"getVaultBalance","outputs":[{"internalType":"uint256","name":"bal","type":"uint256"}],"stateMutability":"view","type":"function"},{"inputs":[],"name":"lockedAmts","outputs":[{"internalType":"uint256","name":"","type":"uint256"}],"stateMutability":"view","type":"function"},{"inputs":[{"internalType":"enum WorldCup.Country","name":"_selected","type":"uint8"}],"name":"play","outputs":[],"stateMutability":"payable","type":"function"},{"inputs":[{"internalType":"address","name":"","type":"address"}],"name":"winnerVaults","outputs":[{"internalType":"uint256","name":"","type":"uint256"}],"stateMutability":"view","type":"function"}],"evm":{"bytecode":{"linkReferences":{},"object":"6007610140908152664745524d414e5960c81b6101605260a090815260066101808181526508ca4829c86960d31b6101a05260c05260056101c0818152644348494e4160d81b6101e05260e0526102009182526510949256905360d21b6102205261010091909152610280604052610240818152644b4f52454160d81b610260526101205262000092916001916200013d565b50348015620000a057600080fd5b50604051620014a3380380620014a3833981016040819052620000c391620002a6565b600080546001600160a01b03191633179055428111620001345760405162461bcd60e51b815260206004820152602260248201527f576f726c644375704c6f74746572793a20696e76616c696420646561646c696e604482015261652160f01b606482015260840160405180910390fd5b608052620002fd565b8280548282559060005260206000209081019282156200018f579160200282015b828111156200018f57825180516200017e918491602090910190620001a1565b50916020019190600101906200015e565b506200019d9291506200022c565b5090565b828054620001af90620002c0565b90600052602060002090601f016020900481019282620001d357600085556200021e565b82601f10620001ee57805160ff19168380011785556200021e565b828001600101855582156200021e579182015b828111156200021e57825182559160200191906001019062000201565b506200019d9291506200024d565b808211156200019d57600062000243828262000264565b506001016200022c565b5b808211156200019d57600081556001016200024e565b5080546200027290620002c0565b6000825580601f1062000283575050565b601f016020900490600052602060002090810190620002a391906200024d565b50565b600060208284031215620002b957600080fd5b5051919050565b600181811c90821680620002d557607f821691505b60208210811415620002f757634e487b7160e01b600052602260045260246000fd5b50919050565b608051611183620003206000396000818161016b015261088901526111836000f3fe6080604052600436106100c25760003560e01c80633f5d80561161007f578063b88a802f11610059578063b88a802f14610242578063c4864f5714610257578063ed12e8ef14610277578063f851a4401461028a57600080fd5b80633f5d8056146101dc57806353a04b051461020f578063ada2ac381461022257600080fd5b806308e9daa5146100c75780630fa68115146100fd57806328655c5b1461013557806329dcb0cf14610159578063343305861461018d57806334bf6d01146101ba575b600080fd5b3480156100d357600080fd5b506100e76100e2366004610d77565b6102aa565b6040516100f49190610ddd565b60405180910390f35b34801561010957600080fd5b5061011d610118366004610e1c565b610356565b6040516001600160a01b0390911681526020016100f4565b34801561014157600080fd5b5061014b60055481565b6040519081526020016100f4565b34801561016557600080fd5b5061014b7f000000000000000000000000000000000000000000000000000000000000000081565b34801561019957600080fd5b5061014b6101a8366004610e6f565b60046020526000908152604090205481565b3480156101c657600080fd5b506101da6101d5366004610e8a565b61039b565b005b3480156101e857600080fd5b506000546101fd90600160a01b900460ff1681565b60405160ff90911681526020016100f4565b6101da61021d366004610e8a565b610834565b34801561022e57600080fd5b5061014b61023d366004610ea5565b610a13565b34801561024e57600080fd5b506101da610a78565b34801561026357600080fd5b5061014b610272366004610ee8565b610be1565b34801561028357600080fd5b504761014b565b34801561029657600080fd5b5060005461011d906001600160a01b031681565b600181815481106102ba57600080fd5b9060005260206000200160009150905080546102d590610f1b565b80601f016020809104026020016040519081016040528092919081815260200182805461030190610f1b565b801561034e5780601f106103235761010080835404028352916020019161034e565b820191906000526020600020905b81548152906001019060200180831161033157829003601f168201915b505050505081565b6003602052826000526040600020602052816000526040600020818154811061037e57600080fd5b6000918252602090912001546001600160a01b0316925083915050565b6000546001600160a01b031633146103ec5760405162461bcd60e51b815260206004820152600f60248201526e6e6f7420617574686f72697a65642160881b60448201526064015b60405180910390fd5b60008054600160a01b900460ff1681526003602052604081208183600481111561041857610418610f56565b600481111561042957610429610f56565b815260200190815260200160002080548060200260200160405190810160405280929190818152602001828054801561048b57602002820191906000526020600020905b81546001600160a01b0316815260019091019060200180831161046d575b5050505050905060008060055461049f4790565b6104a99190610f82565b90506105066040518060400160405280601081526020016f31bab93920bb30b62130b630b731b29d60811b815250826040518060400160405280600e81526020016d3bb4b73732b9399031b7bab73a1d60911b8152508651610c2f565b60005b835181101561076757600084828151811061052657610526610f99565b6020908102919091018101516000805460ff600160a01b909104811682526002845260408083206001600160a01b038516845290945292902080549193509116156105935761058c60405180606001604052806032815260200161111c60329139610c7e565b5050610755565b805460ff1916600190811782556000908201818960048111156105b8576105b8610f56565b60048111156105c9576105c9610f56565b815260208082019290925260409081016000908120548154600160a01b900460ff1682526003909352908120919250908290828b600481111561060e5761060e610f56565b600481111561061f5761061f610f56565b815260208101919091526040016000205461063a9088610faf565b6106449190610fd1565b6001600160a01b038516600090815260046020526040812080549293508392909190610671908490610ff0565b9091555061068190508188610ff0565b965080600560008282546106959190610ff0565b925050819055506106ea604051806040016040528060078152602001663bb4b73732b91d60c91b815250856040518060400160405280600b81526020016a31bab93921b7bab73a399d60a91b81525085610cc4565b604080518082018252601081526f3932bbb0b9321030b6ba1031bab9391d60811b6020808301919091528251808401845260068152653a37ba30b61d60d11b818301526001600160a01b0388166000908152600490925292902054610750928491610c2f565b505050505b8061075f81611008565b915050610509565b5060006107748383610f82565b905080156107aa57600080546001600160a01b0316815260046020526040812080548392906107a4908490610ff0565b90915550505b600080547ff29c2f4a0ac8b177f1c72bbdf7cd3899630a10ce3626cc73671d98f682d574c091600160a01b90910460ff169060146107e783611023565b91906101000a81548160ff021916908360ff16021790555086600481111561081157610811610f56565b6040805160ff909316835260208301919091520160405180910390a15050505050565b34633b9aca00146108875760405162461bcd60e51b815260206004820152601760248201527f696e76616c69642066756e64732070726f76696465642100000000000000000060448201526064016103e3565b7f000000000000000000000000000000000000000000000000000000000000000042106108e75760405162461bcd60e51b815260206004820152600e60248201526d6974277320616c6c206f7665722160901b60448201526064016103e3565b60008054600160a01b900460ff1681526003602052604081209082600481111561091357610913610f56565b600481111561092457610924610f56565b8152602080820192909252604090810160009081208054600181810183559183528483200180546001600160a01b03191633908117909155825460ff600160a01b9091041683526002855283832090835290935290812091908282019084600481111561099357610993610f56565b60048111156109a4576109a4610f56565b815260200190815260200160002060008282546109c19190610ff0565b90915550506000546040517fed75611777bda76f73e63b79a0b4b2f59dfb76a034ff90e9a4f204f414dadef791610a0791600160a01b90910460ff169033908690611043565b60405180910390a15050565b60ff831660009081526002602090815260408083206001600160a01b0386168452909152812060010181836004811115610a4f57610a4f610f56565b6004811115610a6057610a60610f56565b81526020019081526020016000205490509392505050565b3360009081526004602052604090205480610ac95760405162461bcd60e51b81526020600482015260116024820152706e6f7468696e6720746f20636c61696d2160781b60448201526064016103e3565b33600090815260046020526040812081905560058054839290610aed908490610f82565b9091555050604051600090339083908381818185875af1925050503d8060008114610b34576040519150601f19603f3d011682016040523d82523d6000602084013e610b39565b606091505b5050905080610b815760405162461bcd60e51b8152602060048201526014602482015273636c61696d20726577617264206661696c65642160601b60448201526064016103e3565b610bab604051806040016040528060088152602001673932bbb0b932399d60c11b81525083610d0d565b60408051338152602081018490527fba8de60c3403ec381d1d484652ea1980e3c3e56359195c92525bff4ce47ad98e9101610a07565b60ff8216600090815260036020526040812081836004811115610c0657610c06610f56565b6004811115610c1757610c17610f56565b81526020810191909152604001600020549392505050565b610c7884848484604051602401610c499493929190611088565b60408051601f198184030181529190526020810180516001600160e01b031663c67ea9d160e01b179052610d56565b50505050565b610cc181604051602401610c929190610ddd565b60408051601f198184030181529190526020810180516001600160e01b031663104c13eb60e21b179052610d56565b50565b610c7884848484604051602401610cde94939291906110c5565b60408051601f198184030181529190526020810180516001600160e01b03166348e8889760e11b179052610d56565b610d528282604051602401610d239291906110f9565b60408051601f198184030181529190526020810180516001600160e01b0316632d839cb360e21b179052610d56565b5050565b80516a636f6e736f6c652e6c6f67602083016000808483855afa5050505050565b600060208284031215610d8957600080fd5b5035919050565b6000815180845260005b81811015610db657602081850181015186830182015201610d9a565b81811115610dc8576000602083870101525b50601f01601f19169290920160200192915050565b602081526000610df06020830184610d90565b9392505050565b803560ff81168114610e0857600080fd5b919050565b803560058110610e0857600080fd5b600080600060608486031215610e3157600080fd5b610e3a84610df7565b9250610e4860208501610e0d565b9150604084013590509250925092565b80356001600160a01b0381168114610e0857600080fd5b600060208284031215610e8157600080fd5b610df082610e58565b600060208284031215610e9c57600080fd5b610df082610e0d565b600080600060608486031215610eba57600080fd5b610ec384610df7565b9250610ed160208501610e58565b9150610edf60408501610e0d565b90509250925092565b60008060408385031215610efb57600080fd5b610f0483610df7565b9150610f1260208401610e0d565b90509250929050565b600181811c90821680610f2f57607f821691505b60208210811415610f5057634e487b7160e01b600052602260045260246000fd5b50919050565b634e487b7160e01b600052602160045260246000fd5b634e487b7160e01b600052601160045260246000fd5b600082821015610f9457610f94610f6c565b500390565b634e487b7160e01b600052603260045260246000fd5b600082610fcc57634e487b7160e01b600052601260045260246000fd5b500490565b6000816000190483118215151615610feb57610feb610f6c565b500290565b6000821982111561100357611003610f6c565b500190565b600060001982141561101c5761101c610f6c565b5060010190565b600060ff821660ff81141561103a5761103a610f6c565b60010192915050565b60ff841681526001600160a01b0383166020820152606081016005831061107a57634e487b7160e01b600052602160045260246000fd5b826040830152949350505050565b60808152600061109b6080830187610d90565b85602084015282810360408401526110b38186610d90565b91505082606083015295945050505050565b6080815260006110d86080830187610d90565b6001600160a01b038616602084015282810360408401526110b38186610d90565b60408152600061110c6040830185610d90565b9050826020830152939250505056fe746869732077696e6e657220686173206265656e2073657420616c72656164792c2077696c6c20626520736b697070656421a264697066735822122056fb79b62659d2ad2d2a2089fdab5c11df6f22693d96d14fcb3b2daaab7bf12b64736f6c63430008090033","opcodes":"PUSH1 0x7 PUSH2 0x140 SWAP1 DUP2 MSTORE PUSH7 0x4745524D414E59 PUSH1 0xC8 SHL PUSH2 0x160 MSTORE PUSH1 0xA0 SWAP1 DUP2 MSTORE PUSH1 0x6 PUSH2 0x180 DUP2 DUP2 MSTORE PUSH6 0x8CA4829C869 PUSH1 0xD3 SHL PUSH2 0x1A0 MSTORE PUSH1 0xC0 MSTORE PUSH1 0x5 PUSH2 0x1C0 DUP2 DUP2 MSTORE PUSH5 0x4348494E41 PUSH1 0xD8 SHL PUSH2 0x1E0 MSTORE PUSH1 0xE0 MSTORE PUSH2 0x200 SWAP2 DUP3 MSTORE PUSH6 0x109492569053 PUSH1 0xD2 SHL PUSH2 0x220 MSTORE PUSH2 0x100 SWAP2 SWAP1 SWAP2 MSTORE PUSH2 0x280 PUSH1 0x40 MSTORE PUSH2 0x240 DUP2 DUP2 MSTORE PUSH5 0x4B4F524541 PUSH1 0xD8 SHL PUSH2 0x260 MSTORE PUSH2 0x120 MSTORE PUSH3 0x92 SWAP2 PUSH1 0x1 SWAP2 PUSH3 0x13D JUMP JUMPDEST POP CALLVALUE DUP1 ISZERO PUSH3 0xA0 JUMPI PUSH1 0x0 DUP1 REVERT JUMPDEST POP PUSH1 0x40 MLOAD PUSH3 0x14A3 CODESIZE SUB DUP1 PUSH3 0x14A3 DUP4 CODECOPY DUP2 ADD PUSH1 0x40 DUP2 SWAP1 MSTORE PUSH3 0xC3 SWAP2 PUSH3 0x2A6 JUMP JUMPDEST PUSH1 0x0 DUP1 SLOAD PUSH1 0x1 PUSH1 0x1 PUSH1 0xA0 SHL SUB NOT AND CALLER OR SWAP1 SSTORE TIMESTAMP DUP2 GT PUSH3 0x134 JUMPI PUSH1 0x40 MLOAD PUSH3 0x461BCD PUSH1 0xE5 SHL DUP2 MSTORE PUSH1 0x20 PUSH1 0x4 DUP3 ADD MSTORE PUSH1 0x22 PUSH1 0x24 DUP3 ADD MSTORE PUSH32 0x576F726C644375704C6F74746572793A20696E76616C696420646561646C696E PUSH1 0x44 DUP3 ADD MSTORE PUSH2 0x6521 PUSH1 0xF0 SHL PUSH1 0x64 DUP3 ADD MSTORE PUSH1 0x84 ADD PUSH1 0x40 MLOAD DUP1 SWAP2 SUB SWAP1 REVERT JUMPDEST PUSH1 0x80 MSTORE PUSH3 0x2FD JUMP JUMPDEST DUP3 DUP1 SLOAD DUP3 DUP3 SSTORE SWAP1 PUSH1 0x0 MSTORE PUSH1 0x20 PUSH1 0x0 KECCAK256 SWAP1 DUP2 ADD SWAP3 DUP3 ISZERO PUSH3 0x18F JUMPI SWAP2 PUSH1 0x20 MUL DUP3 ADD JUMPDEST DUP3 DUP2 GT ISZERO PUSH3 0x18F JUMPI DUP3 MLOAD DUP1 MLOAD PUSH3 0x17E SWAP2 DUP5 SWAP2 PUSH1 0x20 SWAP1 SWAP2 ADD SWAP1 PUSH3 0x1A1 JUMP JUMPDEST POP SWAP2 PUSH1 0x20 ADD SWAP2 SWAP1 PUSH1 0x1 ADD SWAP1 PUSH3 0x15E JUMP JUMPDEST POP PUSH3 0x19D SWAP3 SWAP2 POP PUSH3 0x22C JUMP JUMPDEST POP SWAP1 JUMP JUMPDEST DUP3 DUP1 SLOAD PUSH3 0x1AF SWAP1 PUSH3 0x2C0 JUMP JUMPDEST SWAP1 PUSH1 0x0 MSTORE PUSH1 0x20 PUSH1 0x0 KECCAK256 SWAP1 PUSH1 0x1F ADD PUSH1 0x20 SWAP1 DIV DUP2 ADD SWAP3 DUP3 PUSH3 0x1D3 JUMPI PUSH1 0x0 DUP6 SSTORE PUSH3 0x21E JUMP JUMPDEST DUP3 PUSH1 0x1F LT PUSH3 0x1EE JUMPI DUP1 MLOAD PUSH1 0xFF NOT AND DUP4 DUP1 ADD OR DUP6 SSTORE PUSH3 0x21E JUMP JUMPDEST DUP3 DUP1 ADD PUSH1 0x1 ADD DUP6 SSTORE DUP3 ISZERO PUSH3 0x21E JUMPI SWAP2 DUP3 ADD JUMPDEST DUP3 DUP2 GT ISZERO PUSH3 0x21E JUMPI DUP3 MLOAD DUP3 SSTORE SWAP2 PUSH1 0x20 ADD SWAP2 SWAP1 PUSH1 0x1 ADD SWAP1 PUSH3 0x201 JUMP JUMPDEST POP PUSH3 0x19D SWAP3 SWAP2 POP PUSH3 0x24D JUMP JUMPDEST DUP1 DUP3 GT ISZERO PUSH3 0x19D JUMPI PUSH1 0x0 PUSH3 0x243 DUP3 DUP3 PUSH3 0x264 JUMP JUMPDEST POP PUSH1 0x1 ADD PUSH3 0x22C JUMP JUMPDEST JUMPDEST DUP1 DUP3 GT ISZERO PUSH3 0x19D JUMPI PUSH1 0x0 DUP2 SSTORE PUSH1 0x1 ADD PUSH3 0x24E JUMP JUMPDEST POP DUP1 SLOAD PUSH3 0x272 SWAP1 PUSH3 0x2C0 JUMP JUMPDEST PUSH1 0x0 DUP3 SSTORE DUP1 PUSH1 0x1F LT PUSH3 0x283 JUMPI POP POP JUMP JUMPDEST PUSH1 0x1F ADD PUSH1 0x20 SWAP1 DIV SWAP1 PUSH1 0x0 MSTORE PUSH1 0x20 PUSH1 0x0 KECCAK256 SWAP1 DUP2 ADD SWAP1 PUSH3 0x2A3 SWAP2 SWAP1 PUSH3 0x24D JUMP JUMPDEST POP JUMP JUMPDEST PUSH1 0x0 PUSH1 0x20 DUP3 DUP5 SUB SLT ISZERO PUSH3 0x2B9 JUMPI PUSH1 0x0 DUP1 REVERT JUMPDEST POP MLOAD SWAP2 SWAP1 POP JUMP JUMPDEST PUSH1 0x1 DUP2 DUP2 SHR SWAP1 DUP3 AND DUP1 PUSH3 0x2D5 JUMPI PUSH1 0x7F DUP3 AND SWAP2 POP JUMPDEST PUSH1 0x20 DUP3 LT DUP2 EQ ISZERO PUSH3 0x2F7 JUMPI PUSH4 0x4E487B71 PUSH1 0xE0 SHL PUSH1 0x0 MSTORE PUSH1 0x22 PUSH1 0x4 MSTORE PUSH1 0x24 PUSH1 0x0 REVERT JUMPDEST POP SWAP2 SWAP1 POP JUMP JUMPDEST PUSH1 0x80 MLOAD PUSH2 0x1183 PUSH3 0x320 PUSH1 0x0 CODECOPY PUSH1 0x0 DUP2 DUP2 PUSH2 0x16B ADD MSTORE PUSH2 0x889 ADD MSTORE PUSH2 0x1183 PUSH1 0x0 RETURN INVALID PUSH1 0x80 PUSH1 0x40 MSTORE PUSH1 0x4 CALLDATASIZE LT PUSH2 0xC2 JUMPI PUSH1 0x0 CALLDATALOAD PUSH1 0xE0 SHR DUP1 PUSH4 0x3F5D8056 GT PUSH2 0x7F JUMPI DUP1 PUSH4 0xB88A802F GT PUSH2 0x59 JUMPI DUP1 PUSH4 0xB88A802F EQ PUSH2 0x242 JUMPI DUP1 PUSH4 0xC4864F57 EQ PUSH2 0x257 JUMPI DUP1 PUSH4 0xED12E8EF EQ PUSH2 0x277 JUMPI DUP1 PUSH4 0xF851A440 EQ PUSH2 0x28A JUMPI PUSH1 0x0 DUP1 REVERT JUMPDEST DUP1 PUSH4 0x3F5D8056 EQ PUSH2 0x1DC JUMPI DUP1 PUSH4 0x53A04B05 EQ PUSH2 0x20F JUMPI DUP1 PUSH4 0xADA2AC38 EQ PUSH2 0x222 JUMPI PUSH1 0x0 DUP1 REVERT JUMPDEST DUP1 PUSH4 0x8E9DAA5 EQ PUSH2 0xC7 JUMPI DUP1 PUSH4 0xFA68115 EQ PUSH2 0xFD JUMPI DUP1 PUSH4 0x28655C5B EQ PUSH2 0x135 JUMPI DUP1 PUSH4 0x29DCB0CF EQ PUSH2 0x159 JUMPI DUP1 PUSH4 0x34330586 EQ PUSH2 0x18D JUMPI DUP1 PUSH4 0x34BF6D01 EQ PUSH2 0x1BA JUMPI JUMPDEST PUSH1 0x0 DUP1 REVERT JUMPDEST CALLVALUE DUP1 ISZERO PUSH2 0xD3 JUMPI PUSH1 0x0 DUP1 REVERT JUMPDEST POP PUSH2 0xE7 PUSH2 0xE2 CALLDATASIZE PUSH1 0x4 PUSH2 0xD77 JUMP JUMPDEST PUSH2 0x2AA JUMP JUMPDEST PUSH1 0x40 MLOAD PUSH2 0xF4 SWAP2 SWAP1 PUSH2 0xDDD JUMP JUMPDEST PUSH1 0x40 MLOAD DUP1 SWAP2 SUB SWAP1 RETURN JUMPDEST CALLVALUE DUP1 ISZERO PUSH2 0x109 JUMPI PUSH1 0x0 DUP1 REVERT JUMPDEST POP PUSH2 0x11D PUSH2 0x118 CALLDATASIZE PUSH1 0x4 PUSH2 0xE1C JUMP JUMPDEST PUSH2 0x356 JUMP JUMPDEST PUSH1 0x40 MLOAD PUSH1 0x1 PUSH1 0x1 PUSH1 0xA0 SHL SUB SWAP1 SWAP2 AND DUP2 MSTORE PUSH1 0x20 ADD PUSH2 0xF4 JUMP JUMPDEST CALLVALUE DUP1 ISZERO PUSH2 0x141 JUMPI PUSH1 0x0 DUP1 REVERT JUMPDEST POP PUSH2 0x14B PUSH1 0x5 SLOAD DUP2 JUMP JUMPDEST PUSH1 0x40 MLOAD SWAP1 DUP2 MSTORE PUSH1 0x20 ADD PUSH2 0xF4 JUMP JUMPDEST CALLVALUE DUP1 ISZERO PUSH2 0x165 JUMPI PUSH1 0x0 DUP1 REVERT JUMPDEST POP PUSH2 0x14B PUSH32 0x0 DUP2 JUMP JUMPDEST CALLVALUE DUP1 ISZERO PUSH2 0x199 JUMPI PUSH1 0x0 DUP1 REVERT JUMPDEST POP PUSH2 0x14B PUSH2 0x1A8 CALLDATASIZE PUSH1 0x4 PUSH2 0xE6F JUMP JUMPDEST PUSH1 0x4 PUSH1 0x20 MSTORE PUSH1 0x0 SWAP1 DUP2 MSTORE PUSH1 0x40 SWAP1 KECCAK256 SLOAD DUP2 JUMP JUMPDEST CALLVALUE DUP1 ISZERO PUSH2 0x1C6 JUMPI PUSH1 0x0 DUP1 REVERT JUMPDEST POP PUSH2 0x1DA PUSH2 0x1D5 CALLDATASIZE PUSH1 0x4 PUSH2 0xE8A JUMP JUMPDEST PUSH2 0x39B JUMP JUMPDEST STOP JUMPDEST CALLVALUE DUP1 ISZERO PUSH2 0x1E8 JUMPI PUSH1 0x0 DUP1 REVERT JUMPDEST POP PUSH1 0x0 SLOAD PUSH2 0x1FD SWAP1 PUSH1 0x1 PUSH1 0xA0 SHL SWAP1 DIV PUSH1 0xFF AND DUP2 JUMP JUMPDEST PUSH1 0x40 MLOAD PUSH1 0xFF SWAP1 SWAP2 AND DUP2 MSTORE PUSH1 0x20 ADD PUSH2 0xF4 JUMP JUMPDEST PUSH2 0x1DA PUSH2 0x21D CALLDATASIZE PUSH1 0x4 PUSH2 0xE8A JUMP JUMPDEST PUSH2 0x834 JUMP JUMPDEST CALLVALUE DUP1 ISZERO PUSH2 0x22E JUMPI PUSH1 0x0 DUP1 REVERT JUMPDEST POP PUSH2 0x14B PUSH2 0x23D CALLDATASIZE PUSH1 0x4 PUSH2 0xEA5 JUMP JUMPDEST PUSH2 0xA13 JUMP JUMPDEST CALLVALUE DUP1 ISZERO PUSH2 0x24E JUMPI PUSH1 0x0 DUP1 REVERT JUMPDEST POP PUSH2 0x1DA PUSH2 0xA78 JUMP JUMPDEST CALLVALUE DUP1 ISZERO PUSH2 0x263 JUMPI PUSH1 0x0 DUP1 REVERT JUMPDEST POP PUSH2 0x14B PUSH2 0x272 CALLDATASIZE PUSH1 0x4 PUSH2 0xEE8 JUMP JUMPDEST PUSH2 0xBE1 JUMP JUMPDEST CALLVALUE DUP1 ISZERO PUSH2 0x283 JUMPI PUSH1 0x0 DUP1 REVERT JUMPDEST POP SELFBALANCE PUSH2 0x14B JUMP JUMPDEST CALLVALUE DUP1 ISZERO PUSH2 0x296 JUMPI PUSH1 0x0 DUP1 REVERT JUMPDEST POP PUSH1 0x0 SLOAD PUSH2 0x11D SWAP1 PUSH1 0x1 PUSH1 0x1 PUSH1 0xA0 SHL SUB AND DUP2 JUMP JUMPDEST PUSH1 0x1 DUP2 DUP2 SLOAD DUP2 LT PUSH2 0x2BA JUMPI PUSH1 0x0 DUP1 REVERT JUMPDEST SWAP1 PUSH1 0x0 MSTORE PUSH1 0x20 PUSH1 0x0 KECCAK256 ADD PUSH1 0x0 SWAP2 POP SWAP1 POP DUP1 SLOAD PUSH2 0x2D5 SWAP1 PUSH2 0xF1B JUMP JUMPDEST DUP1 PUSH1 0x1F ADD PUSH1 0x20 DUP1 SWAP2 DIV MUL PUSH1 0x20 ADD PUSH1 0x40 MLOAD SWAP1 DUP2 ADD PUSH1 0x40 MSTORE DUP1 SWAP3 SWAP2 SWAP1 DUP2 DUP2 MSTORE PUSH1 0x20 ADD DUP3 DUP1 SLOAD PUSH2 0x301 SWAP1 PUSH2 0xF1B JUMP JUMPDEST DUP1 ISZERO PUSH2 0x34E JUMPI DUP1 PUSH1 0x1F LT PUSH2 0x323 JUMPI PUSH2 0x100 DUP1 DUP4 SLOAD DIV MUL DUP4 MSTORE SWAP2 PUSH1 0x20 ADD SWAP2 PUSH2 0x34E JUMP JUMPDEST DUP3 ADD SWAP2 SWAP1 PUSH1 0x0 MSTORE PUSH1 0x20 PUSH1 0x0 KECCAK256 SWAP1 JUMPDEST DUP2 SLOAD DUP2 MSTORE SWAP1 PUSH1 0x1 ADD SWAP1 PUSH1 0x20 ADD DUP1 DUP4 GT PUSH2 0x331 JUMPI DUP3 SWAP1 SUB PUSH1 0x1F AND DUP3 ADD SWAP2 JUMPDEST POP POP POP POP POP DUP2 JUMP JUMPDEST PUSH1 0x3 PUSH1 0x20 MSTORE DUP3 PUSH1 0x0 MSTORE PUSH1 0x40 PUSH1 0x0 KECCAK256 PUSH1 0x20 MSTORE DUP2 PUSH1 0x0 MSTORE PUSH1 0x40 PUSH1 0x0 KECCAK256 DUP2 DUP2 SLOAD DUP2 LT PUSH2 0x37E JUMPI PUSH1 0x0 DUP1 REVERT JUMPDEST PUSH1 0x0 SWAP2 DUP3 MSTORE PUSH1 0x20 SWAP1 SWAP2 KECCAK256 ADD SLOAD PUSH1 0x1 PUSH1 0x1 PUSH1 0xA0 SHL SUB AND SWAP3 POP DUP4 SWAP2 POP POP JUMP JUMPDEST PUSH1 0x0 SLOAD PUSH1 0x1 PUSH1 0x1 PUSH1 0xA0 SHL SUB AND CALLER EQ PUSH2 0x3EC JUMPI PUSH1 0x40 MLOAD PUSH3 0x461BCD PUSH1 0xE5 SHL DUP2 MSTORE PUSH1 0x20 PUSH1 0x4 DUP3 ADD MSTORE PUSH1 0xF PUSH1 0x24 DUP3 ADD MSTORE PUSH15 0x6E6F7420617574686F72697A656421 PUSH1 0x88 SHL PUSH1 0x44 DUP3 ADD MSTORE PUSH1 0x64 ADD JUMPDEST PUSH1 0x40 MLOAD DUP1 SWAP2 SUB SWAP1 REVERT JUMPDEST PUSH1 0x0 DUP1 SLOAD PUSH1 0x1 PUSH1 0xA0 SHL SWAP1 DIV PUSH1 0xFF AND DUP2 MSTORE PUSH1 0x3 PUSH1 0x20 MSTORE PUSH1 0x40 DUP2 KECCAK256 DUP2 DUP4 PUSH1 0x4 DUP2 GT ISZERO PUSH2 0x418 JUMPI PUSH2 0x418 PUSH2 0xF56 JUMP JUMPDEST PUSH1 0x4 DUP2 GT ISZERO PUSH2 0x429 JUMPI PUSH2 0x429 PUSH2 0xF56 JUMP JUMPDEST DUP2 MSTORE PUSH1 0x20 ADD SWAP1 DUP2 MSTORE PUSH1 0x20 ADD PUSH1 0x0 KECCAK256 DUP1 SLOAD DUP1 PUSH1 0x20 MUL PUSH1 0x20 ADD PUSH1 0x40 MLOAD SWAP1 DUP2 ADD PUSH1 0x40 MSTORE DUP1 SWAP3 SWAP2 SWAP1 DUP2 DUP2 MSTORE PUSH1 0x20 ADD DUP3 DUP1 SLOAD DUP1 ISZERO PUSH2 0x48B JUMPI PUSH1 0x20 MUL DUP3 ADD SWAP2 SWAP1 PUSH1 0x0 MSTORE PUSH1 0x20 PUSH1 0x0 KECCAK256 SWAP1 JUMPDEST DUP2 SLOAD PUSH1 0x1 PUSH1 0x1 PUSH1 0xA0 SHL SUB AND DUP2 MSTORE PUSH1 0x1 SWAP1 SWAP2 ADD SWAP1 PUSH1 0x20 ADD DUP1 DUP4 GT PUSH2 0x46D JUMPI JUMPDEST POP POP POP POP POP SWAP1 POP PUSH1 0x0 DUP1 PUSH1 0x5 SLOAD PUSH2 0x49F SELFBALANCE SWAP1 JUMP JUMPDEST PUSH2 0x4A9 SWAP2 SWAP1 PUSH2 0xF82 JUMP JUMPDEST SWAP1 POP PUSH2 0x506 PUSH1 0x40 MLOAD DUP1 PUSH1 0x40 ADD PUSH1 0x40 MSTORE DUP1 PUSH1 0x10 DUP2 MSTORE PUSH1 0x20 ADD PUSH16 0x31BAB93920BB30B62130B630B731B29D PUSH1 0x81 SHL DUP2 MSTORE POP DUP3 PUSH1 0x40 MLOAD DUP1 PUSH1 0x40 ADD PUSH1 0x40 MSTORE DUP1 PUSH1 0xE DUP2 MSTORE PUSH1 0x20 ADD PUSH14 0x3BB4B73732B9399031B7BAB73A1D PUSH1 0x91 SHL DUP2 MSTORE POP DUP7 MLOAD PUSH2 0xC2F JUMP JUMPDEST PUSH1 0x0 JUMPDEST DUP4 MLOAD DUP2 LT ISZERO PUSH2 0x767 JUMPI PUSH1 0x0 DUP5 DUP3 DUP2 MLOAD DUP2 LT PUSH2 0x526 JUMPI PUSH2 0x526 PUSH2 0xF99 JUMP JUMPDEST PUSH1 0x20 SWAP1 DUP2 MUL SWAP2 SWAP1 SWAP2 ADD DUP2 ADD MLOAD PUSH1 0x0 DUP1 SLOAD PUSH1 0xFF PUSH1 0x1 PUSH1 0xA0 SHL SWAP1 SWAP2 DIV DUP2 AND DUP3 MSTORE PUSH1 0x2 DUP5 MSTORE PUSH1 0x40 DUP1 DUP4 KECCAK256 PUSH1 0x1 PUSH1 0x1 PUSH1 0xA0 SHL SUB DUP6 AND DUP5 MSTORE SWAP1 SWAP5 MSTORE SWAP3 SWAP1 KECCAK256 DUP1 SLOAD SWAP2 SWAP4 POP SWAP2 AND ISZERO PUSH2 0x593 JUMPI PUSH2 0x58C PUSH1 0x40 MLOAD DUP1 PUSH1 0x60 ADD PUSH1 0x40 MSTORE DUP1 PUSH1 0x32 DUP2 MSTORE PUSH1 0x20 ADD PUSH2 0x111C PUSH1 0x32 SWAP2 CODECOPY PUSH2 0xC7E JUMP JUMPDEST POP POP PUSH2 0x755 JUMP JUMPDEST DUP1 SLOAD PUSH1 0xFF NOT AND PUSH1 0x1 SWAP1 DUP2 OR DUP3 SSTORE PUSH1 0x0 SWAP1 DUP3 ADD DUP2 DUP10 PUSH1 0x4 DUP2 GT ISZERO PUSH2 0x5B8 JUMPI PUSH2 0x5B8 PUSH2 0xF56 JUMP JUMPDEST PUSH1 0x4 DUP2 GT ISZERO PUSH2 0x5C9 JUMPI PUSH2 0x5C9 PUSH2 0xF56 JUMP JUMPDEST DUP2 MSTORE PUSH1 0x20 DUP1 DUP3 ADD SWAP3 SWAP1 SWAP3 MSTORE PUSH1 0x40 SWAP1 DUP2 ADD PUSH1 0x0 SWAP1 DUP2 KECCAK256 SLOAD DUP2 SLOAD PUSH1 0x1 PUSH1 0xA0 SHL SWAP1 DIV PUSH1 0xFF AND DUP3 MSTORE PUSH1 0x3 SWAP1 SWAP4 MSTORE SWAP1 DUP2 KECCAK256 SWAP2 SWAP3 POP SWAP1 DUP3 SWAP1 DUP3 DUP12 PUSH1 0x4 DUP2 GT ISZERO PUSH2 0x60E JUMPI PUSH2 0x60E PUSH2 0xF56 JUMP JUMPDEST PUSH1 0x4 DUP2 GT ISZERO PUSH2 0x61F JUMPI PUSH2 0x61F PUSH2 0xF56 JUMP JUMPDEST DUP2 MSTORE PUSH1 0x20 DUP2 ADD SWAP2 SWAP1 SWAP2 MSTORE PUSH1 0x40 ADD PUSH1 0x0 KECCAK256 SLOAD PUSH2 0x63A SWAP1 DUP9 PUSH2 0xFAF JUMP JUMPDEST PUSH2 0x644 SWAP2 SWAP1 PUSH2 0xFD1 JUMP JUMPDEST PUSH1 0x1 PUSH1 0x1 PUSH1 0xA0 SHL SUB DUP6 AND PUSH1 0x0 SWAP1 DUP2 MSTORE PUSH1 0x4 PUSH1 0x20 MSTORE PUSH1 0x40 DUP2 KECCAK256 DUP1 SLOAD SWAP3 SWAP4 POP DUP4 SWAP3 SWAP1 SWAP2 SWAP1 PUSH2 0x671 SWAP1 DUP5 SWAP1 PUSH2 0xFF0 JUMP JUMPDEST SWAP1 SWAP2 SSTORE POP PUSH2 0x681 SWAP1 POP DUP2 DUP9 PUSH2 0xFF0 JUMP JUMPDEST SWAP7 POP DUP1 PUSH1 0x5 PUSH1 0x0 DUP3 DUP3 SLOAD PUSH2 0x695 SWAP2 SWAP1 PUSH2 0xFF0 JUMP JUMPDEST SWAP3 POP POP DUP2 SWAP1 SSTORE POP PUSH2 0x6EA PUSH1 0x40 MLOAD DUP1 PUSH1 0x40 ADD PUSH1 0x40 MSTORE DUP1 PUSH1 0x7 DUP2 MSTORE PUSH1 0x20 ADD PUSH7 0x3BB4B73732B91D PUSH1 0xC9 SHL DUP2 MSTORE POP DUP6 PUSH1 0x40 MLOAD DUP1 PUSH1 0x40 ADD PUSH1 0x40 MSTORE DUP1 PUSH1 0xB DUP2 MSTORE PUSH1 0x20 ADD PUSH11 0x31BAB93921B7BAB73A399D PUSH1 0xA9 SHL DUP2 MSTORE POP DUP6 PUSH2 0xCC4 JUMP JUMPDEST PUSH1 0x40 DUP1 MLOAD DUP1 DUP3 ADD DUP3 MSTORE PUSH1 0x10 DUP2 MSTORE PUSH16 0x3932BBB0B9321030B6BA1031BAB9391D PUSH1 0x81 SHL PUSH1 0x20 DUP1 DUP4 ADD SWAP2 SWAP1 SWAP2 MSTORE DUP3 MLOAD DUP1 DUP5 ADD DUP5 MSTORE PUSH1 0x6 DUP2 MSTORE PUSH6 0x3A37BA30B61D PUSH1 0xD1 SHL DUP2 DUP4 ADD MSTORE PUSH1 0x1 PUSH1 0x1 PUSH1 0xA0 SHL SUB DUP9 AND PUSH1 0x0 SWAP1 DUP2 MSTORE PUSH1 0x4 SWAP1 SWAP3 MSTORE SWAP3 SWAP1 KECCAK256 SLOAD PUSH2 0x750 SWAP3 DUP5 SWAP2 PUSH2 0xC2F JUMP JUMPDEST POP POP POP POP JUMPDEST DUP1 PUSH2 0x75F DUP2 PUSH2 0x1008 JUMP JUMPDEST SWAP2 POP POP PUSH2 0x509 JUMP JUMPDEST POP PUSH1 0x0 PUSH2 0x774 DUP4 DUP4 PUSH2 0xF82 JUMP JUMPDEST SWAP1 POP DUP1 ISZERO PUSH2 0x7AA JUMPI PUSH1 0x0 DUP1 SLOAD PUSH1 0x1 PUSH1 0x1 PUSH1 0xA0 SHL SUB AND DUP2 MSTORE PUSH1 0x4 PUSH1 0x20 MSTORE PUSH1 0x40 DUP2 KECCAK256 DUP1 SLOAD DUP4 SWAP3 SWAP1 PUSH2 0x7A4 SWAP1 DUP5 SWAP1 PUSH2 0xFF0 JUMP JUMPDEST SWAP1 SWAP2 SSTORE POP POP JUMPDEST PUSH1 0x0 DUP1 SLOAD PUSH32 0xF29C2F4A0AC8B177F1C72BBDF7CD3899630A10CE3626CC73671D98F682D574C0 SWAP2 PUSH1 0x1 PUSH1 0xA0 SHL SWAP1 SWAP2 DIV PUSH1 0xFF AND SWAP1 PUSH1 0x14 PUSH2 0x7E7 DUP4 PUSH2 0x1023 JUMP JUMPDEST SWAP2 SWAP1 PUSH2 0x100 EXP DUP2 SLOAD DUP2 PUSH1 0xFF MUL NOT AND SWAP1 DUP4 PUSH1 0xFF AND MUL OR SWAP1 SSTORE POP DUP7 PUSH1 0x4 DUP2 GT ISZERO PUSH2 0x811 JUMPI PUSH2 0x811 PUSH2 0xF56 JUMP JUMPDEST PUSH1 0x40 DUP1 MLOAD PUSH1 0xFF SWAP1 SWAP4 AND DUP4 MSTORE PUSH1 0x20 DUP4 ADD SWAP2 SWAP1 SWAP2 MSTORE ADD PUSH1 0x40 MLOAD DUP1 SWAP2 SUB SWAP1 LOG1 POP POP POP POP POP JUMP JUMPDEST CALLVALUE PUSH4 0x3B9ACA00 EQ PUSH2 0x887 JUMPI PUSH1 0x40 MLOAD PUSH3 0x461BCD PUSH1 0xE5 SHL DUP2 MSTORE PUSH1 0x20 PUSH1 0x4 DUP3 ADD MSTORE PUSH1 0x17 PUSH1 0x24 DUP3 ADD MSTORE PUSH32 0x696E76616C69642066756E64732070726F766964656421000000000000000000 PUSH1 0x44 DUP3 ADD MSTORE PUSH1 0x64 ADD PUSH2 0x3E3 JUMP JUMPDEST PUSH32 0x0 TIMESTAMP LT PUSH2 0x8E7 JUMPI PUSH1 0x40 MLOAD PUSH3 0x461BCD PUSH1 0xE5 SHL DUP2 MSTORE PUSH1 0x20 PUSH1 0x4 DUP3 ADD MSTORE PUSH1 0xE PUSH1 0x24 DUP3 ADD MSTORE PUSH14 0x6974277320616C6C206F76657221 PUSH1 0x90 SHL PUSH1 0x44 DUP3 ADD MSTORE PUSH1 0x64 ADD PUSH2 0x3E3 JUMP JUMPDEST PUSH1 0x0 DUP1 SLOAD PUSH1 0x1 PUSH1 0xA0 SHL SWAP1 DIV PUSH1 0xFF AND DUP2 MSTORE PUSH1 0x3 PUSH1 0x20 MSTORE PUSH1 0x40 DUP2 KECCAK256 SWAP1 DUP3 PUSH1 0x4 DUP2 GT ISZERO PUSH2 0x913 JUMPI PUSH2 0x913 PUSH2 0xF56 JUMP JUMPDEST PUSH1 0x4 DUP2 GT ISZERO PUSH2 0x924 JUMPI PUSH2 0x924 PUSH2 0xF56 JUMP JUMPDEST DUP2 MSTORE PUSH1 0x20 DUP1 DUP3 ADD SWAP3 SWAP1 SWAP3 MSTORE PUSH1 0x40 SWAP1 DUP2 ADD PUSH1 0x0 SWAP1 DUP2 KECCAK256 DUP1 SLOAD PUSH1 0x1 DUP2 DUP2 ADD DUP4 SSTORE SWAP2 DUP4 MSTORE DUP5 DUP4 KECCAK256 ADD DUP1 SLOAD PUSH1 0x1 PUSH1 0x1 PUSH1 0xA0 SHL SUB NOT AND CALLER SWAP1 DUP2 OR SWAP1 SWAP2 SSTORE DUP3 SLOAD PUSH1 0xFF PUSH1 0x1 PUSH1 0xA0 SHL SWAP1 SWAP2 DIV AND DUP4 MSTORE PUSH1 0x2 DUP6 MSTORE DUP4 DUP4 KECCAK256 SWAP1 DUP4 MSTORE SWAP1 SWAP4 MSTORE SWAP1 DUP2 KECCAK256 SWAP2 SWAP1 DUP3 DUP3 ADD SWAP1 DUP5 PUSH1 0x4 DUP2 GT ISZERO PUSH2 0x993 JUMPI PUSH2 0x993 PUSH2 0xF56 JUMP JUMPDEST PUSH1 0x4 DUP2 GT ISZERO PUSH2 0x9A4 JUMPI PUSH2 0x9A4 PUSH2 0xF56 JUMP JUMPDEST DUP2 MSTORE PUSH1 0x20 ADD SWAP1 DUP2 MSTORE PUSH1 0x20 ADD PUSH1 0x0 KECCAK256 PUSH1 0x0 DUP3 DUP3 SLOAD PUSH2 0x9C1 SWAP2 SWAP1 PUSH2 0xFF0 JUMP JUMPDEST SWAP1 SWAP2 SSTORE POP POP PUSH1 0x0 SLOAD PUSH1 0x40 MLOAD PUSH32 0xED75611777BDA76F73E63B79A0B4B2F59DFB76A034FF90E9A4F204F414DADEF7 SWAP2 PUSH2 0xA07 SWAP2 PUSH1 0x1 PUSH1 0xA0 SHL SWAP1 SWAP2 DIV PUSH1 0xFF AND SWAP1 CALLER SWAP1 DUP7 SWAP1 PUSH2 0x1043 JUMP JUMPDEST PUSH1 0x40 MLOAD DUP1 SWAP2 SUB SWAP1 LOG1 POP POP JUMP JUMPDEST PUSH1 0xFF DUP4 AND PUSH1 0x0 SWAP1 DUP2 MSTORE PUSH1 0x2 PUSH1 0x20 SWAP1 DUP2 MSTORE PUSH1 0x40 DUP1 DUP4 KECCAK256 PUSH1 0x1 PUSH1 0x1 PUSH1 0xA0 SHL SUB DUP7 AND DUP5 MSTORE SWAP1 SWAP2 MSTORE DUP2 KECCAK256 PUSH1 0x1 ADD DUP2 DUP4 PUSH1 0x4 DUP2 GT ISZERO PUSH2 0xA4F JUMPI PUSH2 0xA4F PUSH2 0xF56 JUMP JUMPDEST PUSH1 0x4 DUP2 GT ISZERO PUSH2 0xA60 JUMPI PUSH2 0xA60 PUSH2 0xF56 JUMP JUMPDEST DUP2 MSTORE PUSH1 0x20 ADD SWAP1 DUP2 MSTORE PUSH1 0x20 ADD PUSH1 0x0 KECCAK256 SLOAD SWAP1 POP SWAP4 SWAP3 POP POP POP JUMP JUMPDEST CALLER PUSH1 0x0 SWAP1 DUP2 MSTORE PUSH1 0x4 PUSH1 0x20 MSTORE PUSH1 0x40 SWAP1 KECCAK256 SLOAD DUP1 PUSH2 0xAC9 JUMPI PUSH1 0x40 MLOAD PUSH3 0x461BCD PUSH1 0xE5 SHL DUP2 MSTORE PUSH1 0x20 PUSH1 0x4 DUP3 ADD MSTORE PUSH1 0x11 PUSH1 0x24 DUP3 ADD MSTORE PUSH17 0x6E6F7468696E6720746F20636C61696D21 PUSH1 0x78 SHL PUSH1 0x44 DUP3 ADD MSTORE PUSH1 0x64 ADD PUSH2 0x3E3 JUMP JUMPDEST CALLER PUSH1 0x0 SWAP1 DUP2 MSTORE PUSH1 0x4 PUSH1 0x20 MSTORE PUSH1 0x40 DUP2 KECCAK256 DUP2 SWAP1 SSTORE PUSH1 0x5 DUP1 SLOAD DUP4 SWAP3 SWAP1 PUSH2 0xAED SWAP1 DUP5 SWAP1 PUSH2 0xF82 JUMP JUMPDEST SWAP1 SWAP2 SSTORE POP POP PUSH1 0x40 MLOAD PUSH1 0x0 SWAP1 CALLER SWAP1 DUP4 SWAP1 DUP4 DUP2 DUP2 DUP2 DUP6 DUP8 GAS CALL SWAP3 POP POP POP RETURNDATASIZE DUP1 PUSH1 0x0 DUP2 EQ PUSH2 0xB34 JUMPI PUSH1 0x40 MLOAD SWAP2 POP PUSH1 0x1F NOT PUSH1 0x3F RETURNDATASIZE ADD AND DUP3 ADD PUSH1 0x40 MSTORE RETURNDATASIZE DUP3 MSTORE RETURNDATASIZE PUSH1 0x0 PUSH1 0x20 DUP5 ADD RETURNDATACOPY PUSH2 0xB39 JUMP JUMPDEST PUSH1 0x60 SWAP2 POP JUMPDEST POP POP SWAP1 POP DUP1 PUSH2 0xB81 JUMPI PUSH1 0x40 MLOAD PUSH3 0x461BCD PUSH1 0xE5 SHL DUP2 MSTORE PUSH1 0x20 PUSH1 0x4 DUP3 ADD MSTORE PUSH1 0x14 PUSH1 0x24 DUP3 ADD MSTORE PUSH20 0x636C61696D20726577617264206661696C656421 PUSH1 0x60 SHL PUSH1 0x44 DUP3 ADD MSTORE PUSH1 0x64 ADD PUSH2 0x3E3 JUMP JUMPDEST PUSH2 0xBAB PUSH1 0x40 MLOAD DUP1 PUSH1 0x40 ADD PUSH1 0x40 MSTORE DUP1 PUSH1 0x8 DUP2 MSTORE PUSH1 0x20 ADD PUSH8 0x3932BBB0B932399D PUSH1 0xC1 SHL DUP2 MSTORE POP DUP4 PUSH2 0xD0D JUMP JUMPDEST PUSH1 0x40 DUP1 MLOAD CALLER DUP2 MSTORE PUSH1 0x20 DUP2 ADD DUP5 SWAP1 MSTORE PUSH32 0xBA8DE60C3403EC381D1D484652EA1980E3C3E56359195C92525BFF4CE47AD98E SWAP2 ADD PUSH2 0xA07 JUMP JUMPDEST PUSH1 0xFF DUP3 AND PUSH1 0x0 SWAP1 DUP2 MSTORE PUSH1 0x3 PUSH1 0x20 MSTORE PUSH1 0x40 DUP2 KECCAK256 DUP2 DUP4 PUSH1 0x4 DUP2 GT ISZERO PUSH2 0xC06 JUMPI PUSH2 0xC06 PUSH2 0xF56 JUMP JUMPDEST PUSH1 0x4 DUP2 GT ISZERO PUSH2 0xC17 JUMPI PUSH2 0xC17 PUSH2 0xF56 JUMP JUMPDEST DUP2 MSTORE PUSH1 0x20 DUP2 ADD SWAP2 SWAP1 SWAP2 MSTORE PUSH1 0x40 ADD PUSH1 0x0 KECCAK256 SLOAD SWAP4 SWAP3 POP POP POP JUMP JUMPDEST PUSH2 0xC78 DUP5 DUP5 DUP5 DUP5 PUSH1 0x40 MLOAD PUSH1 0x24 ADD PUSH2 0xC49 SWAP5 SWAP4 SWAP3 SWAP2 SWAP1 PUSH2 0x1088 JUMP JUMPDEST PUSH1 0x40 DUP1 MLOAD PUSH1 0x1F NOT DUP2 DUP5 SUB ADD DUP2 MSTORE SWAP2 SWAP1 MSTORE PUSH1 0x20 DUP2 ADD DUP1 MLOAD PUSH1 0x1 PUSH1 0x1 PUSH1 0xE0 SHL SUB AND PUSH4 0xC67EA9D1 PUSH1 0xE0 SHL OR SWAP1 MSTORE PUSH2 0xD56 JUMP JUMPDEST POP POP POP POP JUMP JUMPDEST PUSH2 0xCC1 DUP2 PUSH1 0x40 MLOAD PUSH1 0x24 ADD PUSH2 0xC92 SWAP2 SWAP1 PUSH2 0xDDD JUMP JUMPDEST PUSH1 0x40 DUP1 MLOAD PUSH1 0x1F NOT DUP2 DUP5 SUB ADD DUP2 MSTORE SWAP2 SWAP1 MSTORE PUSH1 0x20 DUP2 ADD DUP1 MLOAD PUSH1 0x1 PUSH1 0x1 PUSH1 0xE0 SHL SUB AND PUSH4 0x104C13EB PUSH1 0xE2 SHL OR SWAP1 MSTORE PUSH2 0xD56 JUMP JUMPDEST POP JUMP JUMPDEST PUSH2 0xC78 DUP5 DUP5 DUP5 DUP5 PUSH1 0x40 MLOAD PUSH1 0x24 ADD PUSH2 0xCDE SWAP5 SWAP4 SWAP3 SWAP2 SWAP1 PUSH2 0x10C5 JUMP JUMPDEST PUSH1 0x40 DUP1 MLOAD PUSH1 0x1F NOT DUP2 DUP5 SUB ADD DUP2 MSTORE SWAP2 SWAP1 MSTORE PUSH1 0x20 DUP2 ADD DUP1 MLOAD PUSH1 0x1 PUSH1 0x1 PUSH1 0xE0 SHL SUB AND PUSH4 0x48E88897 PUSH1 0xE1 SHL OR SWAP1 MSTORE PUSH2 0xD56 JUMP JUMPDEST PUSH2 0xD52 DUP3 DUP3 PUSH1 0x40 MLOAD PUSH1 0x24 ADD PUSH2 0xD23 SWAP3 SWAP2 SWAP1 PUSH2 0x10F9 JUMP JUMPDEST PUSH1 0x40 DUP1 MLOAD PUSH1 0x1F NOT DUP2 DUP5 SUB ADD DUP2 MSTORE SWAP2 SWAP1 MSTORE PUSH1 0x20 DUP2 ADD DUP1 MLOAD PUSH1 0x1 PUSH1 0x1 PUSH1 0xE0 SHL SUB AND PUSH4 0x2D839CB3 PUSH1 0xE2 SHL OR SWAP1 MSTORE PUSH2 0xD56 JUMP JUMPDEST POP POP JUMP JUMPDEST DUP1 MLOAD PUSH11 0x636F6E736F6C652E6C6F67 PUSH1 0x20 DUP4 ADD PUSH1 0x0 DUP1 DUP5 DUP4 DUP6 GAS STATICCALL POP POP POP POP POP JUMP JUMPDEST PUSH1 0x0 PUSH1 0x20 DUP3 DUP5 SUB SLT ISZERO PUSH2 0xD89 JUMPI PUSH1 0x0 DUP1 REVERT JUMPDEST POP CALLDATALOAD SWAP2 SWAP1 POP JUMP JUMPDEST PUSH1 0x0 DUP2 MLOAD DUP1 DUP5 MSTORE PUSH1 0x0 JUMPDEST DUP2 DUP2 LT ISZERO PUSH2 0xDB6 JUMPI PUSH1 0x20 DUP2 DUP6 ADD DUP2 ADD MLOAD DUP7 DUP4 ADD DUP3 ADD MSTORE ADD PUSH2 0xD9A JUMP JUMPDEST DUP2 DUP2 GT ISZERO PUSH2 0xDC8 JUMPI PUSH1 0x0 PUSH1 0x20 DUP4 DUP8 ADD ADD MSTORE JUMPDEST POP PUSH1 0x1F ADD PUSH1 0x1F NOT AND SWAP3 SWAP1 SWAP3 ADD PUSH1 0x20 ADD SWAP3 SWAP2 POP POP JUMP JUMPDEST PUSH1 0x20 DUP2 MSTORE PUSH1 0x0 PUSH2 0xDF0 PUSH1 0x20 DUP4 ADD DUP5 PUSH2 0xD90 JUMP JUMPDEST SWAP4 SWAP3 POP POP POP JUMP JUMPDEST DUP1 CALLDATALOAD PUSH1 0xFF DUP2 AND DUP2 EQ PUSH2 0xE08 JUMPI PUSH1 0x0 DUP1 REVERT JUMPDEST SWAP2 SWAP1 POP JUMP JUMPDEST DUP1 CALLDATALOAD PUSH1 0x5 DUP2 LT PUSH2 0xE08 JUMPI PUSH1 0x0 DUP1 REVERT JUMPDEST PUSH1 0x0 DUP1 PUSH1 0x0 PUSH1 0x60 DUP5 DUP7 SUB SLT ISZERO PUSH2 0xE31 JUMPI PUSH1 0x0 DUP1 REVERT JUMPDEST PUSH2 0xE3A DUP5 PUSH2 0xDF7 JUMP JUMPDEST SWAP3 POP PUSH2 0xE48 PUSH1 0x20 DUP6 ADD PUSH2 0xE0D JUMP JUMPDEST SWAP2 POP PUSH1 0x40 DUP5 ADD CALLDATALOAD SWAP1 POP SWAP3 POP SWAP3 POP SWAP3 JUMP JUMPDEST DUP1 CALLDATALOAD PUSH1 0x1 PUSH1 0x1 PUSH1 0xA0 SHL SUB DUP2 AND DUP2 EQ PUSH2 0xE08 JUMPI PUSH1 0x0 DUP1 REVERT JUMPDEST PUSH1 0x0 PUSH1 0x20 DUP3 DUP5 SUB SLT ISZERO PUSH2 0xE81 JUMPI PUSH1 0x0 DUP1 REVERT JUMPDEST PUSH2 0xDF0 DUP3 PUSH2 0xE58 JUMP JUMPDEST PUSH1 0x0 PUSH1 0x20 DUP3 DUP5 SUB SLT ISZERO PUSH2 0xE9C JUMPI PUSH1 0x0 DUP1 REVERT JUMPDEST PUSH2 0xDF0 DUP3 PUSH2 0xE0D JUMP JUMPDEST PUSH1 0x0 DUP1 PUSH1 0x0 PUSH1 0x60 DUP5 DUP7 SUB SLT ISZERO PUSH2 0xEBA JUMPI PUSH1 0x0 DUP1 REVERT JUMPDEST PUSH2 0xEC3 DUP5 PUSH2 0xDF7 JUMP JUMPDEST SWAP3 POP PUSH2 0xED1 PUSH1 0x20 DUP6 ADD PUSH2 0xE58 JUMP JUMPDEST SWAP2 POP PUSH2 0xEDF PUSH1 0x40 DUP6 ADD PUSH2 0xE0D JUMP JUMPDEST SWAP1 POP SWAP3 POP SWAP3 POP SWAP3 JUMP JUMPDEST PUSH1 0x0 DUP1 PUSH1 0x40 DUP4 DUP6 SUB SLT ISZERO PUSH2 0xEFB JUMPI PUSH1 0x0 DUP1 REVERT JUMPDEST PUSH2 0xF04 DUP4 PUSH2 0xDF7 JUMP JUMPDEST SWAP2 POP PUSH2 0xF12 PUSH1 0x20 DUP5 ADD PUSH2 0xE0D JUMP JUMPDEST SWAP1 POP SWAP3 POP SWAP3 SWAP1 POP JUMP JUMPDEST PUSH1 0x1 DUP2 DUP2 SHR SWAP1 DUP3 AND DUP1 PUSH2 0xF2F JUMPI PUSH1 0x7F DUP3 AND SWAP2 POP JUMPDEST PUSH1 0x20 DUP3 LT DUP2 EQ ISZERO PUSH2 0xF50 JUMPI PUSH4 0x4E487B71 PUSH1 0xE0 SHL PUSH1 0x0 MSTORE PUSH1 0x22 PUSH1 0x4 MSTORE PUSH1 0x24 PUSH1 0x0 REVERT JUMPDEST POP SWAP2 SWAP1 POP JUMP JUMPDEST PUSH4 0x4E487B71 PUSH1 0xE0 SHL PUSH1 0x0 MSTORE PUSH1 0x21 PUSH1 0x4 MSTORE PUSH1 0x24 PUSH1 0x0 REVERT JUMPDEST PUSH4 0x4E487B71 PUSH1 0xE0 SHL PUSH1 0x0 MSTORE PUSH1 0x11 PUSH1 0x4 MSTORE PUSH1 0x24 PUSH1 0x0 REVERT JUMPDEST PUSH1 0x0 DUP3 DUP3 LT ISZERO PUSH2 0xF94 JUMPI PUSH2 0xF94 PUSH2 0xF6C JUMP JUMPDEST POP SUB SWAP1 JUMP JUMPDEST PUSH4 0x4E487B71 PUSH1 0xE0 SHL PUSH1 0x0 MSTORE PUSH1 0x32 PUSH1 0x4 MSTORE PUSH1 0x24 PUSH1 0x0 REVERT JUMPDEST PUSH1 0x0 DUP3 PUSH2 0xFCC JUMPI PUSH4 0x4E487B71 PUSH1 0xE0 SHL PUSH1 0x0 MSTORE PUSH1 0x12 PUSH1 0x4 MSTORE PUSH1 0x24 PUSH1 0x0 REVERT JUMPDEST POP DIV SWAP1 JUMP JUMPDEST PUSH1 0x0 DUP2 PUSH1 0x0 NOT DIV DUP4 GT DUP3 ISZERO ISZERO AND ISZERO PUSH2 0xFEB JUMPI PUSH2 0xFEB PUSH2 0xF6C JUMP JUMPDEST POP MUL SWAP1 JUMP JUMPDEST PUSH1 0x0 DUP3 NOT DUP3 GT ISZERO PUSH2 0x1003 JUMPI PUSH2 0x1003 PUSH2 0xF6C JUMP JUMPDEST POP ADD SWAP1 JUMP JUMPDEST PUSH1 0x0 PUSH1 0x0 NOT DUP3 EQ ISZERO PUSH2 0x101C JUMPI PUSH2 0x101C PUSH2 0xF6C JUMP JUMPDEST POP PUSH1 0x1 ADD SWAP1 JUMP JUMPDEST PUSH1 0x0 PUSH1 0xFF DUP3 AND PUSH1 0xFF DUP2 EQ ISZERO PUSH2 0x103A JUMPI PUSH2 0x103A PUSH2 0xF6C JUMP JUMPDEST PUSH1 0x1 ADD SWAP3 SWAP2 POP POP JUMP JUMPDEST PUSH1 0xFF DUP5 AND DUP2 MSTORE PUSH1 0x1 PUSH1 0x1 PUSH1 0xA0 SHL SUB DUP4 AND PUSH1 0x20 DUP3 ADD MSTORE PUSH1 0x60 DUP2 ADD PUSH1 0x5 DUP4 LT PUSH2 0x107A JUMPI PUSH4 0x4E487B71 PUSH1 0xE0 SHL PUSH1 0x0 MSTORE PUSH1 0x21 PUSH1 0x4 MSTORE PUSH1 0x24 PUSH1 0x0 REVERT JUMPDEST DUP3 PUSH1 0x40 DUP4 ADD MSTORE SWAP5 SWAP4 POP POP POP POP JUMP JUMPDEST PUSH1 0x80 DUP2 MSTORE PUSH1 0x0 PUSH2 0x109B PUSH1 0x80 DUP4 ADD DUP8 PUSH2 0xD90 JUMP JUMPDEST DUP6 PUSH1 0x20 DUP5 ADD MSTORE DUP3 DUP2 SUB PUSH1 0x40 DUP5 ADD MSTORE PUSH2 0x10B3 DUP2 DUP7 PUSH2 0xD90 JUMP JUMPDEST SWAP2 POP POP DUP3 PUSH1 0x60 DUP4 ADD MSTORE SWAP6 SWAP5 POP POP POP POP POP JUMP JUMPDEST PUSH1 0x80 DUP2 MSTORE PUSH1 0x0 PUSH2 0x10D8 PUSH1 0x80 DUP4 ADD DUP8 PUSH2 0xD90 JUMP JUMPDEST PUSH1 0x1 PUSH1 0x1 PUSH1 0xA0 SHL SUB DUP7 AND PUSH1 0x20 DUP5 ADD MSTORE DUP3 DUP2 SUB PUSH1 0x40 DUP5 ADD MSTORE PUSH2 0x10B3 DUP2 DUP7 PUSH2 0xD90 JUMP JUMPDEST PUSH1 0x40 DUP2 MSTORE PUSH1 0x0 PUSH2 0x110C PUSH1 0x40 DUP4 ADD DUP6 PUSH2 0xD90 JUMP JUMPDEST SWAP1 POP DUP3 PUSH1 0x20 DUP4 ADD MSTORE SWAP4 SWAP3 POP POP POP JUMP INVALID PUSH21 0x6869732077696E6E657220686173206265656E2073 PUSH6 0x7420616C7265 PUSH2 0x6479 0x2C KECCAK256 PUSH24 0x696C6C20626520736B697070656421A26469706673582212 KECCAK256 JUMP 0xFB PUSH26 0xB62659D2AD2D2A2089FDAB5C11DF6F22693D96D14FCB3B2DAAAB PUSH28 0xF12B64736F6C63430008090033000000000000000000000000000000 "},"methodIdentifiers":{"admin()":"f851a440","claimReward()":"b88a802f","countries(uint256)":"08e9daa5","countryToPlayers(uint8,uint8,uint256)":"0fa68115","currRound()":"3f5d8056","deadline()":"29dcb0cf","finialize(uint8)":"34bf6d01","getCountryPlayters(uint8,uint8)":"c4864f57","getPlayerInfo(uint8,address,uint8)":"ada2ac38","getVaultBalance()":"ed12e8ef","lockedAmts()":"28655c5b","play(uint8)":"53a04b05","winnerVaults(address)":"34330586"}}}}}