{"contracts/upgrade/WorldCupV1.sol":{"WorldCupV1":{"abi":[{"anonymous":false,"inputs":[{"indexed":false,"internalType":"address","name":"_claimer","type":"address"},{"indexed":false,"internalType":"uint256","name":"_amt","type":"uint256"}],"name":"ClaimReward","type":"event"},{"anonymous":false,"inputs":[{"indexed":false,"internalType":"uint8","name":"_currRound","type":"uint8"},{"indexed":false,"internalType":"uint256","name":"_country","type":"uint256"}],"name":"Finialize","type":"event"},{"anonymous":false,"inputs":[{"indexed":false,"internalType":"uint8","name":"version","type":"uint8"}],"name":"Initialized","type":"event"},{"anonymous":false,"inputs":[{"indexed":false,"internalType":"uint8","name":"_currRound","type":"uint8"},{"indexed":false,"internalType":"address","name":"_player","type":"address"},{"indexed":false,"internalType":"enum WorldCupV1.Country","name":"_country","type":"uint8"}],"name":"Play","type":"event"},{"inputs":[],"name":"admin","outputs":[{"internalType":"address","name":"","type":"address"}],"stateMutability":"view","type":"function"},{"inputs":[],"name":"claimReward","outputs":[],"stateMutability":"nonpayable","type":"function"},{"inputs":[{"internalType":"uint8","name":"","type":"uint8"},{"internalType":"enum WorldCupV1.Country","name":"","type":"uint8"},{"internalType":"uint256","name":"","type":"uint256"}],"name":"countryToPlayers","outputs":[{"internalType":"address","name":"","type":"address"}],"stateMutability":"view","type":"function"},{"inputs":[],"name":"currRound","outputs":[{"internalType":"uint8","name":"","type":"uint8"}],"stateMutability":"view","type":"function"},{"inputs":[],"name":"deadline","outputs":[{"internalType":"uint256","name":"","type":"uint256"}],"stateMutability":"view","type":"function"},{"inputs":[{"internalType":"enum WorldCupV1.Country","name":"_country","type":"uint8"}],"name":"finialize","outputs":[],"stateMutability":"nonpayable","type":"function"},{"inputs":[{"internalType":"uint8","name":"_round","type":"uint8"},{"internalType":"enum WorldCupV1.Country","name":"_country","type":"uint8"}],"name":"getCountryPlayters","outputs":[{"internalType":"uint256","name":"","type":"uint256"}],"stateMutability":"view","type":"function"},{"inputs":[{"internalType":"uint8","name":"_round","type":"uint8"},{"internalType":"address","name":"_player","type":"address"},{"internalType":"enum WorldCupV1.Country","name":"_country","type":"uint8"}],"name":"getPlayerInfo","outputs":[{"internalType":"uint256","name":"_counts","type":"uint256"}],"stateMutability":"view","type":"function"},{"inputs":[],"name":"getVaultBalance","outputs":[{"internalType":"uint256","name":"bal","type":"uint256"}],"stateMutability":"view","type":"function"},{"inputs":[{"internalType":"uint256","name":"_deadline","type":"uint256"}],"name":"initialize","outputs":[],"stateMutability":"nonpayable","type":"function"},{"inputs":[],"name":"lockedAmts","outputs":[{"internalType":"uint256","name":"","type":"uint256"}],"stateMutability":"view","type":"function"},{"inputs":[{"internalType":"enum WorldCupV1.Country","name":"_selected","type":"uint8"}],"name":"play","outputs":[],"stateMutability":"payable","type":"function"},{"inputs":[{"internalType":"address","name":"","type":"address"}],"name":"winnerVaults","outputs":[{"internalType":"uint256","name":"","type":"uint256"}],"stateMutability":"view","type":"function"}],"evm":{"bytecode":{"linkReferences":{},"object":"608060405234801561001057600080fd5b506111d4806100206000396000f3fe6080604052600436106100c25760003560e01c806353a04b051161007f578063c4864f5711610059578063c4864f5714610208578063ed12e8ef14610228578063f851a4401461023b578063fe4b84df1461026157600080fd5b806353a04b05146101c0578063ada2ac38146101d3578063b88a802f146101f357600080fd5b80630fa68115146100c757806328655c5b1461010457806329dcb0cf14610128578063343305861461013e57806334bf6d011461016b5780633f5d80561461018d575b600080fd5b3480156100d357600080fd5b506100e76100e2366004610e28565b610281565b6040516001600160a01b0390911681526020015b60405180910390f35b34801561011057600080fd5b5061011a60055481565b6040519081526020016100fb565b34801561013457600080fd5b5061011a60045481565b34801561014a57600080fd5b5061011a610159366004610e7b565b60036020526000908152604090205481565b34801561017757600080fd5b5061018b610186366004610e9d565b6102c6565b005b34801561019957600080fd5b506000546101ae90600160b01b900460ff1681565b60405160ff90911681526020016100fb565b61018b6101ce366004610e9d565b61076b565b3480156101df57600080fd5b5061011a6101ee366004610eb8565b61092b565b3480156101ff57600080fd5b5061018b61098e565b34801561021457600080fd5b5061011a610223366004610efb565b610af7565b34801561023457600080fd5b504761011a565b34801561024757600080fd5b506000546100e7906201000090046001600160a01b031681565b34801561026d57600080fd5b5061018b61027c366004610f2e565b610b45565b600260205282600052604060002060205281600052604060002081815481106102a957600080fd5b6000918252602090912001546001600160a01b0316925083915050565b6000546201000090046001600160a01b0316331461031d5760405162461bcd60e51b815260206004820152600f60248201526e6e6f7420617574686f72697a65642160881b60448201526064015b60405180910390fd5b60008054600160b01b900460ff1681526002602052604081208183600481111561034957610349610f47565b600481111561035a5761035a610f47565b81526020019081526020016000208054806020026020016040519081016040528092919081815260200182805480156103bc57602002820191906000526020600020905b81546001600160a01b0316815260019091019060200180831161039e575b505050505090506000806005546103d04790565b6103da9190610f73565b90506104376040518060400160405280601081526020016f31bab93920bb30b62130b630b731b29d60811b815250826040518060400160405280600e81526020016d3bb4b73732b9399031b7bab73a1d60911b8152508651610cc3565b60005b835181101561069857600084828151811061045757610457610f8a565b6020908102919091018101516000805460ff600160b01b909104811682526001845260408083206001600160a01b038516845290945292902080549193509116156104c4576104bd60405180606001604052806032815260200161116d60329139610d12565b5050610686565b805460ff1916600190811782556000908201818960048111156104e9576104e9610f47565b60048111156104fa576104fa610f47565b815260208082019290925260409081016000908120548154600160b01b900460ff1682526002909352908120919250908290828b600481111561053f5761053f610f47565b600481111561055057610550610f47565b815260208101919091526040016000205461056b9088610fa0565b6105759190610fc2565b6001600160a01b0385166000908152600360205260408120805492935083929091906105a2908490610fe1565b909155506105b290508188610fe1565b965080600560008282546105c69190610fe1565b9250508190555061061b604051806040016040528060078152602001663bb4b73732b91d60c91b815250856040518060400160405280600b81526020016a31bab93921b7bab73a399d60a91b81525085610d58565b604080518082018252601081526f3932bbb0b9321030b6ba1031bab9391d60811b6020808301919091528251808401845260068152653a37ba30b61d60d11b818301526001600160a01b0388166000908152600390925292902054610681928491610cc3565b505050505b8061069081610ff9565b91505061043a565b5060006106a58383610f73565b905080156106e157600080546201000090046001600160a01b0316815260036020526040812080548392906106db908490610fe1565b90915550505b600080547ff29c2f4a0ac8b177f1c72bbdf7cd3899630a10ce3626cc73671d98f682d574c091600160b01b90910460ff1690601661071e83611014565b91906101000a81548160ff021916908360ff16021790555086600481111561074857610748610f47565b6040805160ff909316835260208301919091520160405180910390a15050505050565b34633b9aca00146107be5760405162461bcd60e51b815260206004820152601760248201527f696e76616c69642066756e64732070726f7669646564210000000000000000006044820152606401610314565b60045442106108005760405162461bcd60e51b815260206004820152600e60248201526d6974277320616c6c206f7665722160901b6044820152606401610314565b60008054600160b01b900460ff1681526002602052604081209082600481111561082c5761082c610f47565b600481111561083d5761083d610f47565b8152602080820192909252604090810160009081208054600181810183559183528483200180546001600160a01b03191633908117909155825460ff600160b01b9091041683528185528383209083529093529081209190828201908460048111156108ab576108ab610f47565b60048111156108bc576108bc610f47565b815260200190815260200160002060008282546108d99190610fe1565b90915550506000546040517fed75611777bda76f73e63b79a0b4b2f59dfb76a034ff90e9a4f204f414dadef79161091f91600160b01b90910460ff169033908690611034565b60405180910390a15050565b60ff831660009081526001602081815260408084206001600160a01b03871685529091528220018183600481111561096557610965610f47565b600481111561097657610976610f47565b81526020019081526020016000205490509392505050565b33600090815260036020526040902054806109df5760405162461bcd60e51b81526020600482015260116024820152706e6f7468696e6720746f20636c61696d2160781b6044820152606401610314565b33600090815260036020526040812081905560058054839290610a03908490610f73565b9091555050604051600090339083908381818185875af1925050503d8060008114610a4a576040519150601f19603f3d011682016040523d82523d6000602084013e610a4f565b606091505b5050905080610a975760405162461bcd60e51b8152602060048201526014602482015273636c61696d20726577617264206661696c65642160601b6044820152606401610314565b610ac1604051806040016040528060088152602001673932bbb0b932399d60c11b81525083610da1565b60408051338152602081018490527fba8de60c3403ec381d1d484652ea1980e3c3e56359195c92525bff4ce47ad98e910161091f565b60ff8216600090815260026020526040812081836004811115610b1c57610b1c610f47565b6004811115610b2d57610b2d610f47565b81526020810191909152604001600020549392505050565b600054610100900460ff1615808015610b655750600054600160ff909116105b80610b7f5750303b158015610b7f575060005460ff166001145b610be25760405162461bcd60e51b815260206004820152602e60248201527f496e697469616c697a61626c653a20636f6e747261637420697320616c72656160448201526d191e481a5b9a5d1a585b1a5e995960921b6064820152608401610314565b6000805460ff191660011790558015610c05576000805461ff0019166101001790555b6000805462010000600160b01b031916336201000002179055428211610c785760405162461bcd60e51b815260206004820152602260248201527f576f726c644375704c6f74746572793a20696e76616c696420646561646c696e604482015261652160f01b6064820152608401610314565b60048290558015610cbf576000805461ff0019169055604051600181527f7f26b83ff96e1f2b6a682f133852f6798a09c465da95921460cefb38474024989060200161091f565b5050565b610d0c84848484604051602401610cdd94939291906110c6565b60408051601f198184030181529190526020810180516001600160e01b031663c67ea9d160e01b179052610de2565b50505050565b610d5581604051602401610d269190611103565b60408051601f198184030181529190526020810180516001600160e01b031663104c13eb60e21b179052610de2565b50565b610d0c84848484604051602401610d729493929190611116565b60408051601f198184030181529190526020810180516001600160e01b03166348e8889760e11b179052610de2565b610cbf8282604051602401610db792919061114a565b60408051601f198184030181529190526020810180516001600160e01b0316632d839cb360e21b1790525b80516a636f6e736f6c652e6c6f67602083016000808483855afa5050505050565b803560ff81168114610e1457600080fd5b919050565b803560058110610e1457600080fd5b600080600060608486031215610e3d57600080fd5b610e4684610e03565b9250610e5460208501610e19565b9150604084013590509250925092565b80356001600160a01b0381168114610e1457600080fd5b600060208284031215610e8d57600080fd5b610e9682610e64565b9392505050565b600060208284031215610eaf57600080fd5b610e9682610e19565b600080600060608486031215610ecd57600080fd5b610ed684610e03565b9250610ee460208501610e64565b9150610ef260408501610e19565b90509250925092565b60008060408385031215610f0e57600080fd5b610f1783610e03565b9150610f2560208401610e19565b90509250929050565b600060208284031215610f4057600080fd5b5035919050565b634e487b7160e01b600052602160045260246000fd5b634e487b7160e01b600052601160045260246000fd5b600082821015610f8557610f85610f5d565b500390565b634e487b7160e01b600052603260045260246000fd5b600082610fbd57634e487b7160e01b600052601260045260246000fd5b500490565b6000816000190483118215151615610fdc57610fdc610f5d565b500290565b60008219821115610ff457610ff4610f5d565b500190565b600060001982141561100d5761100d610f5d565b5060010190565b600060ff821660ff81141561102b5761102b610f5d565b60010192915050565b60ff841681526001600160a01b0383166020820152606081016005831061106b57634e487b7160e01b600052602160045260246000fd5b826040830152949350505050565b6000815180845260005b8181101561109f57602081850181015186830182015201611083565b818111156110b1576000602083870101525b50601f01601f19169290920160200192915050565b6080815260006110d96080830187611079565b85602084015282810360408401526110f18186611079565b91505082606083015295945050505050565b602081526000610e966020830184611079565b6080815260006111296080830187611079565b6001600160a01b038616602084015282810360408401526110f18186611079565b60408152600061115d6040830185611079565b9050826020830152939250505056fe746869732077696e6e657220686173206265656e2073657420616c72656164792c2077696c6c20626520736b697070656421a2646970667358221220fac9568db52ef7eaa384c3b7c4da6e0b22603bfaf1c6abb1709a112f2ebba06b64736f6c63430008090033","opcodes":"PUSH1 0x80 PUSH1 0x40 MSTORE CALLVALUE DUP1 ISZERO PUSH2 0x10 JUMPI PUSH1 0x0 DUP1 REVERT JUMPDEST POP PUSH2 0x11D4 DUP1 PUSH2 0x20 PUSH1 0x0 CODECOPY PUSH1 0x0 RETURN INVALID PUSH1 0x80 PUSH1 0x40 MSTORE PUSH1 0x4 CALLDATASIZE LT PUSH2 0xC2 JUMPI PUSH1 0x0 CALLDATALOAD PUSH1 0xE0 SHR DUP1 PUSH4 0x53A04B05 GT PUSH2 0x7F JUMPI DUP1 PUSH4 0xC4864F57 GT PUSH2 0x59 JUMPI DUP1 PUSH4 0xC4864F57 EQ PUSH2 0x208 JUMPI DUP1 PUSH4 0xED12E8EF EQ PUSH2 0x228 JUMPI DUP1 PUSH4 0xF851A440 EQ PUSH2 0x23B JUMPI DUP1 PUSH4 0xFE4B84DF EQ PUSH2 0x261 JUMPI PUSH1 0x0 DUP1 REVERT JUMPDEST DUP1 PUSH4 0x53A04B05 EQ PUSH2 0x1C0 JUMPI DUP1 PUSH4 0xADA2AC38 EQ PUSH2 0x1D3 JUMPI DUP1 PUSH4 0xB88A802F EQ PUSH2 0x1F3 JUMPI PUSH1 0x0 DUP1 REVERT JUMPDEST DUP1 PUSH4 0xFA68115 EQ PUSH2 0xC7 JUMPI DUP1 PUSH4 0x28655C5B EQ PUSH2 0x104 JUMPI DUP1 PUSH4 0x29DCB0CF EQ PUSH2 0x128 JUMPI DUP1 PUSH4 0x34330586 EQ PUSH2 0x13E JUMPI DUP1 PUSH4 0x34BF6D01 EQ PUSH2 0x16B JUMPI DUP1 PUSH4 0x3F5D8056 EQ PUSH2 0x18D JUMPI JUMPDEST PUSH1 0x0 DUP1 REVERT JUMPDEST CALLVALUE DUP1 ISZERO PUSH2 0xD3 JUMPI PUSH1 0x0 DUP1 REVERT JUMPDEST POP PUSH2 0xE7 PUSH2 0xE2 CALLDATASIZE PUSH1 0x4 PUSH2 0xE28 JUMP JUMPDEST PUSH2 0x281 JUMP JUMPDEST PUSH1 0x40 MLOAD PUSH1 0x1 PUSH1 0x1 PUSH1 0xA0 SHL SUB SWAP1 SWAP2 AND DUP2 MSTORE PUSH1 0x20 ADD JUMPDEST PUSH1 0x40 MLOAD DUP1 SWAP2 SUB SWAP1 RETURN JUMPDEST CALLVALUE DUP1 ISZERO PUSH2 0x110 JUMPI PUSH1 0x0 DUP1 REVERT JUMPDEST POP PUSH2 0x11A PUSH1 0x5 SLOAD DUP2 JUMP JUMPDEST PUSH1 0x40 MLOAD SWAP1 DUP2 MSTORE PUSH1 0x20 ADD PUSH2 0xFB JUMP JUMPDEST CALLVALUE DUP1 ISZERO PUSH2 0x134 JUMPI PUSH1 0x0 DUP1 REVERT JUMPDEST POP PUSH2 0x11A PUSH1 0x4 SLOAD DUP2 JUMP JUMPDEST CALLVALUE DUP1 ISZERO PUSH2 0x14A JUMPI PUSH1 0x0 DUP1 REVERT JUMPDEST POP PUSH2 0x11A PUSH2 0x159 CALLDATASIZE PUSH1 0x4 PUSH2 0xE7B JUMP JUMPDEST PUSH1 0x3 PUSH1 0x20 MSTORE PUSH1 0x0 SWAP1 DUP2 MSTORE PUSH1 0x40 SWAP1 KECCAK256 SLOAD DUP2 JUMP JUMPDEST CALLVALUE DUP1 ISZERO PUSH2 0x177 JUMPI PUSH1 0x0 DUP1 REVERT JUMPDEST POP PUSH2 0x18B PUSH2 0x186 CALLDATASIZE PUSH1 0x4 PUSH2 0xE9D JUMP JUMPDEST PUSH2 0x2C6 JUMP JUMPDEST STOP JUMPDEST CALLVALUE DUP1 ISZERO PUSH2 0x199 JUMPI PUSH1 0x0 DUP1 REVERT JUMPDEST POP PUSH1 0x0 SLOAD PUSH2 0x1AE SWAP1 PUSH1 0x1 PUSH1 0xB0 SHL SWAP1 DIV PUSH1 0xFF AND DUP2 JUMP JUMPDEST PUSH1 0x40 MLOAD PUSH1 0xFF SWAP1 SWAP2 AND DUP2 MSTORE PUSH1 0x20 ADD PUSH2 0xFB JUMP JUMPDEST PUSH2 0x18B PUSH2 0x1CE CALLDATASIZE PUSH1 0x4 PUSH2 0xE9D JUMP JUMPDEST PUSH2 0x76B JUMP JUMPDEST CALLVALUE DUP1 ISZERO PUSH2 0x1DF JUMPI PUSH1 0x0 DUP1 REVERT JUMPDEST POP PUSH2 0x11A PUSH2 0x1EE CALLDATASIZE PUSH1 0x4 PUSH2 0xEB8 JUMP JUMPDEST PUSH2 0x92B JUMP JUMPDEST CALLVALUE DUP1 ISZERO PUSH2 0x1FF JUMPI PUSH1 0x0 DUP1 REVERT JUMPDEST POP PUSH2 0x18B PUSH2 0x98E JUMP JUMPDEST CALLVALUE DUP1 ISZERO PUSH2 0x214 JUMPI PUSH1 0x0 DUP1 REVERT JUMPDEST POP PUSH2 0x11A PUSH2 0x223 CALLDATASIZE PUSH1 0x4 PUSH2 0xEFB JUMP JUMPDEST PUSH2 0xAF7 JUMP JUMPDEST CALLVALUE DUP1 ISZERO PUSH2 0x234 JUMPI PUSH1 0x0 DUP1 REVERT JUMPDEST POP SELFBALANCE PUSH2 0x11A JUMP JUMPDEST CALLVALUE DUP1 ISZERO PUSH2 0x247 JUMPI PUSH1 0x0 DUP1 REVERT JUMPDEST POP PUSH1 0x0 SLOAD PUSH2 0xE7 SWAP1 PUSH3 0x10000 SWAP1 DIV PUSH1 0x1 PUSH1 0x1 PUSH1 0xA0 SHL SUB AND DUP2 JUMP JUMPDEST CALLVALUE DUP1 ISZERO PUSH2 0x26D JUMPI PUSH1 0x0 DUP1 REVERT JUMPDEST POP PUSH2 0x18B PUSH2 0x27C CALLDATASIZE PUSH1 0x4 PUSH2 0xF2E JUMP JUMPDEST PUSH2 0xB45 JUMP JUMPDEST PUSH1 0x2 PUSH1 0x20 MSTORE DUP3 PUSH1 0x0 MSTORE PUSH1 0x40 PUSH1 0x0 KECCAK256 PUSH1 0x20 MSTORE DUP2 PUSH1 0x0 MSTORE PUSH1 0x40 PUSH1 0x0 KECCAK256 DUP2 DUP2 SLOAD DUP2 LT PUSH2 0x2A9 JUMPI PUSH1 0x0 DUP1 REVERT JUMPDEST PUSH1 0x0 SWAP2 DUP3 MSTORE PUSH1 0x20 SWAP1 SWAP2 KECCAK256 ADD SLOAD PUSH1 0x1 PUSH1 0x1 PUSH1 0xA0 SHL SUB AND SWAP3 POP DUP4 SWAP2 POP POP JUMP JUMPDEST PUSH1 0x0 SLOAD PUSH3 0x10000 SWAP1 DIV PUSH1 0x1 PUSH1 0x1 PUSH1 0xA0 SHL SUB AND CALLER EQ PUSH2 0x31D JUMPI PUSH1 0x40 MLOAD PUSH3 0x461BCD PUSH1 0xE5 SHL DUP2 MSTORE PUSH1 0x20 PUSH1 0x4 DUP3 ADD MSTORE PUSH1 0xF PUSH1 0x24 DUP3 ADD MSTORE PUSH15 0x6E6F7420617574686F72697A656421 PUSH1 0x88 SHL PUSH1 0x44 DUP3 ADD MSTORE PUSH1 0x64 ADD JUMPDEST PUSH1 0x40 MLOAD DUP1 SWAP2 SUB SWAP1 REVERT JUMPDEST PUSH1 0x0 DUP1 SLOAD PUSH1 0x1 PUSH1 0xB0 SHL SWAP1 DIV PUSH1 0xFF AND DUP2 MSTORE PUSH1 0x2 PUSH1 0x20 MSTORE PUSH1 0x40 DUP2 KECCAK256 DUP2 DUP4 PUSH1 0x4 DUP2 GT ISZERO PUSH2 0x349 JUMPI PUSH2 0x349 PUSH2 0xF47 JUMP JUMPDEST PUSH1 0x4 DUP2 GT ISZERO PUSH2 0x35A JUMPI PUSH2 0x35A PUSH2 0xF47 JUMP JUMPDEST DUP2 MSTORE PUSH1 0x20 ADD SWAP1 DUP2 MSTORE PUSH1 0x20 ADD PUSH1 0x0 KECCAK256 DUP1 SLOAD DUP1 PUSH1 0x20 MUL PUSH1 0x20 ADD PUSH1 0x40 MLOAD SWAP1 DUP2 ADD PUSH1 0x40 MSTORE DUP1 SWAP3 SWAP2 SWAP1 DUP2 DUP2 MSTORE PUSH1 0x20 ADD DUP3 DUP1 SLOAD DUP1 ISZERO PUSH2 0x3BC JUMPI PUSH1 0x20 MUL DUP3 ADD SWAP2 SWAP1 PUSH1 0x0 MSTORE PUSH1 0x20 PUSH1 0x0 KECCAK256 SWAP1 JUMPDEST DUP2 SLOAD PUSH1 0x1 PUSH1 0x1 PUSH1 0xA0 SHL SUB AND DUP2 MSTORE PUSH1 0x1 SWAP1 SWAP2 ADD SWAP1 PUSH1 0x20 ADD DUP1 DUP4 GT PUSH2 0x39E JUMPI JUMPDEST POP POP POP POP POP SWAP1 POP PUSH1 0x0 DUP1 PUSH1 0x5 SLOAD PUSH2 0x3D0 SELFBALANCE SWAP1 JUMP JUMPDEST PUSH2 0x3DA SWAP2 SWAP1 PUSH2 0xF73 JUMP JUMPDEST SWAP1 POP PUSH2 0x437 PUSH1 0x40 MLOAD DUP1 PUSH1 0x40 ADD PUSH1 0x40 MSTORE DUP1 PUSH1 0x10 DUP2 MSTORE PUSH1 0x20 ADD PUSH16 0x31BAB93920BB30B62130B630B731B29D PUSH1 0x81 SHL DUP2 MSTORE POP DUP3 PUSH1 0x40 MLOAD DUP1 PUSH1 0x40 ADD PUSH1 0x40 MSTORE DUP1 PUSH1 0xE DUP2 MSTORE PUSH1 0x20 ADD PUSH14 0x3BB4B73732B9399031B7BAB73A1D PUSH1 0x91 SHL DUP2 MSTORE POP DUP7 MLOAD PUSH2 0xCC3 JUMP JUMPDEST PUSH1 0x0 JUMPDEST DUP4 MLOAD DUP2 LT ISZERO PUSH2 0x698 JUMPI PUSH1 0x0 DUP5 DUP3 DUP2 MLOAD DUP2 LT PUSH2 0x457 JUMPI PUSH2 0x457 PUSH2 0xF8A JUMP JUMPDEST PUSH1 0x20 SWAP1 DUP2 MUL SWAP2 SWAP1 SWAP2 ADD DUP2 ADD MLOAD PUSH1 0x0 DUP1 SLOAD PUSH1 0xFF PUSH1 0x1 PUSH1 0xB0 SHL SWAP1 SWAP2 DIV DUP2 AND DUP3 MSTORE PUSH1 0x1 DUP5 MSTORE PUSH1 0x40 DUP1 DUP4 KECCAK256 PUSH1 0x1 PUSH1 0x1 PUSH1 0xA0 SHL SUB DUP6 AND DUP5 MSTORE SWAP1 SWAP5 MSTORE SWAP3 SWAP1 KECCAK256 DUP1 SLOAD SWAP2 SWAP4 POP SWAP2 AND ISZERO PUSH2 0x4C4 JUMPI PUSH2 0x4BD PUSH1 0x40 MLOAD DUP1 PUSH1 0x60 ADD PUSH1 0x40 MSTORE DUP1 PUSH1 0x32 DUP2 MSTORE PUSH1 0x20 ADD PUSH2 0x116D PUSH1 0x32 SWAP2 CODECOPY PUSH2 0xD12 JUMP JUMPDEST POP POP PUSH2 0x686 JUMP JUMPDEST DUP1 SLOAD PUSH1 0xFF NOT AND PUSH1 0x1 SWAP1 DUP2 OR DUP3 SSTORE PUSH1 0x0 SWAP1 DUP3 ADD DUP2 DUP10 PUSH1 0x4 DUP2 GT ISZERO PUSH2 0x4E9 JUMPI PUSH2 0x4E9 PUSH2 0xF47 JUMP JUMPDEST PUSH1 0x4 DUP2 GT ISZERO PUSH2 0x4FA JUMPI PUSH2 0x4FA PUSH2 0xF47 JUMP JUMPDEST DUP2 MSTORE PUSH1 0x20 DUP1 DUP3 ADD SWAP3 SWAP1 SWAP3 MSTORE PUSH1 0x40 SWAP1 DUP2 ADD PUSH1 0x0 SWAP1 DUP2 KECCAK256 SLOAD DUP2 SLOAD PUSH1 0x1 PUSH1 0xB0 SHL SWAP1 DIV PUSH1 0xFF AND DUP3 MSTORE PUSH1 0x2 SWAP1 SWAP4 MSTORE SWAP1 DUP2 KECCAK256 SWAP2 SWAP3 POP SWAP1 DUP3 SWAP1 DUP3 DUP12 PUSH1 0x4 DUP2 GT ISZERO PUSH2 0x53F JUMPI PUSH2 0x53F PUSH2 0xF47 JUMP JUMPDEST PUSH1 0x4 DUP2 GT ISZERO PUSH2 0x550 JUMPI PUSH2 0x550 PUSH2 0xF47 JUMP JUMPDEST DUP2 MSTORE PUSH1 0x20 DUP2 ADD SWAP2 SWAP1 SWAP2 MSTORE PUSH1 0x40 ADD PUSH1 0x0 KECCAK256 SLOAD PUSH2 0x56B SWAP1 DUP9 PUSH2 0xFA0 JUMP JUMPDEST PUSH2 0x575 SWAP2 SWAP1 PUSH2 0xFC2 JUMP JUMPDEST PUSH1 0x1 PUSH1 0x1 PUSH1 0xA0 SHL SUB DUP6 AND PUSH1 0x0 SWAP1 DUP2 MSTORE PUSH1 0x3 PUSH1 0x20 MSTORE PUSH1 0x40 DUP2 KECCAK256 DUP1 SLOAD SWAP3 SWAP4 POP DUP4 SWAP3 SWAP1 SWAP2 SWAP1 PUSH2 0x5A2 SWAP1 DUP5 SWAP1 PUSH2 0xFE1 JUMP JUMPDEST SWAP1 SWAP2 SSTORE POP PUSH2 0x5B2 SWAP1 POP DUP2 DUP9 PUSH2 0xFE1 JUMP JUMPDEST SWAP7 POP DUP1 PUSH1 0x5 PUSH1 0x0 DUP3 DUP3 SLOAD PUSH2 0x5C6 SWAP2 SWAP1 PUSH2 0xFE1 JUMP JUMPDEST SWAP3 POP POP DUP2 SWAP1 SSTORE POP PUSH2 0x61B PUSH1 0x40 MLOAD DUP1 PUSH1 0x40 ADD PUSH1 0x40 MSTORE DUP1 PUSH1 0x7 DUP2 MSTORE PUSH1 0x20 ADD PUSH7 0x3BB4B73732B91D PUSH1 0xC9 SHL DUP2 MSTORE POP DUP6 PUSH1 0x40 MLOAD DUP1 PUSH1 0x40 ADD PUSH1 0x40 MSTORE DUP1 PUSH1 0xB DUP2 MSTORE PUSH1 0x20 ADD PUSH11 0x31BAB93921B7BAB73A399D PUSH1 0xA9 SHL DUP2 MSTORE POP DUP6 PUSH2 0xD58 JUMP JUMPDEST PUSH1 0x40 DUP1 MLOAD DUP1 DUP3 ADD DUP3 MSTORE PUSH1 0x10 DUP2 MSTORE PUSH16 0x3932BBB0B9321030B6BA1031BAB9391D PUSH1 0x81 SHL PUSH1 0x20 DUP1 DUP4 ADD SWAP2 SWAP1 SWAP2 MSTORE DUP3 MLOAD DUP1 DUP5 ADD DUP5 MSTORE PUSH1 0x6 DUP2 MSTORE PUSH6 0x3A37BA30B61D PUSH1 0xD1 SHL DUP2 DUP4 ADD MSTORE PUSH1 0x1 PUSH1 0x1 PUSH1 0xA0 SHL SUB DUP9 AND PUSH1 0x0 SWAP1 DUP2 MSTORE PUSH1 0x3 SWAP1 SWAP3 MSTORE SWAP3 SWAP1 KECCAK256 SLOAD PUSH2 0x681 SWAP3 DUP5 SWAP2 PUSH2 0xCC3 JUMP JUMPDEST POP POP POP POP JUMPDEST DUP1 PUSH2 0x690 DUP2 PUSH2 0xFF9 JUMP JUMPDEST SWAP2 POP POP PUSH2 0x43A JUMP JUMPDEST POP PUSH1 0x0 PUSH2 0x6A5 DUP4 DUP4 PUSH2 0xF73 JUMP JUMPDEST SWAP1 POP DUP1 ISZERO PUSH2 0x6E1 JUMPI PUSH1 0x0 DUP1 SLOAD PUSH3 0x10000 SWAP1 DIV PUSH1 0x1 PUSH1 0x1 PUSH1 0xA0 SHL SUB AND DUP2 MSTORE PUSH1 0x3 PUSH1 0x20 MSTORE PUSH1 0x40 DUP2 KECCAK256 DUP1 SLOAD DUP4 SWAP3 SWAP1 PUSH2 0x6DB SWAP1 DUP5 SWAP1 PUSH2 0xFE1 JUMP JUMPDEST SWAP1 SWAP2 SSTORE POP POP JUMPDEST PUSH1 0x0 DUP1 SLOAD PUSH32 0xF29C2F4A0AC8B177F1C72BBDF7CD3899630A10CE3626CC73671D98F682D574C0 SWAP2 PUSH1 0x1 PUSH1 0xB0 SHL SWAP1 SWAP2 DIV PUSH1 0xFF AND SWAP1 PUSH1 0x16 PUSH2 0x71E DUP4 PUSH2 0x1014 JUMP JUMPDEST SWAP2 SWAP1 PUSH2 0x100 EXP DUP2 SLOAD DUP2 PUSH1 0xFF MUL NOT AND SWAP1 DUP4 PUSH1 0xFF AND MUL OR SWAP1 SSTORE POP DUP7 PUSH1 0x4 DUP2 GT ISZERO PUSH2 0x748 JUMPI PUSH2 0x748 PUSH2 0xF47 JUMP JUMPDEST PUSH1 0x40 DUP1 MLOAD PUSH1 0xFF SWAP1 SWAP4 AND DUP4 MSTORE PUSH1 0x20 DUP4 ADD SWAP2 SWAP1 SWAP2 MSTORE ADD PUSH1 0x40 MLOAD DUP1 SWAP2 SUB SWAP1 LOG1 POP POP POP POP POP JUMP JUMPDEST CALLVALUE PUSH4 0x3B9ACA00 EQ PUSH2 0x7BE JUMPI PUSH1 0x40 MLOAD PUSH3 0x461BCD PUSH1 0xE5 SHL DUP2 MSTORE PUSH1 0x20 PUSH1 0x4 DUP3 ADD MSTORE PUSH1 0x17 PUSH1 0x24 DUP3 ADD MSTORE PUSH32 0x696E76616C69642066756E64732070726F766964656421000000000000000000 PUSH1 0x44 DUP3 ADD MSTORE PUSH1 0x64 ADD PUSH2 0x314 JUMP JUMPDEST PUSH1 0x4 SLOAD TIMESTAMP LT PUSH2 0x800 JUMPI PUSH1 0x40 MLOAD PUSH3 0x461BCD PUSH1 0xE5 SHL DUP2 MSTORE PUSH1 0x20 PUSH1 0x4 DUP3 ADD MSTORE PUSH1 0xE PUSH1 0x24 DUP3 ADD MSTORE PUSH14 0x6974277320616C6C206F76657221 PUSH1 0x90 SHL PUSH1 0x44 DUP3 ADD MSTORE PUSH1 0x64 ADD PUSH2 0x314 JUMP JUMPDEST PUSH1 0x0 DUP1 SLOAD PUSH1 0x1 PUSH1 0xB0 SHL SWAP1 DIV PUSH1 0xFF AND DUP2 MSTORE PUSH1 0x2 PUSH1 0x20 MSTORE PUSH1 0x40 DUP2 KECCAK256 SWAP1 DUP3 PUSH1 0x4 DUP2 GT ISZERO PUSH2 0x82C JUMPI PUSH2 0x82C PUSH2 0xF47 JUMP JUMPDEST PUSH1 0x4 DUP2 GT ISZERO PUSH2 0x83D JUMPI PUSH2 0x83D PUSH2 0xF47 JUMP JUMPDEST DUP2 MSTORE PUSH1 0x20 DUP1 DUP3 ADD SWAP3 SWAP1 SWAP3 MSTORE PUSH1 0x40 SWAP1 DUP2 ADD PUSH1 0x0 SWAP1 DUP2 KECCAK256 DUP1 SLOAD PUSH1 0x1 DUP2 DUP2 ADD DUP4 SSTORE SWAP2 DUP4 MSTORE DUP5 DUP4 KECCAK256 ADD DUP1 SLOAD PUSH1 0x1 PUSH1 0x1 PUSH1 0xA0 SHL SUB NOT AND CALLER SWAP1 DUP2 OR SWAP1 SWAP2 SSTORE DUP3 SLOAD PUSH1 0xFF PUSH1 0x1 PUSH1 0xB0 SHL SWAP1 SWAP2 DIV AND DUP4 MSTORE DUP2 DUP6 MSTORE DUP4 DUP4 KECCAK256 SWAP1 DUP4 MSTORE SWAP1 SWAP4 MSTORE SWAP1 DUP2 KECCAK256 SWAP2 SWAP1 DUP3 DUP3 ADD SWAP1 DUP5 PUSH1 0x4 DUP2 GT ISZERO PUSH2 0x8AB JUMPI PUSH2 0x8AB PUSH2 0xF47 JUMP JUMPDEST PUSH1 0x4 DUP2 GT ISZERO PUSH2 0x8BC JUMPI PUSH2 0x8BC PUSH2 0xF47 JUMP JUMPDEST DUP2 MSTORE PUSH1 0x20 ADD SWAP1 DUP2 MSTORE PUSH1 0x20 ADD PUSH1 0x0 KECCAK256 PUSH1 0x0 DUP3 DUP3 SLOAD PUSH2 0x8D9 SWAP2 SWAP1 PUSH2 0xFE1 JUMP JUMPDEST SWAP1 SWAP2 SSTORE POP POP PUSH1 0x0 SLOAD PUSH1 0x40 MLOAD PUSH32 0xED75611777BDA76F73E63B79A0B4B2F59DFB76A034FF90E9A4F204F414DADEF7 SWAP2 PUSH2 0x91F SWAP2 PUSH1 0x1 PUSH1 0xB0 SHL SWAP1 SWAP2 DIV PUSH1 0xFF AND SWAP1 CALLER SWAP1 DUP7 SWAP1 PUSH2 0x1034 JUMP JUMPDEST PUSH1 0x40 MLOAD DUP1 SWAP2 SUB SWAP1 LOG1 POP POP JUMP JUMPDEST PUSH1 0xFF DUP4 AND PUSH1 0x0 SWAP1 DUP2 MSTORE PUSH1 0x1 PUSH1 0x20 DUP2 DUP2 MSTORE PUSH1 0x40 DUP1 DUP5 KECCAK256 PUSH1 0x1 PUSH1 0x1 PUSH1 0xA0 SHL SUB DUP8 AND DUP6 MSTORE SWAP1 SWAP2 MSTORE DUP3 KECCAK256 ADD DUP2 DUP4 PUSH1 0x4 DUP2 GT ISZERO PUSH2 0x965 JUMPI PUSH2 0x965 PUSH2 0xF47 JUMP JUMPDEST PUSH1 0x4 DUP2 GT ISZERO PUSH2 0x976 JUMPI PUSH2 0x976 PUSH2 0xF47 JUMP JUMPDEST DUP2 MSTORE PUSH1 0x20 ADD SWAP1 DUP2 MSTORE PUSH1 0x20 ADD PUSH1 0x0 KECCAK256 SLOAD SWAP1 POP SWAP4 SWAP3 POP POP POP JUMP JUMPDEST CALLER PUSH1 0x0 SWAP1 DUP2 MSTORE PUSH1 0x3 PUSH1 0x20 MSTORE PUSH1 0x40 SWAP1 KECCAK256 SLOAD DUP1 PUSH2 0x9DF JUMPI PUSH1 0x40 MLOAD PUSH3 0x461BCD PUSH1 0xE5 SHL DUP2 MSTORE PUSH1 0x20 PUSH1 0x4 DUP3 ADD MSTORE PUSH1 0x11 PUSH1 0x24 DUP3 ADD MSTORE PUSH17 0x6E6F7468696E6720746F20636C61696D21 PUSH1 0x78 SHL PUSH1 0x44 DUP3 ADD MSTORE PUSH1 0x64 ADD PUSH2 0x314 JUMP JUMPDEST CALLER PUSH1 0x0 SWAP1 DUP2 MSTORE PUSH1 0x3 PUSH1 0x20 MSTORE PUSH1 0x40 DUP2 KECCAK256 DUP2 SWAP1 SSTORE PUSH1 0x5 DUP1 SLOAD DUP4 SWAP3 SWAP1 PUSH2 0xA03 SWAP1 DUP5 SWAP1 PUSH2 0xF73 JUMP JUMPDEST SWAP1 SWAP2 SSTORE POP POP PUSH1 0x40 MLOAD PUSH1 0x0 SWAP1 CALLER SWAP1 DUP4 SWAP1 DUP4 DUP2 DUP2 DUP2 DUP6 DUP8 GAS CALL SWAP3 POP POP POP RETURNDATASIZE DUP1 PUSH1 0x0 DUP2 EQ PUSH2 0xA4A JUMPI PUSH1 0x40 MLOAD SWAP2 POP PUSH1 0x1F NOT PUSH1 0x3F RETURNDATASIZE ADD AND DUP3 ADD PUSH1 0x40 MSTORE RETURNDATASIZE DUP3 MSTORE RETURNDATASIZE PUSH1 0x0 PUSH1 0x20 DUP5 ADD RETURNDATACOPY PUSH2 0xA4F JUMP JUMPDEST PUSH1 0x60 SWAP2 POP JUMPDEST POP POP SWAP1 POP DUP1 PUSH2 0xA97 JUMPI PUSH1 0x40 MLOAD PUSH3 0x461BCD PUSH1 0xE5 SHL DUP2 MSTORE PUSH1 0x20 PUSH1 0x4 DUP3 ADD MSTORE PUSH1 0x14 PUSH1 0x24 DUP3 ADD MSTORE PUSH20 0x636C61696D20726577617264206661696C656421 PUSH1 0x60 SHL PUSH1 0x44 DUP3 ADD MSTORE PUSH1 0x64 ADD PUSH2 0x314 JUMP JUMPDEST PUSH2 0xAC1 PUSH1 0x40 MLOAD DUP1 PUSH1 0x40 ADD PUSH1 0x40 MSTORE DUP1 PUSH1 0x8 DUP2 MSTORE PUSH1 0x20 ADD PUSH8 0x3932BBB0B932399D PUSH1 0xC1 SHL DUP2 MSTORE POP DUP4 PUSH2 0xDA1 JUMP JUMPDEST PUSH1 0x40 DUP1 MLOAD CALLER DUP2 MSTORE PUSH1 0x20 DUP2 ADD DUP5 SWAP1 MSTORE PUSH32 0xBA8DE60C3403EC381D1D484652EA1980E3C3E56359195C92525BFF4CE47AD98E SWAP2 ADD PUSH2 0x91F JUMP JUMPDEST PUSH1 0xFF DUP3 AND PUSH1 0x0 SWAP1 DUP2 MSTORE PUSH1 0x2 PUSH1 0x20 MSTORE PUSH1 0x40 DUP2 KECCAK256 DUP2 DUP4 PUSH1 0x4 DUP2 GT ISZERO PUSH2 0xB1C JUMPI PUSH2 0xB1C PUSH2 0xF47 JUMP JUMPDEST PUSH1 0x4 DUP2 GT ISZERO PUSH2 0xB2D JUMPI PUSH2 0xB2D PUSH2 0xF47 JUMP JUMPDEST DUP2 MSTORE PUSH1 0x20 DUP2 ADD SWAP2 SWAP1 SWAP2 MSTORE PUSH1 0x40 ADD PUSH1 0x0 KECCAK256 SLOAD SWAP4 SWAP3 POP POP POP JUMP JUMPDEST PUSH1 0x0 SLOAD PUSH2 0x100 SWAP1 DIV PUSH1 0xFF AND ISZERO DUP1 DUP1 ISZERO PUSH2 0xB65 JUMPI POP PUSH1 0x0 SLOAD PUSH1 0x1 PUSH1 0xFF SWAP1 SWAP2 AND LT JUMPDEST DUP1 PUSH2 0xB7F JUMPI POP ADDRESS EXTCODESIZE ISZERO DUP1 ISZERO PUSH2 0xB7F JUMPI POP PUSH1 0x0 SLOAD PUSH1 0xFF AND PUSH1 0x1 EQ JUMPDEST PUSH2 0xBE2 JUMPI PUSH1 0x40 MLOAD PUSH3 0x461BCD PUSH1 0xE5 SHL DUP2 MSTORE PUSH1 0x20 PUSH1 0x4 DUP3 ADD MSTORE PUSH1 0x2E PUSH1 0x24 DUP3 ADD MSTORE PUSH32 0x496E697469616C697A61626C653A20636F6E747261637420697320616C726561 PUSH1 0x44 DUP3 ADD MSTORE PUSH14 0x191E481A5B9A5D1A585B1A5E9959 PUSH1 0x92 SHL PUSH1 0x64 DUP3 ADD MSTORE PUSH1 0x84 ADD PUSH2 0x314 JUMP JUMPDEST PUSH1 0x0 DUP1 SLOAD PUSH1 0xFF NOT AND PUSH1 0x1 OR SWAP1 SSTORE DUP1 ISZERO PUSH2 0xC05 JUMPI PUSH1 0x0 DUP1 SLOAD PUSH2 0xFF00 NOT AND PUSH2 0x100 OR SWAP1 SSTORE JUMPDEST PUSH1 0x0 DUP1 SLOAD PUSH3 0x10000 PUSH1 0x1 PUSH1 0xB0 SHL SUB NOT AND CALLER PUSH3 0x10000 MUL OR SWAP1 SSTORE TIMESTAMP DUP3 GT PUSH2 0xC78 JUMPI PUSH1 0x40 MLOAD PUSH3 0x461BCD PUSH1 0xE5 SHL DUP2 MSTORE PUSH1 0x20 PUSH1 0x4 DUP3 ADD MSTORE PUSH1 0x22 PUSH1 0x24 DUP3 ADD MSTORE PUSH32 0x576F726C644375704C6F74746572793A20696E76616C696420646561646C696E PUSH1 0x44 DUP3 ADD MSTORE PUSH2 0x6521 PUSH1 0xF0 SHL PUSH1 0x64 DUP3 ADD MSTORE PUSH1 0x84 ADD PUSH2 0x314 JUMP JUMPDEST PUSH1 0x4 DUP3 SWAP1 SSTORE DUP1 ISZERO PUSH2 0xCBF JUMPI PUSH1 0x0 DUP1 SLOAD PUSH2 0xFF00 NOT AND SWAP1 SSTORE PUSH1 0x40 MLOAD PUSH1 0x1 DUP2 MSTORE PUSH32 0x7F26B83FF96E1F2B6A682F133852F6798A09C465DA95921460CEFB3847402498 SWAP1 PUSH1 0x20 ADD PUSH2 0x91F JUMP JUMPDEST POP POP JUMP JUMPDEST PUSH2 0xD0C DUP5 DUP5 DUP5 DUP5 PUSH1 0x40 MLOAD PUSH1 0x24 ADD PUSH2 0xCDD SWAP5 SWAP4 SWAP3 SWAP2 SWAP1 PUSH2 0x10C6 JUMP JUMPDEST PUSH1 0x40 DUP1 MLOAD PUSH1 0x1F NOT DUP2 DUP5 SUB ADD DUP2 MSTORE SWAP2 SWAP1 MSTORE PUSH1 0x20 DUP2 ADD DUP1 MLOAD PUSH1 0x1 PUSH1 0x1 PUSH1 0xE0 SHL SUB AND PUSH4 0xC67EA9D1 PUSH1 0xE0 SHL OR SWAP1 MSTORE PUSH2 0xDE2 JUMP JUMPDEST POP POP POP POP JUMP JUMPDEST PUSH2 0xD55 DUP2 PUSH1 0x40 MLOAD PUSH1 0x24 ADD PUSH2 0xD26 SWAP2 SWAP1 PUSH2 0x1103 JUMP JUMPDEST PUSH1 0x40 DUP1 MLOAD PUSH1 0x1F NOT DUP2 DUP5 SUB ADD DUP2 MSTORE SWAP2 SWAP1 MSTORE PUSH1 0x20 DUP2 ADD DUP1 MLOAD PUSH1 0x1 PUSH1 0x1 PUSH1 0xE0 SHL SUB AND PUSH4 0x104C13EB PUSH1 0xE2 SHL OR SWAP1 MSTORE PUSH2 0xDE2 JUMP JUMPDEST POP JUMP JUMPDEST PUSH2 0xD0C DUP5 DUP5 DUP5 DUP5 PUSH1 0x40 MLOAD PUSH1 0x24 ADD PUSH2 0xD72 SWAP5 SWAP4 SWAP3 SWAP2 SWAP1 PUSH2 0x1116 JUMP JUMPDEST PUSH1 0x40 DUP1 MLOAD PUSH1 0x1F NOT DUP2 DUP5 SUB ADD DUP2 MSTORE SWAP2 SWAP1 MSTORE PUSH1 0x20 DUP2 ADD DUP1 MLOAD PUSH1 0x1 PUSH1 0x1 PUSH1 0xE0 SHL SUB AND PUSH4 0x48E88897 PUSH1 0xE1 SHL OR SWAP1 MSTORE PUSH2 0xDE2 JUMP JUMPDEST PUSH2 0xCBF DUP3 DUP3 PUSH1 0x40 MLOAD PUSH1 0x24 ADD PUSH2 0xDB7 SWAP3 SWAP2 SWAP1 PUSH2 0x114A JUMP JUMPDEST PUSH1 0x40 DUP1 MLOAD PUSH1 0x1F NOT DUP2 DUP5 SUB ADD DUP2 MSTORE SWAP2 SWAP1 MSTORE PUSH1 0x20 DUP2 ADD DUP1 MLOAD PUSH1 0x1 PUSH1 0x1 PUSH1 0xE0 SHL SUB AND PUSH4 0x2D839CB3 PUSH1 0xE2 SHL OR SWAP1 MSTORE JUMPDEST DUP1 MLOAD PUSH11 0x636F6E736F6C652E6C6F67 PUSH1 0x20 DUP4 ADD PUSH1 0x0 DUP1 DUP5 DUP4 DUP6 GAS STATICCALL POP POP POP POP POP JUMP JUMPDEST DUP1 CALLDATALOAD PUSH1 0xFF DUP2 AND DUP2 EQ PUSH2 0xE14 JUMPI PUSH1 0x0 DUP1 REVERT JUMPDEST SWAP2 SWAP1 POP JUMP JUMPDEST DUP1 CALLDATALOAD PUSH1 0x5 DUP2 LT PUSH2 0xE14 JUMPI PUSH1 0x0 DUP1 REVERT JUMPDEST PUSH1 0x0 DUP1 PUSH1 0x0 PUSH1 0x60 DUP5 DUP7 SUB SLT ISZERO PUSH2 0xE3D JUMPI PUSH1 0x0 DUP1 REVERT JUMPDEST PUSH2 0xE46 DUP5 PUSH2 0xE03 JUMP JUMPDEST SWAP3 POP PUSH2 0xE54 PUSH1 0x20 DUP6 ADD PUSH2 0xE19 JUMP JUMPDEST SWAP2 POP PUSH1 0x40 DUP5 ADD CALLDATALOAD SWAP1 POP SWAP3 POP SWAP3 POP SWAP3 JUMP JUMPDEST DUP1 CALLDATALOAD PUSH1 0x1 PUSH1 0x1 PUSH1 0xA0 SHL SUB DUP2 AND DUP2 EQ PUSH2 0xE14 JUMPI PUSH1 0x0 DUP1 REVERT JUMPDEST PUSH1 0x0 PUSH1 0x20 DUP3 DUP5 SUB SLT ISZERO PUSH2 0xE8D JUMPI PUSH1 0x0 DUP1 REVERT JUMPDEST PUSH2 0xE96 DUP3 PUSH2 0xE64 JUMP JUMPDEST SWAP4 SWAP3 POP POP POP JUMP JUMPDEST PUSH1 0x0 PUSH1 0x20 DUP3 DUP5 SUB SLT ISZERO PUSH2 0xEAF JUMPI PUSH1 0x0 DUP1 REVERT JUMPDEST PUSH2 0xE96 DUP3 PUSH2 0xE19 JUMP JUMPDEST PUSH1 0x0 DUP1 PUSH1 0x0 PUSH1 0x60 DUP5 DUP7 SUB SLT ISZERO PUSH2 0xECD JUMPI PUSH1 0x0 DUP1 REVERT JUMPDEST PUSH2 0xED6 DUP5 PUSH2 0xE03 JUMP JUMPDEST SWAP3 POP PUSH2 0xEE4 PUSH1 0x20 DUP6 ADD PUSH2 0xE64 JUMP JUMPDEST SWAP2 POP PUSH2 0xEF2 PUSH1 0x40 DUP6 ADD PUSH2 0xE19 JUMP JUMPDEST SWAP1 POP SWAP3 POP SWAP3 POP SWAP3 JUMP JUMPDEST PUSH1 0x0 DUP1 PUSH1 0x40 DUP4 DUP6 SUB SLT ISZERO PUSH2 0xF0E JUMPI PUSH1 0x0 DUP1 REVERT JUMPDEST PUSH2 0xF17 DUP4 PUSH2 0xE03 JUMP JUMPDEST SWAP2 POP PUSH2 0xF25 PUSH1 0x20 DUP5 ADD PUSH2 0xE19 JUMP JUMPDEST SWAP1 POP SWAP3 POP SWAP3 SWAP1 POP JUMP JUMPDEST PUSH1 0x0 PUSH1 0x20 DUP3 DUP5 SUB SLT ISZERO PUSH2 0xF40 JUMPI PUSH1 0x0 DUP1 REVERT JUMPDEST POP CALLDATALOAD SWAP2 SWAP1 POP JUMP JUMPDEST PUSH4 0x4E487B71 PUSH1 0xE0 SHL PUSH1 0x0 MSTORE PUSH1 0x21 PUSH1 0x4 MSTORE PUSH1 0x24 PUSH1 0x0 REVERT JUMPDEST PUSH4 0x4E487B71 PUSH1 0xE0 SHL PUSH1 0x0 MSTORE PUSH1 0x11 PUSH1 0x4 MSTORE PUSH1 0x24 PUSH1 0x0 REVERT JUMPDEST PUSH1 0x0 DUP3 DUP3 LT ISZERO PUSH2 0xF85 JUMPI PUSH2 0xF85 PUSH2 0xF5D JUMP JUMPDEST POP SUB SWAP1 JUMP JUMPDEST PUSH4 0x4E487B71 PUSH1 0xE0 SHL PUSH1 0x0 MSTORE PUSH1 0x32 PUSH1 0x4 MSTORE PUSH1 0x24 PUSH1 0x0 REVERT JUMPDEST PUSH1 0x0 DUP3 PUSH2 0xFBD JUMPI PUSH4 0x4E487B71 PUSH1 0xE0 SHL PUSH1 0x0 MSTORE PUSH1 0x12 PUSH1 0x4 MSTORE PUSH1 0x24 PUSH1 0x0 REVERT JUMPDEST POP DIV SWAP1 JUMP JUMPDEST PUSH1 0x0 DUP2 PUSH1 0x0 NOT DIV DUP4 GT DUP3 ISZERO ISZERO AND ISZERO PUSH2 0xFDC JUMPI PUSH2 0xFDC PUSH2 0xF5D JUMP JUMPDEST POP MUL SWAP1 JUMP JUMPDEST PUSH1 0x0 DUP3 NOT DUP3 GT ISZERO PUSH2 0xFF4 JUMPI PUSH2 0xFF4 PUSH2 0xF5D JUMP JUMPDEST POP ADD SWAP1 JUMP JUMPDEST PUSH1 0x0 PUSH1 0x0 NOT DUP3 EQ ISZERO PUSH2 0x100D JUMPI PUSH2 0x100D PUSH2 0xF5D JUMP JUMPDEST POP PUSH1 0x1 ADD SWAP1 JUMP JUMPDEST PUSH1 0x0 PUSH1 0xFF DUP3 AND PUSH1 0xFF DUP2 EQ ISZERO PUSH2 0x102B JUMPI PUSH2 0x102B PUSH2 0xF5D JUMP JUMPDEST PUSH1 0x1 ADD SWAP3 SWAP2 POP POP JUMP JUMPDEST PUSH1 0xFF DUP5 AND DUP2 MSTORE PUSH1 0x1 PUSH1 0x1 PUSH1 0xA0 SHL SUB DUP4 AND PUSH1 0x20 DUP3 ADD MSTORE PUSH1 0x60 DUP2 ADD PUSH1 0x5 DUP4 LT PUSH2 0x106B JUMPI PUSH4 0x4E487B71 PUSH1 0xE0 SHL PUSH1 0x0 MSTORE PUSH1 0x21 PUSH1 0x4 MSTORE PUSH1 0x24 PUSH1 0x0 REVERT JUMPDEST DUP3 PUSH1 0x40 DUP4 ADD MSTORE SWAP5 SWAP4 POP POP POP POP JUMP JUMPDEST PUSH1 0x0 DUP2 MLOAD DUP1 DUP5 MSTORE PUSH1 0x0 JUMPDEST DUP2 DUP2 LT ISZERO PUSH2 0x109F JUMPI PUSH1 0x20 DUP2 DUP6 ADD DUP2 ADD MLOAD DUP7 DUP4 ADD DUP3 ADD MSTORE ADD PUSH2 0x1083 JUMP JUMPDEST DUP2 DUP2 GT ISZERO PUSH2 0x10B1 JUMPI PUSH1 0x0 PUSH1 0x20 DUP4 DUP8 ADD ADD MSTORE JUMPDEST POP PUSH1 0x1F ADD PUSH1 0x1F NOT AND SWAP3 SWAP1 SWAP3 ADD PUSH1 0x20 ADD SWAP3 SWAP2 POP POP JUMP JUMPDEST PUSH1 0x80 DUP2 MSTORE PUSH1 0x0 PUSH2 0x10D9 PUSH1 0x80 DUP4 ADD DUP8 PUSH2 0x1079 JUMP JUMPDEST DUP6 PUSH1 0x20 DUP5 ADD MSTORE DUP3 DUP2 SUB PUSH1 0x40 DUP5 ADD MSTORE PUSH2 0x10F1 DUP2 DUP7 PUSH2 0x1079 JUMP JUMPDEST SWAP2 POP POP DUP3 PUSH1 0x60 DUP4 ADD MSTORE SWAP6 SWAP5 POP POP POP POP POP JUMP JUMPDEST PUSH1 0x20 DUP2 MSTORE PUSH1 0x0 PUSH2 0xE96 PUSH1 0x20 DUP4 ADD DUP5 PUSH2 0x1079 JUMP JUMPDEST PUSH1 0x80 DUP2 MSTORE PUSH1 0x0 PUSH2 0x1129 PUSH1 0x80 DUP4 ADD DUP8 PUSH2 0x1079 JUMP JUMPDEST PUSH1 0x1 PUSH1 0x1 PUSH1 0xA0 SHL SUB DUP7 AND PUSH1 0x20 DUP5 ADD MSTORE DUP3 DUP2 SUB PUSH1 0x40 DUP5 ADD MSTORE PUSH2 0x10F1 DUP2 DUP7 PUSH2 0x1079 JUMP JUMPDEST PUSH1 0x40 DUP2 MSTORE PUSH1 0x0 PUSH2 0x115D PUSH1 0x40 DUP4 ADD DUP6 PUSH2 0x1079 JUMP JUMPDEST SWAP1 POP DUP3 PUSH1 0x20 DUP4 ADD MSTORE SWAP4 SWAP3 POP POP POP JUMP INVALID PUSH21 0x6869732077696E6E657220686173206265656E2073 PUSH6 0x7420616C7265 PUSH2 0x6479 0x2C KECCAK256 PUSH24 0x696C6C20626520736B697070656421A26469706673582212 KECCAK256 STATICCALL 0xC9 JUMP DUP14 0xB5 0x2E 0xF7 0xEA LOG3 DUP5 0xC3 0xB7 0xC4 0xDA PUSH15 0xB22603BFAF1C6ABB1709A112F2EBB LOG0 PUSH12 0x64736F6C6343000809003300 "},"methodIdentifiers":{"admin()":"f851a440","claimReward()":"b88a802f","countryToPlayers(uint8,uint8,uint256)":"0fa68115","currRound()":"3f5d8056","deadline()":"29dcb0cf","finialize(uint8)":"34bf6d01","getCountryPlayters(uint8,uint8)":"c4864f57","getPlayerInfo(uint8,address,uint8)":"ada2ac38","getVaultBalance()":"ed12e8ef","initialize(uint256)":"fe4b84df","lockedAmts()":"28655c5b","play(uint8)":"53a04b05","winnerVaults(address)":"34330586"}},"storageLayout":{"storage":[{"astId":6,"contract":"contracts/upgrade/WorldCupV1.sol:WorldCupV1","label":"_initialized","offset":0,"slot":"0","type":"t_uint8"},{"astId":9,"contract":"contracts/upgrade/WorldCupV1.sol:WorldCupV1","label":"_initializing","offset":1,"slot":"0","type":"t_bool"},{"astId":460,"contract":"contracts/upgrade/WorldCupV1.sol:WorldCupV1","label":"admin","offset":2,"slot":"0","type":"t_address"},{"astId":462,"contract":"contracts/upgrade/WorldCupV1.sol:WorldCupV1","label":"currRound","offset":22,"slot":"0","type":"t_uint8"},{"astId":469,"contract":"contracts/upgrade/WorldCupV1.sol:WorldCupV1","label":"players","offset":0,"slot":"1","type":"t_mapping(t_uint8,t_mapping(t_address,t_struct(Player)532_storage))"},{"astId":477,"contract":"contracts/upgrade/WorldCupV1.sol:WorldCupV1","label":"countryToPlayers","offset":0,"slot":"2","type":"t_mapping(t_uint8,t_mapping(t_enum(Country)491,t_array(t_address)dyn_storage))"},{"astId":481,"contract":"contracts/upgrade/WorldCupV1.sol:WorldCupV1","label":"winnerVaults","offset":0,"slot":"3","type":"t_mapping(t_address,t_uint256)"},{"astId":483,"contract":"contracts/upgrade/WorldCupV1.sol:WorldCupV1","label":"deadline","offset":0,"slot":"4","type":"t_uint256"},{"astId":485,"contract":"contracts/upgrade/WorldCupV1.sol:WorldCupV1","label":"lockedAmts","offset":0,"slot":"5","type":"t_uint256"}],"types":{"t_address":{"encoding":"inplace","label":"address","numberOfBytes":"20"},"t_array(t_address)dyn_storage":{"base":"t_address","encoding":"dynamic_array","label":"address[]","numberOfBytes":"32"},"t_bool":{"encoding":"inplace","label":"bool","numberOfBytes":"1"},"t_enum(Country)491":{"encoding":"inplace","label":"enum WorldCupV1.Country","numberOfBytes":"1"},"t_mapping(t_address,t_struct(Player)532_storage)":{"encoding":"mapping","key":"t_address","label":"mapping(address => struct WorldCupV1.Player)","numberOfBytes":"32","value":"t_struct(Player)532_storage"},"t_mapping(t_address,t_uint256)":{"encoding":"mapping","key":"t_address","label":"mapping(address => uint256)","numberOfBytes":"32","value":"t_uint256"},"t_mapping(t_enum(Country)491,t_array(t_address)dyn_storage)":{"encoding":"mapping","key":"t_enum(Country)491","label":"mapping(enum WorldCupV1.Country => address[])","numberOfBytes":"32","value":"t_array(t_address)dyn_storage"},"t_mapping(t_enum(Country)491,t_uint256)":{"encoding":"mapping","key":"t_enum(Country)491","label":"mapping(enum WorldCupV1.Country => uint256)","numberOfBytes":"32","value":"t_uint256"},"t_mapping(t_uint8,t_mapping(t_address,t_struct(Player)532_storage))":{"encoding":"mapping","key":"t_uint8","label":"mapping(uint8 => mapping(address => struct WorldCupV1.Player))","numberOfBytes":"32","value":"t_mapping(t_address,t_struct(Player)532_storage)"},"t_mapping(t_uint8,t_mapping(t_enum(Country)491,t_array(t_address)dyn_storage))":{"encoding":"mapping","key":"t_uint8","label":"mapping(uint8 => mapping(enum WorldCupV1.Country => address[]))","numberOfBytes":"32","value":"t_mapping(t_enum(Country)491,t_array(t_address)dyn_storage)"},"t_struct(Player)532_storage":{"encoding":"inplace","label":"struct WorldCupV1.Player","members":[{"astId":526,"contract":"contracts/upgrade/WorldCupV1.sol:WorldCupV1","label":"isSet","offset":0,"slot":"0","type":"t_bool"},{"astId":531,"contract":"contracts/upgrade/WorldCupV1.sol:WorldCupV1","label":"counts","offset":0,"slot":"1","type":"t_mapping(t_enum(Country)491,t_uint256)"}],"numberOfBytes":"64"},"t_uint256":{"encoding":"inplace","label":"uint256","numberOfBytes":"32"},"t_uint8":{"encoding":"inplace","label":"uint8","numberOfBytes":"1"}}}}}}