{"contracts/upgrade/WorldCupV2.sol":{"WorldCupV2":{"abi":[{"anonymous":false,"inputs":[{"indexed":false,"internalType":"uint256","name":"_prev","type":"uint256"},{"indexed":false,"internalType":"uint256","name":"_newDeadline","type":"uint256"}],"name":"ChangeDeadline","type":"event"},{"anonymous":false,"inputs":[{"indexed":false,"internalType":"address","name":"_claimer","type":"address"},{"indexed":false,"internalType":"uint256","name":"_amt","type":"uint256"}],"name":"ClaimReward","type":"event"},{"anonymous":false,"inputs":[{"indexed":false,"internalType":"uint8","name":"_currRound","type":"uint8"},{"indexed":false,"internalType":"uint256","name":"_country","type":"uint256"}],"name":"Finialize","type":"event"},{"anonymous":false,"inputs":[{"indexed":false,"internalType":"uint8","name":"version","type":"uint8"}],"name":"Initialized","type":"event"},{"anonymous":false,"inputs":[{"indexed":false,"internalType":"uint8","name":"_currRound","type":"uint8"},{"indexed":false,"internalType":"address","name":"_player","type":"address"},{"indexed":false,"internalType":"enum WorldCupV2.Country","name":"_country","type":"uint8"}],"name":"Play","type":"event"},{"inputs":[],"name":"admin","outputs":[{"internalType":"address","name":"","type":"address"}],"stateMutability":"view","type":"function"},{"inputs":[],"name":"changeCount","outputs":[{"internalType":"uint256","name":"","type":"uint256"}],"stateMutability":"view","type":"function"},{"inputs":[{"internalType":"uint256","name":"_newDeadline","type":"uint256"}],"name":"changeDeadline","outputs":[],"stateMutability":"nonpayable","type":"function"},{"inputs":[],"name":"claimReward","outputs":[],"stateMutability":"nonpayable","type":"function"},{"inputs":[{"internalType":"uint8","name":"","type":"uint8"},{"internalType":"enum WorldCupV2.Country","name":"","type":"uint8"},{"internalType":"uint256","name":"","type":"uint256"}],"name":"countryToPlayers","outputs":[{"internalType":"address","name":"","type":"address"}],"stateMutability":"view","type":"function"},{"inputs":[],"name":"currRound","outputs":[{"internalType":"uint8","name":"","type":"uint8"}],"stateMutability":"view","type":"function"},{"inputs":[],"name":"deadline","outputs":[{"internalType":"uint256","name":"","type":"uint256"}],"stateMutability":"view","type":"function"},{"inputs":[{"internalType":"enum WorldCupV2.Country","name":"_country","type":"uint8"}],"name":"finialize","outputs":[],"stateMutability":"nonpayable","type":"function"},{"inputs":[{"internalType":"uint8","name":"_round","type":"uint8"},{"internalType":"enum WorldCupV2.Country","name":"_country","type":"uint8"}],"name":"getCountryPlayters","outputs":[{"internalType":"uint256","name":"","type":"uint256"}],"stateMutability":"view","type":"function"},{"inputs":[{"internalType":"uint8","name":"_round","type":"uint8"},{"internalType":"address","name":"_player","type":"address"},{"internalType":"enum WorldCupV2.Country","name":"_country","type":"uint8"}],"name":"getPlayerInfo","outputs":[{"internalType":"uint256","name":"_counts","type":"uint256"}],"stateMutability":"view","type":"function"},{"inputs":[],"name":"getVaultBalance","outputs":[{"internalType":"uint256","name":"bal","type":"uint256"}],"stateMutability":"view","type":"function"},{"inputs":[{"internalType":"uint256","name":"_deadline","type":"uint256"}],"name":"initialize","outputs":[],"stateMutability":"nonpayable","type":"function"},{"inputs":[],"name":"lockedAmts","outputs":[{"internalType":"uint256","name":"","type":"uint256"}],"stateMutability":"view","type":"function"},{"inputs":[{"internalType":"enum WorldCupV2.Country","name":"_selected","type":"uint8"}],"name":"play","outputs":[],"stateMutability":"payable","type":"function"},{"inputs":[{"internalType":"address","name":"","type":"address"}],"name":"winnerVaults","outputs":[{"internalType":"uint256","name":"","type":"uint256"}],"stateMutability":"view","type":"function"}],"evm":{"bytecode":{"linkReferences":{},"object":"608060405234801561001057600080fd5b506112ca806100206000396000f3fe6080604052600436106100e85760003560e01c80637aca97b51161008a578063ed12e8ef11610059578063ed12e8ef1461026e578063f35f644714610281578063f851a44014610297578063fe4b84df146102bd57600080fd5b80637aca97b5146101f9578063ada2ac3814610219578063b88a802f14610239578063c4864f571461024e57600080fd5b806334330586116100c6578063343305861461016457806334bf6d01146101915780633f5d8056146101b357806353a04b05146101e657600080fd5b80630fa68115146100ed57806328655c5b1461012a57806329dcb0cf1461014e575b600080fd5b3480156100f957600080fd5b5061010d610108366004610f1e565b6102dd565b6040516001600160a01b0390911681526020015b60405180910390f35b34801561013657600080fd5b5061014060055481565b604051908152602001610121565b34801561015a57600080fd5b5061014060045481565b34801561017057600080fd5b5061014061017f366004610f71565b60036020526000908152604090205481565b34801561019d57600080fd5b506101b16101ac366004610f93565b610322565b005b3480156101bf57600080fd5b506000546101d490600160b01b900460ff1681565b60405160ff9091168152602001610121565b6101b16101f4366004610f93565b6107c7565b34801561020557600080fd5b506101b1610214366004610fae565b610987565b34801561022557600080fd5b50610140610234366004610fc7565b610a21565b34801561024557600080fd5b506101b1610a84565b34801561025a57600080fd5b5061014061026936600461100a565b610bed565b34801561027a57600080fd5b5047610140565b34801561028d57600080fd5b5061014060065481565b3480156102a357600080fd5b5060005461010d906201000090046001600160a01b031681565b3480156102c957600080fd5b506101b16102d8366004610fae565b610c3b565b6002602052826000526040600020602052816000526040600020818154811061030557600080fd5b6000918252602090912001546001600160a01b0316925083915050565b6000546201000090046001600160a01b031633146103795760405162461bcd60e51b815260206004820152600f60248201526e6e6f7420617574686f72697a65642160881b60448201526064015b60405180910390fd5b60008054600160b01b900460ff168152600260205260408120818360048111156103a5576103a561103d565b60048111156103b6576103b661103d565b815260200190815260200160002080548060200260200160405190810160405280929190818152602001828054801561041857602002820191906000526020600020905b81546001600160a01b031681526001909101906020018083116103fa575b5050505050905060008060055461042c4790565b6104369190611069565b90506104936040518060400160405280601081526020016f31bab93920bb30b62130b630b731b29d60811b815250826040518060400160405280600e81526020016d3bb4b73732b9399031b7bab73a1d60911b8152508651610db9565b60005b83518110156106f45760008482815181106104b3576104b3611080565b6020908102919091018101516000805460ff600160b01b909104811682526001845260408083206001600160a01b038516845290945292902080549193509116156105205761051960405180606001604052806032815260200161126360329139610e08565b50506106e2565b805460ff1916600190811782556000908201818960048111156105455761054561103d565b60048111156105565761055661103d565b815260208082019290925260409081016000908120548154600160b01b900460ff1682526002909352908120919250908290828b600481111561059b5761059b61103d565b60048111156105ac576105ac61103d565b81526020810191909152604001600020546105c79088611096565b6105d191906110b8565b6001600160a01b0385166000908152600360205260408120805492935083929091906105fe9084906110d7565b9091555061060e905081886110d7565b9650806005600082825461062291906110d7565b92505081905550610677604051806040016040528060078152602001663bb4b73732b91d60c91b815250856040518060400160405280600b81526020016a31bab93921b7bab73a399d60a91b81525085610e4e565b604080518082018252601081526f3932bbb0b9321030b6ba1031bab9391d60811b6020808301919091528251808401845260068152653a37ba30b61d60d11b818301526001600160a01b03881660009081526003909252929020546106dd928491610db9565b505050505b806106ec816110ef565b915050610496565b5060006107018383611069565b9050801561073d57600080546201000090046001600160a01b0316815260036020526040812080548392906107379084906110d7565b90915550505b600080547ff29c2f4a0ac8b177f1c72bbdf7cd3899630a10ce3626cc73671d98f682d574c091600160b01b90910460ff1690601661077a8361110a565b91906101000a81548160ff021916908360ff1602179055508660048111156107a4576107a461103d565b6040805160ff909316835260208301919091520160405180910390a15050505050565b34633b9aca001461081a5760405162461bcd60e51b815260206004820152601760248201527f696e76616c69642066756e64732070726f7669646564210000000000000000006044820152606401610370565b600454421061085c5760405162461bcd60e51b815260206004820152600e60248201526d6974277320616c6c206f7665722160901b6044820152606401610370565b60008054600160b01b900460ff168152600260205260408120908260048111156108885761088861103d565b60048111156108995761089961103d565b8152602080820192909252604090810160009081208054600181810183559183528483200180546001600160a01b03191633908117909155825460ff600160b01b9091041683528185528383209083529093529081209190828201908460048111156109075761090761103d565b60048111156109185761091861103d565b8152602001908152602001600020600082825461093591906110d7565b90915550506000546040517fed75611777bda76f73e63b79a0b4b2f59dfb76a034ff90e9a4f204f414dadef79161097b91600160b01b90910460ff16903390869061112a565b60405180910390a15050565b4281116109cb5760405162461bcd60e51b8152602060048201526012602482015271696e76616c69642074696d657374616d702160701b6044820152606401610370565b60045460408051918252602082018390527f971a644aa91b5d500f684dc15814182ae5e2c3d047bb2ef0247c63bbcd8b378c910160405180910390a160068054906000610a17836110ef565b9091555050600455565b60ff831660009081526001602081815260408084206001600160a01b038716855290915282200181836004811115610a5b57610a5b61103d565b6004811115610a6c57610a6c61103d565b81526020019081526020016000205490509392505050565b3360009081526003602052604090205480610ad55760405162461bcd60e51b81526020600482015260116024820152706e6f7468696e6720746f20636c61696d2160781b6044820152606401610370565b33600090815260036020526040812081905560058054839290610af9908490611069565b9091555050604051600090339083908381818185875af1925050503d8060008114610b40576040519150601f19603f3d011682016040523d82523d6000602084013e610b45565b606091505b5050905080610b8d5760405162461bcd60e51b8152602060048201526014602482015273636c61696d20726577617264206661696c65642160601b6044820152606401610370565b610bb7604051806040016040528060088152602001673932bbb0b932399d60c11b81525083610e97565b60408051338152602081018490527fba8de60c3403ec381d1d484652ea1980e3c3e56359195c92525bff4ce47ad98e910161097b565b60ff8216600090815260026020526040812081836004811115610c1257610c1261103d565b6004811115610c2357610c2361103d565b81526020810191909152604001600020549392505050565b600054610100900460ff1615808015610c5b5750600054600160ff909116105b80610c755750303b158015610c75575060005460ff166001145b610cd85760405162461bcd60e51b815260206004820152602e60248201527f496e697469616c697a61626c653a20636f6e747261637420697320616c72656160448201526d191e481a5b9a5d1a585b1a5e995960921b6064820152608401610370565b6000805460ff191660011790558015610cfb576000805461ff0019166101001790555b6000805462010000600160b01b031916336201000002179055428211610d6e5760405162461bcd60e51b815260206004820152602260248201527f576f726c644375704c6f74746572793a20696e76616c696420646561646c696e604482015261652160f01b6064820152608401610370565b60048290558015610db5576000805461ff0019169055604051600181527f7f26b83ff96e1f2b6a682f133852f6798a09c465da95921460cefb38474024989060200161097b565b5050565b610e0284848484604051602401610dd394939291906111bc565b60408051601f198184030181529190526020810180516001600160e01b031663c67ea9d160e01b179052610ed8565b50505050565b610e4b81604051602401610e1c91906111f9565b60408051601f198184030181529190526020810180516001600160e01b031663104c13eb60e21b179052610ed8565b50565b610e0284848484604051602401610e68949392919061120c565b60408051601f198184030181529190526020810180516001600160e01b03166348e8889760e11b179052610ed8565b610db58282604051602401610ead929190611240565b60408051601f198184030181529190526020810180516001600160e01b0316632d839cb360e21b1790525b80516a636f6e736f6c652e6c6f67602083016000808483855afa5050505050565b803560ff81168114610f0a57600080fd5b919050565b803560058110610f0a57600080fd5b600080600060608486031215610f3357600080fd5b610f3c84610ef9565b9250610f4a60208501610f0f565b9150604084013590509250925092565b80356001600160a01b0381168114610f0a57600080fd5b600060208284031215610f8357600080fd5b610f8c82610f5a565b9392505050565b600060208284031215610fa557600080fd5b610f8c82610f0f565b600060208284031215610fc057600080fd5b5035919050565b600080600060608486031215610fdc57600080fd5b610fe584610ef9565b9250610ff360208501610f5a565b915061100160408501610f0f565b90509250925092565b6000806040838503121561101d57600080fd5b61102683610ef9565b915061103460208401610f0f565b90509250929050565b634e487b7160e01b600052602160045260246000fd5b634e487b7160e01b600052601160045260246000fd5b60008282101561107b5761107b611053565b500390565b634e487b7160e01b600052603260045260246000fd5b6000826110b357634e487b7160e01b600052601260045260246000fd5b500490565b60008160001904831182151516156110d2576110d2611053565b500290565b600082198211156110ea576110ea611053565b500190565b600060001982141561110357611103611053565b5060010190565b600060ff821660ff81141561112157611121611053565b60010192915050565b60ff841681526001600160a01b0383166020820152606081016005831061116157634e487b7160e01b600052602160045260246000fd5b826040830152949350505050565b6000815180845260005b8181101561119557602081850181015186830182015201611179565b818111156111a7576000602083870101525b50601f01601f19169290920160200192915050565b6080815260006111cf608083018761116f565b85602084015282810360408401526111e7818661116f565b91505082606083015295945050505050565b602081526000610f8c602083018461116f565b60808152600061121f608083018761116f565b6001600160a01b038616602084015282810360408401526111e7818661116f565b604081526000611253604083018561116f565b9050826020830152939250505056fe746869732077696e6e657220686173206265656e2073657420616c72656164792c2077696c6c20626520736b697070656421a2646970667358221220c68db4c6d47232a1922c7abe74238faff6365715c356805590f142fd1643473964736f6c63430008090033","opcodes":"PUSH1 0x80 PUSH1 0x40 MSTORE CALLVALUE DUP1 ISZERO PUSH2 0x10 JUMPI PUSH1 0x0 DUP1 REVERT JUMPDEST POP PUSH2 0x12CA DUP1 PUSH2 0x20 PUSH1 0x0 CODECOPY PUSH1 0x0 RETURN INVALID PUSH1 0x80 PUSH1 0x40 MSTORE PUSH1 0x4 CALLDATASIZE LT PUSH2 0xE8 JUMPI PUSH1 0x0 CALLDATALOAD PUSH1 0xE0 SHR DUP1 PUSH4 0x7ACA97B5 GT PUSH2 0x8A JUMPI DUP1 PUSH4 0xED12E8EF GT PUSH2 0x59 JUMPI DUP1 PUSH4 0xED12E8EF EQ PUSH2 0x26E JUMPI DUP1 PUSH4 0xF35F6447 EQ PUSH2 0x281 JUMPI DUP1 PUSH4 0xF851A440 EQ PUSH2 0x297 JUMPI DUP1 PUSH4 0xFE4B84DF EQ PUSH2 0x2BD JUMPI PUSH1 0x0 DUP1 REVERT JUMPDEST DUP1 PUSH4 0x7ACA97B5 EQ PUSH2 0x1F9 JUMPI DUP1 PUSH4 0xADA2AC38 EQ PUSH2 0x219 JUMPI DUP1 PUSH4 0xB88A802F EQ PUSH2 0x239 JUMPI DUP1 PUSH4 0xC4864F57 EQ PUSH2 0x24E JUMPI PUSH1 0x0 DUP1 REVERT JUMPDEST DUP1 PUSH4 0x34330586 GT PUSH2 0xC6 JUMPI DUP1 PUSH4 0x34330586 EQ PUSH2 0x164 JUMPI DUP1 PUSH4 0x34BF6D01 EQ PUSH2 0x191 JUMPI DUP1 PUSH4 0x3F5D8056 EQ PUSH2 0x1B3 JUMPI DUP1 PUSH4 0x53A04B05 EQ PUSH2 0x1E6 JUMPI PUSH1 0x0 DUP1 REVERT JUMPDEST DUP1 PUSH4 0xFA68115 EQ PUSH2 0xED JUMPI DUP1 PUSH4 0x28655C5B EQ PUSH2 0x12A JUMPI DUP1 PUSH4 0x29DCB0CF EQ PUSH2 0x14E JUMPI JUMPDEST PUSH1 0x0 DUP1 REVERT JUMPDEST CALLVALUE DUP1 ISZERO PUSH2 0xF9 JUMPI PUSH1 0x0 DUP1 REVERT JUMPDEST POP PUSH2 0x10D PUSH2 0x108 CALLDATASIZE PUSH1 0x4 PUSH2 0xF1E JUMP JUMPDEST PUSH2 0x2DD JUMP JUMPDEST PUSH1 0x40 MLOAD PUSH1 0x1 PUSH1 0x1 PUSH1 0xA0 SHL SUB SWAP1 SWAP2 AND DUP2 MSTORE PUSH1 0x20 ADD JUMPDEST PUSH1 0x40 MLOAD DUP1 SWAP2 SUB SWAP1 RETURN JUMPDEST CALLVALUE DUP1 ISZERO PUSH2 0x136 JUMPI PUSH1 0x0 DUP1 REVERT JUMPDEST POP PUSH2 0x140 PUSH1 0x5 SLOAD DUP2 JUMP JUMPDEST PUSH1 0x40 MLOAD SWAP1 DUP2 MSTORE PUSH1 0x20 ADD PUSH2 0x121 JUMP JUMPDEST CALLVALUE DUP1 ISZERO PUSH2 0x15A JUMPI PUSH1 0x0 DUP1 REVERT JUMPDEST POP PUSH2 0x140 PUSH1 0x4 SLOAD DUP2 JUMP JUMPDEST CALLVALUE DUP1 ISZERO PUSH2 0x170 JUMPI PUSH1 0x0 DUP1 REVERT JUMPDEST POP PUSH2 0x140 PUSH2 0x17F CALLDATASIZE PUSH1 0x4 PUSH2 0xF71 JUMP JUMPDEST PUSH1 0x3 PUSH1 0x20 MSTORE PUSH1 0x0 SWAP1 DUP2 MSTORE PUSH1 0x40 SWAP1 KECCAK256 SLOAD DUP2 JUMP JUMPDEST CALLVALUE DUP1 ISZERO PUSH2 0x19D JUMPI PUSH1 0x0 DUP1 REVERT JUMPDEST POP PUSH2 0x1B1 PUSH2 0x1AC CALLDATASIZE PUSH1 0x4 PUSH2 0xF93 JUMP JUMPDEST PUSH2 0x322 JUMP JUMPDEST STOP JUMPDEST CALLVALUE DUP1 ISZERO PUSH2 0x1BF JUMPI PUSH1 0x0 DUP1 REVERT JUMPDEST POP PUSH1 0x0 SLOAD PUSH2 0x1D4 SWAP1 PUSH1 0x1 PUSH1 0xB0 SHL SWAP1 DIV PUSH1 0xFF AND DUP2 JUMP JUMPDEST PUSH1 0x40 MLOAD PUSH1 0xFF SWAP1 SWAP2 AND DUP2 MSTORE PUSH1 0x20 ADD PUSH2 0x121 JUMP JUMPDEST PUSH2 0x1B1 PUSH2 0x1F4 CALLDATASIZE PUSH1 0x4 PUSH2 0xF93 JUMP JUMPDEST PUSH2 0x7C7 JUMP JUMPDEST CALLVALUE DUP1 ISZERO PUSH2 0x205 JUMPI PUSH1 0x0 DUP1 REVERT JUMPDEST POP PUSH2 0x1B1 PUSH2 0x214 CALLDATASIZE PUSH1 0x4 PUSH2 0xFAE JUMP JUMPDEST PUSH2 0x987 JUMP JUMPDEST CALLVALUE DUP1 ISZERO PUSH2 0x225 JUMPI PUSH1 0x0 DUP1 REVERT JUMPDEST POP PUSH2 0x140 PUSH2 0x234 CALLDATASIZE PUSH1 0x4 PUSH2 0xFC7 JUMP JUMPDEST PUSH2 0xA21 JUMP JUMPDEST CALLVALUE DUP1 ISZERO PUSH2 0x245 JUMPI PUSH1 0x0 DUP1 REVERT JUMPDEST POP PUSH2 0x1B1 PUSH2 0xA84 JUMP JUMPDEST CALLVALUE DUP1 ISZERO PUSH2 0x25A JUMPI PUSH1 0x0 DUP1 REVERT JUMPDEST POP PUSH2 0x140 PUSH2 0x269 CALLDATASIZE PUSH1 0x4 PUSH2 0x100A JUMP JUMPDEST PUSH2 0xBED JUMP JUMPDEST CALLVALUE DUP1 ISZERO PUSH2 0x27A JUMPI PUSH1 0x0 DUP1 REVERT JUMPDEST POP SELFBALANCE PUSH2 0x140 JUMP JUMPDEST CALLVALUE DUP1 ISZERO PUSH2 0x28D JUMPI PUSH1 0x0 DUP1 REVERT JUMPDEST POP PUSH2 0x140 PUSH1 0x6 SLOAD DUP2 JUMP JUMPDEST CALLVALUE DUP1 ISZERO PUSH2 0x2A3 JUMPI PUSH1 0x0 DUP1 REVERT JUMPDEST POP PUSH1 0x0 SLOAD PUSH2 0x10D SWAP1 PUSH3 0x10000 SWAP1 DIV PUSH1 0x1 PUSH1 0x1 PUSH1 0xA0 SHL SUB AND DUP2 JUMP JUMPDEST CALLVALUE DUP1 ISZERO PUSH2 0x2C9 JUMPI PUSH1 0x0 DUP1 REVERT JUMPDEST POP PUSH2 0x1B1 PUSH2 0x2D8 CALLDATASIZE PUSH1 0x4 PUSH2 0xFAE JUMP JUMPDEST PUSH2 0xC3B JUMP JUMPDEST PUSH1 0x2 PUSH1 0x20 MSTORE DUP3 PUSH1 0x0 MSTORE PUSH1 0x40 PUSH1 0x0 KECCAK256 PUSH1 0x20 MSTORE DUP2 PUSH1 0x0 MSTORE PUSH1 0x40 PUSH1 0x0 KECCAK256 DUP2 DUP2 SLOAD DUP2 LT PUSH2 0x305 JUMPI PUSH1 0x0 DUP1 REVERT JUMPDEST PUSH1 0x0 SWAP2 DUP3 MSTORE PUSH1 0x20 SWAP1 SWAP2 KECCAK256 ADD SLOAD PUSH1 0x1 PUSH1 0x1 PUSH1 0xA0 SHL SUB AND SWAP3 POP DUP4 SWAP2 POP POP JUMP JUMPDEST PUSH1 0x0 SLOAD PUSH3 0x10000 SWAP1 DIV PUSH1 0x1 PUSH1 0x1 PUSH1 0xA0 SHL SUB AND CALLER EQ PUSH2 0x379 JUMPI PUSH1 0x40 MLOAD PUSH3 0x461BCD PUSH1 0xE5 SHL DUP2 MSTORE PUSH1 0x20 PUSH1 0x4 DUP3 ADD MSTORE PUSH1 0xF PUSH1 0x24 DUP3 ADD MSTORE PUSH15 0x6E6F7420617574686F72697A656421 PUSH1 0x88 SHL PUSH1 0x44 DUP3 ADD MSTORE PUSH1 0x64 ADD JUMPDEST PUSH1 0x40 MLOAD DUP1 SWAP2 SUB SWAP1 REVERT JUMPDEST PUSH1 0x0 DUP1 SLOAD PUSH1 0x1 PUSH1 0xB0 SHL SWAP1 DIV PUSH1 0xFF AND DUP2 MSTORE PUSH1 0x2 PUSH1 0x20 MSTORE PUSH1 0x40 DUP2 KECCAK256 DUP2 DUP4 PUSH1 0x4 DUP2 GT ISZERO PUSH2 0x3A5 JUMPI PUSH2 0x3A5 PUSH2 0x103D JUMP JUMPDEST PUSH1 0x4 DUP2 GT ISZERO PUSH2 0x3B6 JUMPI PUSH2 0x3B6 PUSH2 0x103D JUMP JUMPDEST DUP2 MSTORE PUSH1 0x20 ADD SWAP1 DUP2 MSTORE PUSH1 0x20 ADD PUSH1 0x0 KECCAK256 DUP1 SLOAD DUP1 PUSH1 0x20 MUL PUSH1 0x20 ADD PUSH1 0x40 MLOAD SWAP1 DUP2 ADD PUSH1 0x40 MSTORE DUP1 SWAP3 SWAP2 SWAP1 DUP2 DUP2 MSTORE PUSH1 0x20 ADD DUP3 DUP1 SLOAD DUP1 ISZERO PUSH2 0x418 JUMPI PUSH1 0x20 MUL DUP3 ADD SWAP2 SWAP1 PUSH1 0x0 MSTORE PUSH1 0x20 PUSH1 0x0 KECCAK256 SWAP1 JUMPDEST DUP2 SLOAD PUSH1 0x1 PUSH1 0x1 PUSH1 0xA0 SHL SUB AND DUP2 MSTORE PUSH1 0x1 SWAP1 SWAP2 ADD SWAP1 PUSH1 0x20 ADD DUP1 DUP4 GT PUSH2 0x3FA JUMPI JUMPDEST POP POP POP POP POP SWAP1 POP PUSH1 0x0 DUP1 PUSH1 0x5 SLOAD PUSH2 0x42C SELFBALANCE SWAP1 JUMP JUMPDEST PUSH2 0x436 SWAP2 SWAP1 PUSH2 0x1069 JUMP JUMPDEST SWAP1 POP PUSH2 0x493 PUSH1 0x40 MLOAD DUP1 PUSH1 0x40 ADD PUSH1 0x40 MSTORE DUP1 PUSH1 0x10 DUP2 MSTORE PUSH1 0x20 ADD PUSH16 0x31BAB93920BB30B62130B630B731B29D PUSH1 0x81 SHL DUP2 MSTORE POP DUP3 PUSH1 0x40 MLOAD DUP1 PUSH1 0x40 ADD PUSH1 0x40 MSTORE DUP1 PUSH1 0xE DUP2 MSTORE PUSH1 0x20 ADD PUSH14 0x3BB4B73732B9399031B7BAB73A1D PUSH1 0x91 SHL DUP2 MSTORE POP DUP7 MLOAD PUSH2 0xDB9 JUMP JUMPDEST PUSH1 0x0 JUMPDEST DUP4 MLOAD DUP2 LT ISZERO PUSH2 0x6F4 JUMPI PUSH1 0x0 DUP5 DUP3 DUP2 MLOAD DUP2 LT PUSH2 0x4B3 JUMPI PUSH2 0x4B3 PUSH2 0x1080 JUMP JUMPDEST PUSH1 0x20 SWAP1 DUP2 MUL SWAP2 SWAP1 SWAP2 ADD DUP2 ADD MLOAD PUSH1 0x0 DUP1 SLOAD PUSH1 0xFF PUSH1 0x1 PUSH1 0xB0 SHL SWAP1 SWAP2 DIV DUP2 AND DUP3 MSTORE PUSH1 0x1 DUP5 MSTORE PUSH1 0x40 DUP1 DUP4 KECCAK256 PUSH1 0x1 PUSH1 0x1 PUSH1 0xA0 SHL SUB DUP6 AND DUP5 MSTORE SWAP1 SWAP5 MSTORE SWAP3 SWAP1 KECCAK256 DUP1 SLOAD SWAP2 SWAP4 POP SWAP2 AND ISZERO PUSH2 0x520 JUMPI PUSH2 0x519 PUSH1 0x40 MLOAD DUP1 PUSH1 0x60 ADD PUSH1 0x40 MSTORE DUP1 PUSH1 0x32 DUP2 MSTORE PUSH1 0x20 ADD PUSH2 0x1263 PUSH1 0x32 SWAP2 CODECOPY PUSH2 0xE08 JUMP JUMPDEST POP POP PUSH2 0x6E2 JUMP JUMPDEST DUP1 SLOAD PUSH1 0xFF NOT AND PUSH1 0x1 SWAP1 DUP2 OR DUP3 SSTORE PUSH1 0x0 SWAP1 DUP3 ADD DUP2 DUP10 PUSH1 0x4 DUP2 GT ISZERO PUSH2 0x545 JUMPI PUSH2 0x545 PUSH2 0x103D JUMP JUMPDEST PUSH1 0x4 DUP2 GT ISZERO PUSH2 0x556 JUMPI PUSH2 0x556 PUSH2 0x103D JUMP JUMPDEST DUP2 MSTORE PUSH1 0x20 DUP1 DUP3 ADD SWAP3 SWAP1 SWAP3 MSTORE PUSH1 0x40 SWAP1 DUP2 ADD PUSH1 0x0 SWAP1 DUP2 KECCAK256 SLOAD DUP2 SLOAD PUSH1 0x1 PUSH1 0xB0 SHL SWAP1 DIV PUSH1 0xFF AND DUP3 MSTORE PUSH1 0x2 SWAP1 SWAP4 MSTORE SWAP1 DUP2 KECCAK256 SWAP2 SWAP3 POP SWAP1 DUP3 SWAP1 DUP3 DUP12 PUSH1 0x4 DUP2 GT ISZERO PUSH2 0x59B JUMPI PUSH2 0x59B PUSH2 0x103D JUMP JUMPDEST PUSH1 0x4 DUP2 GT ISZERO PUSH2 0x5AC JUMPI PUSH2 0x5AC PUSH2 0x103D JUMP JUMPDEST DUP2 MSTORE PUSH1 0x20 DUP2 ADD SWAP2 SWAP1 SWAP2 MSTORE PUSH1 0x40 ADD PUSH1 0x0 KECCAK256 SLOAD PUSH2 0x5C7 SWAP1 DUP9 PUSH2 0x1096 JUMP JUMPDEST PUSH2 0x5D1 SWAP2 SWAP1 PUSH2 0x10B8 JUMP JUMPDEST PUSH1 0x1 PUSH1 0x1 PUSH1 0xA0 SHL SUB DUP6 AND PUSH1 0x0 SWAP1 DUP2 MSTORE PUSH1 0x3 PUSH1 0x20 MSTORE PUSH1 0x40 DUP2 KECCAK256 DUP1 SLOAD SWAP3 SWAP4 POP DUP4 SWAP3 SWAP1 SWAP2 SWAP1 PUSH2 0x5FE SWAP1 DUP5 SWAP1 PUSH2 0x10D7 JUMP JUMPDEST SWAP1 SWAP2 SSTORE POP PUSH2 0x60E SWAP1 POP DUP2 DUP9 PUSH2 0x10D7 JUMP JUMPDEST SWAP7 POP DUP1 PUSH1 0x5 PUSH1 0x0 DUP3 DUP3 SLOAD PUSH2 0x622 SWAP2 SWAP1 PUSH2 0x10D7 JUMP JUMPDEST SWAP3 POP POP DUP2 SWAP1 SSTORE POP PUSH2 0x677 PUSH1 0x40 MLOAD DUP1 PUSH1 0x40 ADD PUSH1 0x40 MSTORE DUP1 PUSH1 0x7 DUP2 MSTORE PUSH1 0x20 ADD PUSH7 0x3BB4B73732B91D PUSH1 0xC9 SHL DUP2 MSTORE POP DUP6 PUSH1 0x40 MLOAD DUP1 PUSH1 0x40 ADD PUSH1 0x40 MSTORE DUP1 PUSH1 0xB DUP2 MSTORE PUSH1 0x20 ADD PUSH11 0x31BAB93921B7BAB73A399D PUSH1 0xA9 SHL DUP2 MSTORE POP DUP6 PUSH2 0xE4E JUMP JUMPDEST PUSH1 0x40 DUP1 MLOAD DUP1 DUP3 ADD DUP3 MSTORE PUSH1 0x10 DUP2 MSTORE PUSH16 0x3932BBB0B9321030B6BA1031BAB9391D PUSH1 0x81 SHL PUSH1 0x20 DUP1 DUP4 ADD SWAP2 SWAP1 SWAP2 MSTORE DUP3 MLOAD DUP1 DUP5 ADD DUP5 MSTORE PUSH1 0x6 DUP2 MSTORE PUSH6 0x3A37BA30B61D PUSH1 0xD1 SHL DUP2 DUP4 ADD MSTORE PUSH1 0x1 PUSH1 0x1 PUSH1 0xA0 SHL SUB DUP9 AND PUSH1 0x0 SWAP1 DUP2 MSTORE PUSH1 0x3 SWAP1 SWAP3 MSTORE SWAP3 SWAP1 KECCAK256 SLOAD PUSH2 0x6DD SWAP3 DUP5 SWAP2 PUSH2 0xDB9 JUMP JUMPDEST POP POP POP POP JUMPDEST DUP1 PUSH2 0x6EC DUP2 PUSH2 0x10EF JUMP JUMPDEST SWAP2 POP POP PUSH2 0x496 JUMP JUMPDEST POP PUSH1 0x0 PUSH2 0x701 DUP4 DUP4 PUSH2 0x1069 JUMP JUMPDEST SWAP1 POP DUP1 ISZERO PUSH2 0x73D JUMPI PUSH1 0x0 DUP1 SLOAD PUSH3 0x10000 SWAP1 DIV PUSH1 0x1 PUSH1 0x1 PUSH1 0xA0 SHL SUB AND DUP2 MSTORE PUSH1 0x3 PUSH1 0x20 MSTORE PUSH1 0x40 DUP2 KECCAK256 DUP1 SLOAD DUP4 SWAP3 SWAP1 PUSH2 0x737 SWAP1 DUP5 SWAP1 PUSH2 0x10D7 JUMP JUMPDEST SWAP1 SWAP2 SSTORE POP POP JUMPDEST PUSH1 0x0 DUP1 SLOAD PUSH32 0xF29C2F4A0AC8B177F1C72BBDF7CD3899630A10CE3626CC73671D98F682D574C0 SWAP2 PUSH1 0x1 PUSH1 0xB0 SHL SWAP1 SWAP2 DIV PUSH1 0xFF AND SWAP1 PUSH1 0x16 PUSH2 0x77A DUP4 PUSH2 0x110A JUMP JUMPDEST SWAP2 SWAP1 PUSH2 0x100 EXP DUP2 SLOAD DUP2 PUSH1 0xFF MUL NOT AND SWAP1 DUP4 PUSH1 0xFF AND MUL OR SWAP1 SSTORE POP DUP7 PUSH1 0x4 DUP2 GT ISZERO PUSH2 0x7A4 JUMPI PUSH2 0x7A4 PUSH2 0x103D JUMP JUMPDEST PUSH1 0x40 DUP1 MLOAD PUSH1 0xFF SWAP1 SWAP4 AND DUP4 MSTORE PUSH1 0x20 DUP4 ADD SWAP2 SWAP1 SWAP2 MSTORE ADD PUSH1 0x40 MLOAD DUP1 SWAP2 SUB SWAP1 LOG1 POP POP POP POP POP JUMP JUMPDEST CALLVALUE PUSH4 0x3B9ACA00 EQ PUSH2 0x81A JUMPI PUSH1 0x40 MLOAD PUSH3 0x461BCD PUSH1 0xE5 SHL DUP2 MSTORE PUSH1 0x20 PUSH1 0x4 DUP3 ADD MSTORE PUSH1 0x17 PUSH1 0x24 DUP3 ADD MSTORE PUSH32 0x696E76616C69642066756E64732070726F766964656421000000000000000000 PUSH1 0x44 DUP3 ADD MSTORE PUSH1 0x64 ADD PUSH2 0x370 JUMP JUMPDEST PUSH1 0x4 SLOAD TIMESTAMP LT PUSH2 0x85C JUMPI PUSH1 0x40 MLOAD PUSH3 0x461BCD PUSH1 0xE5 SHL DUP2 MSTORE PUSH1 0x20 PUSH1 0x4 DUP3 ADD MSTORE PUSH1 0xE PUSH1 0x24 DUP3 ADD MSTORE PUSH14 0x6974277320616C6C206F76657221 PUSH1 0x90 SHL PUSH1 0x44 DUP3 ADD MSTORE PUSH1 0x64 ADD PUSH2 0x370 JUMP JUMPDEST PUSH1 0x0 DUP1 SLOAD PUSH1 0x1 PUSH1 0xB0 SHL SWAP1 DIV PUSH1 0xFF AND DUP2 MSTORE PUSH1 0x2 PUSH1 0x20 MSTORE PUSH1 0x40 DUP2 KECCAK256 SWAP1 DUP3 PUSH1 0x4 DUP2 GT ISZERO PUSH2 0x888 JUMPI PUSH2 0x888 PUSH2 0x103D JUMP JUMPDEST PUSH1 0x4 DUP2 GT ISZERO PUSH2 0x899 JUMPI PUSH2 0x899 PUSH2 0x103D JUMP JUMPDEST DUP2 MSTORE PUSH1 0x20 DUP1 DUP3 ADD SWAP3 SWAP1 SWAP3 MSTORE PUSH1 0x40 SWAP1 DUP2 ADD PUSH1 0x0 SWAP1 DUP2 KECCAK256 DUP1 SLOAD PUSH1 0x1 DUP2 DUP2 ADD DUP4 SSTORE SWAP2 DUP4 MSTORE DUP5 DUP4 KECCAK256 ADD DUP1 SLOAD PUSH1 0x1 PUSH1 0x1 PUSH1 0xA0 SHL SUB NOT AND CALLER SWAP1 DUP2 OR SWAP1 SWAP2 SSTORE DUP3 SLOAD PUSH1 0xFF PUSH1 0x1 PUSH1 0xB0 SHL SWAP1 SWAP2 DIV AND DUP4 MSTORE DUP2 DUP6 MSTORE DUP4 DUP4 KECCAK256 SWAP1 DUP4 MSTORE SWAP1 SWAP4 MSTORE SWAP1 DUP2 KECCAK256 SWAP2 SWAP1 DUP3 DUP3 ADD SWAP1 DUP5 PUSH1 0x4 DUP2 GT ISZERO PUSH2 0x907 JUMPI PUSH2 0x907 PUSH2 0x103D JUMP JUMPDEST PUSH1 0x4 DUP2 GT ISZERO PUSH2 0x918 JUMPI PUSH2 0x918 PUSH2 0x103D JUMP JUMPDEST DUP2 MSTORE PUSH1 0x20 ADD SWAP1 DUP2 MSTORE PUSH1 0x20 ADD PUSH1 0x0 KECCAK256 PUSH1 0x0 DUP3 DUP3 SLOAD PUSH2 0x935 SWAP2 SWAP1 PUSH2 0x10D7 JUMP JUMPDEST SWAP1 SWAP2 SSTORE POP POP PUSH1 0x0 SLOAD PUSH1 0x40 MLOAD PUSH32 0xED75611777BDA76F73E63B79A0B4B2F59DFB76A034FF90E9A4F204F414DADEF7 SWAP2 PUSH2 0x97B SWAP2 PUSH1 0x1 PUSH1 0xB0 SHL SWAP1 SWAP2 DIV PUSH1 0xFF AND SWAP1 CALLER SWAP1 DUP7 SWAP1 PUSH2 0x112A JUMP JUMPDEST PUSH1 0x40 MLOAD DUP1 SWAP2 SUB SWAP1 LOG1 POP POP JUMP JUMPDEST TIMESTAMP DUP2 GT PUSH2 0x9CB JUMPI PUSH1 0x40 MLOAD PUSH3 0x461BCD PUSH1 0xE5 SHL DUP2 MSTORE PUSH1 0x20 PUSH1 0x4 DUP3 ADD MSTORE PUSH1 0x12 PUSH1 0x24 DUP3 ADD MSTORE PUSH18 0x696E76616C69642074696D657374616D7021 PUSH1 0x70 SHL PUSH1 0x44 DUP3 ADD MSTORE PUSH1 0x64 ADD PUSH2 0x370 JUMP JUMPDEST PUSH1 0x4 SLOAD PUSH1 0x40 DUP1 MLOAD SWAP2 DUP3 MSTORE PUSH1 0x20 DUP3 ADD DUP4 SWAP1 MSTORE PUSH32 0x971A644AA91B5D500F684DC15814182AE5E2C3D047BB2EF0247C63BBCD8B378C SWAP2 ADD PUSH1 0x40 MLOAD DUP1 SWAP2 SUB SWAP1 LOG1 PUSH1 0x6 DUP1 SLOAD SWAP1 PUSH1 0x0 PUSH2 0xA17 DUP4 PUSH2 0x10EF JUMP JUMPDEST SWAP1 SWAP2 SSTORE POP POP PUSH1 0x4 SSTORE JUMP JUMPDEST PUSH1 0xFF DUP4 AND PUSH1 0x0 SWAP1 DUP2 MSTORE PUSH1 0x1 PUSH1 0x20 DUP2 DUP2 MSTORE PUSH1 0x40 DUP1 DUP5 KECCAK256 PUSH1 0x1 PUSH1 0x1 PUSH1 0xA0 SHL SUB DUP8 AND DUP6 MSTORE SWAP1 SWAP2 MSTORE DUP3 KECCAK256 ADD DUP2 DUP4 PUSH1 0x4 DUP2 GT ISZERO PUSH2 0xA5B JUMPI PUSH2 0xA5B PUSH2 0x103D JUMP JUMPDEST PUSH1 0x4 DUP2 GT ISZERO PUSH2 0xA6C JUMPI PUSH2 0xA6C PUSH2 0x103D JUMP JUMPDEST DUP2 MSTORE PUSH1 0x20 ADD SWAP1 DUP2 MSTORE PUSH1 0x20 ADD PUSH1 0x0 KECCAK256 SLOAD SWAP1 POP SWAP4 SWAP3 POP POP POP JUMP JUMPDEST CALLER PUSH1 0x0 SWAP1 DUP2 MSTORE PUSH1 0x3 PUSH1 0x20 MSTORE PUSH1 0x40 SWAP1 KECCAK256 SLOAD DUP1 PUSH2 0xAD5 JUMPI PUSH1 0x40 MLOAD PUSH3 0x461BCD PUSH1 0xE5 SHL DUP2 MSTORE PUSH1 0x20 PUSH1 0x4 DUP3 ADD MSTORE PUSH1 0x11 PUSH1 0x24 DUP3 ADD MSTORE PUSH17 0x6E6F7468696E6720746F20636C61696D21 PUSH1 0x78 SHL PUSH1 0x44 DUP3 ADD MSTORE PUSH1 0x64 ADD PUSH2 0x370 JUMP JUMPDEST CALLER PUSH1 0x0 SWAP1 DUP2 MSTORE PUSH1 0x3 PUSH1 0x20 MSTORE PUSH1 0x40 DUP2 KECCAK256 DUP2 SWAP1 SSTORE PUSH1 0x5 DUP1 SLOAD DUP4 SWAP3 SWAP1 PUSH2 0xAF9 SWAP1 DUP5 SWAP1 PUSH2 0x1069 JUMP JUMPDEST SWAP1 SWAP2 SSTORE POP POP PUSH1 0x40 MLOAD PUSH1 0x0 SWAP1 CALLER SWAP1 DUP4 SWAP1 DUP4 DUP2 DUP2 DUP2 DUP6 DUP8 GAS CALL SWAP3 POP POP POP RETURNDATASIZE DUP1 PUSH1 0x0 DUP2 EQ PUSH2 0xB40 JUMPI PUSH1 0x40 MLOAD SWAP2 POP PUSH1 0x1F NOT PUSH1 0x3F RETURNDATASIZE ADD AND DUP3 ADD PUSH1 0x40 MSTORE RETURNDATASIZE DUP3 MSTORE RETURNDATASIZE PUSH1 0x0 PUSH1 0x20 DUP5 ADD RETURNDATACOPY PUSH2 0xB45 JUMP JUMPDEST PUSH1 0x60 SWAP2 POP JUMPDEST POP POP SWAP1 POP DUP1 PUSH2 0xB8D JUMPI PUSH1 0x40 MLOAD PUSH3 0x461BCD PUSH1 0xE5 SHL DUP2 MSTORE PUSH1 0x20 PUSH1 0x4 DUP3 ADD MSTORE PUSH1 0x14 PUSH1 0x24 DUP3 ADD MSTORE PUSH20 0x636C61696D20726577617264206661696C656421 PUSH1 0x60 SHL PUSH1 0x44 DUP3 ADD MSTORE PUSH1 0x64 ADD PUSH2 0x370 JUMP JUMPDEST PUSH2 0xBB7 PUSH1 0x40 MLOAD DUP1 PUSH1 0x40 ADD PUSH1 0x40 MSTORE DUP1 PUSH1 0x8 DUP2 MSTORE PUSH1 0x20 ADD PUSH8 0x3932BBB0B932399D PUSH1 0xC1 SHL DUP2 MSTORE POP DUP4 PUSH2 0xE97 JUMP JUMPDEST PUSH1 0x40 DUP1 MLOAD CALLER DUP2 MSTORE PUSH1 0x20 DUP2 ADD DUP5 SWAP1 MSTORE PUSH32 0xBA8DE60C3403EC381D1D484652EA1980E3C3E56359195C92525BFF4CE47AD98E SWAP2 ADD PUSH2 0x97B JUMP JUMPDEST PUSH1 0xFF DUP3 AND PUSH1 0x0 SWAP1 DUP2 MSTORE PUSH1 0x2 PUSH1 0x20 MSTORE PUSH1 0x40 DUP2 KECCAK256 DUP2 DUP4 PUSH1 0x4 DUP2 GT ISZERO PUSH2 0xC12 JUMPI PUSH2 0xC12 PUSH2 0x103D JUMP JUMPDEST PUSH1 0x4 DUP2 GT ISZERO PUSH2 0xC23 JUMPI PUSH2 0xC23 PUSH2 0x103D JUMP JUMPDEST DUP2 MSTORE PUSH1 0x20 DUP2 ADD SWAP2 SWAP1 SWAP2 MSTORE PUSH1 0x40 ADD PUSH1 0x0 KECCAK256 SLOAD SWAP4 SWAP3 POP POP POP JUMP JUMPDEST PUSH1 0x0 SLOAD PUSH2 0x100 SWAP1 DIV PUSH1 0xFF AND ISZERO DUP1 DUP1 ISZERO PUSH2 0xC5B JUMPI POP PUSH1 0x0 SLOAD PUSH1 0x1 PUSH1 0xFF SWAP1 SWAP2 AND LT JUMPDEST DUP1 PUSH2 0xC75 JUMPI POP ADDRESS EXTCODESIZE ISZERO DUP1 ISZERO PUSH2 0xC75 JUMPI POP PUSH1 0x0 SLOAD PUSH1 0xFF AND PUSH1 0x1 EQ JUMPDEST PUSH2 0xCD8 JUMPI PUSH1 0x40 MLOAD PUSH3 0x461BCD PUSH1 0xE5 SHL DUP2 MSTORE PUSH1 0x20 PUSH1 0x4 DUP3 ADD MSTORE PUSH1 0x2E PUSH1 0x24 DUP3 ADD MSTORE PUSH32 0x496E697469616C697A61626C653A20636F6E747261637420697320616C726561 PUSH1 0x44 DUP3 ADD MSTORE PUSH14 0x191E481A5B9A5D1A585B1A5E9959 PUSH1 0x92 SHL PUSH1 0x64 DUP3 ADD MSTORE PUSH1 0x84 ADD PUSH2 0x370 JUMP JUMPDEST PUSH1 0x0 DUP1 SLOAD PUSH1 0xFF NOT AND PUSH1 0x1 OR SWAP1 SSTORE DUP1 ISZERO PUSH2 0xCFB JUMPI PUSH1 0x0 DUP1 SLOAD PUSH2 0xFF00 NOT AND PUSH2 0x100 OR SWAP1 SSTORE JUMPDEST PUSH1 0x0 DUP1 SLOAD PUSH3 0x10000 PUSH1 0x1 PUSH1 0xB0 SHL SUB NOT AND CALLER PUSH3 0x10000 MUL OR SWAP1 SSTORE TIMESTAMP DUP3 GT PUSH2 0xD6E JUMPI PUSH1 0x40 MLOAD PUSH3 0x461BCD PUSH1 0xE5 SHL DUP2 MSTORE PUSH1 0x20 PUSH1 0x4 DUP3 ADD MSTORE PUSH1 0x22 PUSH1 0x24 DUP3 ADD MSTORE PUSH32 0x576F726C644375704C6F74746572793A20696E76616C696420646561646C696E PUSH1 0x44 DUP3 ADD MSTORE PUSH2 0x6521 PUSH1 0xF0 SHL PUSH1 0x64 DUP3 ADD MSTORE PUSH1 0x84 ADD PUSH2 0x370 JUMP JUMPDEST PUSH1 0x4 DUP3 SWAP1 SSTORE DUP1 ISZERO PUSH2 0xDB5 JUMPI PUSH1 0x0 DUP1 SLOAD PUSH2 0xFF00 NOT AND SWAP1 SSTORE PUSH1 0x40 MLOAD PUSH1 0x1 DUP2 MSTORE PUSH32 0x7F26B83FF96E1F2B6A682F133852F6798A09C465DA95921460CEFB3847402498 SWAP1 PUSH1 0x20 ADD PUSH2 0x97B JUMP JUMPDEST POP POP JUMP JUMPDEST PUSH2 0xE02 DUP5 DUP5 DUP5 DUP5 PUSH1 0x40 MLOAD PUSH1 0x24 ADD PUSH2 0xDD3 SWAP5 SWAP4 SWAP3 SWAP2 SWAP1 PUSH2 0x11BC JUMP JUMPDEST PUSH1 0x40 DUP1 MLOAD PUSH1 0x1F NOT DUP2 DUP5 SUB ADD DUP2 MSTORE SWAP2 SWAP1 MSTORE PUSH1 0x20 DUP2 ADD DUP1 MLOAD PUSH1 0x1 PUSH1 0x1 PUSH1 0xE0 SHL SUB AND PUSH4 0xC67EA9D1 PUSH1 0xE0 SHL OR SWAP1 MSTORE PUSH2 0xED8 JUMP JUMPDEST POP POP POP POP JUMP JUMPDEST PUSH2 0xE4B DUP2 PUSH1 0x40 MLOAD PUSH1 0x24 ADD PUSH2 0xE1C SWAP2 SWAP1 PUSH2 0x11F9 JUMP JUMPDEST PUSH1 0x40 DUP1 MLOAD PUSH1 0x1F NOT DUP2 DUP5 SUB ADD DUP2 MSTORE SWAP2 SWAP1 MSTORE PUSH1 0x20 DUP2 ADD DUP1 MLOAD PUSH1 0x1 PUSH1 0x1 PUSH1 0xE0 SHL SUB AND PUSH4 0x104C13EB PUSH1 0xE2 SHL OR SWAP1 MSTORE PUSH2 0xED8 JUMP JUMPDEST POP JUMP JUMPDEST PUSH2 0xE02 DUP5 DUP5 DUP5 DUP5 PUSH1 0x40 MLOAD PUSH1 0x24 ADD PUSH2 0xE68 SWAP5 SWAP4 SWAP3 SWAP2 SWAP1 PUSH2 0x120C JUMP JUMPDEST PUSH1 0x40 DUP1 MLOAD PUSH1 0x1F NOT DUP2 DUP5 SUB ADD DUP2 MSTORE SWAP2 SWAP1 MSTORE PUSH1 0x20 DUP2 ADD DUP1 MLOAD PUSH1 0x1 PUSH1 0x1 PUSH1 0xE0 SHL SUB AND PUSH4 0x48E88897 PUSH1 0xE1 SHL OR SWAP1 MSTORE PUSH2 0xED8 JUMP JUMPDEST PUSH2 0xDB5 DUP3 DUP3 PUSH1 0x40 MLOAD PUSH1 0x24 ADD PUSH2 0xEAD SWAP3 SWAP2 SWAP1 PUSH2 0x1240 JUMP JUMPDEST PUSH1 0x40 DUP1 MLOAD PUSH1 0x1F NOT DUP2 DUP5 SUB ADD DUP2 MSTORE SWAP2 SWAP1 MSTORE PUSH1 0x20 DUP2 ADD DUP1 MLOAD PUSH1 0x1 PUSH1 0x1 PUSH1 0xE0 SHL SUB AND PUSH4 0x2D839CB3 PUSH1 0xE2 SHL OR SWAP1 MSTORE JUMPDEST DUP1 MLOAD PUSH11 0x636F6E736F6C652E6C6F67 PUSH1 0x20 DUP4 ADD PUSH1 0x0 DUP1 DUP5 DUP4 DUP6 GAS STATICCALL POP POP POP POP POP JUMP JUMPDEST DUP1 CALLDATALOAD PUSH1 0xFF DUP2 AND DUP2 EQ PUSH2 0xF0A JUMPI PUSH1 0x0 DUP1 REVERT JUMPDEST SWAP2 SWAP1 POP JUMP JUMPDEST DUP1 CALLDATALOAD PUSH1 0x5 DUP2 LT PUSH2 0xF0A JUMPI PUSH1 0x0 DUP1 REVERT JUMPDEST PUSH1 0x0 DUP1 PUSH1 0x0 PUSH1 0x60 DUP5 DUP7 SUB SLT ISZERO PUSH2 0xF33 JUMPI PUSH1 0x0 DUP1 REVERT JUMPDEST PUSH2 0xF3C DUP5 PUSH2 0xEF9 JUMP JUMPDEST SWAP3 POP PUSH2 0xF4A PUSH1 0x20 DUP6 ADD PUSH2 0xF0F JUMP JUMPDEST SWAP2 POP PUSH1 0x40 DUP5 ADD CALLDATALOAD SWAP1 POP SWAP3 POP SWAP3 POP SWAP3 JUMP JUMPDEST DUP1 CALLDATALOAD PUSH1 0x1 PUSH1 0x1 PUSH1 0xA0 SHL SUB DUP2 AND DUP2 EQ PUSH2 0xF0A JUMPI PUSH1 0x0 DUP1 REVERT JUMPDEST PUSH1 0x0 PUSH1 0x20 DUP3 DUP5 SUB SLT ISZERO PUSH2 0xF83 JUMPI PUSH1 0x0 DUP1 REVERT JUMPDEST PUSH2 0xF8C DUP3 PUSH2 0xF5A JUMP JUMPDEST SWAP4 SWAP3 POP POP POP JUMP JUMPDEST PUSH1 0x0 PUSH1 0x20 DUP3 DUP5 SUB SLT ISZERO PUSH2 0xFA5 JUMPI PUSH1 0x0 DUP1 REVERT JUMPDEST PUSH2 0xF8C DUP3 PUSH2 0xF0F JUMP JUMPDEST PUSH1 0x0 PUSH1 0x20 DUP3 DUP5 SUB SLT ISZERO PUSH2 0xFC0 JUMPI PUSH1 0x0 DUP1 REVERT JUMPDEST POP CALLDATALOAD SWAP2 SWAP1 POP JUMP JUMPDEST PUSH1 0x0 DUP1 PUSH1 0x0 PUSH1 0x60 DUP5 DUP7 SUB SLT ISZERO PUSH2 0xFDC JUMPI PUSH1 0x0 DUP1 REVERT JUMPDEST PUSH2 0xFE5 DUP5 PUSH2 0xEF9 JUMP JUMPDEST SWAP3 POP PUSH2 0xFF3 PUSH1 0x20 DUP6 ADD PUSH2 0xF5A JUMP JUMPDEST SWAP2 POP PUSH2 0x1001 PUSH1 0x40 DUP6 ADD PUSH2 0xF0F JUMP JUMPDEST SWAP1 POP SWAP3 POP SWAP3 POP SWAP3 JUMP JUMPDEST PUSH1 0x0 DUP1 PUSH1 0x40 DUP4 DUP6 SUB SLT ISZERO PUSH2 0x101D JUMPI PUSH1 0x0 DUP1 REVERT JUMPDEST PUSH2 0x1026 DUP4 PUSH2 0xEF9 JUMP JUMPDEST SWAP2 POP PUSH2 0x1034 PUSH1 0x20 DUP5 ADD PUSH2 0xF0F JUMP JUMPDEST SWAP1 POP SWAP3 POP SWAP3 SWAP1 POP JUMP JUMPDEST PUSH4 0x4E487B71 PUSH1 0xE0 SHL PUSH1 0x0 MSTORE PUSH1 0x21 PUSH1 0x4 MSTORE PUSH1 0x24 PUSH1 0x0 REVERT JUMPDEST PUSH4 0x4E487B71 PUSH1 0xE0 SHL PUSH1 0x0 MSTORE PUSH1 0x11 PUSH1 0x4 MSTORE PUSH1 0x24 PUSH1 0x0 REVERT JUMPDEST PUSH1 0x0 DUP3 DUP3 LT ISZERO PUSH2 0x107B JUMPI PUSH2 0x107B PUSH2 0x1053 JUMP JUMPDEST POP SUB SWAP1 JUMP JUMPDEST PUSH4 0x4E487B71 PUSH1 0xE0 SHL PUSH1 0x0 MSTORE PUSH1 0x32 PUSH1 0x4 MSTORE PUSH1 0x24 PUSH1 0x0 REVERT JUMPDEST PUSH1 0x0 DUP3 PUSH2 0x10B3 JUMPI PUSH4 0x4E487B71 PUSH1 0xE0 SHL PUSH1 0x0 MSTORE PUSH1 0x12 PUSH1 0x4 MSTORE PUSH1 0x24 PUSH1 0x0 REVERT JUMPDEST POP DIV SWAP1 JUMP JUMPDEST PUSH1 0x0 DUP2 PUSH1 0x0 NOT DIV DUP4 GT DUP3 ISZERO ISZERO AND ISZERO PUSH2 0x10D2 JUMPI PUSH2 0x10D2 PUSH2 0x1053 JUMP JUMPDEST POP MUL SWAP1 JUMP JUMPDEST PUSH1 0x0 DUP3 NOT DUP3 GT ISZERO PUSH2 0x10EA JUMPI PUSH2 0x10EA PUSH2 0x1053 JUMP JUMPDEST POP ADD SWAP1 JUMP JUMPDEST PUSH1 0x0 PUSH1 0x0 NOT DUP3 EQ ISZERO PUSH2 0x1103 JUMPI PUSH2 0x1103 PUSH2 0x1053 JUMP JUMPDEST POP PUSH1 0x1 ADD SWAP1 JUMP JUMPDEST PUSH1 0x0 PUSH1 0xFF DUP3 AND PUSH1 0xFF DUP2 EQ ISZERO PUSH2 0x1121 JUMPI PUSH2 0x1121 PUSH2 0x1053 JUMP JUMPDEST PUSH1 0x1 ADD SWAP3 SWAP2 POP POP JUMP JUMPDEST PUSH1 0xFF DUP5 AND DUP2 MSTORE PUSH1 0x1 PUSH1 0x1 PUSH1 0xA0 SHL SUB DUP4 AND PUSH1 0x20 DUP3 ADD MSTORE PUSH1 0x60 DUP2 ADD PUSH1 0x5 DUP4 LT PUSH2 0x1161 JUMPI PUSH4 0x4E487B71 PUSH1 0xE0 SHL PUSH1 0x0 MSTORE PUSH1 0x21 PUSH1 0x4 MSTORE PUSH1 0x24 PUSH1 0x0 REVERT JUMPDEST DUP3 PUSH1 0x40 DUP4 ADD MSTORE SWAP5 SWAP4 POP POP POP POP JUMP JUMPDEST PUSH1 0x0 DUP2 MLOAD DUP1 DUP5 MSTORE PUSH1 0x0 JUMPDEST DUP2 DUP2 LT ISZERO PUSH2 0x1195 JUMPI PUSH1 0x20 DUP2 DUP6 ADD DUP2 ADD MLOAD DUP7 DUP4 ADD DUP3 ADD MSTORE ADD PUSH2 0x1179 JUMP JUMPDEST DUP2 DUP2 GT ISZERO PUSH2 0x11A7 JUMPI PUSH1 0x0 PUSH1 0x20 DUP4 DUP8 ADD ADD MSTORE JUMPDEST POP PUSH1 0x1F ADD PUSH1 0x1F NOT AND SWAP3 SWAP1 SWAP3 ADD PUSH1 0x20 ADD SWAP3 SWAP2 POP POP JUMP JUMPDEST PUSH1 0x80 DUP2 MSTORE PUSH1 0x0 PUSH2 0x11CF PUSH1 0x80 DUP4 ADD DUP8 PUSH2 0x116F JUMP JUMPDEST DUP6 PUSH1 0x20 DUP5 ADD MSTORE DUP3 DUP2 SUB PUSH1 0x40 DUP5 ADD MSTORE PUSH2 0x11E7 DUP2 DUP7 PUSH2 0x116F JUMP JUMPDEST SWAP2 POP POP DUP3 PUSH1 0x60 DUP4 ADD MSTORE SWAP6 SWAP5 POP POP POP POP POP JUMP JUMPDEST PUSH1 0x20 DUP2 MSTORE PUSH1 0x0 PUSH2 0xF8C PUSH1 0x20 DUP4 ADD DUP5 PUSH2 0x116F JUMP JUMPDEST PUSH1 0x80 DUP2 MSTORE PUSH1 0x0 PUSH2 0x121F PUSH1 0x80 DUP4 ADD DUP8 PUSH2 0x116F JUMP JUMPDEST PUSH1 0x1 PUSH1 0x1 PUSH1 0xA0 SHL SUB DUP7 AND PUSH1 0x20 DUP5 ADD MSTORE DUP3 DUP2 SUB PUSH1 0x40 DUP5 ADD MSTORE PUSH2 0x11E7 DUP2 DUP7 PUSH2 0x116F JUMP JUMPDEST PUSH1 0x40 DUP2 MSTORE PUSH1 0x0 PUSH2 0x1253 PUSH1 0x40 DUP4 ADD DUP6 PUSH2 0x116F JUMP JUMPDEST SWAP1 POP DUP3 PUSH1 0x20 DUP4 ADD MSTORE SWAP4 SWAP3 POP POP POP JUMP INVALID PUSH21 0x6869732077696E6E657220686173206265656E2073 PUSH6 0x7420616C7265 PUSH2 0x6479 0x2C KECCAK256 PUSH24 0x696C6C20626520736B697070656421A26469706673582212 KECCAK256 0xC6 DUP14 0xB4 0xC6 0xD4 PUSH19 0x32A1922C7ABE74238FAFF6365715C356805590 CALL TIMESTAMP REVERT AND NUMBER SELFBALANCE CODECOPY PUSH5 0x736F6C6343 STOP ADDMOD MULMOD STOP CALLER "},"methodIdentifiers":{"admin()":"f851a440","changeCount()":"f35f6447","changeDeadline(uint256)":"7aca97b5","claimReward()":"b88a802f","countryToPlayers(uint8,uint8,uint256)":"0fa68115","currRound()":"3f5d8056","deadline()":"29dcb0cf","finialize(uint8)":"34bf6d01","getCountryPlayters(uint8,uint8)":"c4864f57","getPlayerInfo(uint8,address,uint8)":"ada2ac38","getVaultBalance()":"ed12e8ef","initialize(uint256)":"fe4b84df","lockedAmts()":"28655c5b","play(uint8)":"53a04b05","winnerVaults(address)":"34330586"}},"storageLayout":{"storage":[{"astId":6,"contract":"contracts/upgrade/WorldCupV2.sol:WorldCupV2","label":"_initialized","offset":0,"slot":"0","type":"t_uint8"},{"astId":9,"contract":"contracts/upgrade/WorldCupV2.sol:WorldCupV2","label":"_initializing","offset":1,"slot":"0","type":"t_bool"},{"astId":901,"contract":"contracts/upgrade/WorldCupV2.sol:WorldCupV2","label":"admin","offset":2,"slot":"0","type":"t_address"},{"astId":903,"contract":"contracts/upgrade/WorldCupV2.sol:WorldCupV2","label":"currRound","offset":22,"slot":"0","type":"t_uint8"},{"astId":910,"contract":"contracts/upgrade/WorldCupV2.sol:WorldCupV2","label":"players","offset":0,"slot":"1","type":"t_mapping(t_uint8,t_mapping(t_address,t_struct(Player)981_storage))"},{"astId":918,"contract":"contracts/upgrade/WorldCupV2.sol:WorldCupV2","label":"countryToPlayers","offset":0,"slot":"2","type":"t_mapping(t_uint8,t_mapping(t_enum(Country)934,t_array(t_address)dyn_storage))"},{"astId":922,"contract":"contracts/upgrade/WorldCupV2.sol:WorldCupV2","label":"winnerVaults","offset":0,"slot":"3","type":"t_mapping(t_address,t_uint256)"},{"astId":924,"contract":"contracts/upgrade/WorldCupV2.sol:WorldCupV2","label":"deadline","offset":0,"slot":"4","type":"t_uint256"},{"astId":926,"contract":"contracts/upgrade/WorldCupV2.sol:WorldCupV2","label":"lockedAmts","offset":0,"slot":"5","type":"t_uint256"},{"astId":928,"contract":"contracts/upgrade/WorldCupV2.sol:WorldCupV2","label":"changeCount","offset":0,"slot":"6","type":"t_uint256"}],"types":{"t_address":{"encoding":"inplace","label":"address","numberOfBytes":"20"},"t_array(t_address)dyn_storage":{"base":"t_address","encoding":"dynamic_array","label":"address[]","numberOfBytes":"32"},"t_bool":{"encoding":"inplace","label":"bool","numberOfBytes":"1"},"t_enum(Country)934":{"encoding":"inplace","label":"enum WorldCupV2.Country","numberOfBytes":"1"},"t_mapping(t_address,t_struct(Player)981_storage)":{"encoding":"mapping","key":"t_address","label":"mapping(address => struct WorldCupV2.Player)","numberOfBytes":"32","value":"t_struct(Player)981_storage"},"t_mapping(t_address,t_uint256)":{"encoding":"mapping","key":"t_address","label":"mapping(address => uint256)","numberOfBytes":"32","value":"t_uint256"},"t_mapping(t_enum(Country)934,t_array(t_address)dyn_storage)":{"encoding":"mapping","key":"t_enum(Country)934","label":"mapping(enum WorldCupV2.Country => address[])","numberOfBytes":"32","value":"t_array(t_address)dyn_storage"},"t_mapping(t_enum(Country)934,t_uint256)":{"encoding":"mapping","key":"t_enum(Country)934","label":"mapping(enum WorldCupV2.Country => uint256)","numberOfBytes":"32","value":"t_uint256"},"t_mapping(t_uint8,t_mapping(t_address,t_struct(Player)981_storage))":{"encoding":"mapping","key":"t_uint8","label":"mapping(uint8 => mapping(address => struct WorldCupV2.Player))","numberOfBytes":"32","value":"t_mapping(t_address,t_struct(Player)981_storage)"},"t_mapping(t_uint8,t_mapping(t_enum(Country)934,t_array(t_address)dyn_storage))":{"encoding":"mapping","key":"t_uint8","label":"mapping(uint8 => mapping(enum WorldCupV2.Country => address[]))","numberOfBytes":"32","value":"t_mapping(t_enum(Country)934,t_array(t_address)dyn_storage)"},"t_struct(Player)981_storage":{"encoding":"inplace","label":"struct WorldCupV2.Player","members":[{"astId":975,"contract":"contracts/upgrade/WorldCupV2.sol:WorldCupV2","label":"isSet","offset":0,"slot":"0","type":"t_bool"},{"astId":980,"contract":"contracts/upgrade/WorldCupV2.sol:WorldCupV2","label":"counts","offset":0,"slot":"1","type":"t_mapping(t_enum(Country)934,t_uint256)"}],"numberOfBytes":"64"},"t_uint256":{"encoding":"inplace","label":"uint256","numberOfBytes":"32"},"t_uint8":{"encoding":"inplace","label":"uint8","numberOfBytes":"1"}}}}}}