{
  "_format": "hh-sol-artifact-1",
  "contractName": "MerkleDistributor",
  "sourceName": "contracts/MerkleDistributor.sol",
  "abi": [
    {
      "inputs": [
        {
          "internalType": "address",
          "name": "token_",
          "type": "address"
        }
      ],
      "stateMutability": "nonpayable",
      "type": "constructor"
    },
    {
      "anonymous": false,
      "inputs": [
        {
          "indexed": false,
          "internalType": "uint256",
          "name": "index",
          "type": "uint256"
        },
        {
          "indexed": false,
          "internalType": "address",
          "name": "account",
          "type": "address"
        },
        {
          "indexed": false,
          "internalType": "uint256",
          "name": "amount",
          "type": "uint256"
        }
      ],
      "name": "Claimed",
      "type": "event"
    },
    {
      "anonymous": false,
      "inputs": [
        {
          "indexed": true,
          "internalType": "bytes32",
          "name": "merkleRoot",
          "type": "bytes32"
        },
        {
          "indexed": true,
          "internalType": "uint256",
          "name": "index",
          "type": "uint256"
        },
        {
          "indexed": false,
          "internalType": "uint256",
          "name": "amount",
          "type": "uint256"
        },
        {
          "indexed": false,
          "internalType": "uint256",
          "name": "settleBlockNumber",
          "type": "uint256"
        }
      ],
      "name": "SettleFlashLoan",
      "type": "event"
    },
    {
      "inputs": [
        {
          "internalType": "uint256",
          "name": "index",
          "type": "uint256"
        },
        {
          "internalType": "address",
          "name": "account",
          "type": "address"
        },
        {
          "internalType": "uint256",
          "name": "amount",
          "type": "uint256"
        },
        {
          "internalType": "bytes32[]",
          "name": "merkleProof",
          "type": "bytes32[]"
        }
      ],
      "name": "claim",
      "outputs": [],
      "stateMutability": "nonpayable",
      "type": "function"
    },
    {
      "inputs": [
        {
          "internalType": "address",
          "name": "to",
          "type": "address"
        }
      ],
      "name": "claimRestTokens",
      "outputs": [
        {
          "internalType": "bool",
          "name": "",
          "type": "bool"
        }
      ],
      "stateMutability": "nonpayable",
      "type": "function"
    },
    {
      "inputs": [
        {
          "internalType": "uint256",
          "name": "_index",
          "type": "uint256"
        },
        {
          "internalType": "uint256",
          "name": "_amount",
          "type": "uint256"
        },
        {
          "internalType": "uint256",
          "name": "_settleBlockNumber",
          "type": "uint256"
        },
        {
          "internalType": "bytes32",
          "name": "_merkleRoot",
          "type": "bytes32"
        }
      ],
      "name": "distributeReward",
      "outputs": [],
      "stateMutability": "nonpayable",
      "type": "function"
    },
    {
      "inputs": [
        {
          "internalType": "uint256",
          "name": "index",
          "type": "uint256"
        }
      ],
      "name": "isClaimed",
      "outputs": [
        {
          "internalType": "bool",
          "name": "",
          "type": "bool"
        }
      ],
      "stateMutability": "view",
      "type": "function"
    },
    {
      "inputs": [
        {
          "internalType": "uint256",
          "name": "",
          "type": "uint256"
        }
      ],
      "name": "merkleDistributors",
      "outputs": [
        {
          "internalType": "bytes32",
          "name": "merkleRoot",
          "type": "bytes32"
        },
        {
          "internalType": "uint256",
          "name": "index",
          "type": "uint256"
        },
        {
          "internalType": "uint256",
          "name": "amount",
          "type": "uint256"
        },
        {
          "internalType": "uint256",
          "name": "settleBlockNumber",
          "type": "uint256"
        }
      ],
      "stateMutability": "view",
      "type": "function"
    },
    {
      "inputs": [],
      "name": "merkleRoot",
      "outputs": [
        {
          "internalType": "bytes32",
          "name": "",
          "type": "bytes32"
        }
      ],
      "stateMutability": "view",
      "type": "function"
    },
    {
      "inputs": [],
      "name": "owner",
      "outputs": [
        {
          "internalType": "address",
          "name": "",
          "type": "address"
        }
      ],
      "stateMutability": "view",
      "type": "function"
    },
    {
      "inputs": [],
      "name": "token",
      "outputs": [
        {
          "internalType": "address",
          "name": "",
          "type": "address"
        }
      ],
      "stateMutability": "view",
      "type": "function"
    }
  ],
  "bytecode": "0x60a060405234801561001057600080fd5b50604051610df7380380610df783398101604081905261002f91610052565b6001600160a01b0316608052600380546001600160a01b03191633179055610082565b60006020828403121561006457600080fd5b81516001600160a01b038116811461007b57600080fd5b9392505050565b608051610d3e6100b96000396000818161016a01528181610242015281816106950152818161086701526109090152610d3e6000f3fe608060405234801561001057600080fd5b50600436106100885760003560e01c80638da5cb5b1161005b5780638da5cb5b146101045780639e34070f1461012f578063dd1eb0e314610152578063fc0c546a1461016557600080fd5b806316407e101461008d5780632e7ba6ef146100a25780632eb4a7ab146100b5578063797c3c59146100d1575b600080fd5b6100a061009b366004610b11565b61018c565b005b6100a06100b0366004610b5f565b61051f565b6100be60005481565b6040519081526020015b60405180910390f35b6100e46100df366004610bf6565b6107ba565b6040805194855260208501939093529183015260608201526080016100c8565b600354610117906001600160a01b031681565b6040516001600160a01b0390911681526020016100c8565b61014261013d366004610bf6565b6107f4565b60405190151581526020016100c8565b610142610160366004610c0f565b610835565b6101177f000000000000000000000000000000000000000000000000000000000000000081565b6003546001600160a01b031633146101dd5760405162461bcd60e51b815260206004820152600f60248201526e6e6f7420617574686f72697a65642160881b60448201526064015b60405180910390fd5b6000819055600154841461022a5760405162461bcd60e51b8152602060048201526014602482015273696e64657820616c72656164792065786973747360601b60448201526064016101d4565b6040516370a0823160e01b81523060048201526000907f00000000000000000000000000000000000000000000000000000000000000006001600160a01b0316906370a082319060240160206040518083038186803b15801561028c57600080fd5b505afa1580156102a0573d6000803e3d6000fd5b505050506040513d601f19601f820116820180604052508101906102c49190610c31565b9050838110156103165760405162461bcd60e51b815260206004820152601960248201527f496e73756666696369656e74207265776172642066756e64730000000000000060448201526064016101d4565b824310156103555760405162461bcd60e51b815260206004820152600c60248201526b10b13637b1b5a73ab6b132b960a11b60448201526064016101d4565b6001541561040d576001805460009190610370908290610c60565b8154811061038057610380610c77565b906000526020600020906004020160405180608001604052908160008201548152602001600182015481526020016002820154815260200160038201548152505090508381606001511061040b5760405162461bcd60e51b815260206004820152601260248201527110b9b2ba3a3632a13637b1b5a73ab6b132b960711b60448201526064016101d4565b505b6040805160808101825283815260208082018881528284018881526060840188815260018054808201825560009190915294517fb10e2d527612073b26eecdfd717e6a320cf44b4afac2b0732d9fcbe2b7fa0cf660049096029586015591517fb10e2d527612073b26eecdfd717e6a320cf44b4afac2b0732d9fcbe2b7fa0cf7850155517fb10e2d527612073b26eecdfd717e6a320cf44b4afac2b0732d9fcbe2b7fa0cf8840155517fb10e2d527612073b26eecdfd717e6a320cf44b4afac2b0732d9fcbe2b7fa0cf9909201919091558151868152908101859052869184917fe7a8bdf489e802f677c2747827a2d0b3191801277aa3df5e3c6c7d132e0be94d910160405180910390a35050505050565b610528856107f4565b156105865760405162461bcd60e51b815260206004820152602860248201527f4d65726b6c654469737472696275746f723a2044726f7020616c72656164792060448201526731b630b4b6b2b21760c11b60648201526084016101d4565b60408051602081018790526bffffffffffffffffffffffff19606087901b1691810191909152605481018490526000906074016040516020818303038152906040528051906020012090506106108383808060200260200160405190810160405280939291908181526020018383602002808284376000920182905250549250859150610a249050565b6106665760405162461bcd60e51b815260206004820152602160248201527f4d65726b6c654469737472696275746f723a20496e76616c69642070726f6f666044820152601760f91b60648201526084016101d4565b61066f86610ad3565b60405163a9059cbb60e01b81526001600160a01b038681166004830152602482018690527f0000000000000000000000000000000000000000000000000000000000000000169063a9059cbb90604401602060405180830381600087803b1580156106d957600080fd5b505af11580156106ed573d6000803e3d6000fd5b505050506040513d601f19601f820116820180604052508101906107119190610c8d565b6107695760405162461bcd60e51b815260206004820152602360248201527f4d65726b6c654469737472696275746f723a205472616e73666572206661696c60448201526232b21760e91b60648201526084016101d4565b604080518781526001600160a01b03871660208201529081018590527f4ec90e965519d92681267467f775ada5bd214aa92c0dc93d90a5e880ce9ed0269060600160405180910390a1505050505050565b600181815481106107ca57600080fd5b60009182526020909120600490910201805460018201546002830154600390930154919350919084565b60008061080361010084610cc5565b9050600061081361010085610cd9565b60009283526002602052604090922054600190921b9182169091149392505050565b6003546000906001600160a01b0316331461084f57600080fd5b6040516370a0823160e01b81523060048201526000907f00000000000000000000000000000000000000000000000000000000000000006001600160a01b0316906370a082319060240160206040518083038186803b1580156108b157600080fd5b505afa1580156108c5573d6000803e3d6000fd5b505050506040513d601f19601f820116820180604052508101906108e99190610c31565b10156108f457600080fd5b6040516370a0823160e01b81523060048201527f00000000000000000000000000000000000000000000000000000000000000006001600160a01b03169063a9059cbb90849083906370a082319060240160206040518083038186803b15801561095d57600080fd5b505afa158015610971573d6000803e3d6000fd5b505050506040513d601f19601f820116820180604052508101906109959190610c31565b6040516001600160e01b031960e085901b1681526001600160a01b0390921660048301526024820152604401602060405180830381600087803b1580156109db57600080fd5b505af11580156109ef573d6000803e3d6000fd5b505050506040513d601f19601f82011682018060405250810190610a139190610c8d565b610a1c57600080fd5b506001919050565b600081815b8551811015610ac8576000868281518110610a4657610a46610c77565b60200260200101519050808311610a88576040805160208101859052908101829052606001604051602081830303815290604052805190602001209250610ab5565b60408051602081018390529081018490526060016040516020818303038152906040528051906020012092505b5080610ac081610ced565b915050610a29565b509092149392505050565b6000610ae161010083610cc5565b90506000610af161010084610cd9565b6000928352600260205260409092208054600190931b9092179091555050565b60008060008060808587031215610b2757600080fd5b5050823594602084013594506040840135936060013592509050565b80356001600160a01b0381168114610b5a57600080fd5b919050565b600080600080600060808688031215610b7757600080fd5b85359450610b8760208701610b43565b935060408601359250606086013567ffffffffffffffff80821115610bab57600080fd5b818801915088601f830112610bbf57600080fd5b813581811115610bce57600080fd5b8960208260051b8501011115610be357600080fd5b9699959850939650602001949392505050565b600060208284031215610c0857600080fd5b5035919050565b600060208284031215610c2157600080fd5b610c2a82610b43565b9392505050565b600060208284031215610c4357600080fd5b5051919050565b634e487b7160e01b600052601160045260246000fd5b600082821015610c7257610c72610c4a565b500390565b634e487b7160e01b600052603260045260246000fd5b600060208284031215610c9f57600080fd5b81518015158114610c2a57600080fd5b634e487b7160e01b600052601260045260246000fd5b600082610cd457610cd4610caf565b500490565b600082610ce857610ce8610caf565b500690565b6000600019821415610d0157610d01610c4a565b506001019056fea264697066735822122065c424a974404cb39ff908492c184fea547144feb9f3abe3cad2ee780c63d3e164736f6c63430008090033",
  "linkReferences": {},
  "deployedLinkReferences": {}
}