{"contracts/Test.sol":{"Test":{"abi":[{"inputs":[],"stateMutability":"nonpayable","type":"constructor"},{"anonymous":false,"inputs":[{"indexed":false,"internalType":"address","name":"to","type":"address"},{"indexed":false,"internalType":"uint256","name":"value","type":"uint256"}],"name":"TransferTo","type":"event"},{"inputs":[{"internalType":"address","name":"_owner","type":"address"}],"name":"BalanceOf","outputs":[{"internalType":"uint256","name":"","type":"uint256"}],"stateMutability":"view","type":"function"},{"inputs":[{"internalType":"address","name":"_to","type":"address"},{"internalType":"uint256","name":"_value","type":"uint256"}],"name":"transferTo","outputs":[],"stateMutability":"nonpayable","type":"function"}],"evm":{"bytecode":{"linkReferences":{},"object":"6080604052670de0b6b3a764000060005534801561001c57600080fd5b50600054600160003373ffffffffffffffffffffffffffffffffffffffff1673ffffffffffffffffffffffffffffffffffffffff16815260200190815260200160002081905550610410806100726000396000f3fe608060405234801561001057600080fd5b50600436106100365760003560e01c80632ccb1b301461003b578063d996788914610057575b600080fd5b61005560048036038101906100509190610252565b610087565b005b610071600480360381019061006c9190610292565b610170565b60405161007e91906102ce565b60405180910390f35b80600160003373ffffffffffffffffffffffffffffffffffffffff1673ffffffffffffffffffffffffffffffffffffffff16815260200190815260200160002060008282546100d69190610318565b9250508190555080600160008473ffffffffffffffffffffffffffffffffffffffff1673ffffffffffffffffffffffffffffffffffffffff168152602001908152602001600020600082825461012c919061034c565b925050819055507f845850991963cc258a0464dadcae66e59e72e9883beb28e5ea89a547df58eaff82826040516101649291906103b1565b60405180910390a15050565b6000600160008373ffffffffffffffffffffffffffffffffffffffff1673ffffffffffffffffffffffffffffffffffffffff168152602001908152602001600020549050919050565b600080fd5b600073ffffffffffffffffffffffffffffffffffffffff82169050919050565b60006101e9826101be565b9050919050565b6101f9816101de565b811461020457600080fd5b50565b600081359050610216816101f0565b92915050565b6000819050919050565b61022f8161021c565b811461023a57600080fd5b50565b60008135905061024c81610226565b92915050565b60008060408385031215610269576102686101b9565b5b600061027785828601610207565b92505060206102888582860161023d565b9150509250929050565b6000602082840312156102a8576102a76101b9565b5b60006102b684828501610207565b91505092915050565b6102c88161021c565b82525050565b60006020820190506102e360008301846102bf565b92915050565b7f4e487b7100000000000000000000000000000000000000000000000000000000600052601160045260246000fd5b60006103238261021c565b915061032e8361021c565b925082821015610341576103406102e9565b5b828203905092915050565b60006103578261021c565b91506103628361021c565b9250827fffffffffffffffffffffffffffffffffffffffffffffffffffffffffffffffff03821115610397576103966102e9565b5b828201905092915050565b6103ab816101de565b82525050565b60006040820190506103c660008301856103a2565b6103d360208301846102bf565b939250505056fea26469706673582212204a4ee56b6a2d163a39ee10ec4f6f6c17c152e7382274e84bdc2557dde4424fa864736f6c63430008090033","opcodes":"PUSH1 0x80 PUSH1 0x40 MSTORE PUSH8 0xDE0B6B3A7640000 PUSH1 0x0 SSTORE CALLVALUE DUP1 ISZERO PUSH2 0x1C JUMPI PUSH1 0x0 DUP1 REVERT JUMPDEST POP PUSH1 0x0 SLOAD PUSH1 0x1 PUSH1 0x0 CALLER PUSH20 0xFFFFFFFFFFFFFFFFFFFFFFFFFFFFFFFFFFFFFFFF AND PUSH20 0xFFFFFFFFFFFFFFFFFFFFFFFFFFFFFFFFFFFFFFFF AND DUP2 MSTORE PUSH1 0x20 ADD SWAP1 DUP2 MSTORE PUSH1 0x20 ADD PUSH1 0x0 KECCAK256 DUP2 SWAP1 SSTORE POP PUSH2 0x410 DUP1 PUSH2 0x72 PUSH1 0x0 CODECOPY PUSH1 0x0 RETURN INVALID PUSH1 0x80 PUSH1 0x40 MSTORE CALLVALUE DUP1 ISZERO PUSH2 0x10 JUMPI PUSH1 0x0 DUP1 REVERT JUMPDEST POP PUSH1 0x4 CALLDATASIZE LT PUSH2 0x36 JUMPI PUSH1 0x0 CALLDATALOAD PUSH1 0xE0 SHR DUP1 PUSH4 0x2CCB1B30 EQ PUSH2 0x3B JUMPI DUP1 PUSH4 0xD9967889 EQ PUSH2 0x57 JUMPI JUMPDEST PUSH1 0x0 DUP1 REVERT JUMPDEST PUSH2 0x55 PUSH1 0x4 DUP1 CALLDATASIZE SUB DUP2 ADD SWAP1 PUSH2 0x50 SWAP2 SWAP1 PUSH2 0x252 JUMP JUMPDEST PUSH2 0x87 JUMP JUMPDEST STOP JUMPDEST PUSH2 0x71 PUSH1 0x4 DUP1 CALLDATASIZE SUB DUP2 ADD SWAP1 PUSH2 0x6C SWAP2 SWAP1 PUSH2 0x292 JUMP JUMPDEST PUSH2 0x170 JUMP JUMPDEST PUSH1 0x40 MLOAD PUSH2 0x7E SWAP2 SWAP1 PUSH2 0x2CE JUMP JUMPDEST PUSH1 0x40 MLOAD DUP1 SWAP2 SUB SWAP1 RETURN JUMPDEST DUP1 PUSH1 0x1 PUSH1 0x0 CALLER PUSH20 0xFFFFFFFFFFFFFFFFFFFFFFFFFFFFFFFFFFFFFFFF AND PUSH20 0xFFFFFFFFFFFFFFFFFFFFFFFFFFFFFFFFFFFFFFFF AND DUP2 MSTORE PUSH1 0x20 ADD SWAP1 DUP2 MSTORE PUSH1 0x20 ADD PUSH1 0x0 KECCAK256 PUSH1 0x0 DUP3 DUP3 SLOAD PUSH2 0xD6 SWAP2 SWAP1 PUSH2 0x318 JUMP JUMPDEST SWAP3 POP POP DUP2 SWAP1 SSTORE POP DUP1 PUSH1 0x1 PUSH1 0x0 DUP5 PUSH20 0xFFFFFFFFFFFFFFFFFFFFFFFFFFFFFFFFFFFFFFFF AND PUSH20 0xFFFFFFFFFFFFFFFFFFFFFFFFFFFFFFFFFFFFFFFF AND DUP2 MSTORE PUSH1 0x20 ADD SWAP1 DUP2 MSTORE PUSH1 0x20 ADD PUSH1 0x0 KECCAK256 PUSH1 0x0 DUP3 DUP3 SLOAD PUSH2 0x12C SWAP2 SWAP1 PUSH2 0x34C JUMP JUMPDEST SWAP3 POP POP DUP2 SWAP1 SSTORE POP PUSH32 0x845850991963CC258A0464DADCAE66E59E72E9883BEB28E5EA89A547DF58EAFF DUP3 DUP3 PUSH1 0x40 MLOAD PUSH2 0x164 SWAP3 SWAP2 SWAP1 PUSH2 0x3B1 JUMP JUMPDEST PUSH1 0x40 MLOAD DUP1 SWAP2 SUB SWAP1 LOG1 POP POP JUMP JUMPDEST PUSH1 0x0 PUSH1 0x1 PUSH1 0x0 DUP4 PUSH20 0xFFFFFFFFFFFFFFFFFFFFFFFFFFFFFFFFFFFFFFFF AND PUSH20 0xFFFFFFFFFFFFFFFFFFFFFFFFFFFFFFFFFFFFFFFF AND DUP2 MSTORE PUSH1 0x20 ADD SWAP1 DUP2 MSTORE PUSH1 0x20 ADD PUSH1 0x0 KECCAK256 SLOAD SWAP1 POP SWAP2 SWAP1 POP JUMP JUMPDEST PUSH1 0x0 DUP1 REVERT JUMPDEST PUSH1 0x0 PUSH20 0xFFFFFFFFFFFFFFFFFFFFFFFFFFFFFFFFFFFFFFFF DUP3 AND SWAP1 POP SWAP2 SWAP1 POP JUMP JUMPDEST PUSH1 0x0 PUSH2 0x1E9 DUP3 PUSH2 0x1BE JUMP JUMPDEST SWAP1 POP SWAP2 SWAP1 POP JUMP JUMPDEST PUSH2 0x1F9 DUP2 PUSH2 0x1DE JUMP JUMPDEST DUP2 EQ PUSH2 0x204 JUMPI PUSH1 0x0 DUP1 REVERT JUMPDEST POP JUMP JUMPDEST PUSH1 0x0 DUP2 CALLDATALOAD SWAP1 POP PUSH2 0x216 DUP2 PUSH2 0x1F0 JUMP JUMPDEST SWAP3 SWAP2 POP POP JUMP JUMPDEST PUSH1 0x0 DUP2 SWAP1 POP SWAP2 SWAP1 POP JUMP JUMPDEST PUSH2 0x22F DUP2 PUSH2 0x21C JUMP JUMPDEST DUP2 EQ PUSH2 0x23A JUMPI PUSH1 0x0 DUP1 REVERT JUMPDEST POP JUMP JUMPDEST PUSH1 0x0 DUP2 CALLDATALOAD SWAP1 POP PUSH2 0x24C DUP2 PUSH2 0x226 JUMP JUMPDEST SWAP3 SWAP2 POP POP JUMP JUMPDEST PUSH1 0x0 DUP1 PUSH1 0x40 DUP4 DUP6 SUB SLT ISZERO PUSH2 0x269 JUMPI PUSH2 0x268 PUSH2 0x1B9 JUMP JUMPDEST JUMPDEST PUSH1 0x0 PUSH2 0x277 DUP6 DUP3 DUP7 ADD PUSH2 0x207 JUMP JUMPDEST SWAP3 POP POP PUSH1 0x20 PUSH2 0x288 DUP6 DUP3 DUP7 ADD PUSH2 0x23D JUMP JUMPDEST SWAP2 POP POP SWAP3 POP SWAP3 SWAP1 POP JUMP JUMPDEST PUSH1 0x0 PUSH1 0x20 DUP3 DUP5 SUB SLT ISZERO PUSH2 0x2A8 JUMPI PUSH2 0x2A7 PUSH2 0x1B9 JUMP JUMPDEST JUMPDEST PUSH1 0x0 PUSH2 0x2B6 DUP5 DUP3 DUP6 ADD PUSH2 0x207 JUMP JUMPDEST SWAP2 POP POP SWAP3 SWAP2 POP POP JUMP JUMPDEST PUSH2 0x2C8 DUP2 PUSH2 0x21C JUMP JUMPDEST DUP3 MSTORE POP POP JUMP JUMPDEST PUSH1 0x0 PUSH1 0x20 DUP3 ADD SWAP1 POP PUSH2 0x2E3 PUSH1 0x0 DUP4 ADD DUP5 PUSH2 0x2BF JUMP JUMPDEST SWAP3 SWAP2 POP POP JUMP JUMPDEST PUSH32 0x4E487B7100000000000000000000000000000000000000000000000000000000 PUSH1 0x0 MSTORE PUSH1 0x11 PUSH1 0x4 MSTORE PUSH1 0x24 PUSH1 0x0 REVERT JUMPDEST PUSH1 0x0 PUSH2 0x323 DUP3 PUSH2 0x21C JUMP JUMPDEST SWAP2 POP PUSH2 0x32E DUP4 PUSH2 0x21C JUMP JUMPDEST SWAP3 POP DUP3 DUP3 LT ISZERO PUSH2 0x341 JUMPI PUSH2 0x340 PUSH2 0x2E9 JUMP JUMPDEST JUMPDEST DUP3 DUP3 SUB SWAP1 POP SWAP3 SWAP2 POP POP JUMP JUMPDEST PUSH1 0x0 PUSH2 0x357 DUP3 PUSH2 0x21C JUMP JUMPDEST SWAP2 POP PUSH2 0x362 DUP4 PUSH2 0x21C JUMP JUMPDEST SWAP3 POP DUP3 PUSH32 0xFFFFFFFFFFFFFFFFFFFFFFFFFFFFFFFFFFFFFFFFFFFFFFFFFFFFFFFFFFFFFFFF SUB DUP3 GT ISZERO PUSH2 0x397 JUMPI PUSH2 0x396 PUSH2 0x2E9 JUMP JUMPDEST JUMPDEST DUP3 DUP3 ADD SWAP1 POP SWAP3 SWAP2 POP POP JUMP JUMPDEST PUSH2 0x3AB DUP2 PUSH2 0x1DE JUMP JUMPDEST DUP3 MSTORE POP POP JUMP JUMPDEST PUSH1 0x0 PUSH1 0x40 DUP3 ADD SWAP1 POP PUSH2 0x3C6 PUSH1 0x0 DUP4 ADD DUP6 PUSH2 0x3A2 JUMP JUMPDEST PUSH2 0x3D3 PUSH1 0x20 DUP4 ADD DUP5 PUSH2 0x2BF JUMP JUMPDEST SWAP4 SWAP3 POP POP POP JUMP INVALID LOG2 PUSH5 0x6970667358 0x22 SLT KECCAK256 0x4A 0x4E 0xE5 PUSH12 0x6A2D163A39EE10EC4F6F6C17 0xC1 MSTORE 0xE7 CODESIZE 0x22 PUSH21 0xE84BDC2557DDE4424FA864736F6C63430008090033 "},"methodIdentifiers":{"BalanceOf(address)":"d9967889","transferTo(address,uint256)":"2ccb1b30"}}}}}