{
  "_format": "hh-sol-artifact-1",
  "contractName": "VerifySignature",
  "sourceName": "contracts/verifySignature.sol",
  "abi": [
    {
      "inputs": [
        {
          "internalType": "bytes32",
          "name": "_messageHash",
          "type": "bytes32"
        }
      ],
      "name": "getEthSignedMessageHash",
      "outputs": [
        {
          "internalType": "bytes32",
          "name": "",
          "type": "bytes32"
        }
      ],
      "stateMutability": "pure",
      "type": "function"
    },
    {
      "inputs": [
        {
          "internalType": "address",
          "name": "_to",
          "type": "address"
        },
        {
          "internalType": "uint256",
          "name": "_amount",
          "type": "uint256"
        }
      ],
      "name": "getMessageHash",
      "outputs": [
        {
          "internalType": "bytes32",
          "name": "",
          "type": "bytes32"
        }
      ],
      "stateMutability": "pure",
      "type": "function"
    },
    {
      "inputs": [
        {
          "internalType": "bytes32",
          "name": "_ethSignedMessageHash",
          "type": "bytes32"
        },
        {
          "internalType": "bytes",
          "name": "_signature",
          "type": "bytes"
        }
      ],
      "name": "recoverSigner",
      "outputs": [
        {
          "internalType": "address",
          "name": "",
          "type": "address"
        }
      ],
      "stateMutability": "pure",
      "type": "function"
    },
    {
      "inputs": [
        {
          "internalType": "bytes",
          "name": "sig",
          "type": "bytes"
        }
      ],
      "name": "splitSignature",
      "outputs": [
        {
          "internalType": "bytes32",
          "name": "r",
          "type": "bytes32"
        },
        {
          "internalType": "bytes32",
          "name": "s",
          "type": "bytes32"
        },
        {
          "internalType": "uint8",
          "name": "v",
          "type": "uint8"
        }
      ],
      "stateMutability": "pure",
      "type": "function"
    },
    {
      "inputs": [
        {
          "internalType": "bytes32",
          "name": "_msgHash",
          "type": "bytes32"
        },
        {
          "internalType": "bytes",
          "name": "_signature",
          "type": "bytes"
        },
        {
          "internalType": "address",
          "name": "_signer",
          "type": "address"
        }
      ],
      "name": "verify",
      "outputs": [
        {
          "internalType": "bool",
          "name": "",
          "type": "bool"
        }
      ],
      "stateMutability": "pure",
      "type": "function"
    }
  ],
  "bytecode": "0x608060405234801561001057600080fd5b506104d6806100206000396000f3fe608060405234801561001057600080fd5b50600436106100575760003560e01c8063512c91df1461005c578063823ac373146100c457806397aba7f9146100e7578063a7bb580314610112578063fa54080114610143575b600080fd5b6100b161006a3660046102df565b6040516bffffffffffffffffffffffff19606084901b1660208201526034810182905260009060540160405160208183030381529060405280519060200120905092915050565b6040519081526020015b60405180910390f35b6100d76100d23660046103ac565b6101a4565b60405190151581526020016100bb565b6100fa6100f5366004610403565b6101cc565b6040516001600160a01b0390911681526020016100bb565b61012561012036600461044a565b61024b565b60408051938452602084019290925260ff16908201526060016100bb565b6100b1610151366004610487565b6040517f19457468657265756d205369676e6564204d6573736167653a0a3332000000006020820152603c8101829052600090605c01604051602081830303815290604052805190602001209050919050565b6000816001600160a01b03166101ba85856101cc565b6001600160a01b031614949350505050565b6000806000806101db8561024b565b6040805160008152602081018083528b905260ff8316918101919091526060810184905260808101839052929550909350915060019060a0016020604051602081039080840390855afa158015610236573d6000803e3d6000fd5b5050604051601f190151979650505050505050565b600080600083516041146102a55760405162461bcd60e51b815260206004820152601860248201527f696e76616c6964207369676e6174757265206c656e6774680000000000000000604482015260640160405180910390fd5b50505060208101516040820151606090920151909260009190911a90565b80356001600160a01b03811681146102da57600080fd5b919050565b600080604083850312156102f257600080fd5b6102fb836102c3565b946020939093013593505050565b634e487b7160e01b600052604160045260246000fd5b600082601f83011261033057600080fd5b813567ffffffffffffffff8082111561034b5761034b610309565b604051601f8301601f19908116603f0116810190828211818310171561037357610373610309565b8160405283815286602085880101111561038c57600080fd5b836020870160208301376000602085830101528094505050505092915050565b6000806000606084860312156103c157600080fd5b83359250602084013567ffffffffffffffff8111156103df57600080fd5b6103eb8682870161031f565b9250506103fa604085016102c3565b90509250925092565b6000806040838503121561041657600080fd5b82359150602083013567ffffffffffffffff81111561043457600080fd5b6104408582860161031f565b9150509250929050565b60006020828403121561045c57600080fd5b813567ffffffffffffffff81111561047357600080fd5b61047f8482850161031f565b949350505050565b60006020828403121561049957600080fd5b503591905056fea264697066735822122000cdcb9785e7c1d4135de9e38febaa8a6e6e823bcfa52e1d5b0275ea1299a8d864736f6c63430008090033",
  "linkReferences": {},
  "deployedLinkReferences": {}
}